{
  "address": "0x3533EDD113C53178D66Ec927Bf7e48f9fC85F4b3",
  "abi": [
    {
      "inputs": [
        {
          "internalType": "address",
          "name": "_collateralManager",
          "type": "address"
        },
        {
          "internalType": "address",
          "name": "initialOwner",
          "type": "address"
        }
      ],
      "stateMutability": "nonpayable",
      "type": "constructor"
    },
    {
      "inputs": [
        {
          "internalType": "address",
          "name": "owner",
          "type": "address"
        }
      ],
      "name": "OwnableInvalidOwner",
      "type": "error"
    },
    {
      "inputs": [
        {
          "internalType": "address",
          "name": "account",
          "type": "address"
        }
      ],
      "name": "OwnableUnauthorizedAccount",
      "type": "error"
    },
    {
      "inputs": [],
      "name": "ReentrancyGuardReentrantCall",
      "type": "error"
    },
    {
      "inputs": [
        {
          "internalType": "address",
          "name": "token",
          "type": "address"
        }
      ],
      "name": "SafeERC20FailedOperation",
      "type": "error"
    },
    {
      "anonymous": false,
      "inputs": [
        {
          "indexed": true,
          "internalType": "address",
          "name": "user",
          "type": "address"
        },
        {
          "indexed": false,
          "internalType": "address",
          "name": "token",
          "type": "address"
        },
        {
          "indexed": false,
          "internalType": "uint256",
          "name": "amount",
          "type": "uint256"
        }
      ],
      "name": "DepositedToPool",
      "type": "event"
    },
    {
      "anonymous": false,
      "inputs": [
        {
          "indexed": true,
          "internalType": "address",
          "name": "user",
          "type": "address"
        },
        {
          "indexed": false,
          "internalType": "address",
          "name": "token",
          "type": "address"
        },
        {
          "indexed": false,
          "internalType": "uint256",
          "name": "repayAmount",
          "type": "uint256"
        },
        {
          "indexed": false,
          "internalType": "uint256",
          "name": "remainingDebt",
          "type": "uint256"
        }
      ],
      "name": "LoanRepaid",
      "type": "event"
    },
    {
      "anonymous": false,
      "inputs": [
        {
          "indexed": true,
          "internalType": "address",
          "name": "payer",
          "type": "address"
        },
        {
          "indexed": true,
          "internalType": "address",
          "name": "borrower",
          "type": "address"
        },
        {
          "indexed": false,
          "internalType": "address",
          "name": "token",
          "type": "address"
        },
        {
          "indexed": false,
          "internalType": "uint256",
          "name": "paid",
          "type": "uint256"
        }
      ],
      "name": "LoanRepaidFor",
      "type": "event"
    },
    {
      "anonymous": false,
      "inputs": [
        {
          "indexed": true,
          "internalType": "address",
          "name": "user",
          "type": "address"
        },
        {
          "indexed": false,
          "internalType": "address",
          "name": "token",
          "type": "address"
        },
        {
          "indexed": false,
          "internalType": "uint256",
          "name": "principal",
          "type": "uint256"
        },
        {
          "indexed": false,
          "internalType": "uint256",
          "name": "rateBps",
          "type": "uint256"
        }
      ],
      "name": "LoanRequested",
      "type": "event"
    },
    {
      "anonymous": false,
      "inputs": [
        {
          "indexed": true,
          "internalType": "address",
          "name": "previousOwner",
          "type": "address"
        },
        {
          "indexed": true,
          "internalType": "address",
          "name": "newOwner",
          "type": "address"
        }
      ],
      "name": "OwnershipTransferred",
      "type": "event"
    },
    {
      "anonymous": false,
      "inputs": [
        {
          "indexed": true,
          "internalType": "address",
          "name": "user",
          "type": "address"
        },
        {
          "indexed": false,
          "internalType": "uint256",
          "name": "amount",
          "type": "uint256"
        }
      ],
      "name": "RewardDistributed",
      "type": "event"
    },
    {
      "anonymous": false,
      "inputs": [
        {
          "indexed": true,
          "internalType": "address",
          "name": "distributor",
          "type": "address"
        }
      ],
      "name": "RewardsDistributorUpdated",
      "type": "event"
    },
    {
      "anonymous": false,
      "inputs": [
        {
          "indexed": false,
          "internalType": "address",
          "name": "token",
          "type": "address"
        },
        {
          "indexed": false,
          "internalType": "uint256",
          "name": "borrowRateBps",
          "type": "uint256"
        },
        {
          "indexed": false,
          "internalType": "uint256",
          "name": "lendRateBps",
          "type": "uint256"
        }
      ],
      "name": "TokenSupported",
      "type": "event"
    },
    {
      "anonymous": false,
      "inputs": [
        {
          "indexed": true,
          "internalType": "address",
          "name": "user",
          "type": "address"
        },
        {
          "indexed": false,
          "internalType": "address",
          "name": "token",
          "type": "address"
        },
        {
          "indexed": false,
          "internalType": "uint256",
          "name": "principalOut",
          "type": "uint256"
        },
        {
          "indexed": false,
          "internalType": "uint256",
          "name": "interestOut",
          "type": "uint256"
        },
        {
          "indexed": false,
          "internalType": "uint256",
          "name": "totalOut",
          "type": "uint256"
        }
      ],
      "name": "Withdrawn",
      "type": "event"
    },
    {
      "inputs": [
        {
          "internalType": "uint256",
          "name": "",
          "type": "uint256"
        }
      ],
      "name": "activeBorrowers",
      "outputs": [
        {
          "internalType": "address",
          "name": "",
          "type": "address"
        }
      ],
      "stateMutability": "view",
      "type": "function"
    },
    {
      "inputs": [
        {
          "internalType": "address",
          "name": "user",
          "type": "address"
        }
      ],
      "name": "calculateInterest",
      "outputs": [
        {
          "internalType": "uint256",
          "name": "",
          "type": "uint256"
        }
      ],
      "stateMutability": "view",
      "type": "function"
    },
    {
      "inputs": [
        {
          "internalType": "address",
          "name": "user",
          "type": "address"
        },
        {
          "internalType": "address",
          "name": "token",
          "type": "address"
        }
      ],
      "name": "calculateLenderReward",
      "outputs": [
        {
          "internalType": "uint256",
          "name": "",
          "type": "uint256"
        }
      ],
      "stateMutability": "view",
      "type": "function"
    },
    {
      "inputs": [],
      "name": "claimRewards",
      "outputs": [],
      "stateMutability": "nonpayable",
      "type": "function"
    },
    {
      "inputs": [],
      "name": "collateralManager",
      "outputs": [
        {
          "internalType": "contract ICollateralManager",
          "name": "",
          "type": "address"
        }
      ],
      "stateMutability": "view",
      "type": "function"
    },
    {
      "inputs": [
        {
          "internalType": "address",
          "name": "token",
          "type": "address"
        },
        {
          "internalType": "uint256",
          "name": "amount",
          "type": "uint256"
        }
      ],
      "name": "depositToPool",
      "outputs": [],
      "stateMutability": "nonpayable",
      "type": "function"
    },
    {
      "inputs": [],
      "name": "getActiveBorrowerCount",
      "outputs": [
        {
          "internalType": "uint256",
          "name": "",
          "type": "uint256"
        }
      ],
      "stateMutability": "view",
      "type": "function"
    },
    {
      "inputs": [],
      "name": "getActiveBorrowers",
      "outputs": [
        {
          "internalType": "address[]",
          "name": "",
          "type": "address[]"
        }
      ],
      "stateMutability": "view",
      "type": "function"
    },
    {
      "inputs": [
        {
          "internalType": "address",
          "name": "token",
          "type": "address"
        }
      ],
      "name": "getAvailableLiquidity",
      "outputs": [
        {
          "internalType": "uint256",
          "name": "",
          "type": "uint256"
        }
      ],
      "stateMutability": "view",
      "type": "function"
    },
    {
      "inputs": [
        {
          "internalType": "address",
          "name": "user",
          "type": "address"
        }
      ],
      "name": "getLoanToken",
      "outputs": [
        {
          "internalType": "address",
          "name": "",
          "type": "address"
        }
      ],
      "stateMutability": "view",
      "type": "function"
    },
    {
      "inputs": [
        {
          "internalType": "address",
          "name": "user",
          "type": "address"
        }
      ],
      "name": "getOutstandingLoan",
      "outputs": [
        {
          "internalType": "uint256",
          "name": "",
          "type": "uint256"
        }
      ],
      "stateMutability": "view",
      "type": "function"
    },
    {
      "inputs": [
        {
          "internalType": "address",
          "name": "user",
          "type": "address"
        }
      ],
      "name": "getOutstandingLoanUSD",
      "outputs": [
        {
          "internalType": "uint256",
          "name": "",
          "type": "uint256"
        }
      ],
      "stateMutability": "view",
      "type": "function"
    },
    {
      "inputs": [
        {
          "internalType": "address",
          "name": "",
          "type": "address"
        }
      ],
      "name": "isBorrower",
      "outputs": [
        {
          "internalType": "bool",
          "name": "",
          "type": "bool"
        }
      ],
      "stateMutability": "view",
      "type": "function"
    },
    {
      "inputs": [
        {
          "internalType": "address",
          "name": "",
          "type": "address"
        }
      ],
      "name": "isSupportedToken",
      "outputs": [
        {
          "internalType": "bool",
          "name": "",
          "type": "bool"
        }
      ],
      "stateMutability": "view",
      "type": "function"
    },
    {
      "inputs": [
        {
          "internalType": "address",
          "name": "",
          "type": "address"
        },
        {
          "internalType": "address",
          "name": "",
          "type": "address"
        }
      ],
      "name": "lenders",
      "outputs": [
        {
          "internalType": "uint256",
          "name": "deposited",
          "type": "uint256"
        },
        {
          "internalType": "uint256",
          "name": "depositTime",
          "type": "uint256"
        },
        {
          "internalType": "uint256",
          "name": "rewardClaimed",
          "type": "uint256"
        }
      ],
      "stateMutability": "view",
      "type": "function"
    },
    {
      "inputs": [
        {
          "internalType": "address",
          "name": "",
          "type": "address"
        }
      ],
      "name": "loans",
      "outputs": [
        {
          "internalType": "address",
          "name": "token",
          "type": "address"
        },
        {
          "internalType": "uint256",
          "name": "principal",
          "type": "uint256"
        },
        {
          "internalType": "uint256",
          "name": "rate",
          "type": "uint256"
        },
        {
          "internalType": "uint256",
          "name": "totalInterest",
          "type": "uint256"
        },
        {
          "internalType": "uint256",
          "name": "createdAt",
          "type": "uint256"
        },
        {
          "internalType": "uint256",
          "name": "duration",
          "type": "uint256"
        },
        {
          "internalType": "bool",
          "name": "active",
          "type": "bool"
        }
      ],
      "stateMutability": "view",
      "type": "function"
    },
    {
      "inputs": [],
      "name": "owner",
      "outputs": [
        {
          "internalType": "address",
          "name": "",
          "type": "address"
        }
      ],
      "stateMutability": "view",
      "type": "function"
    },
    {
      "inputs": [],
      "name": "priceOracle",
      "outputs": [
        {
          "internalType": "contract IPriceOracle",
          "name": "",
          "type": "address"
        }
      ],
      "stateMutability": "view",
      "type": "function"
    },
    {
      "inputs": [
        {
          "internalType": "address",
          "name": "",
          "type": "address"
        }
      ],
      "name": "protocolProfit",
      "outputs": [
        {
          "internalType": "uint256",
          "name": "",
          "type": "uint256"
        }
      ],
      "stateMutability": "view",
      "type": "function"
    },
    {
      "inputs": [
        {
          "internalType": "address",
          "name": "",
          "type": "address"
        }
      ],
      "name": "ratesByToken",
      "outputs": [
        {
          "internalType": "uint256",
          "name": "borrowRate",
          "type": "uint256"
        },
        {
          "internalType": "uint256",
          "name": "lendRate",
          "type": "uint256"
        }
      ],
      "stateMutability": "view",
      "type": "function"
    },
    {
      "inputs": [],
      "name": "renounceOwnership",
      "outputs": [],
      "stateMutability": "nonpayable",
      "type": "function"
    },
    {
      "inputs": [
        {
          "internalType": "address",
          "name": "token",
          "type": "address"
        },
        {
          "internalType": "uint256",
          "name": "amount",
          "type": "uint256"
        }
      ],
      "name": "repay",
      "outputs": [],
      "stateMutability": "nonpayable",
      "type": "function"
    },
    {
      "inputs": [
        {
          "internalType": "address",
          "name": "token",
          "type": "address"
        }
      ],
      "name": "repayAll",
      "outputs": [],
      "stateMutability": "nonpayable",
      "type": "function"
    },
    {
      "inputs": [
        {
          "internalType": "address",
          "name": "borrower",
          "type": "address"
        },
        {
          "internalType": "address",
          "name": "token",
          "type": "address"
        },
        {
          "internalType": "uint256",
          "name": "amount",
          "type": "uint256"
        }
      ],
      "name": "repayFor",
      "outputs": [],
      "stateMutability": "nonpayable",
      "type": "function"
    },
    {
      "inputs": [
        {
          "internalType": "address",
          "name": "token",
          "type": "address"
        },
        {
          "internalType": "uint256",
          "name": "principal",
          "type": "uint256"
        },
        {
          "internalType": "uint256",
          "name": "duration",
          "type": "uint256"
        }
      ],
      "name": "requestLoan",
      "outputs": [],
      "stateMutability": "nonpayable",
      "type": "function"
    },
    {
      "inputs": [],
      "name": "rewardToken",
      "outputs": [
        {
          "internalType": "contract IERC20",
          "name": "",
          "type": "address"
        }
      ],
      "stateMutability": "view",
      "type": "function"
    },
    {
      "inputs": [],
      "name": "rewardsDistributor",
      "outputs": [
        {
          "internalType": "contract IRewardsDistributor",
          "name": "",
          "type": "address"
        }
      ],
      "stateMutability": "view",
      "type": "function"
    },
    {
      "inputs": [
        {
          "internalType": "address",
          "name": "_oracle",
          "type": "address"
        }
      ],
      "name": "setPriceOracle",
      "outputs": [],
      "stateMutability": "nonpayable",
      "type": "function"
    },
    {
      "inputs": [
        {
          "internalType": "address",
          "name": "token",
          "type": "address"
        }
      ],
      "name": "setRewardToken",
      "outputs": [],
      "stateMutability": "nonpayable",
      "type": "function"
    },
    {
      "inputs": [
        {
          "internalType": "address",
          "name": "distributor",
          "type": "address"
        }
      ],
      "name": "setRewardsDistributor",
      "outputs": [],
      "stateMutability": "nonpayable",
      "type": "function"
    },
    {
      "inputs": [
        {
          "internalType": "address",
          "name": "token",
          "type": "address"
        },
        {
          "internalType": "uint256",
          "name": "borrowRateBps",
          "type": "uint256"
        },
        {
          "internalType": "uint256",
          "name": "lendRateBps",
          "type": "uint256"
        }
      ],
      "name": "supportToken",
      "outputs": [],
      "stateMutability": "nonpayable",
      "type": "function"
    },
    {
      "inputs": [
        {
          "internalType": "address",
          "name": "newOwner",
          "type": "address"
        }
      ],
      "name": "transferOwnership",
      "outputs": [],
      "stateMutability": "nonpayable",
      "type": "function"
    },
    {
      "inputs": [
        {
          "internalType": "address",
          "name": "",
          "type": "address"
        }
      ],
      "name": "treasury",
      "outputs": [
        {
          "internalType": "uint256",
          "name": "totalDeposits",
          "type": "uint256"
        },
        {
          "internalType": "uint256",
          "name": "totalBorrows",
          "type": "uint256"
        },
        {
          "internalType": "uint256",
          "name": "totalRepayments",
          "type": "uint256"
        }
      ],
      "stateMutability": "view",
      "type": "function"
    },
    {
      "inputs": [
        {
          "internalType": "address",
          "name": "token",
          "type": "address"
        },
        {
          "internalType": "uint256",
          "name": "amount",
          "type": "uint256"
        }
      ],
      "name": "withdraw",
      "outputs": [],
      "stateMutability": "nonpayable",
      "type": "function"
    },
    {
      "inputs": [
        {
          "internalType": "address",
          "name": "token",
          "type": "address"
        }
      ],
      "name": "withdrawAll",
      "outputs": [],
      "stateMutability": "nonpayable",
      "type": "function"
    },
    {
      "inputs": [
        {
          "internalType": "address",
          "name": "token",
          "type": "address"
        },
        {
          "internalType": "uint256",
          "name": "amount",
          "type": "uint256"
        },
        {
          "internalType": "address",
          "name": "to",
          "type": "address"
        }
      ],
      "name": "withdrawProtocolProfit",
      "outputs": [],
      "stateMutability": "nonpayable",
      "type": "function"
    }
  ],
  "transactionHash": "0xc0196e6f360254b23919f5b9b21ab375320b41d913cbaa89c04a09eefeb19467",
  "args": [
    "0xe50f842f4B4E9d3ee5BF1c55F87B68B277Fb6bBc",
    "0x638A0e1469A0F6001F07586F509AdbD783F3E045"
  ],
  "numDeployments": 2,
  "solcInputHash": "eca07ce1c4db4a355f4867c8a493dba9",
  "bytecode": "0x608060405234801562000010575f80fd5b506040516200302438038062003024833981016040819052620000339162000104565b806001600160a01b0381166200006257604051631e4fbdf760e01b81525f600482015260240160405180910390fd5b6200006d8162000099565b505060018055600b80546001600160a01b0319166001600160a01b03929092169190911790556200013a565b5f80546001600160a01b038381166001600160a01b0319831681178455604051919092169283917f8be0079c531659141344cd1fd0a4f28419497f9722a3daafe3b4186f6b6457e09190a35050565b80516001600160a01b0381168114620000ff575f80fd5b919050565b5f806040838503121562000116575f80fd5b6200012183620000e8565b91506200013160208401620000e8565b90509250929050565b612edc80620001485f395ff3fe608060405234801561000f575f80fd5b506004361061024f575f3560e01c8063715018a61161013d578063c63ee4d0116100b8578063eaf6e48311610088578063f3fef3a31161006e578063f3fef3a31461062c578063f7c618c11461063f578063fa09e63014610652575f80fd5b8063eaf6e483146105f7578063f2fde38b14610619575f80fd5b8063c63ee4d0146105aa578063d1f5c33b146105b2578063d85bf034146105c5578063e11932cf146105e4575f80fd5b80638da5cb5b1161010d578063976ce495116100f3578063976ce495146105715780639eb7879814610584578063b2d16bc714610597575f80fd5b80638da5cb5b1461054c5780638f6596b11461055c575f80fd5b8063715018a61461048657806373b4086b1461048e5780637c27383b146105265780638aee812714610539575f80fd5b80632d809cb6116101cd5780634162d0ea1161019d578063581fe91711610183578063581fe9171461042557806363c29926146104385780636f77ff5514610473575f80fd5b80634162d0ea146103d9578063530e784f14610412575f80fd5b80632d809cb6146103625780632f6d58dc146103ab578063372500ab146103be5780633f2a5540146103c6575f80fd5b806323be345c116102225780632630c12f116102085780632630c12f14610329578063263aa7ba1461033c578063266e2bd81461034f575f80fd5b806323be345c146102e4578063240028e8146102f7575f80fd5b80630ccd8ab5146102535780631955c9771461029b5780631b7adeca146102bc57806322867d78146102cf575b5f80fd5b61027e610261366004612b9b565b6001600160a01b039081165f908152600260205260409020541690565b6040516001600160a01b0390911681526020015b60405180910390f35b6102ae6102a9366004612b9b565b610665565b604051908152602001610292565b6102ae6102ca366004612b9b565b6108b3565b6102e26102dd366004612bb4565b610950565b005b600b5461027e906001600160a01b031681565b610319610305366004612b9b565b60046020525f908152604090205460ff1681565b6040519015158152602001610292565b600c5461027e906001600160a01b031681565b6102e261034a366004612bdc565b6109df565b6102ae61035d366004612b9b565b610b94565b610390610370366004612b9b565b60066020525f908152604090208054600182015460029092015490919083565b60408051938452602084019290925290820152606001610292565b6102e26103b9366004612bb4565b610c02565b6102e2610dec565b600e5461027e906001600160a01b031681565b6103906103e7366004612c0c565b600560209081525f928352604080842090915290825290208054600182015460029092015490919083565b6102e2610420366004612b9b565b610ecc565b6102ae610433366004612c0c565b610f4c565b61045e610446366004612b9b565b60036020525f90815260409020805460019091015482565b60408051928352602083019190915201610292565b6102e2610481366004612bdc565b61101b565b6102e26114d8565b6104e561049c366004612b9b565b600260208190525f918252604090912080546001820154928201546003830154600484015460058501546006909501546001600160a01b03909416959492939192909160ff1687565b604080516001600160a01b0390981688526020880196909652948601939093526060850191909152608084015260a0830152151560c082015260e001610292565b6102e2610534366004612b9b565b6114e9565b6102e2610547366004612b9b565b611629565b5f546001600160a01b031661027e565b610564611653565b6040516102929190612c3d565b6102e261057f366004612c89565b6116b3565b61027e610592366004612cc2565b6117de565b6102e26105a5366004612cd9565b611806565b6008546102ae565b6102e26105c0366004612b9b565b611957565b6102ae6105d3366004612b9b565b60076020525f908152604090205481565b6102ae6105f2366004612b9b565b6119a8565b610319610605366004612b9b565b60096020525f908152604090205460ff1681565b6102e2610627366004612b9b565b611a70565b6102e261063a366004612bb4565b611aaa565b600d5461027e906001600160a01b031681565b6102e2610660366004612b9b565b611ac6565b6001600160a01b038082165f908152600260208181526040808420815160e0810183528154909616865260018101549286019290925291810154918401919091526003810154606084015260048101546080840152600581015460a08401526006015460ff16151560c083018190529091906106e357505f92915050565b600c546001600160a01b03166107405760405162461bcd60e51b815260206004820152600e60248201527f4f7261636c65206e6f742073657400000000000000000000000000000000000060448201526064015b60405180910390fd5b80516001600160a01b03166107975760405162461bcd60e51b815260206004820152600d60248201527f4e6f206c6f616e20746f6b656e000000000000000000000000000000000000006044820152606401610737565b5f6107a1846119a8565b82602001516107b09190612d26565b600c5483516040516341976e0960e01b81526001600160a01b0391821660048201529293505f929116906341976e0990602401602060405180830381865afa1580156107fe573d5f803e3d5ffd5b505050506040513d601f19601f820116820180604052508101906108229190612d39565b90505f835f01516001600160a01b031663313ce5676040518163ffffffff1660e01b8152600401602060405180830381865afa158015610864573d5f803e3d5ffd5b505050506040513d601f19601f820116820180604052508101906108889190612d50565b905061089581600a612e50565b61089f8385612e5e565b6108a99190612e75565b9695505050505050565b6001600160a01b038082165f908152600260208181526040808420815160e0810183528154909616865260018101549286019290925291810154918401919091526003810154606084015260048101546080840152600581015460a08401526006015460ff16151560c0830181905290919061093157505f92915050565b61093a836119a8565b81602001516109499190612d26565b9392505050565b610958611ae3565b335f908152600260205260409020546001600160a01b031680156109c557806001600160a01b0316836001600160a01b0316146109c55760405162461bcd60e51b815260206004820152600b60248201526a2bb937b733903a37b5b2b760a91b6044820152606401610737565b6109d133338585611b0d565b506109db60018055565b5050565b6109e7611ea1565b6001600160a01b038316610a3d5760405162461bcd60e51b815260206004820152600d60248201527f496e76616c696420746f6b656e000000000000000000000000000000000000006044820152606401610737565b6127108211158015610a5157506127108111155b610a9d5760405162461bcd60e51b815260206004820152600d60248201527f5261746520746f6f2068696768000000000000000000000000000000000000006044820152606401610737565b60408051808201825283815260208082018481526001600160a01b0387165f9081526003835284812093518455905160019093019290925560049052205460ff16610b4557600f805460018082019092557f8d1108e10bcb7c27dddfc02ed9d693a074039d026cf4ea4240b40f7d581ac8020180546001600160a01b0319166001600160a01b0386169081179091555f908152600460205260409020805460ff191690911790555b604080516001600160a01b0385168152602081018490529081018290527fab37265069a9fb56421aaa91a9c209f5f0636ccb1b4d03810244fefa1b67611b9060600160405180910390a1505050565b6040516370a0823160e01b81523060048201525f906001600160a01b038316906370a0823190602401602060405180830381865afa158015610bd8573d5f803e3d5ffd5b505050506040513d601f19601f82011682018060405250810190610bfc9190612d39565b92915050565b610c0a611ae3565b5f8111610c445760405162461bcd60e51b81526020600482015260086024820152670416d6f756e743d360c41b6044820152606401610737565b6001600160a01b0382165f9081526004602052604090205460ff16610cab5760405162461bcd60e51b815260206004820152601160248201527f556e737570706f7274656420746f6b656e0000000000000000000000000000006044820152606401610737565b335f9081526005602090815260408083206001600160a01b03861684529091529020805415801590610ce057505f8160010154115b15610d41575f610d1e825f015460035f876001600160a01b03166001600160a01b031681526020019081526020015f20600101548460010154611ecd565b90508015610d3f5780826002015f828254610d399190612d26565b90915550505b505b610d566001600160a01b038416333085611f00565b81815f015f828254610d689190612d26565b90915550504260018201556001600160a01b0383165f9081526006602052604081208054849290610d9a908490612d26565b9091555050604080516001600160a01b03851681526020810184905233917fa3682f0a1f3e048663c72c176dc0871190ad77f88864de24b60be522e8bb3b85910160405180910390a26109d133611f82565b610df4611ae3565b600e546001600160a01b0316610e4c5760405162461bcd60e51b815260206004820152601060248201527f526577617264732064697361626c6564000000000000000000000000000000006044820152606401610737565b610e5533611f82565b600e54604051630f41a04d60e11b81523360048201526001600160a01b0390911690631e83409a906024016020604051808303815f875af1158015610e9c573d5f803e3d5ffd5b505050506040513d601f19601f82011682018060405250810190610ec09190612d39565b50610eca60018055565b565b610ed4611ea1565b6001600160a01b038116610f2a5760405162461bcd60e51b815260206004820152600e60248201527f496e76616c6964206f7261636c650000000000000000000000000000000000006044820152606401610737565b600c80546001600160a01b0319166001600160a01b0392909216919091179055565b6001600160a01b038083165f908152600560209081526040808320938516835292815282822083516060810185528154808252600183015493820193909352600290910154938101939093529091901580610fa957506020810151155b15610fb7575f915050610bfc565b5f610ff0825f015160035f876001600160a01b03166001600160a01b031681526020019081526020015f20600101548460200151611ecd565b905081604001518111611003575f611012565b60408201516110129082612e94565b95945050505050565b611023611ae3565b335f9081526002602052604090206006015460ff16156110855760405162461bcd60e51b815260206004820152600b60248201527f4c6f616e206163746976650000000000000000000000000000000000000000006044820152606401610737565b5f8211801561109357505f81115b6110df5760405162461bcd60e51b815260206004820152600d60248201527f496e76616c696420696e707574000000000000000000000000000000000000006044820152606401610737565b6001600160a01b0383165f9081526004602052604090205460ff166111465760405162461bcd60e51b815260206004820152601160248201527f556e737570706f7274656420746f6b656e0000000000000000000000000000006044820152606401610737565b6001600160a01b0383165f90815260036020526040902054806111ab5760405162461bcd60e51b815260206004820152601360248201527f426f72726f772072617465206e6f7420736574000000000000000000000000006044820152606401610737565b600b54604051633f9af35f60e21b8152336004820152670de0b6b3a7640000916001600160a01b03169063fe6bcd7c90602401602060405180830381865afa1580156111f9573d5f803e3d5ffd5b505050506040513d601f19601f8201168201806040525081019061121d9190612d39565b101561126b5760405162461bcd60e51b815260206004820152601160248201527f556e6865616c746879206163636f756e740000000000000000000000000000006044820152606401610737565b6040516370a0823160e01b815230600482015283906001600160a01b038616906370a0823190602401602060405180830381865afa1580156112af573d5f803e3d5ffd5b505050506040513d601f19601f820116820180604052508101906112d39190612d39565b10156113215760405162461bcd60e51b815260206004820152600c60248201527f4e6f206c697175696469747900000000000000000000000000000000000000006044820152606401610737565b6040805160e0810182526001600160a01b0386811680835260208084018881528486018781525f60608701818152426080890190815260a089018c8152600160c08b018181523386526002808a528d87209c518d546001600160a01b0319169c169b909b178c5596518b8201559451988a0198909855905160038901555160048801559451600587015590516006958601805460ff1916911515919091179055918352929092529182200180548592906113dc908490612d26565b9091555050335f9081526009602052604090205460ff1661146057335f818152600960209081526040808320805460ff191660019081179091556008805491820181557ff3f7a9fe364faab93b216da50a3214154f22a0a2b415b23a84c8169e8b636ee390910180546001600160a01b0319168617905554938352600a9091529020555b6114746001600160a01b038516338561202e565b604080516001600160a01b03861681526020810185905290810182905233907f8ca033dfe8ac84b6e3e48aa36967e19d52a93a3f4d880ce8005fd4e04c97c94d9060600160405180910390a26114c933611f82565b506114d360018055565b505050565b6114e0611ea1565b610eca5f61205f565b6114f1611ae3565b335f90815260026020818152604092839020835160e08101855281546001600160a01b0316815260018201549281019290925291820154928101929092526003810154606083015260048101546080830152600581015460a08301526006015460ff16151560c0820181905261159a5760405162461bcd60e51b815260206004820152600e60248201526d27379030b1ba34bb32903637b0b760911b6044820152606401610737565b80516001600160a01b0316156115f45780516001600160a01b038381169116146115f45760405162461bcd60e51b815260206004820152600b60248201526a2bb937b733903a37b5b2b760a91b6044820152606401610737565b5f6115fe336119a8565b826020015161160d9190612d26565b905061161b33338584611b0d565b505061162660018055565b50565b611631611ea1565b600d80546001600160a01b0319166001600160a01b0392909216919091179055565b606060088054806020026020016040519081016040528092919081815260200182805480156116a957602002820191905f5260205f20905b81546001600160a01b0316815260019091019060200180831161168b575b5050505050905090565b6116bb611ae3565b6001600160a01b0383166117115760405162461bcd60e51b815260206004820152601060248201527f496e76616c696420626f72726f776572000000000000000000000000000000006044820152606401610737565b6001600160a01b038084165f9081526002602052604090205416801561178057806001600160a01b0316836001600160a01b0316146117805760405162461bcd60e51b815260206004820152600b60248201526a2bb937b733903a37b5b2b760a91b6044820152606401610737565b61178c33858585611b0d565b604080516001600160a01b0385811682526020820185905286169133917ffdf4eca8a57db936f4318275c3026ce05c05b1ae0070e178be74903a6d0a5e19910160405180910390a3506114d360018055565b600881815481106117ed575f80fd5b5f918252602090912001546001600160a01b0316905081565b61180e611ea1565b611816611ae3565b6001600160a01b03811661186c5760405162461bcd60e51b815260206004820152600e60248201527f496e76616c6964207461726765740000000000000000000000000000000000006044820152606401610737565b5f82116118a65760405162461bcd60e51b81526020600482015260086024820152670416d6f756e743d360c41b6044820152606401610737565b6001600160a01b0383165f9081526007602052604090205482111561190d5760405162461bcd60e51b815260206004820152600e60248201527f457863656564732070726f6669740000000000000000000000000000000000006044820152606401610737565b6001600160a01b0383165f9081526007602052604081208054849290611934908490612e94565b9091555061194e90506001600160a01b038416828461202e565b6114d360018055565b61195f611ea1565b600e80546001600160a01b0319166001600160a01b0383169081179091556040517f1cc0d0fcd88df90cde5f20b27b655722f28afe56a6384c3c7a339ec18564c439905f90a250565b6001600160a01b038082165f908152600260208181526040808420815160e0810183528154909616865260018101549286019290925291810154918401919091526003810154606084015260048101546080840152600581015460a08401526006015460ff16151560c08301819052909190611a2657505f92915050565b5f816080015142611a379190612e94565b905064496cebb8008183604001518460200151611a549190612e5e565b611a5e9190612e5e565b611a689190612e75565b949350505050565b611a78611ea1565b6001600160a01b038116611aa157604051631e4fbdf760e01b81525f6004820152602401610737565b6116268161205f565b611ab2611ae3565b611abd3383836120ae565b6109db60018055565b611ace611ae3565b611ada33825f196120ae565b61162660018055565b600260015403611b0657604051633ee5aeb560e01b815260040160405180910390fd5b6002600155565b6001600160a01b0383165f908152600260205260409020600681015460ff16611b695760405162461bcd60e51b815260206004820152600e60248201526d27379030b1ba34bb32903637b0b760911b6044820152606401610737565b5f8211611ba35760405162461bcd60e51b81526020600482015260086024820152670416d6f756e743d360c41b6044820152606401610737565b611bb86001600160a01b038416863085611f00565b6001600160a01b0383165f9081526006602052604081206002018054849290611be2908490612d26565b909155505f9050611bf2856119a8565b90505f818360010154611c059190612d26565b905080841115611c13578093505b835f838210611c4957611c268483612e94565b915083856003015f828254611c3b9190612d26565b90915550849150611c669050565b81856003015f828254611c5c9190612d26565b909155505f929150505b8015611d3a5760028501546001600160a01b0388165f90815260036020526040812060010154908215801590611c9b57505f82115b15611cc25782611cab8386612e5e565b611cb59190612e75565b905083811115611cc25750825b5f611ccd8286612e94565b90508115611d02576001600160a01b038b165f9081526006602052604081208054849290611cfc908490612d26565b90915550505b8015611d35576001600160a01b038b165f9081526007602052604081208054839290611d2f908490612d26565b90915550505b505050505b8115611d6f5784600101548210611d56575f6001860155611d6f565b81856001015f828254611d699190612e94565b90915550505b42600486015560018501545f03611e0f5760068501805460ff1916905584546001600160a01b03191685556001600160a01b0388165f9081526009602052604090205460ff1615611de2576001600160a01b0388165f908152600960205260409020805460ff19169055611de288612561565b876001600160a01b0316896001600160a01b031603611e0f57611e0f88611e0a600a87612e75565b612692565b60068501545f9060ff16611e23575f611e3b565b611e2c896119a8565b8660010154611e3b9190612d26565b604080516001600160a01b038b81168252602082018b90529181018390529192508a16907fa6f6d5e50bc84f153a0d6a9f9b37780433f92dc32d7e10f975ab3831c36898fa9060600160405180910390a2611e9589611f82565b50505050505050505050565b5f546001600160a01b03163314610eca5760405163118cdaa760e01b8152336004820152602401610737565b5f80611ed98342612e94565b905064496cebb80081611eec8688612e5e565b611ef69190612e5e565b6110129190612e75565b6040516001600160a01b038481166024830152838116604483015260648201839052611f7c9186918216906323b872dd906084015b604051602081830303815290604052915060e01b6020820180517bffffffffffffffffffffffffffffffffffffffffffffffffffffffff8381831617835250505050612782565b50505050565b600e546001600160a01b03161580611fa157506001600160a01b038116155b15611fa95750565b5f611fb3826127ee565b90505f611fbf836129fa565b600e5460405163ca0caf9d60e01b81526001600160a01b038681166004830152602482018690526044820184905292935091169063ca0caf9d906064015f604051808303815f87803b158015612013575f80fd5b505af1158015612025573d5f803e3d5ffd5b50505050505050565b6040516001600160a01b038381166024830152604482018390526114d391859182169063a9059cbb90606401611f35565b5f80546001600160a01b038381166001600160a01b0319831681178455604051919092169283917f8be0079c531659141344cd1fd0a4f28419497f9722a3daafe3b4186f6b6457e09190a35050565b6001600160a01b038084165f90815260056020908152604080832093861683529290522080546121205760405162461bcd60e51b815260206004820152600a60248201527f4e6f206465706f736974000000000000000000000000000000000000000000006044820152606401610737565b80545f61212d8686610f4c565b90505f19840361230a575f6121428284612d26565b6040516370a0823160e01b815230600482015290915081906001600160a01b038816906370a0823190602401602060405180830381865afa158015612189573d5f803e3d5ffd5b505050506040513d601f19601f820116820180604052508101906121ad9190612d39565b10156121fb5760405162461bcd60e51b815260206004820152601660248201527f496e73756666696369656e74206c6971756964697479000000000000000000006044820152606401610737565b5f8085556001850181905560028501805484929061221a908490612d26565b90915550506001600160a01b0386165f90815260066020526040902054831161226f576001600160a01b0386165f9081526006602052604081208054859290612264908490612e94565b909155506122889050565b6001600160a01b0386165f908152600660205260408120555b61229c6001600160a01b038716888361202e565b6122ab87611e0a600a85612e75565b604080516001600160a01b0388811682526020820186905291810184905260608101839052908816907f3cae9923fd3c2f468aa25a8ef687923e37f957459557c0380fd06526c0b8cdbc9060800160405180910390a250505050505050565b5f841180156123195750818411155b6123655760405162461bcd60e51b815260206004820152600e60248201527f496e76616c696420616d6f756e740000000000000000000000000000000000006044820152606401610737565b5f808311612373575f612388565b8261237e8684612e5e565b6123889190612e75565b90505f6123958287612d26565b6040516370a0823160e01b815230600482015290915081906001600160a01b038916906370a0823190602401602060405180830381865afa1580156123dc573d5f803e3d5ffd5b505050506040513d601f19601f820116820180604052508101906124009190612d39565b101561244e5760405162461bcd60e51b815260206004820152601660248201527f496e73756666696369656e74206c6971756964697479000000000000000000006044820152606401610737565b6124588685612e94565b85556002850180548391905f90612470908490612d26565b90915550504260018601556001600160a01b0387165f9081526006602052604090205486116124cb576001600160a01b0387165f90815260066020526040812080548892906124c0908490612e94565b909155506124e49050565b6001600160a01b0387165f908152600660205260408120555b6124f86001600160a01b038816898361202e565b604080516001600160a01b0389811682526020820189905291810184905260608101839052908916907f3cae9923fd3c2f468aa25a8ef687923e37f957459557c0380fd06526c0b8cdbc9060800160405180910390a261255788611f82565b5050505050505050565b6001600160a01b0381165f908152600a602052604081205490819003612585575050565b5f612591600183612e94565b6008549091505f906125a590600190612e94565b905080821461263d575f600882815481106125c2576125c2612ea7565b5f91825260209091200154600880546001600160a01b0390921692508291859081106125f0576125f0612ea7565b5f91825260209091200180546001600160a01b0319166001600160a01b0392909216919091179055612623836001612d26565b6001600160a01b039091165f908152600a60205260409020555b600880548061264e5761264e612ebb565b5f828152602080822083015f1990810180546001600160a01b03191690559092019092556001600160a01b03959095168152600a9094525050604082209190915550565b600d546001600160a01b0316158015906126ab57505f81115b156109db57600d546040516370a0823160e01b81523060048201525f916001600160a01b0316906370a0823190602401602060405180830381865afa1580156126f6573d5f803e3d5ffd5b505050506040513d601f19601f8201168201806040525081019061271a9190612d39565b90508181106114d357600d5461273a906001600160a01b0316848461202e565b826001600160a01b03167fe34918ff1c7084970068b53fd71ad6d8b04e9f15d3886cbf006443e6cdc52ea68360405161277591815260200190565b60405180910390a2505050565b5f8060205f8451602086015f885af1806127a1576040513d5f823e3d81fd5b50505f513d915081156127b85780600114156127c5565b6001600160a01b0384163b155b15611f7c57604051635274afe760e01b81526001600160a01b0385166004820152602401610737565b600c545f906001600160a01b031615806128085750600f54155b1561281457505f919050565b5f5b600f548110156129f4575f600f828154811061283457612834612ea7565b5f9182526020808320909101546001600160a01b038781168452600583526040808520919092168085529083528184208251606081018452815480825260018301549582019590955260029091015492810192909252935091036128995750506129ec565b600c546040516341976e0960e01b81526001600160a01b0384811660048301525f9216906341976e0990602401602060405180830381865afa1580156128e1573d5f803e3d5ffd5b505050506040513d601f19601f820116820180604052508101906129059190612d39565b90505f81116129565760405162461bcd60e51b815260206004820152600960248201527f42616420707269636500000000000000000000000000000000000000000000006044820152606401610737565b5f836001600160a01b031663313ce5676040518163ffffffff1660e01b8152600401602060405180830381865afa158015612993573d5f803e3d5ffd5b505050506040513d601f19601f820116820180604052508101906129b79190612d50565b90506129c481600a612e50565b83516129d1908490612e5e565b6129db9190612e75565b6129e59087612d26565b9550505050505b600101612816565b50919050565b600c545f906001600160a01b0316612a1357505f919050565b6001600160a01b038083165f90815260026020818152604092839020835160e0810185528154909516855260018101549185019190915290810154918301919091526003810154606083015260048101546080830152600581015460a08301526006015460ff1615801560c083015280612a95575080516001600160a01b0316155b15612aa257505f92915050565b5f612aac846119a8565b8260200151612abb9190612d26565b600c5483516040516341976e0960e01b81526001600160a01b0391821660048201529293505f929116906341976e0990602401602060405180830381865afa158015612b09573d5f803e3d5ffd5b505050506040513d601f19601f82011682018060405250810190612b2d9190612d39565b9050805f03612b4057505f949350505050565b5f835f01516001600160a01b031663313ce5676040518163ffffffff1660e01b8152600401602060405180830381865afa158015610864573d5f803e3d5ffd5b80356001600160a01b0381168114612b96575f80fd5b919050565b5f60208284031215612bab575f80fd5b61094982612b80565b5f8060408385031215612bc5575f80fd5b612bce83612b80565b946020939093013593505050565b5f805f60608486031215612bee575f80fd5b612bf784612b80565b95602085013595506040909401359392505050565b5f8060408385031215612c1d575f80fd5b612c2683612b80565b9150612c3460208401612b80565b90509250929050565b602080825282518282018190525f9190848201906040850190845b81811015612c7d5783516001600160a01b031683529284019291840191600101612c58565b50909695505050505050565b5f805f60608486031215612c9b575f80fd5b612ca484612b80565b9250612cb260208501612b80565b9150604084013590509250925092565b5f60208284031215612cd2575f80fd5b5035919050565b5f805f60608486031215612ceb575f80fd5b612cf484612b80565b925060208401359150612d0960408501612b80565b90509250925092565b634e487b7160e01b5f52601160045260245ffd5b80820180821115610bfc57610bfc612d12565b5f60208284031215612d49575f80fd5b5051919050565b5f60208284031215612d60575f80fd5b815160ff81168114610949575f80fd5b600181815b80851115612daa57815f1904821115612d9057612d90612d12565b80851615612d9d57918102915b93841c9390800290612d75565b509250929050565b5f82612dc057506001610bfc565b81612dcc57505f610bfc565b8160018114612de25760028114612dec57612e08565b6001915050610bfc565b60ff841115612dfd57612dfd612d12565b50506001821b610bfc565b5060208310610133831016604e8410600b8410161715612e2b575081810a610bfc565b612e358383612d70565b805f1904821115612e4857612e48612d12565b029392505050565b5f61094960ff841683612db2565b8082028115828204841417610bfc57610bfc612d12565b5f82612e8f57634e487b7160e01b5f52601260045260245ffd5b500490565b81810381811115610bfc57610bfc612d12565b634e487b7160e01b5f52603260045260245ffd5b634e487b7160e01b5f52603160045260245ffdfea164736f6c6343000818000a",
  "devdoc": {
    "errors": {
      "OwnableInvalidOwner(address)": [
        {
          "details": "The owner is not a valid owner account. (eg. `address(0)`)"
        }
      ],
      "OwnableUnauthorizedAccount(address)": [
        {
          "details": "The caller account is not authorized to perform an operation."
        }
      ],
      "ReentrancyGuardReentrantCall()": [
        {
          "details": "Unauthorized reentrant call."
        }
      ],
      "SafeERC20FailedOperation(address)": [
        {
          "details": "An operation with an ERC-20 token failed."
        }
      ]
    },
    "kind": "dev",
    "methods": {
      "owner()": {
        "details": "Returns the address of the current owner."
      },
      "renounceOwnership()": {
        "details": "Leaves the contract without owner. It will not be possible to call `onlyOwner` functions. Can only be called by the current owner. NOTE: Renouncing ownership will leave the contract without an owner, thereby disabling any functionality that is only available to the owner."
      },
      "transferOwnership(address)": {
        "details": "Transfers ownership of the contract to a new account (`newOwner`). Can only be called by the current owner."
      }
    },
    "version": 1
  },
  "userdoc": {
    "kind": "user",
    "methods": {
      "calculateInterest(address)": {
        "notice": "Li phi tr tnh t createdAt"
      },
      "calculateLenderReward(address,address)": {
        "notice": "Li ang ch ca lender tnh t depositTime"
      },
      "depositToPool(address,uint256)": {
        "notice": "Ngi dng gi thanh khon vo pool"
      },
      "getAvailableLiquidity(address)": {
        "notice": "Thanh khon thc c th chi tr (debug/UI)"
      },
      "getLoanToken(address)": {
        "notice": "NEW: tr v token ang vay (address(0) nu cha)"
      },
      "getOutstandingLoan(address)": {
        "notice": "N hin ti (gc + li) theo n v token gc"
      },
      "getOutstandingLoanUSD(address)": {
        "notice": "NEW: N quy USD (8 decimals) = (debtRaw * priceUSD8) / 10**decimals(token)"
      },
      "repay(address,uint256)": {
        "notice": "Ngi vay t tr n"
      },
      "repayAll(address)": {
        "notice": "Tr ton b n (gc + li) trong 1 tx"
      },
      "repayFor(address,address,uint256)": {
        "notice": "Tr thay (liquidator / bot / bn b tr h)"
      },
      "requestLoan(address,uint256,uint256)": {
        "notice": "Vay t pool (n token). Yu cu c thanh khon thc t."
      },
      "withdraw(address,uint256)": {
        "notice": "Rt gc + li mt phn (amount <= deposited) hoc dng MaxUint  rt all"
      },
      "withdrawAll(address)": {
        "notice": "Rt ton b gc + li (atomic convenience)"
      }
    },
    "version": 1
  },
  "storageLayout": {
    "storage": [
      {
        "astId": 8,
        "contract": "contracts/LoanManager.sol:LoanManager",
        "label": "_owner",
        "offset": 0,
        "slot": "0",
        "type": "t_address"
      },
      {
        "astId": 1498,
        "contract": "contracts/LoanManager.sol:LoanManager",
        "label": "_status",
        "offset": 0,
        "slot": "1",
        "type": "t_uint256"
      },
      {
        "astId": 2889,
        "contract": "contracts/LoanManager.sol:LoanManager",
        "label": "loans",
        "offset": 0,
        "slot": "2",
        "type": "t_mapping(t_address,t_struct(Loan)2865_storage)"
      },
      {
        "astId": 2894,
        "contract": "contracts/LoanManager.sol:LoanManager",
        "label": "ratesByToken",
        "offset": 0,
        "slot": "3",
        "type": "t_mapping(t_address,t_struct(InterestRates)2870_storage)"
      },
      {
        "astId": 2898,
        "contract": "contracts/LoanManager.sol:LoanManager",
        "label": "isSupportedToken",
        "offset": 0,
        "slot": "4",
        "type": "t_mapping(t_address,t_bool)"
      },
      {
        "astId": 2905,
        "contract": "contracts/LoanManager.sol:LoanManager",
        "label": "lenders",
        "offset": 0,
        "slot": "5",
        "type": "t_mapping(t_address,t_mapping(t_address,t_struct(Lender)2877_storage))"
      },
      {
        "astId": 2910,
        "contract": "contracts/LoanManager.sol:LoanManager",
        "label": "treasury",
        "offset": 0,
        "slot": "6",
        "type": "t_mapping(t_address,t_struct(TreasuryStats)2884_storage)"
      },
      {
        "astId": 2914,
        "contract": "contracts/LoanManager.sol:LoanManager",
        "label": "protocolProfit",
        "offset": 0,
        "slot": "7",
        "type": "t_mapping(t_address,t_uint256)"
      },
      {
        "astId": 2917,
        "contract": "contracts/LoanManager.sol:LoanManager",
        "label": "activeBorrowers",
        "offset": 0,
        "slot": "8",
        "type": "t_array(t_address)dyn_storage"
      },
      {
        "astId": 2921,
        "contract": "contracts/LoanManager.sol:LoanManager",
        "label": "isBorrower",
        "offset": 0,
        "slot": "9",
        "type": "t_mapping(t_address,t_bool)"
      },
      {
        "astId": 2925,
        "contract": "contracts/LoanManager.sol:LoanManager",
        "label": "activeBorrowerIndex",
        "offset": 0,
        "slot": "10",
        "type": "t_mapping(t_address,t_uint256)"
      },
      {
        "astId": 2928,
        "contract": "contracts/LoanManager.sol:LoanManager",
        "label": "collateralManager",
        "offset": 0,
        "slot": "11",
        "type": "t_contract(ICollateralManager)2833"
      },
      {
        "astId": 2931,
        "contract": "contracts/LoanManager.sol:LoanManager",
        "label": "priceOracle",
        "offset": 0,
        "slot": "12",
        "type": "t_contract(IPriceOracle)2842"
      },
      {
        "astId": 2934,
        "contract": "contracts/LoanManager.sol:LoanManager",
        "label": "rewardToken",
        "offset": 0,
        "slot": "13",
        "type": "t_contract(IERC20)967"
      },
      {
        "astId": 2937,
        "contract": "contracts/LoanManager.sol:LoanManager",
        "label": "rewardsDistributor",
        "offset": 0,
        "slot": "14",
        "type": "t_contract(IRewardsDistributor)5953"
      },
      {
        "astId": 4879,
        "contract": "contracts/LoanManager.sol:LoanManager",
        "label": "_supportedTokens",
        "offset": 0,
        "slot": "15",
        "type": "t_array(t_address)dyn_storage"
      }
    ],
    "types": {
      "t_address": {
        "encoding": "inplace",
        "label": "address",
        "numberOfBytes": "20"
      },
      "t_array(t_address)dyn_storage": {
        "base": "t_address",
        "encoding": "dynamic_array",
        "label": "address[]",
        "numberOfBytes": "32"
      },
      "t_bool": {
        "encoding": "inplace",
        "label": "bool",
        "numberOfBytes": "1"
      },
      "t_contract(ICollateralManager)2833": {
        "encoding": "inplace",
        "label": "contract ICollateralManager",
        "numberOfBytes": "20"
      },
      "t_contract(IERC20)967": {
        "encoding": "inplace",
        "label": "contract IERC20",
        "numberOfBytes": "20"
      },
      "t_contract(IPriceOracle)2842": {
        "encoding": "inplace",
        "label": "contract IPriceOracle",
        "numberOfBytes": "20"
      },
      "t_contract(IRewardsDistributor)5953": {
        "encoding": "inplace",
        "label": "contract IRewardsDistributor",
        "numberOfBytes": "20"
      },
      "t_mapping(t_address,t_bool)": {
        "encoding": "mapping",
        "key": "t_address",
        "label": "mapping(address => bool)",
        "numberOfBytes": "32",
        "value": "t_bool"
      },
      "t_mapping(t_address,t_mapping(t_address,t_struct(Lender)2877_storage))": {
        "encoding": "mapping",
        "key": "t_address",
        "label": "mapping(address => mapping(address => struct LoanManager.Lender))",
        "numberOfBytes": "32",
        "value": "t_mapping(t_address,t_struct(Lender)2877_storage)"
      },
      "t_mapping(t_address,t_struct(InterestRates)2870_storage)": {
        "encoding": "mapping",
        "key": "t_address",
        "label": "mapping(address => struct LoanManager.InterestRates)",
        "numberOfBytes": "32",
        "value": "t_struct(InterestRates)2870_storage"
      },
      "t_mapping(t_address,t_struct(Lender)2877_storage)": {
        "encoding": "mapping",
        "key": "t_address",
        "label": "mapping(address => struct LoanManager.Lender)",
        "numberOfBytes": "32",
        "value": "t_struct(Lender)2877_storage"
      },
      "t_mapping(t_address,t_struct(Loan)2865_storage)": {
        "encoding": "mapping",
        "key": "t_address",
        "label": "mapping(address => struct LoanManager.Loan)",
        "numberOfBytes": "32",
        "value": "t_struct(Loan)2865_storage"
      },
      "t_mapping(t_address,t_struct(TreasuryStats)2884_storage)": {
        "encoding": "mapping",
        "key": "t_address",
        "label": "mapping(address => struct LoanManager.TreasuryStats)",
        "numberOfBytes": "32",
        "value": "t_struct(TreasuryStats)2884_storage"
      },
      "t_mapping(t_address,t_uint256)": {
        "encoding": "mapping",
        "key": "t_address",
        "label": "mapping(address => uint256)",
        "numberOfBytes": "32",
        "value": "t_uint256"
      },
      "t_struct(InterestRates)2870_storage": {
        "encoding": "inplace",
        "label": "struct LoanManager.InterestRates",
        "members": [
          {
            "astId": 2867,
            "contract": "contracts/LoanManager.sol:LoanManager",
            "label": "borrowRate",
            "offset": 0,
            "slot": "0",
            "type": "t_uint256"
          },
          {
            "astId": 2869,
            "contract": "contracts/LoanManager.sol:LoanManager",
            "label": "lendRate",
            "offset": 0,
            "slot": "1",
            "type": "t_uint256"
          }
        ],
        "numberOfBytes": "64"
      },
      "t_struct(Lender)2877_storage": {
        "encoding": "inplace",
        "label": "struct LoanManager.Lender",
        "members": [
          {
            "astId": 2872,
            "contract": "contracts/LoanManager.sol:LoanManager",
            "label": "deposited",
            "offset": 0,
            "slot": "0",
            "type": "t_uint256"
          },
          {
            "astId": 2874,
            "contract": "contracts/LoanManager.sol:LoanManager",
            "label": "depositTime",
            "offset": 0,
            "slot": "1",
            "type": "t_uint256"
          },
          {
            "astId": 2876,
            "contract": "contracts/LoanManager.sol:LoanManager",
            "label": "rewardClaimed",
            "offset": 0,
            "slot": "2",
            "type": "t_uint256"
          }
        ],
        "numberOfBytes": "96"
      },
      "t_struct(Loan)2865_storage": {
        "encoding": "inplace",
        "label": "struct LoanManager.Loan",
        "members": [
          {
            "astId": 2852,
            "contract": "contracts/LoanManager.sol:LoanManager",
            "label": "token",
            "offset": 0,
            "slot": "0",
            "type": "t_address"
          },
          {
            "astId": 2854,
            "contract": "contracts/LoanManager.sol:LoanManager",
            "label": "principal",
            "offset": 0,
            "slot": "1",
            "type": "t_uint256"
          },
          {
            "astId": 2856,
            "contract": "contracts/LoanManager.sol:LoanManager",
            "label": "rate",
            "offset": 0,
            "slot": "2",
            "type": "t_uint256"
          },
          {
            "astId": 2858,
            "contract": "contracts/LoanManager.sol:LoanManager",
            "label": "totalInterest",
            "offset": 0,
            "slot": "3",
            "type": "t_uint256"
          },
          {
            "astId": 2860,
            "contract": "contracts/LoanManager.sol:LoanManager",
            "label": "createdAt",
            "offset": 0,
            "slot": "4",
            "type": "t_uint256"
          },
          {
            "astId": 2862,
            "contract": "contracts/LoanManager.sol:LoanManager",
            "label": "duration",
            "offset": 0,
            "slot": "5",
            "type": "t_uint256"
          },
          {
            "astId": 2864,
            "contract": "contracts/LoanManager.sol:LoanManager",
            "label": "active",
            "offset": 0,
            "slot": "6",
            "type": "t_bool"
          }
        ],
        "numberOfBytes": "224"
      },
      "t_struct(TreasuryStats)2884_storage": {
        "encoding": "inplace",
        "label": "struct LoanManager.TreasuryStats",
        "members": [
          {
            "astId": 2879,
            "contract": "contracts/LoanManager.sol:LoanManager",
            "label": "totalDeposits",
            "offset": 0,
            "slot": "0",
            "type": "t_uint256"
          },
          {
            "astId": 2881,
            "contract": "contracts/LoanManager.sol:LoanManager",
            "label": "totalBorrows",
            "offset": 0,
            "slot": "1",
            "type": "t_uint256"
          },
          {
            "astId": 2883,
            "contract": "contracts/LoanManager.sol:LoanManager",
            "label": "totalRepayments",
            "offset": 0,
            "slot": "2",
            "type": "t_uint256"
          }
        ],
        "numberOfBytes": "96"
      },
      "t_uint256": {
        "encoding": "inplace",
        "label": "uint256",
        "numberOfBytes": "32"
      }
    }
  }
}