{
  "address": "0x94B735e9EF9Be8774aF9583adD76f1bB308d6b81",
  "abi": [
    {
      "inputs": [
        {
          "internalType": "address",
          "name": "_collateralManager",
          "type": "address"
        },
        {
          "internalType": "address",
          "name": "initialOwner",
          "type": "address"
        }
      ],
      "stateMutability": "nonpayable",
      "type": "constructor"
    },
    {
      "inputs": [
        {
          "internalType": "address",
          "name": "owner",
          "type": "address"
        }
      ],
      "name": "OwnableInvalidOwner",
      "type": "error"
    },
    {
      "inputs": [
        {
          "internalType": "address",
          "name": "account",
          "type": "address"
        }
      ],
      "name": "OwnableUnauthorizedAccount",
      "type": "error"
    },
    {
      "inputs": [],
      "name": "ReentrancyGuardReentrantCall",
      "type": "error"
    },
    {
      "inputs": [
        {
          "internalType": "address",
          "name": "token",
          "type": "address"
        }
      ],
      "name": "SafeERC20FailedOperation",
      "type": "error"
    },
    {
      "anonymous": false,
      "inputs": [
        {
          "indexed": true,
          "internalType": "address",
          "name": "user",
          "type": "address"
        },
        {
          "indexed": false,
          "internalType": "address",
          "name": "token",
          "type": "address"
        },
        {
          "indexed": false,
          "internalType": "uint256",
          "name": "amount",
          "type": "uint256"
        },
        {
          "indexed": false,
          "internalType": "uint256",
          "name": "scaledAmount",
          "type": "uint256"
        }
      ],
      "name": "DepositedToPool",
      "type": "event"
    },
    {
      "anonymous": false,
      "inputs": [
        {
          "indexed": true,
          "internalType": "address",
          "name": "token",
          "type": "address"
        },
        {
          "indexed": false,
          "internalType": "uint256",
          "name": "borrowRate",
          "type": "uint256"
        },
        {
          "indexed": false,
          "internalType": "uint256",
          "name": "borrowIndex",
          "type": "uint256"
        },
        {
          "indexed": false,
          "internalType": "uint256",
          "name": "supplyIndex",
          "type": "uint256"
        }
      ],
      "name": "InterestAccrued",
      "type": "event"
    },
    {
      "anonymous": false,
      "inputs": [
        {
          "indexed": true,
          "internalType": "address",
          "name": "user",
          "type": "address"
        },
        {
          "indexed": false,
          "internalType": "address",
          "name": "token",
          "type": "address"
        },
        {
          "indexed": false,
          "internalType": "uint256",
          "name": "amount",
          "type": "uint256"
        },
        {
          "indexed": false,
          "internalType": "uint256",
          "name": "scaledAmount",
          "type": "uint256"
        }
      ],
      "name": "LoanRepaid",
      "type": "event"
    },
    {
      "anonymous": false,
      "inputs": [
        {
          "indexed": true,
          "internalType": "address",
          "name": "user",
          "type": "address"
        },
        {
          "indexed": false,
          "internalType": "address",
          "name": "token",
          "type": "address"
        },
        {
          "indexed": false,
          "internalType": "uint256",
          "name": "amount",
          "type": "uint256"
        },
        {
          "indexed": false,
          "internalType": "uint256",
          "name": "scaledAmount",
          "type": "uint256"
        }
      ],
      "name": "LoanRequested",
      "type": "event"
    },
    {
      "anonymous": false,
      "inputs": [
        {
          "indexed": true,
          "internalType": "address",
          "name": "previousOwner",
          "type": "address"
        },
        {
          "indexed": true,
          "internalType": "address",
          "name": "newOwner",
          "type": "address"
        }
      ],
      "name": "OwnershipTransferred",
      "type": "event"
    },
    {
      "anonymous": false,
      "inputs": [
        {
          "indexed": false,
          "internalType": "address",
          "name": "token",
          "type": "address"
        },
        {
          "indexed": false,
          "internalType": "uint256",
          "name": "baseRate",
          "type": "uint256"
        },
        {
          "indexed": false,
          "internalType": "uint256",
          "name": "slope1",
          "type": "uint256"
        },
        {
          "indexed": false,
          "internalType": "uint256",
          "name": "slope2",
          "type": "uint256"
        },
        {
          "indexed": false,
          "internalType": "uint256",
          "name": "optimalUtil",
          "type": "uint256"
        }
      ],
      "name": "TokenSupported",
      "type": "event"
    },
    {
      "anonymous": false,
      "inputs": [
        {
          "indexed": true,
          "internalType": "address",
          "name": "user",
          "type": "address"
        },
        {
          "indexed": false,
          "internalType": "address",
          "name": "token",
          "type": "address"
        },
        {
          "indexed": false,
          "internalType": "uint256",
          "name": "amount",
          "type": "uint256"
        },
        {
          "indexed": false,
          "internalType": "uint256",
          "name": "scaledAmount",
          "type": "uint256"
        }
      ],
      "name": "Withdrawn",
      "type": "event"
    },
    {
      "inputs": [],
      "name": "RAY",
      "outputs": [
        {
          "internalType": "uint256",
          "name": "",
          "type": "uint256"
        }
      ],
      "stateMutability": "view",
      "type": "function"
    },
    {
      "inputs": [],
      "name": "SECONDS_PER_YEAR",
      "outputs": [
        {
          "internalType": "uint256",
          "name": "",
          "type": "uint256"
        }
      ],
      "stateMutability": "view",
      "type": "function"
    },
    {
      "inputs": [
        {
          "internalType": "address",
          "name": "token",
          "type": "address"
        }
      ],
      "name": "accrueInterest",
      "outputs": [],
      "stateMutability": "nonpayable",
      "type": "function"
    },
    {
      "inputs": [
        {
          "internalType": "uint256",
          "name": "",
          "type": "uint256"
        }
      ],
      "name": "activeBorrowers",
      "outputs": [
        {
          "internalType": "address",
          "name": "",
          "type": "address"
        }
      ],
      "stateMutability": "view",
      "type": "function"
    },
    {
      "inputs": [],
      "name": "collateralManager",
      "outputs": [
        {
          "internalType": "contract ICollateralManager",
          "name": "",
          "type": "address"
        }
      ],
      "stateMutability": "view",
      "type": "function"
    },
    {
      "inputs": [
        {
          "internalType": "address",
          "name": "token",
          "type": "address"
        },
        {
          "internalType": "uint256",
          "name": "amount",
          "type": "uint256"
        }
      ],
      "name": "depositToPool",
      "outputs": [],
      "stateMutability": "nonpayable",
      "type": "function"
    },
    {
      "inputs": [
        {
          "internalType": "address",
          "name": "token",
          "type": "address"
        }
      ],
      "name": "getAvailableLiquidity",
      "outputs": [
        {
          "internalType": "uint256",
          "name": "",
          "type": "uint256"
        }
      ],
      "stateMutability": "view",
      "type": "function"
    },
    {
      "inputs": [
        {
          "internalType": "address",
          "name": "user",
          "type": "address"
        },
        {
          "internalType": "address",
          "name": "token",
          "type": "address"
        }
      ],
      "name": "getAvailableToWithdraw",
      "outputs": [
        {
          "internalType": "uint256",
          "name": "",
          "type": "uint256"
        }
      ],
      "stateMutability": "view",
      "type": "function"
    },
    {
      "inputs": [
        {
          "internalType": "address",
          "name": "token",
          "type": "address"
        }
      ],
      "name": "getBorrowRate",
      "outputs": [
        {
          "internalType": "uint256",
          "name": "",
          "type": "uint256"
        }
      ],
      "stateMutability": "view",
      "type": "function"
    },
    {
      "inputs": [
        {
          "internalType": "address",
          "name": "user",
          "type": "address"
        }
      ],
      "name": "getLoanToken",
      "outputs": [
        {
          "internalType": "address",
          "name": "",
          "type": "address"
        }
      ],
      "stateMutability": "view",
      "type": "function"
    },
    {
      "inputs": [
        {
          "internalType": "address",
          "name": "user",
          "type": "address"
        }
      ],
      "name": "getOutstandingLoan",
      "outputs": [
        {
          "internalType": "uint256",
          "name": "",
          "type": "uint256"
        }
      ],
      "stateMutability": "view",
      "type": "function"
    },
    {
      "inputs": [
        {
          "internalType": "address",
          "name": "user",
          "type": "address"
        }
      ],
      "name": "getOutstandingLoanUSD",
      "outputs": [
        {
          "internalType": "uint256",
          "name": "",
          "type": "uint256"
        }
      ],
      "stateMutability": "view",
      "type": "function"
    },
    {
      "inputs": [
        {
          "internalType": "address",
          "name": "token",
          "type": "address"
        }
      ],
      "name": "getSupplyRate",
      "outputs": [
        {
          "internalType": "uint256",
          "name": "",
          "type": "uint256"
        }
      ],
      "stateMutability": "view",
      "type": "function"
    },
    {
      "inputs": [
        {
          "internalType": "address",
          "name": "token",
          "type": "address"
        }
      ],
      "name": "getUtilizationRate",
      "outputs": [
        {
          "internalType": "uint256",
          "name": "",
          "type": "uint256"
        }
      ],
      "stateMutability": "view",
      "type": "function"
    },
    {
      "inputs": [
        {
          "internalType": "address",
          "name": "",
          "type": "address"
        }
      ],
      "name": "isBorrower",
      "outputs": [
        {
          "internalType": "bool",
          "name": "",
          "type": "bool"
        }
      ],
      "stateMutability": "view",
      "type": "function"
    },
    {
      "inputs": [
        {
          "internalType": "address",
          "name": "",
          "type": "address"
        }
      ],
      "name": "isSupportedToken",
      "outputs": [
        {
          "internalType": "bool",
          "name": "",
          "type": "bool"
        }
      ],
      "stateMutability": "view",
      "type": "function"
    },
    {
      "inputs": [
        {
          "internalType": "address",
          "name": "",
          "type": "address"
        },
        {
          "internalType": "address",
          "name": "",
          "type": "address"
        }
      ],
      "name": "lenders",
      "outputs": [
        {
          "internalType": "uint256",
          "name": "scaledBalance",
          "type": "uint256"
        }
      ],
      "stateMutability": "view",
      "type": "function"
    },
    {
      "inputs": [
        {
          "internalType": "address",
          "name": "",
          "type": "address"
        }
      ],
      "name": "loans",
      "outputs": [
        {
          "internalType": "address",
          "name": "token",
          "type": "address"
        },
        {
          "internalType": "uint256",
          "name": "scaledPrincipal",
          "type": "uint256"
        },
        {
          "internalType": "bool",
          "name": "active",
          "type": "bool"
        }
      ],
      "stateMutability": "view",
      "type": "function"
    },
    {
      "inputs": [],
      "name": "owner",
      "outputs": [
        {
          "internalType": "address",
          "name": "",
          "type": "address"
        }
      ],
      "stateMutability": "view",
      "type": "function"
    },
    {
      "inputs": [],
      "name": "priceOracle",
      "outputs": [
        {
          "internalType": "contract IPriceOracle",
          "name": "",
          "type": "address"
        }
      ],
      "stateMutability": "view",
      "type": "function"
    },
    {
      "inputs": [
        {
          "internalType": "address",
          "name": "",
          "type": "address"
        }
      ],
      "name": "protocolProfit",
      "outputs": [
        {
          "internalType": "uint256",
          "name": "",
          "type": "uint256"
        }
      ],
      "stateMutability": "view",
      "type": "function"
    },
    {
      "inputs": [
        {
          "internalType": "address",
          "name": "",
          "type": "address"
        }
      ],
      "name": "rateConfigs",
      "outputs": [
        {
          "internalType": "uint256",
          "name": "baseRate",
          "type": "uint256"
        },
        {
          "internalType": "uint256",
          "name": "slope1",
          "type": "uint256"
        },
        {
          "internalType": "uint256",
          "name": "slope2",
          "type": "uint256"
        },
        {
          "internalType": "uint256",
          "name": "optimalUtil",
          "type": "uint256"
        }
      ],
      "stateMutability": "view",
      "type": "function"
    },
    {
      "inputs": [],
      "name": "renounceOwnership",
      "outputs": [],
      "stateMutability": "nonpayable",
      "type": "function"
    },
    {
      "inputs": [
        {
          "internalType": "address",
          "name": "token",
          "type": "address"
        },
        {
          "internalType": "uint256",
          "name": "amount",
          "type": "uint256"
        }
      ],
      "name": "repay",
      "outputs": [],
      "stateMutability": "nonpayable",
      "type": "function"
    },
    {
      "inputs": [
        {
          "internalType": "address",
          "name": "token",
          "type": "address"
        }
      ],
      "name": "repayAll",
      "outputs": [],
      "stateMutability": "nonpayable",
      "type": "function"
    },
    {
      "inputs": [
        {
          "internalType": "address",
          "name": "borrower",
          "type": "address"
        },
        {
          "internalType": "address",
          "name": "token",
          "type": "address"
        },
        {
          "internalType": "uint256",
          "name": "amount",
          "type": "uint256"
        }
      ],
      "name": "repayFor",
      "outputs": [],
      "stateMutability": "nonpayable",
      "type": "function"
    },
    {
      "inputs": [
        {
          "internalType": "address",
          "name": "token",
          "type": "address"
        },
        {
          "internalType": "uint256",
          "name": "amount",
          "type": "uint256"
        },
        {
          "internalType": "uint256",
          "name": "",
          "type": "uint256"
        }
      ],
      "name": "requestLoan",
      "outputs": [],
      "stateMutability": "nonpayable",
      "type": "function"
    },
    {
      "inputs": [],
      "name": "rewardToken",
      "outputs": [
        {
          "internalType": "contract IERC20",
          "name": "",
          "type": "address"
        }
      ],
      "stateMutability": "view",
      "type": "function"
    },
    {
      "inputs": [],
      "name": "rewardsDistributor",
      "outputs": [
        {
          "internalType": "contract IRewardsDistributor",
          "name": "",
          "type": "address"
        }
      ],
      "stateMutability": "view",
      "type": "function"
    },
    {
      "inputs": [
        {
          "internalType": "address",
          "name": "_oracle",
          "type": "address"
        }
      ],
      "name": "setPriceOracle",
      "outputs": [],
      "stateMutability": "nonpayable",
      "type": "function"
    },
    {
      "inputs": [
        {
          "internalType": "address",
          "name": "_token",
          "type": "address"
        }
      ],
      "name": "setRewardToken",
      "outputs": [],
      "stateMutability": "nonpayable",
      "type": "function"
    },
    {
      "inputs": [
        {
          "internalType": "address",
          "name": "distributor",
          "type": "address"
        }
      ],
      "name": "setRewardsDistributor",
      "outputs": [],
      "stateMutability": "nonpayable",
      "type": "function"
    },
    {
      "inputs": [
        {
          "internalType": "address",
          "name": "token",
          "type": "address"
        },
        {
          "internalType": "uint256",
          "name": "baseRate",
          "type": "uint256"
        },
        {
          "internalType": "uint256",
          "name": "slope1",
          "type": "uint256"
        },
        {
          "internalType": "uint256",
          "name": "slope2",
          "type": "uint256"
        },
        {
          "internalType": "uint256",
          "name": "optimalUtil",
          "type": "uint256"
        },
        {
          "internalType": "uint256",
          "name": "reserveFactor",
          "type": "uint256"
        }
      ],
      "name": "supportToken",
      "outputs": [],
      "stateMutability": "nonpayable",
      "type": "function"
    },
    {
      "inputs": [
        {
          "internalType": "address",
          "name": "newOwner",
          "type": "address"
        }
      ],
      "name": "transferOwnership",
      "outputs": [],
      "stateMutability": "nonpayable",
      "type": "function"
    },
    {
      "inputs": [
        {
          "internalType": "address",
          "name": "",
          "type": "address"
        }
      ],
      "name": "treasury",
      "outputs": [
        {
          "internalType": "uint256",
          "name": "totalDeposits",
          "type": "uint256"
        },
        {
          "internalType": "uint256",
          "name": "totalBorrows",
          "type": "uint256"
        },
        {
          "internalType": "uint256",
          "name": "lastUpdate",
          "type": "uint256"
        },
        {
          "internalType": "uint256",
          "name": "borrowIndex",
          "type": "uint256"
        },
        {
          "internalType": "uint256",
          "name": "supplyIndex",
          "type": "uint256"
        },
        {
          "internalType": "uint256",
          "name": "reserveFactor",
          "type": "uint256"
        }
      ],
      "stateMutability": "view",
      "type": "function"
    },
    {
      "inputs": [
        {
          "internalType": "address",
          "name": "token",
          "type": "address"
        },
        {
          "internalType": "uint256",
          "name": "amount",
          "type": "uint256"
        }
      ],
      "name": "withdraw",
      "outputs": [],
      "stateMutability": "nonpayable",
      "type": "function"
    },
    {
      "inputs": [
        {
          "internalType": "address",
          "name": "token",
          "type": "address"
        }
      ],
      "name": "withdrawAll",
      "outputs": [],
      "stateMutability": "nonpayable",
      "type": "function"
    }
  ],
  "transactionHash": "0xf8f6f8c943aac1aa312faf5a1bd270f3414b6b7379bbfbf6cd138c2744bd1491",
  "args": [
    "0x72E80853F6676e6Eb6dcc1527ccbAd82C36DeA55",
    "0x4A4c8E15CCc184E9Eff2cBBbbb06eBc2571FE6f0"
  ],
  "numDeployments": 6,
  "solcInputHash": "faeff54535fc0f72c2e3b74e7cf91097",
  "bytecode": "0x608060405234801562000010575f80fd5b50604051620025e5380380620025e5833981016040819052620000339162000104565b806001600160a01b0381166200006257604051631e4fbdf760e01b81525f600482015260240160405180910390fd5b6200006d8162000099565b505060018055600c80546001600160a01b0319166001600160a01b03929092169190911790556200013a565b5f80546001600160a01b038381166001600160a01b0319831681178455604051919092169283917f8be0079c531659141344cd1fd0a4f28419497f9722a3daafe3b4186f6b6457e09190a35050565b80516001600160a01b0381168114620000ff575f80fd5b919050565b5f806040838503121562000116575f80fd5b6200012183620000e8565b91506200013160208401620000e8565b90509250929050565b61249d80620001485f395ff3fe608060405234801561000f575f80fd5b5060043610610269575f3560e01c80637b6aa8bd11610157578063d1f5c33b116100d2578063eaf6e48311610088578063f3fef3a31161006e578063f3fef3a314610660578063f7c618c114610673578063fa09e63014610686575f80fd5b8063eaf6e4831461062b578063f2fde38b1461064d575f80fd5b8063d85bf034116100b8578063d85bf034146105ee578063daf0ca5f1461060d578063e6a69ab814610620575f80fd5b8063d1f5c33b146105c8578063d71275f6146105db575f80fd5b80639198e515116101275780639eb787981161010d5780639eb787981461054e578063a611c62b14610561578063c0e34fdf14610574575f80fd5b80639198e51514610528578063976ce4951461053b575f80fd5b80637b6aa8bd146104df5780637c27383b146104f25780638aee8127146105055780638da5cb5b14610518575f80fd5b80632f6d58dc116101e7578063552033c4116101b75780636f77ff551161019d5780636f77ff5514610461578063715018a61461047457806373b4086b1461047c575f80fd5b8063552033c41461043b5780636b5441a91461044e575f80fd5b80632f6d58dc146103d85780633f2a5540146103eb5780634162d0ea146103fe578063530e784f14610428575f80fd5b806323be345c1161023c5780632630c12f116102225780632630c12f14610343578063266e2bd8146103565780632d809cb614610369575f80fd5b806323be345c146102fe578063240028e814610311575f80fd5b80630ccd8ab51461026d5780631955c977146102b55780631b7adeca146102d657806322867d78146102e9575b5f80fd5b61029861027b366004612194565b6001600160a01b039081165f908152600260205260409020541690565b6040516001600160a01b0390911681526020015b60405180910390f35b6102c86102c3366004612194565b610699565b6040519081526020016102ac565b6102c86102e4366004612194565b6107f9565b6102fc6102f73660046121b4565b61093f565b005b600c54610298906001600160a01b031681565b61033361031f366004612194565b60066020525f908152604090205460ff1681565b60405190151581526020016102ac565b600d54610298906001600160a01b031681565b6102c8610364366004612194565b610960565b6103ab610377366004612194565b600460208190525f918252604090912080546001820154600283015460038401549484015460059094015492949193909286565b604080519687526020870195909552938501929092526060840152608083015260a082015260c0016102ac565b6102fc6103e63660046121b4565b6109ce565b600e54610298906001600160a01b031681565b6102c861040c3660046121dc565b600360209081525f928352604080842090915290825290205481565b6102fc610436366004612194565b610b87565b6102c86b033b2e3c9fd0803ce800000081565b6102c861045c366004612194565b610bb1565b6102fc61046f36600461220d565b610c1e565b6102fc611002565b6104b861048a366004612194565b600260208190525f91825260409091208054600182015491909201546001600160a01b039092169160ff1683565b604080516001600160a01b03909416845260208401929092521515908201526060016102ac565b6102c86104ed366004612194565b611015565b6102fc610500366004612194565b6110a7565b6102fc610513366004612194565b6110d4565b5f546001600160a01b0316610298565b6102fc610536366004612194565b6110fe565b6102fc61054936600461223d565b61129f565b61029861055c366004612276565b6112bc565b6102c861056f3660046121dc565b6112e4565b6105a8610582366004612194565b60056020525f908152604090208054600182015460028301546003909301549192909184565b6040805194855260208501939093529183015260608201526080016102ac565b6102fc6105d6366004612194565b611418565b6102c86105e9366004612194565b611442565b6102c86105fc366004612194565b60086020525f908152604090205481565b6102fc61061b36600461228d565b6114fe565b6102c86301e1338081565b610333610639366004612194565b60096020525f908152604090205460ff1681565b6102fc61065b366004612194565b611721565b6102fc61066e3660046121b4565b61175b565b600f54610298906001600160a01b031681565b6102fc610694366004612194565b6119a0565b6001600160a01b038082165f90815260026020818152604080842081516060810183528154909616865260018101549286019290925291015460ff1615159083018190529091906106ec57505f92915050565b5f6106f6846107f9565b600d5483516040516341976e0960e01b81526001600160a01b0391821660048201529293505f929116906341976e0990602401602060405180830381865afa158015610744573d5f803e3d5ffd5b505050506040513d601f19601f8201168201806040525081019061076891906122d3565b90505f835f01516001600160a01b031663313ce5676040518163ffffffff1660e01b8152600401602060405180830381865afa1580156107aa573d5f803e3d5ffd5b505050506040513d601f19601f820116820180604052508101906107ce91906122ea565b90506107db81600a6123fe565b6107e5838561240c565b6107ef9190612423565b9695505050505050565b6001600160a01b038082165f90815260026020818152604080842081516060810183528154909616865260018101549286019290925291015460ff16151590830181905290919061084c57505f92915050565b5f610859825f0151611442565b82516001600160a01b03165f90815260046020526040812060020154919250906108839042612442565b90505f6108966301e1338061271061240c565b6b033b2e3c9fd0803ce80000006108ad848661240c565b6108b7919061240c565b6108c19190612423565b90505f6b033b2e3c9fd0803ce80000006108db8382612455565b86516001600160a01b03165f90815260046020526040902060030154610901919061240c565b61090b9190612423565b90506b033b2e3c9fd0803ce800000081866020015161092a919061240c565b6109349190612423565b979650505050505050565b6109476119fe565b61095333338484611a28565b61095c60018055565b5050565b6040516370a0823160e01b81523060048201525f906001600160a01b038316906370a0823190602401602060405180830381865afa1580156109a4573d5f803e3d5ffd5b505050506040513d601f19601f820116820180604052508101906109c891906122d3565b92915050565b6109d66119fe565b5f8111610a2a5760405162461bcd60e51b815260206004820152600860248201527f416d6f756e743d3000000000000000000000000000000000000000000000000060448201526064015b60405180910390fd5b6001600160a01b0382165f9081526006602052604090205460ff16610a7f5760405162461bcd60e51b815260206004820152600b60248201526a155b9cdd5c1c1bdc9d195960aa1b6044820152606401610a21565b610a88826110fe565b6001600160a01b0382165f81815260046020526040902090610aac90333085611c4d565b60048101545f90610ac96b033b2e3c9fd0803ce80000008561240c565b610ad39190612423565b335f9081526003602090815260408083206001600160a01b0389168452909152812080549293508392909190610b0a908490612455565b90915550508154819083905f90610b22908490612455565b9091555050604080516001600160a01b03861681526020810185905290810182905233907f9efb8349f20e5e269336a2805f00f159e8251ff2b6060c5bc6735155e56cabae9060600160405180910390a2610b7c33611ccf565b505061095c60018055565b610b8f611f20565b600d80546001600160a01b0319166001600160a01b0392909216919091179055565b5f80610bbc83611442565b90505f610bc884611015565b6001600160a01b0385165f908152600460205260409020600501549091506305f5e100610bf782612710612442565b610c01848661240c565b610c0b919061240c565b610c159190612423565b95945050505050565b610c266119fe565b335f908152600260208190526040909120015460ff1615610c895760405162461bcd60e51b815260206004820152601260248201527f416374697665206c6f616e2065786973747300000000000000000000000000006044820152606401610a21565b6001600160a01b0383165f9081526006602052604090205460ff16610cde5760405162461bcd60e51b815260206004820152600b60248201526a155b9cdd5c1c1bdc9d195960aa1b6044820152606401610a21565b610ce7836110fe565b6001600160a01b038381165f90815260046020819052604091829020600c549251633f9af35f60e21b8152339281019290925292670de0b6b3a764000092169063fe6bcd7c90602401602060405180830381865afa158015610d4b573d5f803e3d5ffd5b505050506040513d601f19601f82011682018060405250810190610d6f91906122d3565b1015610dbd5760405162461bcd60e51b815260206004820152600960248201527f556e6865616c74687900000000000000000000000000000000000000000000006044820152606401610a21565b6040516370a0823160e01b815230600482015283906001600160a01b038616906370a0823190602401602060405180830381865afa158015610e01573d5f803e3d5ffd5b505050506040513d601f19601f82011682018060405250810190610e2591906122d3565b1015610e625760405162461bcd60e51b815260206004820152600c60248201526b4e6f206c697175696469747960a01b6044820152606401610a21565b60038101545f90610e7f6b033b2e3c9fd0803ce80000008661240c565b610e899190612423565b604080516060810182526001600160a01b03888116825260208083018581526001848601818152335f908152600294859052968720955186546001600160a01b031916951694909417855590518482015591519201805460ff191692151592909217909155840180549293508392909190610f05908490612455565b9091555050335f9081526009602052604090205460ff16610f8957335f818152600960209081526040808320805460ff19166001908117909155600a805491820181557fc65a7bb8d6351c1cf70c95a316cc6a92839c986682d98bc35f958f4883f9d2a890910180546001600160a01b0319168617905554938352600b9091529020555b610f9d6001600160a01b0386163386611f4c565b604080516001600160a01b03871681526020810186905290810182905233907f8ca033dfe8ac84b6e3e48aa36967e19d52a93a3f4d880ce8005fd4e04c97c94d9060600160405180910390a2610ff233611ccf565b5050610ffd60018055565b505050565b61100a611f20565b6110135f611f7d565b565b6001600160a01b0381165f9081526004602052604081206003810154600182015483916b033b2e3c9fd0803ce800000091611050919061240c565b61105a9190612423565b90505f6b033b2e3c9fd0803ce80000008360040154845f015461107d919061240c565b6110879190612423565b9050805f0361109a57505f949350505050565b80610c0b8361271061240c565b6110af6119fe565b5f6110b9336107f9565b90506110c733338484611a28565b506110d160018055565b50565b6110dc611f20565b600f80546001600160a01b0319166001600160a01b0392909216919091179055565b6001600160a01b0381165f90815260046020526040902060028101544203611124575050565b5f61112e83611442565b90505f61113a84610bb1565b90505f83600201544261114d9190612442565b9050801561123e575f6111666301e1338061271061240c565b6b033b2e3c9fd0803ce800000061117d848761240c565b611187919061240c565b6111919190612423565b90506b033b2e3c9fd0803ce80000006111aa8282612455565b86600301546111b9919061240c565b6111c39190612423565b60038601555f6111d96301e1338061271061240c565b6b033b2e3c9fd0803ce80000006111f0858761240c565b6111fa919061240c565b6112049190612423565b90506b033b2e3c9fd0803ce800000061121d8282612455565b876004015461122c919061240c565b6112369190612423565b600487015550505b426002850155600384015460048501546040805186815260208101939093528201526001600160a01b038616907fbea9dfcbd95788b1634fd949c43c80348c9a8960d5837081e062bc6679b9d8fe9060600160405180910390a25050505050565b6112a76119fe565b6112b333848484611a28565b610ffd60018055565b600a81815481106112cb575f80fd5b5f918252602090912001546001600160a01b0316905081565b6001600160a01b038083165f9081526003602090815260408083209385168352928152828220835191820190935291548083529091908203611329575f9150506109c8565b5f61133384610bb1565b6001600160a01b0385165f908152600460205260408120600201549192509061135c9042612442565b90505f61136f6301e1338061271061240c565b6b033b2e3c9fd0803ce8000000611386848661240c565b611390919061240c565b61139a9190612423565b90505f6b033b2e3c9fd0803ce80000006113b48382612455565b6001600160a01b0389165f90815260046020819052604090912001546113da919061240c565b6113e49190612423565b90506b033b2e3c9fd0803ce800000081865f0151611402919061240c565b61140c9190612423565b98975050505050505050565b611420611f20565b600e80546001600160a01b0319166001600160a01b0392909216919091179055565b5f8061144d83611015565b6001600160a01b0384165f90815260056020526040902060038101549192509082116114a55760038101546001820154611487908461240c565b6114919190612423565b815461149d9190612455565b949350505050565b5f8160030154836114b69190612442565b905081600301546127106114ca9190612442565b60028301546114d9908361240c565b6114e39190612423565b600183015483546114f49190612455565b610c159190612455565b611506611f20565b6001600160a01b03861661155c5760405162461bcd60e51b815260206004820152600d60248201527f496e76616c696420746f6b656e000000000000000000000000000000000000006044820152606401610a21565b612710821115801561157057506127108111155b6115bc5760405162461bcd60e51b815260206004820152600b60248201527f496e76616c6964206270730000000000000000000000000000000000000000006044820152606401610a21565b604080516080810182528681526020808201878152828401878152606084018781526001600160a01b038c165f908152600585528681209551865592516001860155905160028501555160039093019290925560069052205460ff166116ae576007805460018082019092557fa66cc928b5edb82af9bd49922954155ab7b0942694bea4ce44661d9a8736c6880180546001600160a01b0319166001600160a01b0389169081179091555f908152600660209081526040808320805460ff19169094179093556004908190529190206b033b2e3c9fd0803ce80000006003820181905591810191909155426002909101555b6001600160a01b0386165f8181526004602090815260409182902060050184905581519283528201879052810185905260608101849052608081018390527fabe6451cabbd950b3e345c0654219f82e7fef35193d64c9a7a3d89c4f6f2052f9060a00160405180910390a1505050505050565b611729611f20565b6001600160a01b03811661175257604051631e4fbdf760e01b81525f6004820152602401610a21565b6110d181611f7d565b6117636119fe565b61176c826110fe565b6001600160a01b0382165f818152600460208181526040808420338552600383528185209585529490915282209083015481549192916b033b2e3c9fd0803ce8000000916117b99161240c565b6117c39190612423565b90505f1984036117d1578093505b5f841180156117e05750808411155b61182c5760405162461bcd60e51b815260206004820152600f60248201527f496e76616c69642062616c616e636500000000000000000000000000000000006044820152606401610a21565b6040516370a0823160e01b815230600482015284906001600160a01b038716906370a0823190602401602060405180830381865afa158015611870573d5f803e3d5ffd5b505050506040513d601f19601f8201168201806040525081019061189491906122d3565b10156118d15760405162461bcd60e51b815260206004820152600c60248201526b4e6f206c697175696469747960a01b6044820152606401610a21565b60048301545f906118ee6b033b2e3c9fd0803ce80000008761240c565b6118f89190612423565b905080835f015f82825461190c9190612442565b90915550508354819085905f90611924908490612442565b9091555061193e90506001600160a01b0387163387611f4c565b604080516001600160a01b03881681526020810187905290810182905233907f91fb9d98b786c57d74c099ccd2beca1739e9f6a81fb49001ca465c4b7591bbe29060600160405180910390a261199333611ccf565b5050505061095c60018055565b60405163f3fef3a360e01b81526001600160a01b03821660048201525f196024820152309063f3fef3a3906044015f604051808303815f87803b1580156119e5575f80fd5b505af11580156119f7573d5f803e3d5ffd5b5050505050565b600260015403611a2157604051633ee5aeb560e01b815260040160405180910390fd5b6002600155565b6001600160a01b0383165f9081526002602081905260409091209081015460ff16611a955760405162461bcd60e51b815260206004820152600e60248201527f4e6f20616374697665206c6f616e0000000000000000000000000000000000006044820152606401610a21565b80546001600160a01b03848116911614611af15760405162461bcd60e51b815260206004820152600b60248201527f57726f6e6720746f6b656e0000000000000000000000000000000000000000006044820152606401610a21565b611afa836110fe565b6001600160a01b0383165f908152600460205260408120600381015460018401549192916b033b2e3c9fd0803ce800000091611b359161240c565b611b3f9190612423565b905080841115611b4d578093505b611b626001600160a01b038616883087611c4d565b60038201545f90611b7f6b033b2e3c9fd0803ce80000008761240c565b611b899190612423565b905080846001015f828254611b9e9190612442565b9250508190555080836001015f828254611bb89190612442565b909155505060018401545f03611beb5760028401805460ff1916905583546001600160a01b0319168455611beb87611fcc565b604080516001600160a01b03888116825260208201889052918101839052908816907fa6f6d5e50bc84f153a0d6a9f9b37780433f92dc32d7e10f975ab3831c36898fa9060600160405180910390a2611c4387611ccf565b5050505050505050565b6040516001600160a01b038481166024830152838116604483015260648201839052611cc99186918216906323b872dd906084015b604051602081830303815290604052915060e01b6020820180517bffffffffffffffffffffffffffffffffffffffffffffffffffffffff838183161783525050505061210d565b50505050565b600e546001600160a01b03161580611cee57506001600160a01b038116155b15611cf65750565b5f805b600754811015611ea6575f60078281548110611d1757611d17612468565b5f9182526020808320909101546001600160a01b03878116845260038352604080852091909216808552908352928190208151928301909152548082529192509015611e9c576001600160a01b0382165f9081526004602081905260408220015482516b033b2e3c9fd0803ce800000091611d919161240c565b611d9b9190612423565b600d546040516341976e0960e01b81526001600160a01b0386811660048301529293505f92909116906341976e0990602401602060405180830381865afa158015611de8573d5f803e3d5ffd5b505050506040513d601f19601f82011682018060405250810190611e0c91906122d3565b9050836001600160a01b031663313ce5676040518163ffffffff1660e01b8152600401602060405180830381865afa158015611e4a573d5f803e3d5ffd5b505050506040513d601f19601f82011682018060405250810190611e6e91906122ea565b611e7990600a6123fe565b611e83828461240c565b611e8d9190612423565b611e979087612455565b955050505b5050600101611cf9565b505f611eb183610699565b600e5460405163ca0caf9d60e01b81526001600160a01b038681166004830152602482018690526044820184905292935091169063ca0caf9d906064015f604051808303815f87803b158015611f05575f80fd5b505af1158015611f17573d5f803e3d5ffd5b50505050505050565b5f546001600160a01b031633146110135760405163118cdaa760e01b8152336004820152602401610a21565b6040516001600160a01b03838116602483015260448201839052610ffd91859182169063a9059cbb90606401611c82565b5f80546001600160a01b038381166001600160a01b0319831681178455604051919092169283917f8be0079c531659141344cd1fd0a4f28419497f9722a3daafe3b4186f6b6457e09190a35050565b6001600160a01b0381165f908152600b602052604081205490819003611ff0575050565b5f611ffc600183612442565b600a549091505f9061201090600190612442565b90508082146120a8575f600a828154811061202d5761202d612468565b5f91825260209091200154600a80546001600160a01b03909216925082918590811061205b5761205b612468565b5f91825260209091200180546001600160a01b0319166001600160a01b039290921691909117905561208e836001612455565b6001600160a01b039091165f908152600b60205260409020555b600a8054806120b9576120b961247c565b5f828152602080822083015f1990810180546001600160a01b03191690559092019092556001600160a01b03959095168152600b85526040808220829055600990955293909320805460ff19169055505050565b5f8060205f8451602086015f885af18061212c576040513d5f823e3d81fd5b50505f513d91508115612143578060011415612150565b6001600160a01b0384163b155b15611cc957604051635274afe760e01b81526001600160a01b0385166004820152602401610a21565b80356001600160a01b038116811461218f575f80fd5b919050565b5f602082840312156121a4575f80fd5b6121ad82612179565b9392505050565b5f80604083850312156121c5575f80fd5b6121ce83612179565b946020939093013593505050565b5f80604083850312156121ed575f80fd5b6121f683612179565b915061220460208401612179565b90509250929050565b5f805f6060848603121561221f575f80fd5b61222884612179565b95602085013595506040909401359392505050565b5f805f6060848603121561224f575f80fd5b61225884612179565b925061226660208501612179565b9150604084013590509250925092565b5f60208284031215612286575f80fd5b5035919050565b5f805f805f8060c087890312156122a2575f80fd5b6122ab87612179565b9860208801359850604088013597606081013597506080810135965060a00135945092505050565b5f602082840312156122e3575f80fd5b5051919050565b5f602082840312156122fa575f80fd5b815160ff811681146121ad575f80fd5b634e487b7160e01b5f52601160045260245ffd5b600181815b8085111561235857815f190482111561233e5761233e61230a565b8085161561234b57918102915b93841c9390800290612323565b509250929050565b5f8261236e575060016109c8565b8161237a57505f6109c8565b8160018114612390576002811461239a576123b6565b60019150506109c8565b60ff8411156123ab576123ab61230a565b50506001821b6109c8565b5060208310610133831016604e8410600b84101617156123d9575081810a6109c8565b6123e3838361231e565b805f19048211156123f6576123f661230a565b029392505050565b5f6121ad60ff841683612360565b80820281158282048414176109c8576109c861230a565b5f8261243d57634e487b7160e01b5f52601260045260245ffd5b500490565b818103818111156109c8576109c861230a565b808201808211156109c8576109c861230a565b634e487b7160e01b5f52603260045260245ffd5b634e487b7160e01b5f52603160045260245ffdfea164736f6c6343000818000a",
  "devdoc": {
    "errors": {
      "OwnableInvalidOwner(address)": [
        {
          "details": "The owner is not a valid owner account. (eg. `address(0)`)"
        }
      ],
      "OwnableUnauthorizedAccount(address)": [
        {
          "details": "The caller account is not authorized to perform an operation."
        }
      ],
      "ReentrancyGuardReentrantCall()": [
        {
          "details": "Unauthorized reentrant call."
        }
      ],
      "SafeERC20FailedOperation(address)": [
        {
          "details": "An operation with an ERC-20 token failed."
        }
      ]
    },
    "kind": "dev",
    "methods": {
      "owner()": {
        "details": "Returns the address of the current owner."
      },
      "renounceOwnership()": {
        "details": "Leaves the contract without owner. It will not be possible to call `onlyOwner` functions. Can only be called by the current owner. NOTE: Renouncing ownership will leave the contract without an owner, thereby disabling any functionality that is only available to the owner."
      },
      "transferOwnership(address)": {
        "details": "Transfers ownership of the contract to a new account (`newOwner`). Can only be called by the current owner."
      }
    },
    "version": 1
  },
  "userdoc": {
    "kind": "user",
    "methods": {},
    "version": 1
  },
  "storageLayout": {
    "storage": [
      {
        "astId": 8,
        "contract": "contracts/LoanManager.sol:LoanManager",
        "label": "_owner",
        "offset": 0,
        "slot": "0",
        "type": "t_address"
      },
      {
        "astId": 1498,
        "contract": "contracts/LoanManager.sol:LoanManager",
        "label": "_status",
        "offset": 0,
        "slot": "1",
        "type": "t_uint256"
      },
      {
        "astId": 2892,
        "contract": "contracts/LoanManager.sol:LoanManager",
        "label": "loans",
        "offset": 0,
        "slot": "2",
        "type": "t_mapping(t_address,t_struct(Loan)2884_storage)"
      },
      {
        "astId": 2899,
        "contract": "contracts/LoanManager.sol:LoanManager",
        "label": "lenders",
        "offset": 0,
        "slot": "3",
        "type": "t_mapping(t_address,t_mapping(t_address,t_struct(Lender)2887_storage))"
      },
      {
        "astId": 2904,
        "contract": "contracts/LoanManager.sol:LoanManager",
        "label": "treasury",
        "offset": 0,
        "slot": "4",
        "type": "t_mapping(t_address,t_struct(TreasuryStats)2877_storage)"
      },
      {
        "astId": 2909,
        "contract": "contracts/LoanManager.sol:LoanManager",
        "label": "rateConfigs",
        "offset": 0,
        "slot": "5",
        "type": "t_mapping(t_address,t_struct(RateModelConfig)2864_storage)"
      },
      {
        "astId": 2913,
        "contract": "contracts/LoanManager.sol:LoanManager",
        "label": "isSupportedToken",
        "offset": 0,
        "slot": "6",
        "type": "t_mapping(t_address,t_bool)"
      },
      {
        "astId": 2916,
        "contract": "contracts/LoanManager.sol:LoanManager",
        "label": "_supportedTokens",
        "offset": 0,
        "slot": "7",
        "type": "t_array(t_address)dyn_storage"
      },
      {
        "astId": 2920,
        "contract": "contracts/LoanManager.sol:LoanManager",
        "label": "protocolProfit",
        "offset": 0,
        "slot": "8",
        "type": "t_mapping(t_address,t_uint256)"
      },
      {
        "astId": 2924,
        "contract": "contracts/LoanManager.sol:LoanManager",
        "label": "isBorrower",
        "offset": 0,
        "slot": "9",
        "type": "t_mapping(t_address,t_bool)"
      },
      {
        "astId": 2927,
        "contract": "contracts/LoanManager.sol:LoanManager",
        "label": "activeBorrowers",
        "offset": 0,
        "slot": "10",
        "type": "t_array(t_address)dyn_storage"
      },
      {
        "astId": 2931,
        "contract": "contracts/LoanManager.sol:LoanManager",
        "label": "activeBorrowerIndex",
        "offset": 0,
        "slot": "11",
        "type": "t_mapping(t_address,t_uint256)"
      },
      {
        "astId": 2934,
        "contract": "contracts/LoanManager.sol:LoanManager",
        "label": "collateralManager",
        "offset": 0,
        "slot": "12",
        "type": "t_contract(ICollateralManager)2833"
      },
      {
        "astId": 2937,
        "contract": "contracts/LoanManager.sol:LoanManager",
        "label": "priceOracle",
        "offset": 0,
        "slot": "13",
        "type": "t_contract(IPriceOracle)2841"
      },
      {
        "astId": 2940,
        "contract": "contracts/LoanManager.sol:LoanManager",
        "label": "rewardsDistributor",
        "offset": 0,
        "slot": "14",
        "type": "t_contract(IRewardsDistributor)5547"
      },
      {
        "astId": 2943,
        "contract": "contracts/LoanManager.sol:LoanManager",
        "label": "rewardToken",
        "offset": 0,
        "slot": "15",
        "type": "t_contract(IERC20)967"
      }
    ],
    "types": {
      "t_address": {
        "encoding": "inplace",
        "label": "address",
        "numberOfBytes": "20"
      },
      "t_array(t_address)dyn_storage": {
        "base": "t_address",
        "encoding": "dynamic_array",
        "label": "address[]",
        "numberOfBytes": "32"
      },
      "t_bool": {
        "encoding": "inplace",
        "label": "bool",
        "numberOfBytes": "1"
      },
      "t_contract(ICollateralManager)2833": {
        "encoding": "inplace",
        "label": "contract ICollateralManager",
        "numberOfBytes": "20"
      },
      "t_contract(IERC20)967": {
        "encoding": "inplace",
        "label": "contract IERC20",
        "numberOfBytes": "20"
      },
      "t_contract(IPriceOracle)2841": {
        "encoding": "inplace",
        "label": "contract IPriceOracle",
        "numberOfBytes": "20"
      },
      "t_contract(IRewardsDistributor)5547": {
        "encoding": "inplace",
        "label": "contract IRewardsDistributor",
        "numberOfBytes": "20"
      },
      "t_mapping(t_address,t_bool)": {
        "encoding": "mapping",
        "key": "t_address",
        "label": "mapping(address => bool)",
        "numberOfBytes": "32",
        "value": "t_bool"
      },
      "t_mapping(t_address,t_mapping(t_address,t_struct(Lender)2887_storage))": {
        "encoding": "mapping",
        "key": "t_address",
        "label": "mapping(address => mapping(address => struct LoanManager.Lender))",
        "numberOfBytes": "32",
        "value": "t_mapping(t_address,t_struct(Lender)2887_storage)"
      },
      "t_mapping(t_address,t_struct(Lender)2887_storage)": {
        "encoding": "mapping",
        "key": "t_address",
        "label": "mapping(address => struct LoanManager.Lender)",
        "numberOfBytes": "32",
        "value": "t_struct(Lender)2887_storage"
      },
      "t_mapping(t_address,t_struct(Loan)2884_storage)": {
        "encoding": "mapping",
        "key": "t_address",
        "label": "mapping(address => struct LoanManager.Loan)",
        "numberOfBytes": "32",
        "value": "t_struct(Loan)2884_storage"
      },
      "t_mapping(t_address,t_struct(RateModelConfig)2864_storage)": {
        "encoding": "mapping",
        "key": "t_address",
        "label": "mapping(address => struct LoanManager.RateModelConfig)",
        "numberOfBytes": "32",
        "value": "t_struct(RateModelConfig)2864_storage"
      },
      "t_mapping(t_address,t_struct(TreasuryStats)2877_storage)": {
        "encoding": "mapping",
        "key": "t_address",
        "label": "mapping(address => struct LoanManager.TreasuryStats)",
        "numberOfBytes": "32",
        "value": "t_struct(TreasuryStats)2877_storage"
      },
      "t_mapping(t_address,t_uint256)": {
        "encoding": "mapping",
        "key": "t_address",
        "label": "mapping(address => uint256)",
        "numberOfBytes": "32",
        "value": "t_uint256"
      },
      "t_struct(Lender)2887_storage": {
        "encoding": "inplace",
        "label": "struct LoanManager.Lender",
        "members": [
          {
            "astId": 2886,
            "contract": "contracts/LoanManager.sol:LoanManager",
            "label": "scaledBalance",
            "offset": 0,
            "slot": "0",
            "type": "t_uint256"
          }
        ],
        "numberOfBytes": "32"
      },
      "t_struct(Loan)2884_storage": {
        "encoding": "inplace",
        "label": "struct LoanManager.Loan",
        "members": [
          {
            "astId": 2879,
            "contract": "contracts/LoanManager.sol:LoanManager",
            "label": "token",
            "offset": 0,
            "slot": "0",
            "type": "t_address"
          },
          {
            "astId": 2881,
            "contract": "contracts/LoanManager.sol:LoanManager",
            "label": "scaledPrincipal",
            "offset": 0,
            "slot": "1",
            "type": "t_uint256"
          },
          {
            "astId": 2883,
            "contract": "contracts/LoanManager.sol:LoanManager",
            "label": "active",
            "offset": 0,
            "slot": "2",
            "type": "t_bool"
          }
        ],
        "numberOfBytes": "96"
      },
      "t_struct(RateModelConfig)2864_storage": {
        "encoding": "inplace",
        "label": "struct LoanManager.RateModelConfig",
        "members": [
          {
            "astId": 2857,
            "contract": "contracts/LoanManager.sol:LoanManager",
            "label": "baseRate",
            "offset": 0,
            "slot": "0",
            "type": "t_uint256"
          },
          {
            "astId": 2859,
            "contract": "contracts/LoanManager.sol:LoanManager",
            "label": "slope1",
            "offset": 0,
            "slot": "1",
            "type": "t_uint256"
          },
          {
            "astId": 2861,
            "contract": "contracts/LoanManager.sol:LoanManager",
            "label": "slope2",
            "offset": 0,
            "slot": "2",
            "type": "t_uint256"
          },
          {
            "astId": 2863,
            "contract": "contracts/LoanManager.sol:LoanManager",
            "label": "optimalUtil",
            "offset": 0,
            "slot": "3",
            "type": "t_uint256"
          }
        ],
        "numberOfBytes": "128"
      },
      "t_struct(TreasuryStats)2877_storage": {
        "encoding": "inplace",
        "label": "struct LoanManager.TreasuryStats",
        "members": [
          {
            "astId": 2866,
            "contract": "contracts/LoanManager.sol:LoanManager",
            "label": "totalDeposits",
            "offset": 0,
            "slot": "0",
            "type": "t_uint256"
          },
          {
            "astId": 2868,
            "contract": "contracts/LoanManager.sol:LoanManager",
            "label": "totalBorrows",
            "offset": 0,
            "slot": "1",
            "type": "t_uint256"
          },
          {
            "astId": 2870,
            "contract": "contracts/LoanManager.sol:LoanManager",
            "label": "lastUpdate",
            "offset": 0,
            "slot": "2",
            "type": "t_uint256"
          },
          {
            "astId": 2872,
            "contract": "contracts/LoanManager.sol:LoanManager",
            "label": "borrowIndex",
            "offset": 0,
            "slot": "3",
            "type": "t_uint256"
          },
          {
            "astId": 2874,
            "contract": "contracts/LoanManager.sol:LoanManager",
            "label": "supplyIndex",
            "offset": 0,
            "slot": "4",
            "type": "t_uint256"
          },
          {
            "astId": 2876,
            "contract": "contracts/LoanManager.sol:LoanManager",
            "label": "reserveFactor",
            "offset": 0,
            "slot": "5",
            "type": "t_uint256"
          }
        ],
        "numberOfBytes": "192"
      },
      "t_uint256": {
        "encoding": "inplace",
        "label": "uint256",
        "numberOfBytes": "32"
      }
    }
  }
}