{
  "address": "0x3af7cF2b0f3FDd02a7CD11722Ab026AB224DD245",
  "abi": [
    {
      "inputs": [
        {
          "internalType": "address",
          "name": "_usdc",
          "type": "address"
        },
        {
          "internalType": "address",
          "name": "initialOwner",
          "type": "address"
        }
      ],
      "stateMutability": "nonpayable",
      "type": "constructor"
    },
    {
      "inputs": [
        {
          "internalType": "address",
          "name": "owner",
          "type": "address"
        }
      ],
      "name": "OwnableInvalidOwner",
      "type": "error"
    },
    {
      "inputs": [
        {
          "internalType": "address",
          "name": "account",
          "type": "address"
        }
      ],
      "name": "OwnableUnauthorizedAccount",
      "type": "error"
    },
    {
      "anonymous": false,
      "inputs": [
        {
          "indexed": true,
          "internalType": "address",
          "name": "previousOwner",
          "type": "address"
        },
        {
          "indexed": true,
          "internalType": "address",
          "name": "newOwner",
          "type": "address"
        }
      ],
      "name": "OwnershipTransferred",
      "type": "event"
    },
    {
      "anonymous": false,
      "inputs": [
        {
          "indexed": true,
          "internalType": "address",
          "name": "token",
          "type": "address"
        },
        {
          "indexed": false,
          "internalType": "uint256",
          "name": "price",
          "type": "uint256"
        },
        {
          "indexed": false,
          "internalType": "uint256",
          "name": "timestamp",
          "type": "uint256"
        }
      ],
      "name": "PriceUpdated",
      "type": "event"
    },
    {
      "inputs": [],
      "name": "MAX_STALE_TIME",
      "outputs": [
        {
          "internalType": "uint256",
          "name": "",
          "type": "uint256"
        }
      ],
      "stateMutability": "view",
      "type": "function"
    },
    {
      "inputs": [
        {
          "internalType": "address",
          "name": "token",
          "type": "address"
        }
      ],
      "name": "getPrice",
      "outputs": [
        {
          "internalType": "uint256",
          "name": "",
          "type": "uint256"
        }
      ],
      "stateMutability": "view",
      "type": "function"
    },
    {
      "inputs": [
        {
          "internalType": "address",
          "name": "",
          "type": "address"
        }
      ],
      "name": "isKeeper",
      "outputs": [
        {
          "internalType": "bool",
          "name": "",
          "type": "bool"
        }
      ],
      "stateMutability": "view",
      "type": "function"
    },
    {
      "inputs": [],
      "name": "owner",
      "outputs": [
        {
          "internalType": "address",
          "name": "",
          "type": "address"
        }
      ],
      "stateMutability": "view",
      "type": "function"
    },
    {
      "inputs": [],
      "name": "renounceOwnership",
      "outputs": [],
      "stateMutability": "nonpayable",
      "type": "function"
    },
    {
      "inputs": [
        {
          "internalType": "address",
          "name": "keeper",
          "type": "address"
        },
        {
          "internalType": "bool",
          "name": "status",
          "type": "bool"
        }
      ],
      "name": "setKeeper",
      "outputs": [],
      "stateMutability": "nonpayable",
      "type": "function"
    },
    {
      "inputs": [
        {
          "internalType": "address",
          "name": "token",
          "type": "address"
        },
        {
          "internalType": "uint256",
          "name": "price",
          "type": "uint256"
        }
      ],
      "name": "setPrice",
      "outputs": [],
      "stateMutability": "nonpayable",
      "type": "function"
    },
    {
      "inputs": [
        {
          "internalType": "address[]",
          "name": "tokens",
          "type": "address[]"
        },
        {
          "internalType": "uint256[]",
          "name": "priceList",
          "type": "uint256[]"
        }
      ],
      "name": "setPrices",
      "outputs": [],
      "stateMutability": "nonpayable",
      "type": "function"
    },
    {
      "inputs": [
        {
          "internalType": "address",
          "name": "newOwner",
          "type": "address"
        }
      ],
      "name": "transferOwnership",
      "outputs": [],
      "stateMutability": "nonpayable",
      "type": "function"
    },
    {
      "inputs": [],
      "name": "usdc",
      "outputs": [
        {
          "internalType": "address",
          "name": "",
          "type": "address"
        }
      ],
      "stateMutability": "view",
      "type": "function"
    }
  ],
  "transactionHash": "0x5a77ff34873d8f68da0677efedab00de759fa297b239d67d3d513b688d0bf8b3",
  "args": [
    "0x3600000000000000000000000000000000000000",
    "0x4A4c8E15CCc184E9Eff2cBBbbb06eBc2571FE6f0"
  ],
  "numDeployments": 3,
  "solcInputHash": "faeff54535fc0f72c2e3b74e7cf91097",
  "bytecode": "0x60a060405234801561000f575f80fd5b50604051610bb5380380610bb583398101604081905261002e91610139565b806001600160a01b03811661005d57604051631e4fbdf760e01b81525f60048201526024015b60405180910390fd5b610066816100cf565b506001600160a01b0382166100bd5760405162461bcd60e51b815260206004820152601f60248201527f4d616e75616c50726963654f7261636c653a20696e76616c69642055534443006044820152606401610054565b506001600160a01b031660805261016a565b5f80546001600160a01b038381166001600160a01b0319831681178455604051919092169283917f8be0079c531659141344cd1fd0a4f28419497f9722a3daafe3b4186f6b6457e09190a35050565b80516001600160a01b0381168114610134575f80fd5b919050565b5f806040838503121561014a575f80fd5b6101538361011e565b91506101616020840161011e565b90509250929050565b608051610a1f6101965f395f818160d6015281816102910152818161032b01526105a60152610a1f5ff3fe608060405234801561000f575f80fd5b50600436106100b8575f3560e01c80636ba42aaa116100725780638da5cb5b116100585780638da5cb5b1461018c578063d1b9e8531461019c578063f2fde38b146101af575f80fd5b80636ba42aaa14610152578063715018a614610184575f80fd5b806341976e09116100a257806341976e09146101155780634352fa9f146101365780635022a52e14610149575f80fd5b8062e4768b146100bc5780633e413bee146100d1575b5f80fd5b6100cf6100ca3660046108a9565b6101c2565b005b6100f87f000000000000000000000000000000000000000000000000000000000000000081565b6040516001600160a01b0390911681526020015b60405180910390f35b6101286101233660046108d1565b610328565b60405190815260200161010c565b6100cf610144366004610939565b610450565b61012861025881565b6101746101603660046108d1565b60026020525f908152604090205460ff1681565b604051901515815260200161010c565b6100cf6106ac565b5f546001600160a01b03166100f8565b6100cf6101aa3660046109a0565b6106bf565b6100cf6101bd3660046108d1565b6106f1565b5f546001600160a01b03163314806101e85750335f9081526002602052604090205460ff165b6102395760405162461bcd60e51b815260206004820152601f60248201527f4d616e75616c50726963654f7261636c653a20756e617574686f72697a65640060448201526064015b60405180910390fd5b6001600160a01b03821661028f5760405162461bcd60e51b815260206004820181905260248201527f4d616e75616c50726963654f7261636c653a20696e76616c696420746f6b656e6044820152606401610230565b7f00000000000000000000000000000000000000000000000000000000000000006001600160a01b0316826001600160a01b03160361031a5760405162461bcd60e51b815260206004820152602160248201527f4d616e75616c50726963654f7261636c653a205553444320696d6d757461626c6044820152606560f81b6064820152608401610230565b610324828261072e565b5050565b5f7f00000000000000000000000000000000000000000000000000000000000000006001600160a01b0316826001600160a01b03160361036d57506305f5e100919050565b6001600160a01b0382165f9081526001602081815260409283902083518085019094528054808552920154908301526103e85760405162461bcd60e51b815260206004820181905260248201527f4d616e75616c50726963654f7261636c653a207072696365206e6f74207365746044820152606401610230565b6102588160200151426103fb91906109d9565b11156104495760405162461bcd60e51b815260206004820152601e60248201527f4d616e75616c50726963654f7261636c653a207072696365207374616c6500006044820152606401610230565b5192915050565b5f546001600160a01b03163314806104765750335f9081526002602052604090205460ff165b6104c25760405162461bcd60e51b815260206004820152601f60248201527f4d616e75616c50726963654f7261636c653a20756e617574686f72697a6564006044820152606401610230565b82811461051c5760405162461bcd60e51b815260206004820152602260248201527f4d616e75616c50726963654f7261636c653a206c656e677468206d69736d61746044820152610c6d60f31b6064820152608401610230565b5f5b838110156106a5575f858583818110610539576105396109fe565b905060200201602081019061054e91906108d1565b6001600160a01b0316036105a45760405162461bcd60e51b815260206004820181905260248201527f4d616e75616c50726963654f7261636c653a20696e76616c696420746f6b656e6044820152606401610230565b7f00000000000000000000000000000000000000000000000000000000000000006001600160a01b03168585838181106105e0576105e06109fe565b90506020020160208101906105f591906108d1565b6001600160a01b0316036106555760405162461bcd60e51b815260206004820152602160248201527f4d616e75616c50726963654f7261636c653a205553444320696d6d757461626c6044820152606560f81b6064820152608401610230565b61069d85858381811061066a5761066a6109fe565b905060200201602081019061067f91906108d1565b848484818110610691576106916109fe565b9050602002013561072e565b60010161051e565b5050505050565b6106b46107fb565b6106bd5f610827565b565b6106c76107fb565b6001600160a01b03919091165f908152600260205260409020805460ff1916911515919091179055565b6106f96107fb565b6001600160a01b03811661072257604051631e4fbdf760e01b81525f6004820152602401610230565b61072b81610827565b50565b5f811161077d5760405162461bcd60e51b815260206004820181905260248201527f4d616e75616c50726963654f7261636c653a20696e76616c69642070726963656044820152606401610230565b6040805180820182528281524260208083018281526001600160a01b0387165f8181526001938490528690209451855590519390910192909255915190917fb556fac599c3c70efb9ab1fa725ecace6c81cc48d1455f886607def065f3e0c0916107ef91858252602082015260400190565b60405180910390a25050565b5f546001600160a01b031633146106bd5760405163118cdaa760e01b8152336004820152602401610230565b5f80546001600160a01b038381167fffffffffffffffffffffffff0000000000000000000000000000000000000000831681178455604051919092169283917f8be0079c531659141344cd1fd0a4f28419497f9722a3daafe3b4186f6b6457e09190a35050565b80356001600160a01b03811681146108a4575f80fd5b919050565b5f80604083850312156108ba575f80fd5b6108c38361088e565b946020939093013593505050565b5f602082840312156108e1575f80fd5b6108ea8261088e565b9392505050565b5f8083601f840112610901575f80fd5b50813567ffffffffffffffff811115610918575f80fd5b6020830191508360208260051b8501011115610932575f80fd5b9250929050565b5f805f806040858703121561094c575f80fd5b843567ffffffffffffffff80821115610963575f80fd5b61096f888389016108f1565b90965094506020870135915080821115610987575f80fd5b50610994878288016108f1565b95989497509550505050565b5f80604083850312156109b1575f80fd5b6109ba8361088e565b9150602083013580151581146109ce575f80fd5b809150509250929050565b818103818111156109f857634e487b7160e01b5f52601160045260245ffd5b92915050565b634e487b7160e01b5f52603260045260245ffdfea164736f6c6343000818000a",
  "devdoc": {
    "details": "Stores USD prices (8 decimals) for supported tokens. USDC is hard-coded      to $1.00, other tokens must be updated by the owner (e.g., via off-chain bot).",
    "errors": {
      "OwnableInvalidOwner(address)": [
        {
          "details": "The owner is not a valid owner account. (eg. `address(0)`)"
        }
      ],
      "OwnableUnauthorizedAccount(address)": [
        {
          "details": "The caller account is not authorized to perform an operation."
        }
      ]
    },
    "kind": "dev",
    "methods": {
      "owner()": {
        "details": "Returns the address of the current owner."
      },
      "renounceOwnership()": {
        "details": "Leaves the contract without owner. It will not be possible to call `onlyOwner` functions. Can only be called by the current owner. NOTE: Renouncing ownership will leave the contract without an owner, thereby disabling any functionality that is only available to the owner."
      },
      "transferOwnership(address)": {
        "details": "Transfers ownership of the contract to a new account (`newOwner`). Can only be called by the current owner."
      }
    },
    "title": "ManualPriceOracle",
    "version": 1
  },
  "userdoc": {
    "kind": "user",
    "methods": {},
    "version": 1
  },
  "storageLayout": {
    "storage": [
      {
        "astId": 8,
        "contract": "contracts/ManualPriceOracle.sol:ManualPriceOracle",
        "label": "_owner",
        "offset": 0,
        "slot": "0",
        "type": "t_address"
      },
      {
        "astId": 4465,
        "contract": "contracts/ManualPriceOracle.sol:ManualPriceOracle",
        "label": "prices",
        "offset": 0,
        "slot": "1",
        "type": "t_mapping(t_address,t_struct(PriceData)4447_storage)"
      },
      {
        "astId": 4469,
        "contract": "contracts/ManualPriceOracle.sol:ManualPriceOracle",
        "label": "isKeeper",
        "offset": 0,
        "slot": "2",
        "type": "t_mapping(t_address,t_bool)"
      }
    ],
    "types": {
      "t_address": {
        "encoding": "inplace",
        "label": "address",
        "numberOfBytes": "20"
      },
      "t_bool": {
        "encoding": "inplace",
        "label": "bool",
        "numberOfBytes": "1"
      },
      "t_mapping(t_address,t_bool)": {
        "encoding": "mapping",
        "key": "t_address",
        "label": "mapping(address => bool)",
        "numberOfBytes": "32",
        "value": "t_bool"
      },
      "t_mapping(t_address,t_struct(PriceData)4447_storage)": {
        "encoding": "mapping",
        "key": "t_address",
        "label": "mapping(address => struct ManualPriceOracle.PriceData)",
        "numberOfBytes": "32",
        "value": "t_struct(PriceData)4447_storage"
      },
      "t_struct(PriceData)4447_storage": {
        "encoding": "inplace",
        "label": "struct ManualPriceOracle.PriceData",
        "members": [
          {
            "astId": 4444,
            "contract": "contracts/ManualPriceOracle.sol:ManualPriceOracle",
            "label": "price",
            "offset": 0,
            "slot": "0",
            "type": "t_uint256"
          },
          {
            "astId": 4446,
            "contract": "contracts/ManualPriceOracle.sol:ManualPriceOracle",
            "label": "updatedAt",
            "offset": 0,
            "slot": "1",
            "type": "t_uint256"
          }
        ],
        "numberOfBytes": "64"
      },
      "t_uint256": {
        "encoding": "inplace",
        "label": "uint256",
        "numberOfBytes": "32"
      }
    }
  }
}