{
  "address": "0x5929785cb88C4dfdaaA54323841aE2a19a3A0D52",
  "abi": [
    {
      "inputs": [
        {
          "internalType": "address",
          "name": "_usdc",
          "type": "address"
        },
        {
          "internalType": "address",
          "name": "initialOwner",
          "type": "address"
        }
      ],
      "stateMutability": "nonpayable",
      "type": "constructor"
    },
    {
      "inputs": [
        {
          "internalType": "address",
          "name": "owner",
          "type": "address"
        }
      ],
      "name": "OwnableInvalidOwner",
      "type": "error"
    },
    {
      "inputs": [
        {
          "internalType": "address",
          "name": "account",
          "type": "address"
        }
      ],
      "name": "OwnableUnauthorizedAccount",
      "type": "error"
    },
    {
      "anonymous": false,
      "inputs": [
        {
          "indexed": true,
          "internalType": "address",
          "name": "previousOwner",
          "type": "address"
        },
        {
          "indexed": true,
          "internalType": "address",
          "name": "newOwner",
          "type": "address"
        }
      ],
      "name": "OwnershipTransferred",
      "type": "event"
    },
    {
      "anonymous": false,
      "inputs": [
        {
          "indexed": true,
          "internalType": "address",
          "name": "token",
          "type": "address"
        },
        {
          "indexed": false,
          "internalType": "uint256",
          "name": "price",
          "type": "uint256"
        },
        {
          "indexed": false,
          "internalType": "uint256",
          "name": "timestamp",
          "type": "uint256"
        }
      ],
      "name": "PriceUpdated",
      "type": "event"
    },
    {
      "inputs": [],
      "name": "MAX_STALE_TIME",
      "outputs": [
        {
          "internalType": "uint256",
          "name": "",
          "type": "uint256"
        }
      ],
      "stateMutability": "view",
      "type": "function"
    },
    {
      "inputs": [
        {
          "internalType": "address",
          "name": "token",
          "type": "address"
        }
      ],
      "name": "getPrice",
      "outputs": [
        {
          "internalType": "uint256",
          "name": "",
          "type": "uint256"
        }
      ],
      "stateMutability": "view",
      "type": "function"
    },
    {
      "inputs": [],
      "name": "owner",
      "outputs": [
        {
          "internalType": "address",
          "name": "",
          "type": "address"
        }
      ],
      "stateMutability": "view",
      "type": "function"
    },
    {
      "inputs": [],
      "name": "renounceOwnership",
      "outputs": [],
      "stateMutability": "nonpayable",
      "type": "function"
    },
    {
      "inputs": [
        {
          "internalType": "address",
          "name": "token",
          "type": "address"
        },
        {
          "internalType": "uint256",
          "name": "price",
          "type": "uint256"
        }
      ],
      "name": "setPrice",
      "outputs": [],
      "stateMutability": "nonpayable",
      "type": "function"
    },
    {
      "inputs": [
        {
          "internalType": "address[]",
          "name": "tokens",
          "type": "address[]"
        },
        {
          "internalType": "uint256[]",
          "name": "priceList",
          "type": "uint256[]"
        }
      ],
      "name": "setPrices",
      "outputs": [],
      "stateMutability": "nonpayable",
      "type": "function"
    },
    {
      "inputs": [
        {
          "internalType": "address",
          "name": "newOwner",
          "type": "address"
        }
      ],
      "name": "transferOwnership",
      "outputs": [],
      "stateMutability": "nonpayable",
      "type": "function"
    },
    {
      "inputs": [],
      "name": "usdc",
      "outputs": [
        {
          "internalType": "address",
          "name": "",
          "type": "address"
        }
      ],
      "stateMutability": "view",
      "type": "function"
    }
  ],
  "transactionHash": "0xba1bc7cfd1a76a4de79490968b7b6870b039e83ec370f2be0791b2bc4247820f",
  "args": [
    "0x3600000000000000000000000000000000000000",
    "0x4A4c8E15CCc184E9Eff2cBBbbb06eBc2571FE6f0"
  ],
  "numDeployments": 2,
  "solcInputHash": "d9f85d1c4f23ea36cfbd23800618bf1b",
  "bytecode": "0x60a060405234801561000f575f80fd5b506040516109fd3803806109fd83398101604081905261002e91610139565b806001600160a01b03811661005d57604051631e4fbdf760e01b81525f60048201526024015b60405180910390fd5b610066816100cf565b506001600160a01b0382166100bd5760405162461bcd60e51b815260206004820152601f60248201527f4d616e75616c50726963654f7261636c653a20696e76616c69642055534443006044820152606401610054565b506001600160a01b031660805261016a565b5f80546001600160a01b038381166001600160a01b0319831681178455604051919092169283917f8be0079c531659141344cd1fd0a4f28419497f9722a3daafe3b4186f6b6457e09190a35050565b80516001600160a01b0381168114610134575f80fd5b919050565b5f806040838503121561014a575f80fd5b6101538361011e565b91506101616020840161011e565b90509250929050565b6080516108676101965f395f818160a2015281816101ae01528181610248015261045901526108675ff3fe608060405234801561000f575f80fd5b5060043610610084575f3560e01c80635022a52e116100585780635022a52e14610115578063715018a61461011e5780638da5cb5b14610126578063f2fde38b14610136575f80fd5b8062e4768b146100885780633e413bee1461009d57806341976e09146100e15780634352fa9f14610102575b5f80fd5b61009b61009636600461072a565b610149565b005b6100c47f000000000000000000000000000000000000000000000000000000000000000081565b6040516001600160a01b0390911681526020015b60405180910390f35b6100f46100ef366004610752565b610245565b6040519081526020016100d8565b61009b6101103660046107ba565b61036d565b6100f461025881565b61009b61055f565b5f546001600160a01b03166100c4565b61009b610144366004610752565b610572565b6101516105af565b6001600160a01b0382166101ac5760405162461bcd60e51b815260206004820181905260248201527f4d616e75616c50726963654f7261636c653a20696e76616c696420746f6b656e60448201526064015b60405180910390fd5b7f00000000000000000000000000000000000000000000000000000000000000006001600160a01b0316826001600160a01b0316036102375760405162461bcd60e51b815260206004820152602160248201527f4d616e75616c50726963654f7261636c653a205553444320696d6d757461626c6044820152606560f81b60648201526084016101a3565b61024182826105db565b5050565b5f7f00000000000000000000000000000000000000000000000000000000000000006001600160a01b0316826001600160a01b03160361028a57506305f5e100919050565b6001600160a01b0382165f9081526001602081815260409283902083518085019094528054808552920154908301526103055760405162461bcd60e51b815260206004820181905260248201527f4d616e75616c50726963654f7261636c653a207072696365206e6f742073657460448201526064016101a3565b6102588160200151426103189190610821565b11156103665760405162461bcd60e51b815260206004820152601e60248201527f4d616e75616c50726963654f7261636c653a207072696365207374616c65000060448201526064016101a3565b5192915050565b6103756105af565b8281146103cf5760405162461bcd60e51b815260206004820152602260248201527f4d616e75616c50726963654f7261636c653a206c656e677468206d69736d61746044820152610c6d60f31b60648201526084016101a3565b5f5b83811015610558575f8585838181106103ec576103ec610846565b90506020020160208101906104019190610752565b6001600160a01b0316036104575760405162461bcd60e51b815260206004820181905260248201527f4d616e75616c50726963654f7261636c653a20696e76616c696420746f6b656e60448201526064016101a3565b7f00000000000000000000000000000000000000000000000000000000000000006001600160a01b031685858381811061049357610493610846565b90506020020160208101906104a89190610752565b6001600160a01b0316036105085760405162461bcd60e51b815260206004820152602160248201527f4d616e75616c50726963654f7261636c653a205553444320696d6d757461626c6044820152606560f81b60648201526084016101a3565b61055085858381811061051d5761051d610846565b90506020020160208101906105329190610752565b84848481811061054457610544610846565b905060200201356105db565b6001016103d1565b5050505050565b6105676105af565b6105705f6106a8565b565b61057a6105af565b6001600160a01b0381166105a357604051631e4fbdf760e01b81525f60048201526024016101a3565b6105ac816106a8565b50565b5f546001600160a01b031633146105705760405163118cdaa760e01b81523360048201526024016101a3565b5f811161062a5760405162461bcd60e51b815260206004820181905260248201527f4d616e75616c50726963654f7261636c653a20696e76616c696420707269636560448201526064016101a3565b6040805180820182528281524260208083018281526001600160a01b0387165f8181526001938490528690209451855590519390910192909255915190917fb556fac599c3c70efb9ab1fa725ecace6c81cc48d1455f886607def065f3e0c09161069c91858252602082015260400190565b60405180910390a25050565b5f80546001600160a01b038381167fffffffffffffffffffffffff0000000000000000000000000000000000000000831681178455604051919092169283917f8be0079c531659141344cd1fd0a4f28419497f9722a3daafe3b4186f6b6457e09190a35050565b80356001600160a01b0381168114610725575f80fd5b919050565b5f806040838503121561073b575f80fd5b6107448361070f565b946020939093013593505050565b5f60208284031215610762575f80fd5b61076b8261070f565b9392505050565b5f8083601f840112610782575f80fd5b50813567ffffffffffffffff811115610799575f80fd5b6020830191508360208260051b85010111156107b3575f80fd5b9250929050565b5f805f80604085870312156107cd575f80fd5b843567ffffffffffffffff808211156107e4575f80fd5b6107f088838901610772565b90965094506020870135915080821115610808575f80fd5b5061081587828801610772565b95989497509550505050565b8181038181111561084057634e487b7160e01b5f52601160045260245ffd5b92915050565b634e487b7160e01b5f52603260045260245ffdfea164736f6c6343000818000a",
  "devdoc": {
    "details": "Stores USD prices (8 decimals) for supported tokens. USDC is hard-coded      to $1.00, other tokens must be updated by the owner (e.g., via off-chain bot).",
    "errors": {
      "OwnableInvalidOwner(address)": [
        {
          "details": "The owner is not a valid owner account. (eg. `address(0)`)"
        }
      ],
      "OwnableUnauthorizedAccount(address)": [
        {
          "details": "The caller account is not authorized to perform an operation."
        }
      ]
    },
    "kind": "dev",
    "methods": {
      "owner()": {
        "details": "Returns the address of the current owner."
      },
      "renounceOwnership()": {
        "details": "Leaves the contract without owner. It will not be possible to call `onlyOwner` functions. Can only be called by the current owner. NOTE: Renouncing ownership will leave the contract without an owner, thereby disabling any functionality that is only available to the owner."
      },
      "transferOwnership(address)": {
        "details": "Transfers ownership of the contract to a new account (`newOwner`). Can only be called by the current owner."
      }
    },
    "title": "ManualPriceOracle",
    "version": 1
  },
  "userdoc": {
    "kind": "user",
    "methods": {},
    "version": 1
  },
  "storageLayout": {
    "storage": [
      {
        "astId": 8,
        "contract": "contracts/ManualPriceOracle.sol:ManualPriceOracle",
        "label": "_owner",
        "offset": 0,
        "slot": "0",
        "type": "t_address"
      },
      {
        "astId": 4465,
        "contract": "contracts/ManualPriceOracle.sol:ManualPriceOracle",
        "label": "prices",
        "offset": 0,
        "slot": "1",
        "type": "t_mapping(t_address,t_struct(PriceData)4447_storage)"
      }
    ],
    "types": {
      "t_address": {
        "encoding": "inplace",
        "label": "address",
        "numberOfBytes": "20"
      },
      "t_mapping(t_address,t_struct(PriceData)4447_storage)": {
        "encoding": "mapping",
        "key": "t_address",
        "label": "mapping(address => struct ManualPriceOracle.PriceData)",
        "numberOfBytes": "32",
        "value": "t_struct(PriceData)4447_storage"
      },
      "t_struct(PriceData)4447_storage": {
        "encoding": "inplace",
        "label": "struct ManualPriceOracle.PriceData",
        "members": [
          {
            "astId": 4444,
            "contract": "contracts/ManualPriceOracle.sol:ManualPriceOracle",
            "label": "price",
            "offset": 0,
            "slot": "0",
            "type": "t_uint256"
          },
          {
            "astId": 4446,
            "contract": "contracts/ManualPriceOracle.sol:ManualPriceOracle",
            "label": "updatedAt",
            "offset": 0,
            "slot": "1",
            "type": "t_uint256"
          }
        ],
        "numberOfBytes": "64"
      },
      "t_uint256": {
        "encoding": "inplace",
        "label": "uint256",
        "numberOfBytes": "32"
      }
    }
  }
}