{
  "address": "0x57b1Cf21636c9D312a28e277128C3521581C8758",
  "abi": [
    {
      "inputs": [
        {
          "internalType": "address",
          "name": "_rewardToken",
          "type": "address"
        },
        {
          "internalType": "address",
          "name": "_owner",
          "type": "address"
        },
        {
          "internalType": "address",
          "name": "_pointsManager",
          "type": "address"
        }
      ],
      "stateMutability": "nonpayable",
      "type": "constructor"
    },
    {
      "inputs": [
        {
          "internalType": "address",
          "name": "owner",
          "type": "address"
        }
      ],
      "name": "OwnableInvalidOwner",
      "type": "error"
    },
    {
      "inputs": [
        {
          "internalType": "address",
          "name": "account",
          "type": "address"
        }
      ],
      "name": "OwnableUnauthorizedAccount",
      "type": "error"
    },
    {
      "inputs": [
        {
          "internalType": "address",
          "name": "token",
          "type": "address"
        }
      ],
      "name": "SafeERC20FailedOperation",
      "type": "error"
    },
    {
      "anonymous": false,
      "inputs": [
        {
          "indexed": false,
          "internalType": "uint256",
          "name": "newBorrowWeightBps",
          "type": "uint256"
        }
      ],
      "name": "BorrowWeightUpdated",
      "type": "event"
    },
    {
      "anonymous": false,
      "inputs": [
        {
          "indexed": false,
          "internalType": "uint256",
          "name": "newEmissionPerSec",
          "type": "uint256"
        }
      ],
      "name": "EmissionUpdated",
      "type": "event"
    },
    {
      "anonymous": false,
      "inputs": [
        {
          "indexed": true,
          "internalType": "address",
          "name": "funder",
          "type": "address"
        },
        {
          "indexed": false,
          "internalType": "uint256",
          "name": "amount",
          "type": "uint256"
        }
      ],
      "name": "Funded",
      "type": "event"
    },
    {
      "anonymous": false,
      "inputs": [
        {
          "indexed": true,
          "internalType": "address",
          "name": "previousOwner",
          "type": "address"
        },
        {
          "indexed": true,
          "internalType": "address",
          "name": "newOwner",
          "type": "address"
        }
      ],
      "name": "OwnershipTransferred",
      "type": "event"
    },
    {
      "anonymous": false,
      "inputs": [
        {
          "indexed": true,
          "internalType": "address",
          "name": "newManager",
          "type": "address"
        }
      ],
      "name": "PointsManagerUpdated",
      "type": "event"
    },
    {
      "anonymous": false,
      "inputs": [
        {
          "indexed": true,
          "internalType": "address",
          "name": "user",
          "type": "address"
        },
        {
          "indexed": false,
          "internalType": "uint256",
          "name": "newPoints",
          "type": "uint256"
        }
      ],
      "name": "PointsUpdated",
      "type": "event"
    },
    {
      "anonymous": false,
      "inputs": [
        {
          "indexed": true,
          "internalType": "address",
          "name": "user",
          "type": "address"
        },
        {
          "indexed": false,
          "internalType": "uint256",
          "name": "amount",
          "type": "uint256"
        }
      ],
      "name": "RewardsClaimed",
      "type": "event"
    },
    {
      "inputs": [],
      "name": "accRewardPerPoint",
      "outputs": [
        {
          "internalType": "uint256",
          "name": "",
          "type": "uint256"
        }
      ],
      "stateMutability": "view",
      "type": "function"
    },
    {
      "inputs": [],
      "name": "borrowWeightBps",
      "outputs": [
        {
          "internalType": "uint256",
          "name": "",
          "type": "uint256"
        }
      ],
      "stateMutability": "view",
      "type": "function"
    },
    {
      "inputs": [
        {
          "internalType": "address",
          "name": "user",
          "type": "address"
        }
      ],
      "name": "claim",
      "outputs": [
        {
          "internalType": "uint256",
          "name": "",
          "type": "uint256"
        }
      ],
      "stateMutability": "nonpayable",
      "type": "function"
    },
    {
      "inputs": [
        {
          "internalType": "address",
          "name": "user",
          "type": "address"
        },
        {
          "internalType": "address",
          "name": "recipient",
          "type": "address"
        }
      ],
      "name": "claim",
      "outputs": [
        {
          "internalType": "uint256",
          "name": "",
          "type": "uint256"
        }
      ],
      "stateMutability": "nonpayable",
      "type": "function"
    },
    {
      "inputs": [],
      "name": "claimForSelf",
      "outputs": [
        {
          "internalType": "uint256",
          "name": "",
          "type": "uint256"
        }
      ],
      "stateMutability": "nonpayable",
      "type": "function"
    },
    {
      "inputs": [],
      "name": "emissionPerSec",
      "outputs": [
        {
          "internalType": "uint256",
          "name": "",
          "type": "uint256"
        }
      ],
      "stateMutability": "view",
      "type": "function"
    },
    {
      "inputs": [
        {
          "internalType": "uint256",
          "name": "amount",
          "type": "uint256"
        }
      ],
      "name": "fund",
      "outputs": [],
      "stateMutability": "nonpayable",
      "type": "function"
    },
    {
      "inputs": [],
      "name": "lastUpdate",
      "outputs": [
        {
          "internalType": "uint256",
          "name": "",
          "type": "uint256"
        }
      ],
      "stateMutability": "view",
      "type": "function"
    },
    {
      "inputs": [
        {
          "internalType": "address",
          "name": "user",
          "type": "address"
        },
        {
          "internalType": "uint256",
          "name": "usdSupplied",
          "type": "uint256"
        },
        {
          "internalType": "uint256",
          "name": "usdBorrowed",
          "type": "uint256"
        }
      ],
      "name": "onAction",
      "outputs": [],
      "stateMutability": "nonpayable",
      "type": "function"
    },
    {
      "inputs": [],
      "name": "owner",
      "outputs": [
        {
          "internalType": "address",
          "name": "",
          "type": "address"
        }
      ],
      "stateMutability": "view",
      "type": "function"
    },
    {
      "inputs": [
        {
          "internalType": "address",
          "name": "user",
          "type": "address"
        }
      ],
      "name": "pendingRewards",
      "outputs": [
        {
          "internalType": "uint256",
          "name": "",
          "type": "uint256"
        }
      ],
      "stateMutability": "view",
      "type": "function"
    },
    {
      "inputs": [],
      "name": "pointsManager",
      "outputs": [
        {
          "internalType": "address",
          "name": "",
          "type": "address"
        }
      ],
      "stateMutability": "view",
      "type": "function"
    },
    {
      "inputs": [],
      "name": "renounceOwnership",
      "outputs": [],
      "stateMutability": "nonpayable",
      "type": "function"
    },
    {
      "inputs": [],
      "name": "rewardToken",
      "outputs": [
        {
          "internalType": "contract IERC20",
          "name": "",
          "type": "address"
        }
      ],
      "stateMutability": "view",
      "type": "function"
    },
    {
      "inputs": [
        {
          "internalType": "uint256",
          "name": "newWeightBps",
          "type": "uint256"
        }
      ],
      "name": "setBorrowWeightBps",
      "outputs": [],
      "stateMutability": "nonpayable",
      "type": "function"
    },
    {
      "inputs": [
        {
          "internalType": "uint256",
          "name": "perSec",
          "type": "uint256"
        }
      ],
      "name": "setEmissionPerSec",
      "outputs": [],
      "stateMutability": "nonpayable",
      "type": "function"
    },
    {
      "inputs": [
        {
          "internalType": "address",
          "name": "manager",
          "type": "address"
        }
      ],
      "name": "setPointsManager",
      "outputs": [],
      "stateMutability": "nonpayable",
      "type": "function"
    },
    {
      "inputs": [],
      "name": "totalPoints",
      "outputs": [
        {
          "internalType": "uint256",
          "name": "",
          "type": "uint256"
        }
      ],
      "stateMutability": "view",
      "type": "function"
    },
    {
      "inputs": [
        {
          "internalType": "address",
          "name": "newOwner",
          "type": "address"
        }
      ],
      "name": "transferOwnership",
      "outputs": [],
      "stateMutability": "nonpayable",
      "type": "function"
    },
    {
      "inputs": [
        {
          "internalType": "address",
          "name": "",
          "type": "address"
        }
      ],
      "name": "users",
      "outputs": [
        {
          "internalType": "uint256",
          "name": "points",
          "type": "uint256"
        },
        {
          "internalType": "uint256",
          "name": "rewardDebt",
          "type": "uint256"
        },
        {
          "internalType": "uint256",
          "name": "pending",
          "type": "uint256"
        }
      ],
      "stateMutability": "view",
      "type": "function"
    }
  ],
  "transactionHash": "0x289f473c9f3d1f5203fde6757bfcaacfac57a6abf48f3f66e33696ac5085dc77",
  "args": [
    "0x459A8730565f274436769a1B637A27029795C1b2",
    "0x638A0e1469A0F6001F07586F509AdbD783F3E045",
    "0x3533EDD113C53178D66Ec927Bf7e48f9fC85F4b3"
  ],
  "numDeployments": 2,
  "solcInputHash": "eca07ce1c4db4a355f4867c8a493dba9",
  "bytecode": "0x60a0604052613a9860035534801562000016575f80fd5b506040516200109038038062001090833981016040819052620000399162000152565b816001600160a01b0381166200006957604051631e4fbdf760e01b81525f60048201526024015b60405180910390fd5b6200007481620000e7565b506001600160a01b038316620000b85760405162461bcd60e51b815260206004820152600860248201526707265776172643d360c41b604482015260640162000060565b6001600160a01b03928316608052600180546001600160a01b0319169190931617909155504260065562000199565b5f80546001600160a01b038381166001600160a01b0319831681178455604051919092169283917f8be0079c531659141344cd1fd0a4f28419497f9722a3daafe3b4186f6b6457e09190a35050565b80516001600160a01b03811681146200014d575f80fd5b919050565b5f805f6060848603121562000165575f80fd5b620001708462000136565b9250620001806020850162000136565b9150620001906040850162000136565b90509250925092565b608051610ec9620001c75f395f81816102e80152818161082801528181610a150152610aba0152610ec95ff3fe608060405234801561000f575f80fd5b5060043610610162575f3560e01c80638da5cb5b116100c7578063ca0caf9d1161007d578063cae42a0811610063578063cae42a08146102bd578063f2fde38b146102d0578063f7c618c1146102e3575f80fd5b8063ca0caf9d14610297578063ca1d209d146102aa575f80fd5b8063904b5f03116100ad578063904b5f0314610232578063a87430ba14610245578063c04637111461028e575f80fd5b80638da5cb5b146102055780638eeddedd14610229575f80fd5b80634c7ba87a1161011c57806370addc3b1161010257806370addc3b146101e1578063715018a6146101ea5780638662f382146101f2575f80fd5b80634c7ba87a146101c3578063567142be146101d8575f80fd5b80631e83409a1161014c5780631e83409a1461018a57806321c0b3421461019d57806331d7a262146101b0575f80fd5b80628ef7cf146101665780630dc65d9614610181575b5f80fd5b61016e61030a565b6040519081526020015b60405180910390f35b61016e60035481565b61016e610198366004610da4565b61031a565b61016e6101ab366004610dbd565b61037a565b61016e6101be366004610da4565b610396565b6101d66101d1366004610dee565b6104a5565b005b61016e60045481565b61016e60025481565b6101d66104f1565b6101d6610200366004610dee565b610504565b5f546001600160a01b03165b6040516001600160a01b039091168152602001610178565b61016e60055481565b600154610211906001600160a01b031681565b610273610253366004610da4565b60076020525f908152604090208054600182015460029092015490919083565b60408051938452602084019290925290820152606001610178565b61016e60065481565b6101d66102a5366004610e05565b610593565b6101d66102b8366004610dee565b610813565b6101d66102cb366004610da4565b610888565b6101d66102de366004610da4565b6108e6565b6102117f000000000000000000000000000000000000000000000000000000000000000081565b5f6103153333610923565b905090565b6001545f906001600160a01b031633146103695760405162461bcd60e51b815260206004820152600b60248201526a2737ba1036b0b730b3b2b960a91b60448201526064015b60405180910390fd5b61037282610b5a565b90505b919050565b5f610383610b65565b61038d8383610923565b90505b92915050565b6001600160a01b0381165f9081526007602090815260408083208151606081018352815481526001820154938101939093526002015490820152600554600654421180156103e557505f600254115b80156103f257505f600454115b15610448575f600654426104069190610e49565b90505f816002546104179190610e5c565b60045490915061042f670de0b6b3a764000083610e5c565b6104399190610e73565b6104439084610e92565b925050505b5f670de0b6b3a764000082845f01516104619190610e5c565b61046b9190610e73565b604084015160208501519192509082111561049c57602084015161048f9083610e49565b6104999082610e92565b90505b95945050505050565b6104ad610b65565b6104b5610b91565b60028190556040518181527fb114240d54ce08081cbd18870dc3b6cd4091bb86ff29d2ad41906c2a2d6723d4906020015b60405180910390a150565b6104f9610b65565b6105025f610c13565b565b61050c610b65565b61271081101561055e5760405162461bcd60e51b815260206004820152600e60248201527f57656967687420746f6f206c6f770000000000000000000000000000000000006044820152606401610360565b60038190556040518181527f8d7de63f70d1051c944578f00a1f27f8c93e824e564ac194835418e18f975801906020016104e6565b6001546001600160a01b031633146105db5760405162461bcd60e51b815260206004820152600b60248201526a2737ba1036b0b730b3b2b960a91b6044820152606401610360565b6001600160a01b0383166106315760405162461bcd60e51b815260206004820152600660248201527f757365723d3000000000000000000000000000000000000000000000000000006044820152606401610360565b610639610b91565b5f6127106003548361064b9190610e5c565b6106559190610e73565b90505f6106628285610e92565b610671906402540be400610e5c565b6001600160a01b0386165f90815260076020526040902080549192509082036106c4576005548154670de0b6b3a7640000916106ac91610e5c565b6106b69190610e73565b6001909101555061080e9050565b805415610727575f670de0b6b3a7640000600554835f01546106e69190610e5c565b6106f09190610e73565b9050816001015481111561072557600182015461070d9082610e49565b826002015f82825461071f9190610e92565b90915550505b505b805460045410156107865760405162461bcd60e51b8152602060048201526024808201527f496e76617269616e743a20746f74616c506f696e7473203c207573657220706f604482015263696e747360e01b6064820152608401610360565b8054600454839161079691610e49565b6107a09190610e92565b600455818155600554670de0b6b3a7640000906107bd9084610e5c565b6107c79190610e73565b60018201556040518281526001600160a01b038716907fa05f39e6d8d4e060324edb900f0f5909de621fd93f19ccf65ba74e5965c98c369060200160405180910390a25050505b505050565b61081b610b65565b6108506001600160a01b037f000000000000000000000000000000000000000000000000000000000000000016333084610c6f565b60405181815233907f5af8184bef8e4b45eb9f6ed7734d04da38ced226495548f46e0c8ff8d7d9a5249060200160405180910390a250565b610890610b65565b6001805473ffffffffffffffffffffffffffffffffffffffff19166001600160a01b0383169081179091556040517f7619eb3b0b2346250e2839a10da35fc58eea3632c6f045e8abffa1864bce2551905f90a250565b6108ee610b65565b6001600160a01b03811661091757604051631e4fbdf760e01b81525f6004820152602401610360565b61092081610c13565b50565b5f6001600160a01b03821661097a5760405162461bcd60e51b815260206004820152600b60248201527f726563697069656e743d300000000000000000000000000000000000000000006044820152606401610360565b610982610b91565b6001600160a01b0383165f9081526007602052604081206005548154919291670de0b6b3a7640000916109b491610e5c565b6109be9190610e73565b905081600101548111156109f35760018201546109db9082610e49565b826002015f8282546109ed9190610e92565b90915550505b60028201548015610b26576040516370a0823160e01b81523060048201525f907f00000000000000000000000000000000000000000000000000000000000000006001600160a01b0316906370a0823190602401602060405180830381865afa158015610a62573d5f803e3d5ffd5b505050506040513d601f19601f82011682018060405250810190610a869190610ea5565b905080821115610a94578091505b81846002015f828254610aa79190610e49565b90915550610ae190506001600160a01b037f0000000000000000000000000000000000000000000000000000000000000000168784610cf1565b866001600160a01b03167ffc30cddea38e2bf4d6ea7d3f9ed3b6ad7f176419f4963bd81318067a4aee73fe83604051610b1c91815260200190565b60405180910390a2505b6005548354670de0b6b3a764000091610b3e91610e5c565b610b489190610e73565b60019093019290925550905092915050565b5f6103728283610923565b5f546001600160a01b031633146105025760405163118cdaa760e01b8152336004820152602401610360565b6006544211610b9c57565b5f600454118015610bae57505f600254115b15610c0d575f60065442610bc29190610e49565b90505f81600254610bd39190610e5c565b600454909150610beb670de0b6b3a764000083610e5c565b610bf59190610e73565b60055f828254610c059190610e92565b909155505050505b42600655565b5f80546001600160a01b0383811673ffffffffffffffffffffffffffffffffffffffff19831681178455604051919092169283917f8be0079c531659141344cd1fd0a4f28419497f9722a3daafe3b4186f6b6457e09190a35050565b6040516001600160a01b038481166024830152838116604483015260648201839052610ceb9186918216906323b872dd906084015b604051602081830303815290604052915060e01b6020820180517bffffffffffffffffffffffffffffffffffffffffffffffffffffffff8381831617835250505050610d22565b50505050565b6040516001600160a01b0383811660248301526044820183905261080e91859182169063a9059cbb90606401610ca4565b5f8060205f8451602086015f885af180610d41576040513d5f823e3d81fd5b50505f513d91508115610d58578060011415610d65565b6001600160a01b0384163b155b15610ceb57604051635274afe760e01b81526001600160a01b0385166004820152602401610360565b80356001600160a01b0381168114610375575f80fd5b5f60208284031215610db4575f80fd5b61038d82610d8e565b5f8060408385031215610dce575f80fd5b610dd783610d8e565b9150610de560208401610d8e565b90509250929050565b5f60208284031215610dfe575f80fd5b5035919050565b5f805f60608486031215610e17575f80fd5b610e2084610d8e565b95602085013595506040909401359392505050565b634e487b7160e01b5f52601160045260245ffd5b8181038181111561039057610390610e35565b808202811582820484141761039057610390610e35565b5f82610e8d57634e487b7160e01b5f52601260045260245ffd5b500490565b8082018082111561039057610390610e35565b5f60208284031215610eb5575f80fd5b505191905056fea164736f6c6343000818000a",
  "devdoc": {
    "errors": {
      "OwnableInvalidOwner(address)": [
        {
          "details": "The owner is not a valid owner account. (eg. `address(0)`)"
        }
      ],
      "OwnableUnauthorizedAccount(address)": [
        {
          "details": "The caller account is not authorized to perform an operation."
        }
      ],
      "SafeERC20FailedOperation(address)": [
        {
          "details": "An operation with an ERC-20 token failed."
        }
      ]
    },
    "kind": "dev",
    "methods": {
      "owner()": {
        "details": "Returns the address of the current owner."
      },
      "renounceOwnership()": {
        "details": "Leaves the contract without owner. It will not be possible to call `onlyOwner` functions. Can only be called by the current owner. NOTE: Renouncing ownership will leave the contract without an owner, thereby disabling any functionality that is only available to the owner."
      },
      "transferOwnership(address)": {
        "details": "Transfers ownership of the contract to a new account (`newOwner`). Can only be called by the current owner."
      }
    },
    "version": 1
  },
  "userdoc": {
    "kind": "user",
    "methods": {},
    "version": 1
  },
  "storageLayout": {
    "storage": [
      {
        "astId": 8,
        "contract": "contracts/RewardsDistributor.sol:RewardsDistributor",
        "label": "_owner",
        "offset": 0,
        "slot": "0",
        "type": "t_address"
      },
      {
        "astId": 5174,
        "contract": "contracts/RewardsDistributor.sol:RewardsDistributor",
        "label": "pointsManager",
        "offset": 0,
        "slot": "1",
        "type": "t_address"
      },
      {
        "astId": 5176,
        "contract": "contracts/RewardsDistributor.sol:RewardsDistributor",
        "label": "emissionPerSec",
        "offset": 0,
        "slot": "2",
        "type": "t_uint256"
      },
      {
        "astId": 5179,
        "contract": "contracts/RewardsDistributor.sol:RewardsDistributor",
        "label": "borrowWeightBps",
        "offset": 0,
        "slot": "3",
        "type": "t_uint256"
      },
      {
        "astId": 5181,
        "contract": "contracts/RewardsDistributor.sol:RewardsDistributor",
        "label": "totalPoints",
        "offset": 0,
        "slot": "4",
        "type": "t_uint256"
      },
      {
        "astId": 5183,
        "contract": "contracts/RewardsDistributor.sol:RewardsDistributor",
        "label": "accRewardPerPoint",
        "offset": 0,
        "slot": "5",
        "type": "t_uint256"
      },
      {
        "astId": 5185,
        "contract": "contracts/RewardsDistributor.sol:RewardsDistributor",
        "label": "lastUpdate",
        "offset": 0,
        "slot": "6",
        "type": "t_uint256"
      },
      {
        "astId": 5197,
        "contract": "contracts/RewardsDistributor.sol:RewardsDistributor",
        "label": "users",
        "offset": 0,
        "slot": "7",
        "type": "t_mapping(t_address,t_struct(UserInfo)5192_storage)"
      }
    ],
    "types": {
      "t_address": {
        "encoding": "inplace",
        "label": "address",
        "numberOfBytes": "20"
      },
      "t_mapping(t_address,t_struct(UserInfo)5192_storage)": {
        "encoding": "mapping",
        "key": "t_address",
        "label": "mapping(address => struct RewardsDistributor.UserInfo)",
        "numberOfBytes": "32",
        "value": "t_struct(UserInfo)5192_storage"
      },
      "t_struct(UserInfo)5192_storage": {
        "encoding": "inplace",
        "label": "struct RewardsDistributor.UserInfo",
        "members": [
          {
            "astId": 5187,
            "contract": "contracts/RewardsDistributor.sol:RewardsDistributor",
            "label": "points",
            "offset": 0,
            "slot": "0",
            "type": "t_uint256"
          },
          {
            "astId": 5189,
            "contract": "contracts/RewardsDistributor.sol:RewardsDistributor",
            "label": "rewardDebt",
            "offset": 0,
            "slot": "1",
            "type": "t_uint256"
          },
          {
            "astId": 5191,
            "contract": "contracts/RewardsDistributor.sol:RewardsDistributor",
            "label": "pending",
            "offset": 0,
            "slot": "2",
            "type": "t_uint256"
          }
        ],
        "numberOfBytes": "96"
      },
      "t_uint256": {
        "encoding": "inplace",
        "label": "uint256",
        "numberOfBytes": "32"
      }
    }
  }
}