{"contracts/LoanManager.sol":{"LoanManager":{"abi":[{"inputs":[{"internalType":"address","name":"_collateralManager","type":"address"},{"internalType":"address","name":"initialOwner","type":"address"}],"stateMutability":"nonpayable","type":"constructor"},{"inputs":[{"internalType":"address","name":"owner","type":"address"}],"name":"OwnableInvalidOwner","type":"error"},{"inputs":[{"internalType":"address","name":"account","type":"address"}],"name":"OwnableUnauthorizedAccount","type":"error"},{"inputs":[],"name":"ReentrancyGuardReentrantCall","type":"error"},{"inputs":[{"internalType":"address","name":"token","type":"address"}],"name":"SafeERC20FailedOperation","type":"error"},{"anonymous":false,"inputs":[{"indexed":true,"internalType":"address","name":"user","type":"address"},{"indexed":false,"internalType":"address","name":"token","type":"address"},{"indexed":false,"internalType":"uint256","name":"amount","type":"uint256"},{"indexed":false,"internalType":"uint256","name":"scaledAmount","type":"uint256"}],"name":"DepositedToPool","type":"event"},{"anonymous":false,"inputs":[{"indexed":true,"internalType":"address","name":"token","type":"address"},{"indexed":false,"internalType":"uint256","name":"borrowRate","type":"uint256"},{"indexed":false,"internalType":"uint256","name":"borrowIndex","type":"uint256"},{"indexed":false,"internalType":"uint256","name":"supplyIndex","type":"uint256"}],"name":"InterestAccrued","type":"event"},{"anonymous":false,"inputs":[{"indexed":true,"internalType":"address","name":"user","type":"address"},{"indexed":false,"internalType":"address","name":"token","type":"address"},{"indexed":false,"internalType":"uint256","name":"amount","type":"uint256"},{"indexed":false,"internalType":"uint256","name":"scaledAmount","type":"uint256"}],"name":"LoanRepaid","type":"event"},{"anonymous":false,"inputs":[{"indexed":true,"internalType":"address","name":"user","type":"address"},{"indexed":false,"internalType":"address","name":"token","type":"address"},{"indexed":false,"internalType":"uint256","name":"amount","type":"uint256"},{"indexed":false,"internalType":"uint256","name":"scaledAmount","type":"uint256"}],"name":"LoanRequested","type":"event"},{"anonymous":false,"inputs":[{"indexed":true,"internalType":"address","name":"previousOwner","type":"address"},{"indexed":true,"internalType":"address","name":"newOwner","type":"address"}],"name":"OwnershipTransferred","type":"event"},{"anonymous":false,"inputs":[{"indexed":false,"internalType":"address","name":"token","type":"address"},{"indexed":false,"internalType":"uint256","name":"baseRate","type":"uint256"},{"indexed":false,"internalType":"uint256","name":"slope1","type":"uint256"},{"indexed":false,"internalType":"uint256","name":"slope2","type":"uint256"},{"indexed":false,"internalType":"uint256","name":"optimalUtil","type":"uint256"}],"name":"TokenSupported","type":"event"},{"anonymous":false,"inputs":[{"indexed":true,"internalType":"address","name":"user","type":"address"},{"indexed":false,"internalType":"address","name":"token","type":"address"},{"indexed":false,"internalType":"uint256","name":"amount","type":"uint256"},{"indexed":false,"internalType":"uint256","name":"scaledAmount","type":"uint256"}],"name":"Withdrawn","type":"event"},{"inputs":[],"name":"RAY","outputs":[{"internalType":"uint256","name":"","type":"uint256"}],"stateMutability":"view","type":"function"},{"inputs":[],"name":"SECONDS_PER_YEAR","outputs":[{"internalType":"uint256","name":"","type":"uint256"}],"stateMutability":"view","type":"function"},{"inputs":[{"internalType":"address","name":"token","type":"address"}],"name":"accrueInterest","outputs":[],"stateMutability":"nonpayable","type":"function"},{"inputs":[{"internalType":"uint256","name":"","type":"uint256"}],"name":"activeBorrowers","outputs":[{"internalType":"address","name":"","type":"address"}],"stateMutability":"view","type":"function"},{"inputs":[],"name":"collateralManager","outputs":[{"internalType":"contract ICollateralManager","name":"","type":"address"}],"stateMutability":"view","type":"function"},{"inputs":[{"internalType":"address","name":"token","type":"address"},{"internalType":"uint256","name":"amount","type":"uint256"}],"name":"depositToPool","outputs":[],"stateMutability":"nonpayable","type":"function"},{"inputs":[{"internalType":"address","name":"token","type":"address"}],"name":"getAvailableLiquidity","outputs":[{"internalType":"uint256","name":"","type":"uint256"}],"stateMutability":"view","type":"function"},{"inputs":[{"internalType":"address","name":"user","type":"address"},{"internalType":"address","name":"token","type":"address"}],"name":"getAvailableToWithdraw","outputs":[{"internalType":"uint256","name":"","type":"uint256"}],"stateMutability":"view","type":"function"},{"inputs":[{"internalType":"address","name":"token","type":"address"}],"name":"getBorrowRate","outputs":[{"internalType":"uint256","name":"","type":"uint256"}],"stateMutability":"view","type":"function"},{"inputs":[{"internalType":"address","name":"user","type":"address"}],"name":"getLoanToken","outputs":[{"internalType":"address","name":"","type":"address"}],"stateMutability":"view","type":"function"},{"inputs":[{"internalType":"address","name":"user","type":"address"}],"name":"getOutstandingLoan","outputs":[{"internalType":"uint256","name":"","type":"uint256"}],"stateMutability":"view","type":"function"},{"inputs":[{"internalType":"address","name":"user","type":"address"}],"name":"getOutstandingLoanUSD","outputs":[{"internalType":"uint256","name":"","type":"uint256"}],"stateMutability":"view","type":"function"},{"inputs":[{"internalType":"address","name":"token","type":"address"}],"name":"getSupplyRate","outputs":[{"internalType":"uint256","name":"","type":"uint256"}],"stateMutability":"view","type":"function"},{"inputs":[{"internalType":"address","name":"token","type":"address"}],"name":"getUtilizationRate","outputs":[{"internalType":"uint256","name":"","type":"uint256"}],"stateMutability":"view","type":"function"},{"inputs":[{"internalType":"address","name":"","type":"address"}],"name":"isBorrower","outputs":[{"internalType":"bool","name":"","type":"bool"}],"stateMutability":"view","type":"function"},{"inputs":[{"internalType":"address","name":"","type":"address"}],"name":"isSupportedToken","outputs":[{"internalType":"bool","name":"","type":"bool"}],"stateMutability":"view","type":"function"},{"inputs":[{"internalType":"address","name":"","type":"address"},{"internalType":"address","name":"","type":"address"}],"name":"lenders","outputs":[{"internalType":"uint256","name":"scaledBalance","type":"uint256"}],"stateMutability":"view","type":"function"},{"inputs":[{"internalType":"address","name":"","type":"address"}],"name":"loans","outputs":[{"internalType":"address","name":"token","type":"address"},{"internalType":"uint256","name":"scaledPrincipal","type":"uint256"},{"internalType":"bool","name":"active","type":"bool"}],"stateMutability":"view","type":"function"},{"inputs":[],"name":"owner","outputs":[{"internalType":"address","name":"","type":"address"}],"stateMutability":"view","type":"function"},{"inputs":[],"name":"priceOracle","outputs":[{"internalType":"contract IPriceOracle","name":"","type":"address"}],"stateMutability":"view","type":"function"},{"inputs":[{"internalType":"address","name":"","type":"address"}],"name":"protocolProfit","outputs":[{"internalType":"uint256","name":"","type":"uint256"}],"stateMutability":"view","type":"function"},{"inputs":[{"internalType":"address","name":"","type":"address"}],"name":"rateConfigs","outputs":[{"internalType":"uint256","name":"baseRate","type":"uint256"},{"internalType":"uint256","name":"slope1","type":"uint256"},{"internalType":"uint256","name":"slope2","type":"uint256"},{"internalType":"uint256","name":"optimalUtil","type":"uint256"}],"stateMutability":"view","type":"function"},{"inputs":[],"name":"renounceOwnership","outputs":[],"stateMutability":"nonpayable","type":"function"},{"inputs":[{"internalType":"address","name":"token","type":"address"},{"internalType":"uint256","name":"amount","type":"uint256"}],"name":"repay","outputs":[],"stateMutability":"nonpayable","type":"function"},{"inputs":[{"internalType":"address","name":"token","type":"address"}],"name":"repayAll","outputs":[],"stateMutability":"nonpayable","type":"function"},{"inputs":[{"internalType":"address","name":"borrower","type":"address"},{"internalType":"address","name":"token","type":"address"},{"internalType":"uint256","name":"amount","type":"uint256"}],"name":"repayFor","outputs":[],"stateMutability":"nonpayable","type":"function"},{"inputs":[{"internalType":"address","name":"token","type":"address"},{"internalType":"uint256","name":"amount","type":"uint256"},{"internalType":"uint256","name":"","type":"uint256"}],"name":"requestLoan","outputs":[],"stateMutability":"nonpayable","type":"function"},{"inputs":[],"name":"rewardToken","outputs":[{"internalType":"contract IERC20","name":"","type":"address"}],"stateMutability":"view","type":"function"},{"inputs":[],"name":"rewardsDistributor","outputs":[{"internalType":"contract IRewardsDistributor","name":"","type":"address"}],"stateMutability":"view","type":"function"},{"inputs":[{"internalType":"address","name":"_oracle","type":"address"}],"name":"setPriceOracle","outputs":[],"stateMutability":"nonpayable","type":"function"},{"inputs":[{"internalType":"address","name":"_token","type":"address"}],"name":"setRewardToken","outputs":[],"stateMutability":"nonpayable","type":"function"},{"inputs":[{"internalType":"address","name":"distributor","type":"address"}],"name":"setRewardsDistributor","outputs":[],"stateMutability":"nonpayable","type":"function"},{"inputs":[{"internalType":"address","name":"token","type":"address"},{"internalType":"uint256","name":"baseRate","type":"uint256"},{"internalType":"uint256","name":"slope1","type":"uint256"},{"internalType":"uint256","name":"slope2","type":"uint256"},{"internalType":"uint256","name":"optimalUtil","type":"uint256"},{"internalType":"uint256","name":"reserveFactor","type":"uint256"}],"name":"supportToken","outputs":[],"stateMutability":"nonpayable","type":"function"},{"inputs":[{"internalType":"address","name":"newOwner","type":"address"}],"name":"transferOwnership","outputs":[],"stateMutability":"nonpayable","type":"function"},{"inputs":[{"internalType":"address","name":"","type":"address"}],"name":"treasury","outputs":[{"internalType":"uint256","name":"totalDeposits","type":"uint256"},{"internalType":"uint256","name":"totalBorrows","type":"uint256"},{"internalType":"uint256","name":"lastUpdate","type":"uint256"},{"internalType":"uint256","name":"borrowIndex","type":"uint256"},{"internalType":"uint256","name":"supplyIndex","type":"uint256"},{"internalType":"uint256","name":"reserveFactor","type":"uint256"}],"stateMutability":"view","type":"function"},{"inputs":[{"internalType":"address","name":"token","type":"address"},{"internalType":"uint256","name":"amount","type":"uint256"}],"name":"withdraw","outputs":[],"stateMutability":"nonpayable","type":"function"},{"inputs":[{"internalType":"address","name":"token","type":"address"}],"name":"withdrawAll","outputs":[],"stateMutability":"nonpayable","type":"function"}],"devdoc":{"errors":{"OwnableInvalidOwner(address)":[{"details":"The owner is not a valid owner account. (eg. `address(0)`)"}],"OwnableUnauthorizedAccount(address)":[{"details":"The caller account is not authorized to perform an operation."}],"ReentrancyGuardReentrantCall()":[{"details":"Unauthorized reentrant call."}],"SafeERC20FailedOperation(address)":[{"details":"An operation with an ERC-20 token failed."}]},"kind":"dev","methods":{"owner()":{"details":"Returns the address of the current owner."},"renounceOwnership()":{"details":"Leaves the contract without owner. It will not be possible to call `onlyOwner` functions. Can only be called by the current owner. NOTE: Renouncing ownership will leave the contract without an owner, thereby disabling any functionality that is only available to the owner."},"transferOwnership(address)":{"details":"Transfers ownership of the contract to a new account (`newOwner`). Can only be called by the current owner."}},"version":1},"evm":{"bytecode":{"linkReferences":{},"object":"608060405234801562000010575f80fd5b50604051620025e5380380620025e5833981016040819052620000339162000104565b806001600160a01b0381166200006257604051631e4fbdf760e01b81525f600482015260240160405180910390fd5b6200006d8162000099565b505060018055600c80546001600160a01b0319166001600160a01b03929092169190911790556200013a565b5f80546001600160a01b038381166001600160a01b0319831681178455604051919092169283917f8be0079c531659141344cd1fd0a4f28419497f9722a3daafe3b4186f6b6457e09190a35050565b80516001600160a01b0381168114620000ff575f80fd5b919050565b5f806040838503121562000116575f80fd5b6200012183620000e8565b91506200013160208401620000e8565b90509250929050565b61249d80620001485f395ff3fe608060405234801561000f575f80fd5b5060043610610269575f3560e01c80637b6aa8bd11610157578063d1f5c33b116100d2578063eaf6e48311610088578063f3fef3a31161006e578063f3fef3a314610660578063f7c618c114610673578063fa09e63014610686575f80fd5b8063eaf6e4831461062b578063f2fde38b1461064d575f80fd5b8063d85bf034116100b8578063d85bf034146105ee578063daf0ca5f1461060d578063e6a69ab814610620575f80fd5b8063d1f5c33b146105c8578063d71275f6146105db575f80fd5b80639198e515116101275780639eb787981161010d5780639eb787981461054e578063a611c62b14610561578063c0e34fdf14610574575f80fd5b80639198e51514610528578063976ce4951461053b575f80fd5b80637b6aa8bd146104df5780637c27383b146104f25780638aee8127146105055780638da5cb5b14610518575f80fd5b80632f6d58dc116101e7578063552033c4116101b75780636f77ff551161019d5780636f77ff5514610461578063715018a61461047457806373b4086b1461047c575f80fd5b8063552033c41461043b5780636b5441a91461044e575f80fd5b80632f6d58dc146103d85780633f2a5540146103eb5780634162d0ea146103fe578063530e784f14610428575f80fd5b806323be345c1161023c5780632630c12f116102225780632630c12f14610343578063266e2bd8146103565780632d809cb614610369575f80fd5b806323be345c146102fe578063240028e814610311575f80fd5b80630ccd8ab51461026d5780631955c977146102b55780631b7adeca146102d657806322867d78146102e9575b5f80fd5b61029861027b366004612194565b6001600160a01b039081165f908152600260205260409020541690565b6040516001600160a01b0390911681526020015b60405180910390f35b6102c86102c3366004612194565b610699565b6040519081526020016102ac565b6102c86102e4366004612194565b6107f9565b6102fc6102f73660046121b4565b61093f565b005b600c54610298906001600160a01b031681565b61033361031f366004612194565b60066020525f908152604090205460ff1681565b60405190151581526020016102ac565b600d54610298906001600160a01b031681565b6102c8610364366004612194565b610960565b6103ab610377366004612194565b600460208190525f918252604090912080546001820154600283015460038401549484015460059094015492949193909286565b604080519687526020870195909552938501929092526060840152608083015260a082015260c0016102ac565b6102fc6103e63660046121b4565b6109ce565b600e54610298906001600160a01b031681565b6102c861040c3660046121dc565b600360209081525f928352604080842090915290825290205481565b6102fc610436366004612194565b610b87565b6102c86b033b2e3c9fd0803ce800000081565b6102c861045c366004612194565b610bb1565b6102fc61046f36600461220d565b610c1e565b6102fc611002565b6104b861048a366004612194565b600260208190525f91825260409091208054600182015491909201546001600160a01b039092169160ff1683565b604080516001600160a01b03909416845260208401929092521515908201526060016102ac565b6102c86104ed366004612194565b611015565b6102fc610500366004612194565b6110a7565b6102fc610513366004612194565b6110d4565b5f546001600160a01b0316610298565b6102fc610536366004612194565b6110fe565b6102fc61054936600461223d565b61129f565b61029861055c366004612276565b6112bc565b6102c861056f3660046121dc565b6112e4565b6105a8610582366004612194565b60056020525f908152604090208054600182015460028301546003909301549192909184565b6040805194855260208501939093529183015260608201526080016102ac565b6102fc6105d6366004612194565b611418565b6102c86105e9366004612194565b611442565b6102c86105fc366004612194565b60086020525f908152604090205481565b6102fc61061b36600461228d565b6114fe565b6102c86301e1338081565b610333610639366004612194565b60096020525f908152604090205460ff1681565b6102fc61065b366004612194565b611721565b6102fc61066e3660046121b4565b61175b565b600f54610298906001600160a01b031681565b6102fc610694366004612194565b6119a0565b6001600160a01b038082165f90815260026020818152604080842081516060810183528154909616865260018101549286019290925291015460ff1615159083018190529091906106ec57505f92915050565b5f6106f6846107f9565b600d5483516040516341976e0960e01b81526001600160a01b0391821660048201529293505f929116906341976e0990602401602060405180830381865afa158015610744573d5f803e3d5ffd5b505050506040513d601f19601f8201168201806040525081019061076891906122d3565b90505f835f01516001600160a01b031663313ce5676040518163ffffffff1660e01b8152600401602060405180830381865afa1580156107aa573d5f803e3d5ffd5b505050506040513d601f19601f820116820180604052508101906107ce91906122ea565b90506107db81600a6123fe565b6107e5838561240c565b6107ef9190612423565b9695505050505050565b6001600160a01b038082165f90815260026020818152604080842081516060810183528154909616865260018101549286019290925291015460ff16151590830181905290919061084c57505f92915050565b5f610859825f0151611442565b82516001600160a01b03165f90815260046020526040812060020154919250906108839042612442565b90505f6108966301e1338061271061240c565b6b033b2e3c9fd0803ce80000006108ad848661240c565b6108b7919061240c565b6108c19190612423565b90505f6b033b2e3c9fd0803ce80000006108db8382612455565b86516001600160a01b03165f90815260046020526040902060030154610901919061240c565b61090b9190612423565b90506b033b2e3c9fd0803ce800000081866020015161092a919061240c565b6109349190612423565b979650505050505050565b6109476119fe565b61095333338484611a28565b61095c60018055565b5050565b6040516370a0823160e01b81523060048201525f906001600160a01b038316906370a0823190602401602060405180830381865afa1580156109a4573d5f803e3d5ffd5b505050506040513d601f19601f820116820180604052508101906109c891906122d3565b92915050565b6109d66119fe565b5f8111610a2a5760405162461bcd60e51b815260206004820152600860248201527f416d6f756e743d3000000000000000000000000000000000000000000000000060448201526064015b60405180910390fd5b6001600160a01b0382165f9081526006602052604090205460ff16610a7f5760405162461bcd60e51b815260206004820152600b60248201526a155b9cdd5c1c1bdc9d195960aa1b6044820152606401610a21565b610a88826110fe565b6001600160a01b0382165f81815260046020526040902090610aac90333085611c4d565b60048101545f90610ac96b033b2e3c9fd0803ce80000008561240c565b610ad39190612423565b335f9081526003602090815260408083206001600160a01b0389168452909152812080549293508392909190610b0a908490612455565b90915550508154819083905f90610b22908490612455565b9091555050604080516001600160a01b03861681526020810185905290810182905233907f9efb8349f20e5e269336a2805f00f159e8251ff2b6060c5bc6735155e56cabae9060600160405180910390a2610b7c33611ccf565b505061095c60018055565b610b8f611f20565b600d80546001600160a01b0319166001600160a01b0392909216919091179055565b5f80610bbc83611442565b90505f610bc884611015565b6001600160a01b0385165f908152600460205260409020600501549091506305f5e100610bf782612710612442565b610c01848661240c565b610c0b919061240c565b610c159190612423565b95945050505050565b610c266119fe565b335f908152600260208190526040909120015460ff1615610c895760405162461bcd60e51b815260206004820152601260248201527f416374697665206c6f616e2065786973747300000000000000000000000000006044820152606401610a21565b6001600160a01b0383165f9081526006602052604090205460ff16610cde5760405162461bcd60e51b815260206004820152600b60248201526a155b9cdd5c1c1bdc9d195960aa1b6044820152606401610a21565b610ce7836110fe565b6001600160a01b038381165f90815260046020819052604091829020600c549251633f9af35f60e21b8152339281019290925292670de0b6b3a764000092169063fe6bcd7c90602401602060405180830381865afa158015610d4b573d5f803e3d5ffd5b505050506040513d601f19601f82011682018060405250810190610d6f91906122d3565b1015610dbd5760405162461bcd60e51b815260206004820152600960248201527f556e6865616c74687900000000000000000000000000000000000000000000006044820152606401610a21565b6040516370a0823160e01b815230600482015283906001600160a01b038616906370a0823190602401602060405180830381865afa158015610e01573d5f803e3d5ffd5b505050506040513d601f19601f82011682018060405250810190610e2591906122d3565b1015610e625760405162461bcd60e51b815260206004820152600c60248201526b4e6f206c697175696469747960a01b6044820152606401610a21565b60038101545f90610e7f6b033b2e3c9fd0803ce80000008661240c565b610e899190612423565b604080516060810182526001600160a01b03888116825260208083018581526001848601818152335f908152600294859052968720955186546001600160a01b031916951694909417855590518482015591519201805460ff191692151592909217909155840180549293508392909190610f05908490612455565b9091555050335f9081526009602052604090205460ff16610f8957335f818152600960209081526040808320805460ff19166001908117909155600a805491820181557fc65a7bb8d6351c1cf70c95a316cc6a92839c986682d98bc35f958f4883f9d2a890910180546001600160a01b0319168617905554938352600b9091529020555b610f9d6001600160a01b0386163386611f4c565b604080516001600160a01b03871681526020810186905290810182905233907f8ca033dfe8ac84b6e3e48aa36967e19d52a93a3f4d880ce8005fd4e04c97c94d9060600160405180910390a2610ff233611ccf565b5050610ffd60018055565b505050565b61100a611f20565b6110135f611f7d565b565b6001600160a01b0381165f9081526004602052604081206003810154600182015483916b033b2e3c9fd0803ce800000091611050919061240c565b61105a9190612423565b90505f6b033b2e3c9fd0803ce80000008360040154845f015461107d919061240c565b6110879190612423565b9050805f0361109a57505f949350505050565b80610c0b8361271061240c565b6110af6119fe565b5f6110b9336107f9565b90506110c733338484611a28565b506110d160018055565b50565b6110dc611f20565b600f80546001600160a01b0319166001600160a01b0392909216919091179055565b6001600160a01b0381165f90815260046020526040902060028101544203611124575050565b5f61112e83611442565b90505f61113a84610bb1565b90505f83600201544261114d9190612442565b9050801561123e575f6111666301e1338061271061240c565b6b033b2e3c9fd0803ce800000061117d848761240c565b611187919061240c565b6111919190612423565b90506b033b2e3c9fd0803ce80000006111aa8282612455565b86600301546111b9919061240c565b6111c39190612423565b60038601555f6111d96301e1338061271061240c565b6b033b2e3c9fd0803ce80000006111f0858761240c565b6111fa919061240c565b6112049190612423565b90506b033b2e3c9fd0803ce800000061121d8282612455565b876004015461122c919061240c565b6112369190612423565b600487015550505b426002850155600384015460048501546040805186815260208101939093528201526001600160a01b038616907fbea9dfcbd95788b1634fd949c43c80348c9a8960d5837081e062bc6679b9d8fe9060600160405180910390a25050505050565b6112a76119fe565b6112b333848484611a28565b610ffd60018055565b600a81815481106112cb575f80fd5b5f918252602090912001546001600160a01b0316905081565b6001600160a01b038083165f9081526003602090815260408083209385168352928152828220835191820190935291548083529091908203611329575f9150506109c8565b5f61133384610bb1565b6001600160a01b0385165f908152600460205260408120600201549192509061135c9042612442565b90505f61136f6301e1338061271061240c565b6b033b2e3c9fd0803ce8000000611386848661240c565b611390919061240c565b61139a9190612423565b90505f6b033b2e3c9fd0803ce80000006113b48382612455565b6001600160a01b0389165f90815260046020819052604090912001546113da919061240c565b6113e49190612423565b90506b033b2e3c9fd0803ce800000081865f0151611402919061240c565b61140c9190612423565b98975050505050505050565b611420611f20565b600e80546001600160a01b0319166001600160a01b0392909216919091179055565b5f8061144d83611015565b6001600160a01b0384165f90815260056020526040902060038101549192509082116114a55760038101546001820154611487908461240c565b6114919190612423565b815461149d9190612455565b949350505050565b5f8160030154836114b69190612442565b905081600301546127106114ca9190612442565b60028301546114d9908361240c565b6114e39190612423565b600183015483546114f49190612455565b610c159190612455565b611506611f20565b6001600160a01b03861661155c5760405162461bcd60e51b815260206004820152600d60248201527f496e76616c696420746f6b656e000000000000000000000000000000000000006044820152606401610a21565b612710821115801561157057506127108111155b6115bc5760405162461bcd60e51b815260206004820152600b60248201527f496e76616c6964206270730000000000000000000000000000000000000000006044820152606401610a21565b604080516080810182528681526020808201878152828401878152606084018781526001600160a01b038c165f908152600585528681209551865592516001860155905160028501555160039093019290925560069052205460ff166116ae576007805460018082019092557fa66cc928b5edb82af9bd49922954155ab7b0942694bea4ce44661d9a8736c6880180546001600160a01b0319166001600160a01b0389169081179091555f908152600660209081526040808320805460ff19169094179093556004908190529190206b033b2e3c9fd0803ce80000006003820181905591810191909155426002909101555b6001600160a01b0386165f8181526004602090815260409182902060050184905581519283528201879052810185905260608101849052608081018390527fabe6451cabbd950b3e345c0654219f82e7fef35193d64c9a7a3d89c4f6f2052f9060a00160405180910390a1505050505050565b611729611f20565b6001600160a01b03811661175257604051631e4fbdf760e01b81525f6004820152602401610a21565b6110d181611f7d565b6117636119fe565b61176c826110fe565b6001600160a01b0382165f818152600460208181526040808420338552600383528185209585529490915282209083015481549192916b033b2e3c9fd0803ce8000000916117b99161240c565b6117c39190612423565b90505f1984036117d1578093505b5f841180156117e05750808411155b61182c5760405162461bcd60e51b815260206004820152600f60248201527f496e76616c69642062616c616e636500000000000000000000000000000000006044820152606401610a21565b6040516370a0823160e01b815230600482015284906001600160a01b038716906370a0823190602401602060405180830381865afa158015611870573d5f803e3d5ffd5b505050506040513d601f19601f8201168201806040525081019061189491906122d3565b10156118d15760405162461bcd60e51b815260206004820152600c60248201526b4e6f206c697175696469747960a01b6044820152606401610a21565b60048301545f906118ee6b033b2e3c9fd0803ce80000008761240c565b6118f89190612423565b905080835f015f82825461190c9190612442565b90915550508354819085905f90611924908490612442565b9091555061193e90506001600160a01b0387163387611f4c565b604080516001600160a01b03881681526020810187905290810182905233907f91fb9d98b786c57d74c099ccd2beca1739e9f6a81fb49001ca465c4b7591bbe29060600160405180910390a261199333611ccf565b5050505061095c60018055565b60405163f3fef3a360e01b81526001600160a01b03821660048201525f196024820152309063f3fef3a3906044015f604051808303815f87803b1580156119e5575f80fd5b505af11580156119f7573d5f803e3d5ffd5b5050505050565b600260015403611a2157604051633ee5aeb560e01b815260040160405180910390fd5b6002600155565b6001600160a01b0383165f9081526002602081905260409091209081015460ff16611a955760405162461bcd60e51b815260206004820152600e60248201527f4e6f20616374697665206c6f616e0000000000000000000000000000000000006044820152606401610a21565b80546001600160a01b03848116911614611af15760405162461bcd60e51b815260206004820152600b60248201527f57726f6e6720746f6b656e0000000000000000000000000000000000000000006044820152606401610a21565b611afa836110fe565b6001600160a01b0383165f908152600460205260408120600381015460018401549192916b033b2e3c9fd0803ce800000091611b359161240c565b611b3f9190612423565b905080841115611b4d578093505b611b626001600160a01b038616883087611c4d565b60038201545f90611b7f6b033b2e3c9fd0803ce80000008761240c565b611b899190612423565b905080846001015f828254611b9e9190612442565b9250508190555080836001015f828254611bb89190612442565b909155505060018401545f03611beb5760028401805460ff1916905583546001600160a01b0319168455611beb87611fcc565b604080516001600160a01b03888116825260208201889052918101839052908816907fa6f6d5e50bc84f153a0d6a9f9b37780433f92dc32d7e10f975ab3831c36898fa9060600160405180910390a2611c4387611ccf565b5050505050505050565b6040516001600160a01b038481166024830152838116604483015260648201839052611cc99186918216906323b872dd906084015b604051602081830303815290604052915060e01b6020820180517bffffffffffffffffffffffffffffffffffffffffffffffffffffffff838183161783525050505061210d565b50505050565b600e546001600160a01b03161580611cee57506001600160a01b038116155b15611cf65750565b5f805b600754811015611ea6575f60078281548110611d1757611d17612468565b5f9182526020808320909101546001600160a01b03878116845260038352604080852091909216808552908352928190208151928301909152548082529192509015611e9c576001600160a01b0382165f9081526004602081905260408220015482516b033b2e3c9fd0803ce800000091611d919161240c565b611d9b9190612423565b600d546040516341976e0960e01b81526001600160a01b0386811660048301529293505f92909116906341976e0990602401602060405180830381865afa158015611de8573d5f803e3d5ffd5b505050506040513d601f19601f82011682018060405250810190611e0c91906122d3565b9050836001600160a01b031663313ce5676040518163ffffffff1660e01b8152600401602060405180830381865afa158015611e4a573d5f803e3d5ffd5b505050506040513d601f19601f82011682018060405250810190611e6e91906122ea565b611e7990600a6123fe565b611e83828461240c565b611e8d9190612423565b611e979087612455565b955050505b5050600101611cf9565b505f611eb183610699565b600e5460405163ca0caf9d60e01b81526001600160a01b038681166004830152602482018690526044820184905292935091169063ca0caf9d906064015f604051808303815f87803b158015611f05575f80fd5b505af1158015611f17573d5f803e3d5ffd5b50505050505050565b5f546001600160a01b031633146110135760405163118cdaa760e01b8152336004820152602401610a21565b6040516001600160a01b03838116602483015260448201839052610ffd91859182169063a9059cbb90606401611c82565b5f80546001600160a01b038381166001600160a01b0319831681178455604051919092169283917f8be0079c531659141344cd1fd0a4f28419497f9722a3daafe3b4186f6b6457e09190a35050565b6001600160a01b0381165f908152600b602052604081205490819003611ff0575050565b5f611ffc600183612442565b600a549091505f9061201090600190612442565b90508082146120a8575f600a828154811061202d5761202d612468565b5f91825260209091200154600a80546001600160a01b03909216925082918590811061205b5761205b612468565b5f91825260209091200180546001600160a01b0319166001600160a01b039290921691909117905561208e836001612455565b6001600160a01b039091165f908152600b60205260409020555b600a8054806120b9576120b961247c565b5f828152602080822083015f1990810180546001600160a01b03191690559092019092556001600160a01b03959095168152600b85526040808220829055600990955293909320805460ff19169055505050565b5f8060205f8451602086015f885af18061212c576040513d5f823e3d81fd5b50505f513d91508115612143578060011415612150565b6001600160a01b0384163b155b15611cc957604051635274afe760e01b81526001600160a01b0385166004820152602401610a21565b80356001600160a01b038116811461218f575f80fd5b919050565b5f602082840312156121a4575f80fd5b6121ad82612179565b9392505050565b5f80604083850312156121c5575f80fd5b6121ce83612179565b946020939093013593505050565b5f80604083850312156121ed575f80fd5b6121f683612179565b915061220460208401612179565b90509250929050565b5f805f6060848603121561221f575f80fd5b61222884612179565b95602085013595506040909401359392505050565b5f805f6060848603121561224f575f80fd5b61225884612179565b925061226660208501612179565b9150604084013590509250925092565b5f60208284031215612286575f80fd5b5035919050565b5f805f805f8060c087890312156122a2575f80fd5b6122ab87612179565b9860208801359850604088013597606081013597506080810135965060a00135945092505050565b5f602082840312156122e3575f80fd5b5051919050565b5f602082840312156122fa575f80fd5b815160ff811681146121ad575f80fd5b634e487b7160e01b5f52601160045260245ffd5b600181815b8085111561235857815f190482111561233e5761233e61230a565b8085161561234b57918102915b93841c9390800290612323565b509250929050565b5f8261236e575060016109c8565b8161237a57505f6109c8565b8160018114612390576002811461239a576123b6565b60019150506109c8565b60ff8411156123ab576123ab61230a565b50506001821b6109c8565b5060208310610133831016604e8410600b84101617156123d9575081810a6109c8565b6123e3838361231e565b805f19048211156123f6576123f661230a565b029392505050565b5f6121ad60ff841683612360565b80820281158282048414176109c8576109c861230a565b5f8261243d57634e487b7160e01b5f52601260045260245ffd5b500490565b818103818111156109c8576109c861230a565b808201808211156109c8576109c861230a565b634e487b7160e01b5f52603260045260245ffd5b634e487b7160e01b5f52603160045260245ffdfea164736f6c6343000818000a","opcodes":"PUSH1 0x80 PUSH1 0x40 MSTORE CALLVALUE DUP1 ISZERO PUSH3 0x10 JUMPI PUSH0 DUP1 REVERT JUMPDEST POP PUSH1 0x40 MLOAD PUSH3 0x25E5 CODESIZE SUB DUP1 PUSH3 0x25E5 DUP4 CODECOPY DUP2 ADD PUSH1 0x40 DUP2 SWAP1 MSTORE PUSH3 0x33 SWAP2 PUSH3 0x104 JUMP JUMPDEST DUP1 PUSH1 0x1 PUSH1 0x1 PUSH1 0xA0 SHL SUB DUP2 AND PUSH3 0x62 JUMPI PUSH1 0x40 MLOAD PUSH4 0x1E4FBDF7 PUSH1 0xE0 SHL DUP2 MSTORE PUSH0 PUSH1 0x4 DUP3 ADD MSTORE PUSH1 0x24 ADD PUSH1 0x40 MLOAD DUP1 SWAP2 SUB SWAP1 REVERT JUMPDEST PUSH3 0x6D DUP2 PUSH3 0x99 JUMP JUMPDEST POP POP PUSH1 0x1 DUP1 SSTORE PUSH1 0xC DUP1 SLOAD PUSH1 0x1 PUSH1 0x1 PUSH1 0xA0 SHL SUB NOT AND PUSH1 0x1 PUSH1 0x1 PUSH1 0xA0 SHL SUB SWAP3 SWAP1 SWAP3 AND SWAP2 SWAP1 SWAP2 OR SWAP1 SSTORE PUSH3 0x13A JUMP JUMPDEST PUSH0 DUP1 SLOAD PUSH1 0x1 PUSH1 0x1 PUSH1 0xA0 SHL SUB DUP4 DUP2 AND PUSH1 0x1 PUSH1 0x1 PUSH1 0xA0 SHL SUB NOT DUP4 AND DUP2 OR DUP5 SSTORE PUSH1 0x40 MLOAD SWAP2 SWAP1 SWAP3 AND SWAP3 DUP4 SWAP2 PUSH32 0x8BE0079C531659141344CD1FD0A4F28419497F9722A3DAAFE3B4186F6B6457E0 SWAP2 SWAP1 LOG3 POP POP JUMP JUMPDEST DUP1 MLOAD PUSH1 0x1 PUSH1 0x1 PUSH1 0xA0 SHL SUB DUP2 AND DUP2 EQ PUSH3 0xFF JUMPI PUSH0 DUP1 REVERT JUMPDEST SWAP2 SWAP1 POP JUMP JUMPDEST PUSH0 DUP1 PUSH1 0x40 DUP4 DUP6 SUB SLT ISZERO PUSH3 0x116 JUMPI PUSH0 DUP1 REVERT JUMPDEST PUSH3 0x121 DUP4 PUSH3 0xE8 JUMP JUMPDEST SWAP2 POP PUSH3 0x131 PUSH1 0x20 DUP5 ADD PUSH3 0xE8 JUMP JUMPDEST SWAP1 POP SWAP3 POP SWAP3 SWAP1 POP JUMP JUMPDEST PUSH2 0x249D DUP1 PUSH3 0x148 PUSH0 CODECOPY PUSH0 RETURN INVALID PUSH1 0x80 PUSH1 0x40 MSTORE CALLVALUE DUP1 ISZERO PUSH2 0xF JUMPI PUSH0 DUP1 REVERT JUMPDEST POP PUSH1 0x4 CALLDATASIZE LT PUSH2 0x269 JUMPI PUSH0 CALLDATALOAD PUSH1 0xE0 SHR DUP1 PUSH4 0x7B6AA8BD GT PUSH2 0x157 JUMPI DUP1 PUSH4 0xD1F5C33B GT PUSH2 0xD2 JUMPI DUP1 PUSH4 0xEAF6E483 GT PUSH2 0x88 JUMPI DUP1 PUSH4 0xF3FEF3A3 GT PUSH2 0x6E JUMPI DUP1 PUSH4 0xF3FEF3A3 EQ PUSH2 0x660 JUMPI DUP1 PUSH4 0xF7C618C1 EQ PUSH2 0x673 JUMPI DUP1 PUSH4 0xFA09E630 EQ PUSH2 0x686 JUMPI PUSH0 DUP1 REVERT JUMPDEST DUP1 PUSH4 0xEAF6E483 EQ PUSH2 0x62B JUMPI DUP1 PUSH4 0xF2FDE38B EQ PUSH2 0x64D JUMPI PUSH0 DUP1 REVERT JUMPDEST DUP1 PUSH4 0xD85BF034 GT PUSH2 0xB8 JUMPI DUP1 PUSH4 0xD85BF034 EQ PUSH2 0x5EE JUMPI DUP1 PUSH4 0xDAF0CA5F EQ PUSH2 0x60D JUMPI DUP1 PUSH4 0xE6A69AB8 EQ PUSH2 0x620 JUMPI PUSH0 DUP1 REVERT JUMPDEST DUP1 PUSH4 0xD1F5C33B EQ PUSH2 0x5C8 JUMPI DUP1 PUSH4 0xD71275F6 EQ PUSH2 0x5DB JUMPI PUSH0 DUP1 REVERT JUMPDEST DUP1 PUSH4 0x9198E515 GT PUSH2 0x127 JUMPI DUP1 PUSH4 0x9EB78798 GT PUSH2 0x10D JUMPI DUP1 PUSH4 0x9EB78798 EQ PUSH2 0x54E JUMPI DUP1 PUSH4 0xA611C62B EQ PUSH2 0x561 JUMPI DUP1 PUSH4 0xC0E34FDF EQ PUSH2 0x574 JUMPI PUSH0 DUP1 REVERT JUMPDEST DUP1 PUSH4 0x9198E515 EQ PUSH2 0x528 JUMPI DUP1 PUSH4 0x976CE495 EQ PUSH2 0x53B JUMPI PUSH0 DUP1 REVERT JUMPDEST DUP1 PUSH4 0x7B6AA8BD EQ PUSH2 0x4DF JUMPI DUP1 PUSH4 0x7C27383B EQ PUSH2 0x4F2 JUMPI DUP1 PUSH4 0x8AEE8127 EQ PUSH2 0x505 JUMPI DUP1 PUSH4 0x8DA5CB5B EQ PUSH2 0x518 JUMPI PUSH0 DUP1 REVERT JUMPDEST DUP1 PUSH4 0x2F6D58DC GT PUSH2 0x1E7 JUMPI DUP1 PUSH4 0x552033C4 GT PUSH2 0x1B7 JUMPI DUP1 PUSH4 0x6F77FF55 GT PUSH2 0x19D JUMPI DUP1 PUSH4 0x6F77FF55 EQ PUSH2 0x461 JUMPI DUP1 PUSH4 0x715018A6 EQ PUSH2 0x474 JUMPI DUP1 PUSH4 0x73B4086B EQ PUSH2 0x47C JUMPI PUSH0 DUP1 REVERT JUMPDEST DUP1 PUSH4 0x552033C4 EQ PUSH2 0x43B JUMPI DUP1 PUSH4 0x6B5441A9 EQ PUSH2 0x44E JUMPI PUSH0 DUP1 REVERT JUMPDEST DUP1 PUSH4 0x2F6D58DC EQ PUSH2 0x3D8 JUMPI DUP1 PUSH4 0x3F2A5540 EQ PUSH2 0x3EB JUMPI DUP1 PUSH4 0x4162D0EA EQ PUSH2 0x3FE JUMPI DUP1 PUSH4 0x530E784F EQ PUSH2 0x428 JUMPI PUSH0 DUP1 REVERT JUMPDEST DUP1 PUSH4 0x23BE345C GT PUSH2 0x23C JUMPI DUP1 PUSH4 0x2630C12F GT PUSH2 0x222 JUMPI DUP1 PUSH4 0x2630C12F EQ PUSH2 0x343 JUMPI DUP1 PUSH4 0x266E2BD8 EQ PUSH2 0x356 JUMPI DUP1 PUSH4 0x2D809CB6 EQ PUSH2 0x369 JUMPI PUSH0 DUP1 REVERT JUMPDEST DUP1 PUSH4 0x23BE345C EQ PUSH2 0x2FE JUMPI DUP1 PUSH4 0x240028E8 EQ PUSH2 0x311 JUMPI PUSH0 DUP1 REVERT JUMPDEST DUP1 PUSH4 0xCCD8AB5 EQ PUSH2 0x26D JUMPI DUP1 PUSH4 0x1955C977 EQ PUSH2 0x2B5 JUMPI DUP1 PUSH4 0x1B7ADECA EQ PUSH2 0x2D6 JUMPI DUP1 PUSH4 0x22867D78 EQ PUSH2 0x2E9 JUMPI JUMPDEST PUSH0 DUP1 REVERT JUMPDEST PUSH2 0x298 PUSH2 0x27B CALLDATASIZE PUSH1 0x4 PUSH2 0x2194 JUMP JUMPDEST PUSH1 0x1 PUSH1 0x1 PUSH1 0xA0 SHL SUB SWAP1 DUP2 AND PUSH0 SWAP1 DUP2 MSTORE PUSH1 0x2 PUSH1 0x20 MSTORE PUSH1 0x40 SWAP1 KECCAK256 SLOAD AND SWAP1 JUMP JUMPDEST PUSH1 0x40 MLOAD PUSH1 0x1 PUSH1 0x1 PUSH1 0xA0 SHL SUB SWAP1 SWAP2 AND DUP2 MSTORE PUSH1 0x20 ADD JUMPDEST PUSH1 0x40 MLOAD DUP1 SWAP2 SUB SWAP1 RETURN JUMPDEST PUSH2 0x2C8 PUSH2 0x2C3 CALLDATASIZE PUSH1 0x4 PUSH2 0x2194 JUMP JUMPDEST PUSH2 0x699 JUMP JUMPDEST PUSH1 0x40 MLOAD SWAP1 DUP2 MSTORE PUSH1 0x20 ADD PUSH2 0x2AC JUMP JUMPDEST PUSH2 0x2C8 PUSH2 0x2E4 CALLDATASIZE PUSH1 0x4 PUSH2 0x2194 JUMP JUMPDEST PUSH2 0x7F9 JUMP JUMPDEST PUSH2 0x2FC PUSH2 0x2F7 CALLDATASIZE PUSH1 0x4 PUSH2 0x21B4 JUMP JUMPDEST PUSH2 0x93F JUMP JUMPDEST STOP JUMPDEST PUSH1 0xC SLOAD PUSH2 0x298 SWAP1 PUSH1 0x1 PUSH1 0x1 PUSH1 0xA0 SHL SUB AND DUP2 JUMP JUMPDEST PUSH2 0x333 PUSH2 0x31F CALLDATASIZE PUSH1 0x4 PUSH2 0x2194 JUMP JUMPDEST PUSH1 0x6 PUSH1 0x20 MSTORE PUSH0 SWAP1 DUP2 MSTORE PUSH1 0x40 SWAP1 KECCAK256 SLOAD PUSH1 0xFF AND DUP2 JUMP JUMPDEST PUSH1 0x40 MLOAD SWAP1 ISZERO ISZERO DUP2 MSTORE PUSH1 0x20 ADD PUSH2 0x2AC JUMP JUMPDEST PUSH1 0xD SLOAD PUSH2 0x298 SWAP1 PUSH1 0x1 PUSH1 0x1 PUSH1 0xA0 SHL SUB AND DUP2 JUMP JUMPDEST PUSH2 0x2C8 PUSH2 0x364 CALLDATASIZE PUSH1 0x4 PUSH2 0x2194 JUMP JUMPDEST PUSH2 0x960 JUMP JUMPDEST PUSH2 0x3AB PUSH2 0x377 CALLDATASIZE PUSH1 0x4 PUSH2 0x2194 JUMP JUMPDEST PUSH1 0x4 PUSH1 0x20 DUP2 SWAP1 MSTORE PUSH0 SWAP2 DUP3 MSTORE PUSH1 0x40 SWAP1 SWAP2 KECCAK256 DUP1 SLOAD PUSH1 0x1 DUP3 ADD SLOAD PUSH1 0x2 DUP4 ADD SLOAD PUSH1 0x3 DUP5 ADD SLOAD SWAP5 DUP5 ADD SLOAD PUSH1 0x5 SWAP1 SWAP5 ADD SLOAD SWAP3 SWAP5 SWAP2 SWAP4 SWAP1 SWAP3 DUP7 JUMP JUMPDEST PUSH1 0x40 DUP1 MLOAD SWAP7 DUP8 MSTORE PUSH1 0x20 DUP8 ADD SWAP6 SWAP1 SWAP6 MSTORE SWAP4 DUP6 ADD SWAP3 SWAP1 SWAP3 MSTORE PUSH1 0x60 DUP5 ADD MSTORE PUSH1 0x80 DUP4 ADD MSTORE PUSH1 0xA0 DUP3 ADD MSTORE PUSH1 0xC0 ADD PUSH2 0x2AC JUMP JUMPDEST PUSH2 0x2FC PUSH2 0x3E6 CALLDATASIZE PUSH1 0x4 PUSH2 0x21B4 JUMP JUMPDEST PUSH2 0x9CE JUMP JUMPDEST PUSH1 0xE SLOAD PUSH2 0x298 SWAP1 PUSH1 0x1 PUSH1 0x1 PUSH1 0xA0 SHL SUB AND DUP2 JUMP JUMPDEST PUSH2 0x2C8 PUSH2 0x40C CALLDATASIZE PUSH1 0x4 PUSH2 0x21DC JUMP JUMPDEST PUSH1 0x3 PUSH1 0x20 SWAP1 DUP2 MSTORE PUSH0 SWAP3 DUP4 MSTORE PUSH1 0x40 DUP1 DUP5 KECCAK256 SWAP1 SWAP2 MSTORE SWAP1 DUP3 MSTORE SWAP1 KECCAK256 SLOAD DUP2 JUMP JUMPDEST PUSH2 0x2FC PUSH2 0x436 CALLDATASIZE PUSH1 0x4 PUSH2 0x2194 JUMP JUMPDEST PUSH2 0xB87 JUMP JUMPDEST PUSH2 0x2C8 PUSH12 0x33B2E3C9FD0803CE8000000 DUP2 JUMP JUMPDEST PUSH2 0x2C8 PUSH2 0x45C CALLDATASIZE PUSH1 0x4 PUSH2 0x2194 JUMP JUMPDEST PUSH2 0xBB1 JUMP JUMPDEST PUSH2 0x2FC PUSH2 0x46F CALLDATASIZE PUSH1 0x4 PUSH2 0x220D JUMP JUMPDEST PUSH2 0xC1E JUMP JUMPDEST PUSH2 0x2FC PUSH2 0x1002 JUMP JUMPDEST PUSH2 0x4B8 PUSH2 0x48A CALLDATASIZE PUSH1 0x4 PUSH2 0x2194 JUMP JUMPDEST PUSH1 0x2 PUSH1 0x20 DUP2 SWAP1 MSTORE PUSH0 SWAP2 DUP3 MSTORE PUSH1 0x40 SWAP1 SWAP2 KECCAK256 DUP1 SLOAD PUSH1 0x1 DUP3 ADD SLOAD SWAP2 SWAP1 SWAP3 ADD SLOAD PUSH1 0x1 PUSH1 0x1 PUSH1 0xA0 SHL SUB SWAP1 SWAP3 AND SWAP2 PUSH1 0xFF AND DUP4 JUMP JUMPDEST PUSH1 0x40 DUP1 MLOAD PUSH1 0x1 PUSH1 0x1 PUSH1 0xA0 SHL SUB SWAP1 SWAP5 AND DUP5 MSTORE PUSH1 0x20 DUP5 ADD SWAP3 SWAP1 SWAP3 MSTORE ISZERO ISZERO SWAP1 DUP3 ADD MSTORE PUSH1 0x60 ADD PUSH2 0x2AC JUMP JUMPDEST PUSH2 0x2C8 PUSH2 0x4ED CALLDATASIZE PUSH1 0x4 PUSH2 0x2194 JUMP JUMPDEST PUSH2 0x1015 JUMP JUMPDEST PUSH2 0x2FC PUSH2 0x500 CALLDATASIZE PUSH1 0x4 PUSH2 0x2194 JUMP JUMPDEST PUSH2 0x10A7 JUMP JUMPDEST PUSH2 0x2FC PUSH2 0x513 CALLDATASIZE PUSH1 0x4 PUSH2 0x2194 JUMP JUMPDEST PUSH2 0x10D4 JUMP JUMPDEST PUSH0 SLOAD PUSH1 0x1 PUSH1 0x1 PUSH1 0xA0 SHL SUB AND PUSH2 0x298 JUMP JUMPDEST PUSH2 0x2FC PUSH2 0x536 CALLDATASIZE PUSH1 0x4 PUSH2 0x2194 JUMP JUMPDEST PUSH2 0x10FE JUMP JUMPDEST PUSH2 0x2FC PUSH2 0x549 CALLDATASIZE PUSH1 0x4 PUSH2 0x223D JUMP JUMPDEST PUSH2 0x129F JUMP JUMPDEST PUSH2 0x298 PUSH2 0x55C CALLDATASIZE PUSH1 0x4 PUSH2 0x2276 JUMP JUMPDEST PUSH2 0x12BC JUMP JUMPDEST PUSH2 0x2C8 PUSH2 0x56F CALLDATASIZE PUSH1 0x4 PUSH2 0x21DC JUMP JUMPDEST PUSH2 0x12E4 JUMP JUMPDEST PUSH2 0x5A8 PUSH2 0x582 CALLDATASIZE PUSH1 0x4 PUSH2 0x2194 JUMP JUMPDEST PUSH1 0x5 PUSH1 0x20 MSTORE PUSH0 SWAP1 DUP2 MSTORE PUSH1 0x40 SWAP1 KECCAK256 DUP1 SLOAD PUSH1 0x1 DUP3 ADD SLOAD PUSH1 0x2 DUP4 ADD SLOAD PUSH1 0x3 SWAP1 SWAP4 ADD SLOAD SWAP2 SWAP3 SWAP1 SWAP2 DUP5 JUMP JUMPDEST PUSH1 0x40 DUP1 MLOAD SWAP5 DUP6 MSTORE PUSH1 0x20 DUP6 ADD SWAP4 SWAP1 SWAP4 MSTORE SWAP2 DUP4 ADD MSTORE PUSH1 0x60 DUP3 ADD MSTORE PUSH1 0x80 ADD PUSH2 0x2AC JUMP JUMPDEST PUSH2 0x2FC PUSH2 0x5D6 CALLDATASIZE PUSH1 0x4 PUSH2 0x2194 JUMP JUMPDEST PUSH2 0x1418 JUMP JUMPDEST PUSH2 0x2C8 PUSH2 0x5E9 CALLDATASIZE PUSH1 0x4 PUSH2 0x2194 JUMP JUMPDEST PUSH2 0x1442 JUMP JUMPDEST PUSH2 0x2C8 PUSH2 0x5FC CALLDATASIZE PUSH1 0x4 PUSH2 0x2194 JUMP JUMPDEST PUSH1 0x8 PUSH1 0x20 MSTORE PUSH0 SWAP1 DUP2 MSTORE PUSH1 0x40 SWAP1 KECCAK256 SLOAD DUP2 JUMP JUMPDEST PUSH2 0x2FC PUSH2 0x61B CALLDATASIZE PUSH1 0x4 PUSH2 0x228D JUMP JUMPDEST PUSH2 0x14FE JUMP JUMPDEST PUSH2 0x2C8 PUSH4 0x1E13380 DUP2 JUMP JUMPDEST PUSH2 0x333 PUSH2 0x639 CALLDATASIZE PUSH1 0x4 PUSH2 0x2194 JUMP JUMPDEST PUSH1 0x9 PUSH1 0x20 MSTORE PUSH0 SWAP1 DUP2 MSTORE PUSH1 0x40 SWAP1 KECCAK256 SLOAD PUSH1 0xFF AND DUP2 JUMP JUMPDEST PUSH2 0x2FC PUSH2 0x65B CALLDATASIZE PUSH1 0x4 PUSH2 0x2194 JUMP JUMPDEST PUSH2 0x1721 JUMP JUMPDEST PUSH2 0x2FC PUSH2 0x66E CALLDATASIZE PUSH1 0x4 PUSH2 0x21B4 JUMP JUMPDEST PUSH2 0x175B JUMP JUMPDEST PUSH1 0xF SLOAD PUSH2 0x298 SWAP1 PUSH1 0x1 PUSH1 0x1 PUSH1 0xA0 SHL SUB AND DUP2 JUMP JUMPDEST PUSH2 0x2FC PUSH2 0x694 CALLDATASIZE PUSH1 0x4 PUSH2 0x2194 JUMP JUMPDEST PUSH2 0x19A0 JUMP JUMPDEST PUSH1 0x1 PUSH1 0x1 PUSH1 0xA0 SHL SUB DUP1 DUP3 AND PUSH0 SWAP1 DUP2 MSTORE PUSH1 0x2 PUSH1 0x20 DUP2 DUP2 MSTORE PUSH1 0x40 DUP1 DUP5 KECCAK256 DUP2 MLOAD PUSH1 0x60 DUP2 ADD DUP4 MSTORE DUP2 SLOAD SWAP1 SWAP7 AND DUP7 MSTORE PUSH1 0x1 DUP2 ADD SLOAD SWAP3 DUP7 ADD SWAP3 SWAP1 SWAP3 MSTORE SWAP2 ADD SLOAD PUSH1 0xFF AND ISZERO ISZERO SWAP1 DUP4 ADD DUP2 SWAP1 MSTORE SWAP1 SWAP2 SWAP1 PUSH2 0x6EC JUMPI POP PUSH0 SWAP3 SWAP2 POP POP JUMP JUMPDEST PUSH0 PUSH2 0x6F6 DUP5 PUSH2 0x7F9 JUMP JUMPDEST PUSH1 0xD SLOAD DUP4 MLOAD PUSH1 0x40 MLOAD PUSH4 0x41976E09 PUSH1 0xE0 SHL DUP2 MSTORE PUSH1 0x1 PUSH1 0x1 PUSH1 0xA0 SHL SUB SWAP2 DUP3 AND PUSH1 0x4 DUP3 ADD MSTORE SWAP3 SWAP4 POP PUSH0 SWAP3 SWAP2 AND SWAP1 PUSH4 0x41976E09 SWAP1 PUSH1 0x24 ADD PUSH1 0x20 PUSH1 0x40 MLOAD DUP1 DUP4 SUB DUP2 DUP7 GAS STATICCALL ISZERO DUP1 ISZERO PUSH2 0x744 JUMPI RETURNDATASIZE PUSH0 DUP1 RETURNDATACOPY RETURNDATASIZE PUSH0 REVERT JUMPDEST POP POP POP POP PUSH1 0x40 MLOAD RETURNDATASIZE PUSH1 0x1F NOT PUSH1 0x1F DUP3 ADD AND DUP3 ADD DUP1 PUSH1 0x40 MSTORE POP DUP2 ADD SWAP1 PUSH2 0x768 SWAP2 SWAP1 PUSH2 0x22D3 JUMP JUMPDEST SWAP1 POP PUSH0 DUP4 PUSH0 ADD MLOAD PUSH1 0x1 PUSH1 0x1 PUSH1 0xA0 SHL SUB AND PUSH4 0x313CE567 PUSH1 0x40 MLOAD DUP2 PUSH4 0xFFFFFFFF AND PUSH1 0xE0 SHL DUP2 MSTORE PUSH1 0x4 ADD PUSH1 0x20 PUSH1 0x40 MLOAD DUP1 DUP4 SUB DUP2 DUP7 GAS STATICCALL ISZERO DUP1 ISZERO PUSH2 0x7AA JUMPI RETURNDATASIZE PUSH0 DUP1 RETURNDATACOPY RETURNDATASIZE PUSH0 REVERT JUMPDEST POP POP POP POP PUSH1 0x40 MLOAD RETURNDATASIZE PUSH1 0x1F NOT PUSH1 0x1F DUP3 ADD AND DUP3 ADD DUP1 PUSH1 0x40 MSTORE POP DUP2 ADD SWAP1 PUSH2 0x7CE SWAP2 SWAP1 PUSH2 0x22EA JUMP JUMPDEST SWAP1 POP PUSH2 0x7DB DUP2 PUSH1 0xA PUSH2 0x23FE JUMP JUMPDEST PUSH2 0x7E5 DUP4 DUP6 PUSH2 0x240C JUMP JUMPDEST PUSH2 0x7EF SWAP2 SWAP1 PUSH2 0x2423 JUMP JUMPDEST SWAP7 SWAP6 POP POP POP POP POP POP JUMP JUMPDEST PUSH1 0x1 PUSH1 0x1 PUSH1 0xA0 SHL SUB DUP1 DUP3 AND PUSH0 SWAP1 DUP2 MSTORE PUSH1 0x2 PUSH1 0x20 DUP2 DUP2 MSTORE PUSH1 0x40 DUP1 DUP5 KECCAK256 DUP2 MLOAD PUSH1 0x60 DUP2 ADD DUP4 MSTORE DUP2 SLOAD SWAP1 SWAP7 AND DUP7 MSTORE PUSH1 0x1 DUP2 ADD SLOAD SWAP3 DUP7 ADD SWAP3 SWAP1 SWAP3 MSTORE SWAP2 ADD SLOAD PUSH1 0xFF AND ISZERO ISZERO SWAP1 DUP4 ADD DUP2 SWAP1 MSTORE SWAP1 SWAP2 SWAP1 PUSH2 0x84C JUMPI POP PUSH0 SWAP3 SWAP2 POP POP JUMP JUMPDEST PUSH0 PUSH2 0x859 DUP3 PUSH0 ADD MLOAD PUSH2 0x1442 JUMP JUMPDEST DUP3 MLOAD PUSH1 0x1 PUSH1 0x1 PUSH1 0xA0 SHL SUB AND PUSH0 SWAP1 DUP2 MSTORE PUSH1 0x4 PUSH1 0x20 MSTORE PUSH1 0x40 DUP2 KECCAK256 PUSH1 0x2 ADD SLOAD SWAP2 SWAP3 POP SWAP1 PUSH2 0x883 SWAP1 TIMESTAMP PUSH2 0x2442 JUMP JUMPDEST SWAP1 POP PUSH0 PUSH2 0x896 PUSH4 0x1E13380 PUSH2 0x2710 PUSH2 0x240C JUMP JUMPDEST PUSH12 0x33B2E3C9FD0803CE8000000 PUSH2 0x8AD DUP5 DUP7 PUSH2 0x240C JUMP JUMPDEST PUSH2 0x8B7 SWAP2 SWAP1 PUSH2 0x240C JUMP JUMPDEST PUSH2 0x8C1 SWAP2 SWAP1 PUSH2 0x2423 JUMP JUMPDEST SWAP1 POP PUSH0 PUSH12 0x33B2E3C9FD0803CE8000000 PUSH2 0x8DB DUP4 DUP3 PUSH2 0x2455 JUMP JUMPDEST DUP7 MLOAD PUSH1 0x1 PUSH1 0x1 PUSH1 0xA0 SHL SUB AND PUSH0 SWAP1 DUP2 MSTORE PUSH1 0x4 PUSH1 0x20 MSTORE PUSH1 0x40 SWAP1 KECCAK256 PUSH1 0x3 ADD SLOAD PUSH2 0x901 SWAP2 SWAP1 PUSH2 0x240C JUMP JUMPDEST PUSH2 0x90B SWAP2 SWAP1 PUSH2 0x2423 JUMP JUMPDEST SWAP1 POP PUSH12 0x33B2E3C9FD0803CE8000000 DUP2 DUP7 PUSH1 0x20 ADD MLOAD PUSH2 0x92A SWAP2 SWAP1 PUSH2 0x240C JUMP JUMPDEST PUSH2 0x934 SWAP2 SWAP1 PUSH2 0x2423 JUMP JUMPDEST SWAP8 SWAP7 POP POP POP POP POP POP POP JUMP JUMPDEST PUSH2 0x947 PUSH2 0x19FE JUMP JUMPDEST PUSH2 0x953 CALLER CALLER DUP5 DUP5 PUSH2 0x1A28 JUMP JUMPDEST PUSH2 0x95C PUSH1 0x1 DUP1 SSTORE JUMP JUMPDEST POP POP JUMP JUMPDEST PUSH1 0x40 MLOAD PUSH4 0x70A08231 PUSH1 0xE0 SHL DUP2 MSTORE ADDRESS PUSH1 0x4 DUP3 ADD MSTORE PUSH0 SWAP1 PUSH1 0x1 PUSH1 0x1 PUSH1 0xA0 SHL SUB DUP4 AND SWAP1 PUSH4 0x70A08231 SWAP1 PUSH1 0x24 ADD PUSH1 0x20 PUSH1 0x40 MLOAD DUP1 DUP4 SUB DUP2 DUP7 GAS STATICCALL ISZERO DUP1 ISZERO PUSH2 0x9A4 JUMPI RETURNDATASIZE PUSH0 DUP1 RETURNDATACOPY RETURNDATASIZE PUSH0 REVERT JUMPDEST POP POP POP POP PUSH1 0x40 MLOAD RETURNDATASIZE PUSH1 0x1F NOT PUSH1 0x1F DUP3 ADD AND DUP3 ADD DUP1 PUSH1 0x40 MSTORE POP DUP2 ADD SWAP1 PUSH2 0x9C8 SWAP2 SWAP1 PUSH2 0x22D3 JUMP JUMPDEST SWAP3 SWAP2 POP POP JUMP JUMPDEST PUSH2 0x9D6 PUSH2 0x19FE JUMP JUMPDEST PUSH0 DUP2 GT PUSH2 0xA2A JUMPI PUSH1 0x40 MLOAD PUSH3 0x461BCD PUSH1 0xE5 SHL DUP2 MSTORE PUSH1 0x20 PUSH1 0x4 DUP3 ADD MSTORE PUSH1 0x8 PUSH1 0x24 DUP3 ADD MSTORE PUSH32 0x416D6F756E743D30000000000000000000000000000000000000000000000000 PUSH1 0x44 DUP3 ADD MSTORE PUSH1 0x64 ADD JUMPDEST PUSH1 0x40 MLOAD DUP1 SWAP2 SUB SWAP1 REVERT JUMPDEST PUSH1 0x1 PUSH1 0x1 PUSH1 0xA0 SHL SUB DUP3 AND PUSH0 SWAP1 DUP2 MSTORE PUSH1 0x6 PUSH1 0x20 MSTORE PUSH1 0x40 SWAP1 KECCAK256 SLOAD PUSH1 0xFF AND PUSH2 0xA7F JUMPI PUSH1 0x40 MLOAD PUSH3 0x461BCD PUSH1 0xE5 SHL DUP2 MSTORE PUSH1 0x20 PUSH1 0x4 DUP3 ADD MSTORE PUSH1 0xB PUSH1 0x24 DUP3 ADD MSTORE PUSH11 0x155B9CDD5C1C1BDC9D1959 PUSH1 0xAA SHL PUSH1 0x44 DUP3 ADD MSTORE PUSH1 0x64 ADD PUSH2 0xA21 JUMP JUMPDEST PUSH2 0xA88 DUP3 PUSH2 0x10FE JUMP JUMPDEST PUSH1 0x1 PUSH1 0x1 PUSH1 0xA0 SHL SUB DUP3 AND PUSH0 DUP2 DUP2 MSTORE PUSH1 0x4 PUSH1 0x20 MSTORE PUSH1 0x40 SWAP1 KECCAK256 SWAP1 PUSH2 0xAAC SWAP1 CALLER ADDRESS DUP6 PUSH2 0x1C4D JUMP JUMPDEST PUSH1 0x4 DUP2 ADD SLOAD PUSH0 SWAP1 PUSH2 0xAC9 PUSH12 0x33B2E3C9FD0803CE8000000 DUP6 PUSH2 0x240C JUMP JUMPDEST PUSH2 0xAD3 SWAP2 SWAP1 PUSH2 0x2423 JUMP JUMPDEST CALLER PUSH0 SWAP1 DUP2 MSTORE PUSH1 0x3 PUSH1 0x20 SWAP1 DUP2 MSTORE PUSH1 0x40 DUP1 DUP4 KECCAK256 PUSH1 0x1 PUSH1 0x1 PUSH1 0xA0 SHL SUB DUP10 AND DUP5 MSTORE SWAP1 SWAP2 MSTORE DUP2 KECCAK256 DUP1 SLOAD SWAP3 SWAP4 POP DUP4 SWAP3 SWAP1 SWAP2 SWAP1 PUSH2 0xB0A SWAP1 DUP5 SWAP1 PUSH2 0x2455 JUMP JUMPDEST SWAP1 SWAP2 SSTORE POP POP DUP2 SLOAD DUP2 SWAP1 DUP4 SWAP1 PUSH0 SWAP1 PUSH2 0xB22 SWAP1 DUP5 SWAP1 PUSH2 0x2455 JUMP JUMPDEST SWAP1 SWAP2 SSTORE POP POP PUSH1 0x40 DUP1 MLOAD PUSH1 0x1 PUSH1 0x1 PUSH1 0xA0 SHL SUB DUP7 AND DUP2 MSTORE PUSH1 0x20 DUP2 ADD DUP6 SWAP1 MSTORE SWAP1 DUP2 ADD DUP3 SWAP1 MSTORE CALLER SWAP1 PUSH32 0x9EFB8349F20E5E269336A2805F00F159E8251FF2B6060C5BC6735155E56CABAE SWAP1 PUSH1 0x60 ADD PUSH1 0x40 MLOAD DUP1 SWAP2 SUB SWAP1 LOG2 PUSH2 0xB7C CALLER PUSH2 0x1CCF JUMP JUMPDEST POP POP PUSH2 0x95C PUSH1 0x1 DUP1 SSTORE JUMP JUMPDEST PUSH2 0xB8F PUSH2 0x1F20 JUMP JUMPDEST PUSH1 0xD DUP1 SLOAD PUSH1 0x1 PUSH1 0x1 PUSH1 0xA0 SHL SUB NOT AND PUSH1 0x1 PUSH1 0x1 PUSH1 0xA0 SHL SUB SWAP3 SWAP1 SWAP3 AND SWAP2 SWAP1 SWAP2 OR SWAP1 SSTORE JUMP JUMPDEST PUSH0 DUP1 PUSH2 0xBBC DUP4 PUSH2 0x1442 JUMP JUMPDEST SWAP1 POP PUSH0 PUSH2 0xBC8 DUP5 PUSH2 0x1015 JUMP JUMPDEST PUSH1 0x1 PUSH1 0x1 PUSH1 0xA0 SHL SUB DUP6 AND PUSH0 SWAP1 DUP2 MSTORE PUSH1 0x4 PUSH1 0x20 MSTORE PUSH1 0x40 SWAP1 KECCAK256 PUSH1 0x5 ADD SLOAD SWAP1 SWAP2 POP PUSH4 0x5F5E100 PUSH2 0xBF7 DUP3 PUSH2 0x2710 PUSH2 0x2442 JUMP JUMPDEST PUSH2 0xC01 DUP5 DUP7 PUSH2 0x240C JUMP JUMPDEST PUSH2 0xC0B SWAP2 SWAP1 PUSH2 0x240C JUMP JUMPDEST PUSH2 0xC15 SWAP2 SWAP1 PUSH2 0x2423 JUMP JUMPDEST SWAP6 SWAP5 POP POP POP POP POP JUMP JUMPDEST PUSH2 0xC26 PUSH2 0x19FE JUMP JUMPDEST CALLER PUSH0 SWAP1 DUP2 MSTORE PUSH1 0x2 PUSH1 0x20 DUP2 SWAP1 MSTORE PUSH1 0x40 SWAP1 SWAP2 KECCAK256 ADD SLOAD PUSH1 0xFF AND ISZERO PUSH2 0xC89 JUMPI PUSH1 0x40 MLOAD PUSH3 0x461BCD PUSH1 0xE5 SHL DUP2 MSTORE PUSH1 0x20 PUSH1 0x4 DUP3 ADD MSTORE PUSH1 0x12 PUSH1 0x24 DUP3 ADD MSTORE PUSH32 0x416374697665206C6F616E206578697374730000000000000000000000000000 PUSH1 0x44 DUP3 ADD MSTORE PUSH1 0x64 ADD PUSH2 0xA21 JUMP JUMPDEST PUSH1 0x1 PUSH1 0x1 PUSH1 0xA0 SHL SUB DUP4 AND PUSH0 SWAP1 DUP2 MSTORE PUSH1 0x6 PUSH1 0x20 MSTORE PUSH1 0x40 SWAP1 KECCAK256 SLOAD PUSH1 0xFF AND PUSH2 0xCDE JUMPI PUSH1 0x40 MLOAD PUSH3 0x461BCD PUSH1 0xE5 SHL DUP2 MSTORE PUSH1 0x20 PUSH1 0x4 DUP3 ADD MSTORE PUSH1 0xB PUSH1 0x24 DUP3 ADD MSTORE PUSH11 0x155B9CDD5C1C1BDC9D1959 PUSH1 0xAA SHL PUSH1 0x44 DUP3 ADD MSTORE PUSH1 0x64 ADD PUSH2 0xA21 JUMP JUMPDEST PUSH2 0xCE7 DUP4 PUSH2 0x10FE JUMP JUMPDEST PUSH1 0x1 PUSH1 0x1 PUSH1 0xA0 SHL SUB DUP4 DUP2 AND PUSH0 SWAP1 DUP2 MSTORE PUSH1 0x4 PUSH1 0x20 DUP2 SWAP1 MSTORE PUSH1 0x40 SWAP2 DUP3 SWAP1 KECCAK256 PUSH1 0xC SLOAD SWAP3 MLOAD PUSH4 0x3F9AF35F PUSH1 0xE2 SHL DUP2 MSTORE CALLER SWAP3 DUP2 ADD SWAP3 SWAP1 SWAP3 MSTORE SWAP3 PUSH8 0xDE0B6B3A7640000 SWAP3 AND SWAP1 PUSH4 0xFE6BCD7C SWAP1 PUSH1 0x24 ADD PUSH1 0x20 PUSH1 0x40 MLOAD DUP1 DUP4 SUB DUP2 DUP7 GAS STATICCALL ISZERO DUP1 ISZERO PUSH2 0xD4B JUMPI RETURNDATASIZE PUSH0 DUP1 RETURNDATACOPY RETURNDATASIZE PUSH0 REVERT JUMPDEST POP POP POP POP PUSH1 0x40 MLOAD RETURNDATASIZE PUSH1 0x1F NOT PUSH1 0x1F DUP3 ADD AND DUP3 ADD DUP1 PUSH1 0x40 MSTORE POP DUP2 ADD SWAP1 PUSH2 0xD6F SWAP2 SWAP1 PUSH2 0x22D3 JUMP JUMPDEST LT ISZERO PUSH2 0xDBD JUMPI PUSH1 0x40 MLOAD PUSH3 0x461BCD PUSH1 0xE5 SHL DUP2 MSTORE PUSH1 0x20 PUSH1 0x4 DUP3 ADD MSTORE PUSH1 0x9 PUSH1 0x24 DUP3 ADD MSTORE PUSH32 0x556E6865616C7468790000000000000000000000000000000000000000000000 PUSH1 0x44 DUP3 ADD MSTORE PUSH1 0x64 ADD PUSH2 0xA21 JUMP JUMPDEST PUSH1 0x40 MLOAD PUSH4 0x70A08231 PUSH1 0xE0 SHL DUP2 MSTORE ADDRESS PUSH1 0x4 DUP3 ADD MSTORE DUP4 SWAP1 PUSH1 0x1 PUSH1 0x1 PUSH1 0xA0 SHL SUB DUP7 AND SWAP1 PUSH4 0x70A08231 SWAP1 PUSH1 0x24 ADD PUSH1 0x20 PUSH1 0x40 MLOAD DUP1 DUP4 SUB DUP2 DUP7 GAS STATICCALL ISZERO DUP1 ISZERO PUSH2 0xE01 JUMPI RETURNDATASIZE PUSH0 DUP1 RETURNDATACOPY RETURNDATASIZE PUSH0 REVERT JUMPDEST POP POP POP POP PUSH1 0x40 MLOAD RETURNDATASIZE PUSH1 0x1F NOT PUSH1 0x1F DUP3 ADD AND DUP3 ADD DUP1 PUSH1 0x40 MSTORE POP DUP2 ADD SWAP1 PUSH2 0xE25 SWAP2 SWAP1 PUSH2 0x22D3 JUMP JUMPDEST LT ISZERO PUSH2 0xE62 JUMPI PUSH1 0x40 MLOAD PUSH3 0x461BCD PUSH1 0xE5 SHL DUP2 MSTORE PUSH1 0x20 PUSH1 0x4 DUP3 ADD MSTORE PUSH1 0xC PUSH1 0x24 DUP3 ADD MSTORE PUSH12 0x4E6F206C6971756964697479 PUSH1 0xA0 SHL PUSH1 0x44 DUP3 ADD MSTORE PUSH1 0x64 ADD PUSH2 0xA21 JUMP JUMPDEST PUSH1 0x3 DUP2 ADD SLOAD PUSH0 SWAP1 PUSH2 0xE7F PUSH12 0x33B2E3C9FD0803CE8000000 DUP7 PUSH2 0x240C JUMP JUMPDEST PUSH2 0xE89 SWAP2 SWAP1 PUSH2 0x2423 JUMP JUMPDEST PUSH1 0x40 DUP1 MLOAD PUSH1 0x60 DUP2 ADD DUP3 MSTORE PUSH1 0x1 PUSH1 0x1 PUSH1 0xA0 SHL SUB DUP9 DUP2 AND DUP3 MSTORE PUSH1 0x20 DUP1 DUP4 ADD DUP6 DUP2 MSTORE PUSH1 0x1 DUP5 DUP7 ADD DUP2 DUP2 MSTORE CALLER PUSH0 SWAP1 DUP2 MSTORE PUSH1 0x2 SWAP5 DUP6 SWAP1 MSTORE SWAP7 DUP8 KECCAK256 SWAP6 MLOAD DUP7 SLOAD PUSH1 0x1 PUSH1 0x1 PUSH1 0xA0 SHL SUB NOT AND SWAP6 AND SWAP5 SWAP1 SWAP5 OR DUP6 SSTORE SWAP1 MLOAD DUP5 DUP3 ADD SSTORE SWAP2 MLOAD SWAP3 ADD DUP1 SLOAD PUSH1 0xFF NOT AND SWAP3 ISZERO ISZERO SWAP3 SWAP1 SWAP3 OR SWAP1 SWAP2 SSTORE DUP5 ADD DUP1 SLOAD SWAP3 SWAP4 POP DUP4 SWAP3 SWAP1 SWAP2 SWAP1 PUSH2 0xF05 SWAP1 DUP5 SWAP1 PUSH2 0x2455 JUMP JUMPDEST SWAP1 SWAP2 SSTORE POP POP CALLER PUSH0 SWAP1 DUP2 MSTORE PUSH1 0x9 PUSH1 0x20 MSTORE PUSH1 0x40 SWAP1 KECCAK256 SLOAD PUSH1 0xFF AND PUSH2 0xF89 JUMPI CALLER PUSH0 DUP2 DUP2 MSTORE PUSH1 0x9 PUSH1 0x20 SWAP1 DUP2 MSTORE PUSH1 0x40 DUP1 DUP4 KECCAK256 DUP1 SLOAD PUSH1 0xFF NOT AND PUSH1 0x1 SWAP1 DUP2 OR SWAP1 SWAP2 SSTORE PUSH1 0xA DUP1 SLOAD SWAP2 DUP3 ADD DUP2 SSTORE PUSH32 0xC65A7BB8D6351C1CF70C95A316CC6A92839C986682D98BC35F958F4883F9D2A8 SWAP1 SWAP2 ADD DUP1 SLOAD PUSH1 0x1 PUSH1 0x1 PUSH1 0xA0 SHL SUB NOT AND DUP7 OR SWAP1 SSTORE SLOAD SWAP4 DUP4 MSTORE PUSH1 0xB SWAP1 SWAP2 MSTORE SWAP1 KECCAK256 SSTORE JUMPDEST PUSH2 0xF9D PUSH1 0x1 PUSH1 0x1 PUSH1 0xA0 SHL SUB DUP7 AND CALLER DUP7 PUSH2 0x1F4C JUMP JUMPDEST PUSH1 0x40 DUP1 MLOAD PUSH1 0x1 PUSH1 0x1 PUSH1 0xA0 SHL SUB DUP8 AND DUP2 MSTORE PUSH1 0x20 DUP2 ADD DUP7 SWAP1 MSTORE SWAP1 DUP2 ADD DUP3 SWAP1 MSTORE CALLER SWAP1 PUSH32 0x8CA033DFE8AC84B6E3E48AA36967E19D52A93A3F4D880CE8005FD4E04C97C94D SWAP1 PUSH1 0x60 ADD PUSH1 0x40 MLOAD DUP1 SWAP2 SUB SWAP1 LOG2 PUSH2 0xFF2 CALLER PUSH2 0x1CCF JUMP JUMPDEST POP POP PUSH2 0xFFD PUSH1 0x1 DUP1 SSTORE JUMP JUMPDEST POP POP POP JUMP JUMPDEST PUSH2 0x100A PUSH2 0x1F20 JUMP JUMPDEST PUSH2 0x1013 PUSH0 PUSH2 0x1F7D JUMP JUMPDEST JUMP JUMPDEST PUSH1 0x1 PUSH1 0x1 PUSH1 0xA0 SHL SUB DUP2 AND PUSH0 SWAP1 DUP2 MSTORE PUSH1 0x4 PUSH1 0x20 MSTORE PUSH1 0x40 DUP2 KECCAK256 PUSH1 0x3 DUP2 ADD SLOAD PUSH1 0x1 DUP3 ADD SLOAD DUP4 SWAP2 PUSH12 0x33B2E3C9FD0803CE8000000 SWAP2 PUSH2 0x1050 SWAP2 SWAP1 PUSH2 0x240C JUMP JUMPDEST PUSH2 0x105A SWAP2 SWAP1 PUSH2 0x2423 JUMP JUMPDEST SWAP1 POP PUSH0 PUSH12 0x33B2E3C9FD0803CE8000000 DUP4 PUSH1 0x4 ADD SLOAD DUP5 PUSH0 ADD SLOAD PUSH2 0x107D SWAP2 SWAP1 PUSH2 0x240C JUMP JUMPDEST PUSH2 0x1087 SWAP2 SWAP1 PUSH2 0x2423 JUMP JUMPDEST SWAP1 POP DUP1 PUSH0 SUB PUSH2 0x109A JUMPI POP PUSH0 SWAP5 SWAP4 POP POP POP POP JUMP JUMPDEST DUP1 PUSH2 0xC0B DUP4 PUSH2 0x2710 PUSH2 0x240C JUMP JUMPDEST PUSH2 0x10AF PUSH2 0x19FE JUMP JUMPDEST PUSH0 PUSH2 0x10B9 CALLER PUSH2 0x7F9 JUMP JUMPDEST SWAP1 POP PUSH2 0x10C7 CALLER CALLER DUP5 DUP5 PUSH2 0x1A28 JUMP JUMPDEST POP PUSH2 0x10D1 PUSH1 0x1 DUP1 SSTORE JUMP JUMPDEST POP JUMP JUMPDEST PUSH2 0x10DC PUSH2 0x1F20 JUMP JUMPDEST PUSH1 0xF DUP1 SLOAD PUSH1 0x1 PUSH1 0x1 PUSH1 0xA0 SHL SUB NOT AND PUSH1 0x1 PUSH1 0x1 PUSH1 0xA0 SHL SUB SWAP3 SWAP1 SWAP3 AND SWAP2 SWAP1 SWAP2 OR SWAP1 SSTORE JUMP JUMPDEST PUSH1 0x1 PUSH1 0x1 PUSH1 0xA0 SHL SUB DUP2 AND PUSH0 SWAP1 DUP2 MSTORE PUSH1 0x4 PUSH1 0x20 MSTORE PUSH1 0x40 SWAP1 KECCAK256 PUSH1 0x2 DUP2 ADD SLOAD TIMESTAMP SUB PUSH2 0x1124 JUMPI POP POP JUMP JUMPDEST PUSH0 PUSH2 0x112E DUP4 PUSH2 0x1442 JUMP JUMPDEST SWAP1 POP PUSH0 PUSH2 0x113A DUP5 PUSH2 0xBB1 JUMP JUMPDEST SWAP1 POP PUSH0 DUP4 PUSH1 0x2 ADD SLOAD TIMESTAMP PUSH2 0x114D SWAP2 SWAP1 PUSH2 0x2442 JUMP JUMPDEST SWAP1 POP DUP1 ISZERO PUSH2 0x123E JUMPI PUSH0 PUSH2 0x1166 PUSH4 0x1E13380 PUSH2 0x2710 PUSH2 0x240C JUMP JUMPDEST PUSH12 0x33B2E3C9FD0803CE8000000 PUSH2 0x117D DUP5 DUP8 PUSH2 0x240C JUMP JUMPDEST PUSH2 0x1187 SWAP2 SWAP1 PUSH2 0x240C JUMP JUMPDEST PUSH2 0x1191 SWAP2 SWAP1 PUSH2 0x2423 JUMP JUMPDEST SWAP1 POP PUSH12 0x33B2E3C9FD0803CE8000000 PUSH2 0x11AA DUP3 DUP3 PUSH2 0x2455 JUMP JUMPDEST DUP7 PUSH1 0x3 ADD SLOAD PUSH2 0x11B9 SWAP2 SWAP1 PUSH2 0x240C JUMP JUMPDEST PUSH2 0x11C3 SWAP2 SWAP1 PUSH2 0x2423 JUMP JUMPDEST PUSH1 0x3 DUP7 ADD SSTORE PUSH0 PUSH2 0x11D9 PUSH4 0x1E13380 PUSH2 0x2710 PUSH2 0x240C JUMP JUMPDEST PUSH12 0x33B2E3C9FD0803CE8000000 PUSH2 0x11F0 DUP6 DUP8 PUSH2 0x240C JUMP JUMPDEST PUSH2 0x11FA SWAP2 SWAP1 PUSH2 0x240C JUMP JUMPDEST PUSH2 0x1204 SWAP2 SWAP1 PUSH2 0x2423 JUMP JUMPDEST SWAP1 POP PUSH12 0x33B2E3C9FD0803CE8000000 PUSH2 0x121D DUP3 DUP3 PUSH2 0x2455 JUMP JUMPDEST DUP8 PUSH1 0x4 ADD SLOAD PUSH2 0x122C SWAP2 SWAP1 PUSH2 0x240C JUMP JUMPDEST PUSH2 0x1236 SWAP2 SWAP1 PUSH2 0x2423 JUMP JUMPDEST PUSH1 0x4 DUP8 ADD SSTORE POP POP JUMPDEST TIMESTAMP PUSH1 0x2 DUP6 ADD SSTORE PUSH1 0x3 DUP5 ADD SLOAD PUSH1 0x4 DUP6 ADD SLOAD PUSH1 0x40 DUP1 MLOAD DUP7 DUP2 MSTORE PUSH1 0x20 DUP2 ADD SWAP4 SWAP1 SWAP4 MSTORE DUP3 ADD MSTORE PUSH1 0x1 PUSH1 0x1 PUSH1 0xA0 SHL SUB DUP7 AND SWAP1 PUSH32 0xBEA9DFCBD95788B1634FD949C43C80348C9A8960D5837081E062BC6679B9D8FE SWAP1 PUSH1 0x60 ADD PUSH1 0x40 MLOAD DUP1 SWAP2 SUB SWAP1 LOG2 POP POP POP POP POP JUMP JUMPDEST PUSH2 0x12A7 PUSH2 0x19FE JUMP JUMPDEST PUSH2 0x12B3 CALLER DUP5 DUP5 DUP5 PUSH2 0x1A28 JUMP JUMPDEST PUSH2 0xFFD PUSH1 0x1 DUP1 SSTORE JUMP JUMPDEST PUSH1 0xA DUP2 DUP2 SLOAD DUP2 LT PUSH2 0x12CB JUMPI PUSH0 DUP1 REVERT JUMPDEST PUSH0 SWAP2 DUP3 MSTORE PUSH1 0x20 SWAP1 SWAP2 KECCAK256 ADD SLOAD PUSH1 0x1 PUSH1 0x1 PUSH1 0xA0 SHL SUB AND SWAP1 POP DUP2 JUMP JUMPDEST PUSH1 0x1 PUSH1 0x1 PUSH1 0xA0 SHL SUB DUP1 DUP4 AND PUSH0 SWAP1 DUP2 MSTORE PUSH1 0x3 PUSH1 0x20 SWAP1 DUP2 MSTORE PUSH1 0x40 DUP1 DUP4 KECCAK256 SWAP4 DUP6 AND DUP4 MSTORE SWAP3 DUP2 MSTORE DUP3 DUP3 KECCAK256 DUP4 MLOAD SWAP2 DUP3 ADD SWAP1 SWAP4 MSTORE SWAP2 SLOAD DUP1 DUP4 MSTORE SWAP1 SWAP2 SWAP1 DUP3 SUB PUSH2 0x1329 JUMPI PUSH0 SWAP2 POP POP PUSH2 0x9C8 JUMP JUMPDEST PUSH0 PUSH2 0x1333 DUP5 PUSH2 0xBB1 JUMP JUMPDEST PUSH1 0x1 PUSH1 0x1 PUSH1 0xA0 SHL SUB DUP6 AND PUSH0 SWAP1 DUP2 MSTORE PUSH1 0x4 PUSH1 0x20 MSTORE PUSH1 0x40 DUP2 KECCAK256 PUSH1 0x2 ADD SLOAD SWAP2 SWAP3 POP SWAP1 PUSH2 0x135C SWAP1 TIMESTAMP PUSH2 0x2442 JUMP JUMPDEST SWAP1 POP PUSH0 PUSH2 0x136F PUSH4 0x1E13380 PUSH2 0x2710 PUSH2 0x240C JUMP JUMPDEST PUSH12 0x33B2E3C9FD0803CE8000000 PUSH2 0x1386 DUP5 DUP7 PUSH2 0x240C JUMP JUMPDEST PUSH2 0x1390 SWAP2 SWAP1 PUSH2 0x240C JUMP JUMPDEST PUSH2 0x139A SWAP2 SWAP1 PUSH2 0x2423 JUMP JUMPDEST SWAP1 POP PUSH0 PUSH12 0x33B2E3C9FD0803CE8000000 PUSH2 0x13B4 DUP4 DUP3 PUSH2 0x2455 JUMP JUMPDEST PUSH1 0x1 PUSH1 0x1 PUSH1 0xA0 SHL SUB DUP10 AND PUSH0 SWAP1 DUP2 MSTORE PUSH1 0x4 PUSH1 0x20 DUP2 SWAP1 MSTORE PUSH1 0x40 SWAP1 SWAP2 KECCAK256 ADD SLOAD PUSH2 0x13DA SWAP2 SWAP1 PUSH2 0x240C JUMP JUMPDEST PUSH2 0x13E4 SWAP2 SWAP1 PUSH2 0x2423 JUMP JUMPDEST SWAP1 POP PUSH12 0x33B2E3C9FD0803CE8000000 DUP2 DUP7 PUSH0 ADD MLOAD PUSH2 0x1402 SWAP2 SWAP1 PUSH2 0x240C JUMP JUMPDEST PUSH2 0x140C SWAP2 SWAP1 PUSH2 0x2423 JUMP JUMPDEST SWAP9 SWAP8 POP POP POP POP POP POP POP POP JUMP JUMPDEST PUSH2 0x1420 PUSH2 0x1F20 JUMP JUMPDEST PUSH1 0xE DUP1 SLOAD PUSH1 0x1 PUSH1 0x1 PUSH1 0xA0 SHL SUB NOT AND PUSH1 0x1 PUSH1 0x1 PUSH1 0xA0 SHL SUB SWAP3 SWAP1 SWAP3 AND SWAP2 SWAP1 SWAP2 OR SWAP1 SSTORE JUMP JUMPDEST PUSH0 DUP1 PUSH2 0x144D DUP4 PUSH2 0x1015 JUMP JUMPDEST PUSH1 0x1 PUSH1 0x1 PUSH1 0xA0 SHL SUB DUP5 AND PUSH0 SWAP1 DUP2 MSTORE PUSH1 0x5 PUSH1 0x20 MSTORE PUSH1 0x40 SWAP1 KECCAK256 PUSH1 0x3 DUP2 ADD SLOAD SWAP2 SWAP3 POP SWAP1 DUP3 GT PUSH2 0x14A5 JUMPI PUSH1 0x3 DUP2 ADD SLOAD PUSH1 0x1 DUP3 ADD SLOAD PUSH2 0x1487 SWAP1 DUP5 PUSH2 0x240C JUMP JUMPDEST PUSH2 0x1491 SWAP2 SWAP1 PUSH2 0x2423 JUMP JUMPDEST DUP2 SLOAD PUSH2 0x149D SWAP2 SWAP1 PUSH2 0x2455 JUMP JUMPDEST SWAP5 SWAP4 POP POP POP POP JUMP JUMPDEST PUSH0 DUP2 PUSH1 0x3 ADD SLOAD DUP4 PUSH2 0x14B6 SWAP2 SWAP1 PUSH2 0x2442 JUMP JUMPDEST SWAP1 POP DUP2 PUSH1 0x3 ADD SLOAD PUSH2 0x2710 PUSH2 0x14CA SWAP2 SWAP1 PUSH2 0x2442 JUMP JUMPDEST PUSH1 0x2 DUP4 ADD SLOAD PUSH2 0x14D9 SWAP1 DUP4 PUSH2 0x240C JUMP JUMPDEST PUSH2 0x14E3 SWAP2 SWAP1 PUSH2 0x2423 JUMP JUMPDEST PUSH1 0x1 DUP4 ADD SLOAD DUP4 SLOAD PUSH2 0x14F4 SWAP2 SWAP1 PUSH2 0x2455 JUMP JUMPDEST PUSH2 0xC15 SWAP2 SWAP1 PUSH2 0x2455 JUMP JUMPDEST PUSH2 0x1506 PUSH2 0x1F20 JUMP JUMPDEST PUSH1 0x1 PUSH1 0x1 PUSH1 0xA0 SHL SUB DUP7 AND PUSH2 0x155C JUMPI PUSH1 0x40 MLOAD PUSH3 0x461BCD PUSH1 0xE5 SHL DUP2 MSTORE PUSH1 0x20 PUSH1 0x4 DUP3 ADD MSTORE PUSH1 0xD PUSH1 0x24 DUP3 ADD MSTORE PUSH32 0x496E76616C696420746F6B656E00000000000000000000000000000000000000 PUSH1 0x44 DUP3 ADD MSTORE PUSH1 0x64 ADD PUSH2 0xA21 JUMP JUMPDEST PUSH2 0x2710 DUP3 GT ISZERO DUP1 ISZERO PUSH2 0x1570 JUMPI POP PUSH2 0x2710 DUP2 GT ISZERO JUMPDEST PUSH2 0x15BC JUMPI PUSH1 0x40 MLOAD PUSH3 0x461BCD PUSH1 0xE5 SHL DUP2 MSTORE PUSH1 0x20 PUSH1 0x4 DUP3 ADD MSTORE PUSH1 0xB PUSH1 0x24 DUP3 ADD MSTORE PUSH32 0x496E76616C696420627073000000000000000000000000000000000000000000 PUSH1 0x44 DUP3 ADD MSTORE PUSH1 0x64 ADD PUSH2 0xA21 JUMP JUMPDEST PUSH1 0x40 DUP1 MLOAD PUSH1 0x80 DUP2 ADD DUP3 MSTORE DUP7 DUP2 MSTORE PUSH1 0x20 DUP1 DUP3 ADD DUP8 DUP2 MSTORE DUP3 DUP5 ADD DUP8 DUP2 MSTORE PUSH1 0x60 DUP5 ADD DUP8 DUP2 MSTORE PUSH1 0x1 PUSH1 0x1 PUSH1 0xA0 SHL SUB DUP13 AND PUSH0 SWAP1 DUP2 MSTORE PUSH1 0x5 DUP6 MSTORE DUP7 DUP2 KECCAK256 SWAP6 MLOAD DUP7 SSTORE SWAP3 MLOAD PUSH1 0x1 DUP7 ADD SSTORE SWAP1 MLOAD PUSH1 0x2 DUP6 ADD SSTORE MLOAD PUSH1 0x3 SWAP1 SWAP4 ADD SWAP3 SWAP1 SWAP3 SSTORE PUSH1 0x6 SWAP1 MSTORE KECCAK256 SLOAD PUSH1 0xFF AND PUSH2 0x16AE JUMPI PUSH1 0x7 DUP1 SLOAD PUSH1 0x1 DUP1 DUP3 ADD SWAP1 SWAP3 SSTORE PUSH32 0xA66CC928B5EDB82AF9BD49922954155AB7B0942694BEA4CE44661D9A8736C688 ADD DUP1 SLOAD PUSH1 0x1 PUSH1 0x1 PUSH1 0xA0 SHL SUB NOT AND PUSH1 0x1 PUSH1 0x1 PUSH1 0xA0 SHL SUB DUP10 AND SWAP1 DUP2 OR SWAP1 SWAP2 SSTORE PUSH0 SWAP1 DUP2 MSTORE PUSH1 0x6 PUSH1 0x20 SWAP1 DUP2 MSTORE PUSH1 0x40 DUP1 DUP4 KECCAK256 DUP1 SLOAD PUSH1 0xFF NOT AND SWAP1 SWAP5 OR SWAP1 SWAP4 SSTORE PUSH1 0x4 SWAP1 DUP2 SWAP1 MSTORE SWAP2 SWAP1 KECCAK256 PUSH12 0x33B2E3C9FD0803CE8000000 PUSH1 0x3 DUP3 ADD DUP2 SWAP1 SSTORE SWAP2 DUP2 ADD SWAP2 SWAP1 SWAP2 SSTORE TIMESTAMP PUSH1 0x2 SWAP1 SWAP2 ADD SSTORE JUMPDEST PUSH1 0x1 PUSH1 0x1 PUSH1 0xA0 SHL SUB DUP7 AND PUSH0 DUP2 DUP2 MSTORE PUSH1 0x4 PUSH1 0x20 SWAP1 DUP2 MSTORE PUSH1 0x40 SWAP2 DUP3 SWAP1 KECCAK256 PUSH1 0x5 ADD DUP5 SWAP1 SSTORE DUP2 MLOAD SWAP3 DUP4 MSTORE DUP3 ADD DUP8 SWAP1 MSTORE DUP2 ADD DUP6 SWAP1 MSTORE PUSH1 0x60 DUP2 ADD DUP5 SWAP1 MSTORE PUSH1 0x80 DUP2 ADD DUP4 SWAP1 MSTORE PUSH32 0xABE6451CABBD950B3E345C0654219F82E7FEF35193D64C9A7A3D89C4F6F2052F SWAP1 PUSH1 0xA0 ADD PUSH1 0x40 MLOAD DUP1 SWAP2 SUB SWAP1 LOG1 POP POP POP POP POP POP JUMP JUMPDEST PUSH2 0x1729 PUSH2 0x1F20 JUMP JUMPDEST PUSH1 0x1 PUSH1 0x1 PUSH1 0xA0 SHL SUB DUP2 AND PUSH2 0x1752 JUMPI PUSH1 0x40 MLOAD PUSH4 0x1E4FBDF7 PUSH1 0xE0 SHL DUP2 MSTORE PUSH0 PUSH1 0x4 DUP3 ADD MSTORE PUSH1 0x24 ADD PUSH2 0xA21 JUMP JUMPDEST PUSH2 0x10D1 DUP2 PUSH2 0x1F7D JUMP JUMPDEST PUSH2 0x1763 PUSH2 0x19FE JUMP JUMPDEST PUSH2 0x176C DUP3 PUSH2 0x10FE JUMP JUMPDEST PUSH1 0x1 PUSH1 0x1 PUSH1 0xA0 SHL SUB DUP3 AND PUSH0 DUP2 DUP2 MSTORE PUSH1 0x4 PUSH1 0x20 DUP2 DUP2 MSTORE PUSH1 0x40 DUP1 DUP5 KECCAK256 CALLER DUP6 MSTORE PUSH1 0x3 DUP4 MSTORE DUP2 DUP6 KECCAK256 SWAP6 DUP6 MSTORE SWAP5 SWAP1 SWAP2 MSTORE DUP3 KECCAK256 SWAP1 DUP4 ADD SLOAD DUP2 SLOAD SWAP2 SWAP3 SWAP2 PUSH12 0x33B2E3C9FD0803CE8000000 SWAP2 PUSH2 0x17B9 SWAP2 PUSH2 0x240C JUMP JUMPDEST PUSH2 0x17C3 SWAP2 SWAP1 PUSH2 0x2423 JUMP JUMPDEST SWAP1 POP PUSH0 NOT DUP5 SUB PUSH2 0x17D1 JUMPI DUP1 SWAP4 POP JUMPDEST PUSH0 DUP5 GT DUP1 ISZERO PUSH2 0x17E0 JUMPI POP DUP1 DUP5 GT ISZERO JUMPDEST PUSH2 0x182C JUMPI PUSH1 0x40 MLOAD PUSH3 0x461BCD PUSH1 0xE5 SHL DUP2 MSTORE PUSH1 0x20 PUSH1 0x4 DUP3 ADD MSTORE PUSH1 0xF PUSH1 0x24 DUP3 ADD MSTORE PUSH32 0x496E76616C69642062616C616E63650000000000000000000000000000000000 PUSH1 0x44 DUP3 ADD MSTORE PUSH1 0x64 ADD PUSH2 0xA21 JUMP JUMPDEST PUSH1 0x40 MLOAD PUSH4 0x70A08231 PUSH1 0xE0 SHL DUP2 MSTORE ADDRESS PUSH1 0x4 DUP3 ADD MSTORE DUP5 SWAP1 PUSH1 0x1 PUSH1 0x1 PUSH1 0xA0 SHL SUB DUP8 AND SWAP1 PUSH4 0x70A08231 SWAP1 PUSH1 0x24 ADD PUSH1 0x20 PUSH1 0x40 MLOAD DUP1 DUP4 SUB DUP2 DUP7 GAS STATICCALL ISZERO DUP1 ISZERO PUSH2 0x1870 JUMPI RETURNDATASIZE PUSH0 DUP1 RETURNDATACOPY RETURNDATASIZE PUSH0 REVERT JUMPDEST POP POP POP POP PUSH1 0x40 MLOAD RETURNDATASIZE PUSH1 0x1F NOT PUSH1 0x1F DUP3 ADD AND DUP3 ADD DUP1 PUSH1 0x40 MSTORE POP DUP2 ADD SWAP1 PUSH2 0x1894 SWAP2 SWAP1 PUSH2 0x22D3 JUMP JUMPDEST LT ISZERO PUSH2 0x18D1 JUMPI PUSH1 0x40 MLOAD PUSH3 0x461BCD PUSH1 0xE5 SHL DUP2 MSTORE PUSH1 0x20 PUSH1 0x4 DUP3 ADD MSTORE PUSH1 0xC PUSH1 0x24 DUP3 ADD MSTORE PUSH12 0x4E6F206C6971756964697479 PUSH1 0xA0 SHL PUSH1 0x44 DUP3 ADD MSTORE PUSH1 0x64 ADD PUSH2 0xA21 JUMP JUMPDEST PUSH1 0x4 DUP4 ADD SLOAD PUSH0 SWAP1 PUSH2 0x18EE PUSH12 0x33B2E3C9FD0803CE8000000 DUP8 PUSH2 0x240C JUMP JUMPDEST PUSH2 0x18F8 SWAP2 SWAP1 PUSH2 0x2423 JUMP JUMPDEST SWAP1 POP DUP1 DUP4 PUSH0 ADD PUSH0 DUP3 DUP3 SLOAD PUSH2 0x190C SWAP2 SWAP1 PUSH2 0x2442 JUMP JUMPDEST SWAP1 SWAP2 SSTORE POP POP DUP4 SLOAD DUP2 SWAP1 DUP6 SWAP1 PUSH0 SWAP1 PUSH2 0x1924 SWAP1 DUP5 SWAP1 PUSH2 0x2442 JUMP JUMPDEST SWAP1 SWAP2 SSTORE POP PUSH2 0x193E SWAP1 POP PUSH1 0x1 PUSH1 0x1 PUSH1 0xA0 SHL SUB DUP8 AND CALLER DUP8 PUSH2 0x1F4C JUMP JUMPDEST PUSH1 0x40 DUP1 MLOAD PUSH1 0x1 PUSH1 0x1 PUSH1 0xA0 SHL SUB DUP9 AND DUP2 MSTORE PUSH1 0x20 DUP2 ADD DUP8 SWAP1 MSTORE SWAP1 DUP2 ADD DUP3 SWAP1 MSTORE CALLER SWAP1 PUSH32 0x91FB9D98B786C57D74C099CCD2BECA1739E9F6A81FB49001CA465C4B7591BBE2 SWAP1 PUSH1 0x60 ADD PUSH1 0x40 MLOAD DUP1 SWAP2 SUB SWAP1 LOG2 PUSH2 0x1993 CALLER PUSH2 0x1CCF JUMP JUMPDEST POP POP POP POP PUSH2 0x95C PUSH1 0x1 DUP1 SSTORE JUMP JUMPDEST PUSH1 0x40 MLOAD PUSH4 0xF3FEF3A3 PUSH1 0xE0 SHL DUP2 MSTORE PUSH1 0x1 PUSH1 0x1 PUSH1 0xA0 SHL SUB DUP3 AND PUSH1 0x4 DUP3 ADD MSTORE PUSH0 NOT PUSH1 0x24 DUP3 ADD MSTORE ADDRESS SWAP1 PUSH4 0xF3FEF3A3 SWAP1 PUSH1 0x44 ADD PUSH0 PUSH1 0x40 MLOAD DUP1 DUP4 SUB DUP2 PUSH0 DUP8 DUP1 EXTCODESIZE ISZERO DUP1 ISZERO PUSH2 0x19E5 JUMPI PUSH0 DUP1 REVERT JUMPDEST POP GAS CALL ISZERO DUP1 ISZERO PUSH2 0x19F7 JUMPI RETURNDATASIZE PUSH0 DUP1 RETURNDATACOPY RETURNDATASIZE PUSH0 REVERT JUMPDEST POP POP POP POP POP JUMP JUMPDEST PUSH1 0x2 PUSH1 0x1 SLOAD SUB PUSH2 0x1A21 JUMPI PUSH1 0x40 MLOAD PUSH4 0x3EE5AEB5 PUSH1 0xE0 SHL DUP2 MSTORE PUSH1 0x4 ADD PUSH1 0x40 MLOAD DUP1 SWAP2 SUB SWAP1 REVERT JUMPDEST PUSH1 0x2 PUSH1 0x1 SSTORE JUMP JUMPDEST PUSH1 0x1 PUSH1 0x1 PUSH1 0xA0 SHL SUB DUP4 AND PUSH0 SWAP1 DUP2 MSTORE PUSH1 0x2 PUSH1 0x20 DUP2 SWAP1 MSTORE PUSH1 0x40 SWAP1 SWAP2 KECCAK256 SWAP1 DUP2 ADD SLOAD PUSH1 0xFF AND PUSH2 0x1A95 JUMPI PUSH1 0x40 MLOAD PUSH3 0x461BCD PUSH1 0xE5 SHL DUP2 MSTORE PUSH1 0x20 PUSH1 0x4 DUP3 ADD MSTORE PUSH1 0xE PUSH1 0x24 DUP3 ADD MSTORE PUSH32 0x4E6F20616374697665206C6F616E000000000000000000000000000000000000 PUSH1 0x44 DUP3 ADD MSTORE PUSH1 0x64 ADD PUSH2 0xA21 JUMP JUMPDEST DUP1 SLOAD PUSH1 0x1 PUSH1 0x1 PUSH1 0xA0 SHL SUB DUP5 DUP2 AND SWAP2 AND EQ PUSH2 0x1AF1 JUMPI PUSH1 0x40 MLOAD PUSH3 0x461BCD PUSH1 0xE5 SHL DUP2 MSTORE PUSH1 0x20 PUSH1 0x4 DUP3 ADD MSTORE PUSH1 0xB PUSH1 0x24 DUP3 ADD MSTORE PUSH32 0x57726F6E6720746F6B656E000000000000000000000000000000000000000000 PUSH1 0x44 DUP3 ADD MSTORE PUSH1 0x64 ADD PUSH2 0xA21 JUMP JUMPDEST PUSH2 0x1AFA DUP4 PUSH2 0x10FE JUMP JUMPDEST PUSH1 0x1 PUSH1 0x1 PUSH1 0xA0 SHL SUB DUP4 AND PUSH0 SWAP1 DUP2 MSTORE PUSH1 0x4 PUSH1 0x20 MSTORE PUSH1 0x40 DUP2 KECCAK256 PUSH1 0x3 DUP2 ADD SLOAD PUSH1 0x1 DUP5 ADD SLOAD SWAP2 SWAP3 SWAP2 PUSH12 0x33B2E3C9FD0803CE8000000 SWAP2 PUSH2 0x1B35 SWAP2 PUSH2 0x240C JUMP JUMPDEST PUSH2 0x1B3F SWAP2 SWAP1 PUSH2 0x2423 JUMP JUMPDEST SWAP1 POP DUP1 DUP5 GT ISZERO PUSH2 0x1B4D JUMPI DUP1 SWAP4 POP JUMPDEST PUSH2 0x1B62 PUSH1 0x1 PUSH1 0x1 PUSH1 0xA0 SHL SUB DUP7 AND DUP9 ADDRESS DUP8 PUSH2 0x1C4D JUMP JUMPDEST PUSH1 0x3 DUP3 ADD SLOAD PUSH0 SWAP1 PUSH2 0x1B7F PUSH12 0x33B2E3C9FD0803CE8000000 DUP8 PUSH2 0x240C JUMP JUMPDEST PUSH2 0x1B89 SWAP2 SWAP1 PUSH2 0x2423 JUMP JUMPDEST SWAP1 POP DUP1 DUP5 PUSH1 0x1 ADD PUSH0 DUP3 DUP3 SLOAD PUSH2 0x1B9E SWAP2 SWAP1 PUSH2 0x2442 JUMP JUMPDEST SWAP3 POP POP DUP2 SWAP1 SSTORE POP DUP1 DUP4 PUSH1 0x1 ADD PUSH0 DUP3 DUP3 SLOAD PUSH2 0x1BB8 SWAP2 SWAP1 PUSH2 0x2442 JUMP JUMPDEST SWAP1 SWAP2 SSTORE POP POP PUSH1 0x1 DUP5 ADD SLOAD PUSH0 SUB PUSH2 0x1BEB JUMPI PUSH1 0x2 DUP5 ADD DUP1 SLOAD PUSH1 0xFF NOT AND SWAP1 SSTORE DUP4 SLOAD PUSH1 0x1 PUSH1 0x1 PUSH1 0xA0 SHL SUB NOT AND DUP5 SSTORE PUSH2 0x1BEB DUP8 PUSH2 0x1FCC JUMP JUMPDEST PUSH1 0x40 DUP1 MLOAD PUSH1 0x1 PUSH1 0x1 PUSH1 0xA0 SHL SUB DUP9 DUP2 AND DUP3 MSTORE PUSH1 0x20 DUP3 ADD DUP9 SWAP1 MSTORE SWAP2 DUP2 ADD DUP4 SWAP1 MSTORE SWAP1 DUP9 AND SWAP1 PUSH32 0xA6F6D5E50BC84F153A0D6A9F9B37780433F92DC32D7E10F975AB3831C36898FA SWAP1 PUSH1 0x60 ADD PUSH1 0x40 MLOAD DUP1 SWAP2 SUB SWAP1 LOG2 PUSH2 0x1C43 DUP8 PUSH2 0x1CCF JUMP JUMPDEST POP POP POP POP POP POP POP POP JUMP JUMPDEST PUSH1 0x40 MLOAD PUSH1 0x1 PUSH1 0x1 PUSH1 0xA0 SHL SUB DUP5 DUP2 AND PUSH1 0x24 DUP4 ADD MSTORE DUP4 DUP2 AND PUSH1 0x44 DUP4 ADD MSTORE PUSH1 0x64 DUP3 ADD DUP4 SWAP1 MSTORE PUSH2 0x1CC9 SWAP2 DUP7 SWAP2 DUP3 AND SWAP1 PUSH4 0x23B872DD SWAP1 PUSH1 0x84 ADD JUMPDEST PUSH1 0x40 MLOAD PUSH1 0x20 DUP2 DUP4 SUB SUB DUP2 MSTORE SWAP1 PUSH1 0x40 MSTORE SWAP2 POP PUSH1 0xE0 SHL PUSH1 0x20 DUP3 ADD DUP1 MLOAD PUSH28 0xFFFFFFFFFFFFFFFFFFFFFFFFFFFFFFFFFFFFFFFFFFFFFFFFFFFFFFFF DUP4 DUP2 DUP4 AND OR DUP4 MSTORE POP POP POP POP PUSH2 0x210D JUMP JUMPDEST POP POP POP POP JUMP JUMPDEST PUSH1 0xE SLOAD PUSH1 0x1 PUSH1 0x1 PUSH1 0xA0 SHL SUB AND ISZERO DUP1 PUSH2 0x1CEE JUMPI POP PUSH1 0x1 PUSH1 0x1 PUSH1 0xA0 SHL SUB DUP2 AND ISZERO JUMPDEST ISZERO PUSH2 0x1CF6 JUMPI POP JUMP JUMPDEST PUSH0 DUP1 JUMPDEST PUSH1 0x7 SLOAD DUP2 LT ISZERO PUSH2 0x1EA6 JUMPI PUSH0 PUSH1 0x7 DUP3 DUP2 SLOAD DUP2 LT PUSH2 0x1D17 JUMPI PUSH2 0x1D17 PUSH2 0x2468 JUMP JUMPDEST PUSH0 SWAP2 DUP3 MSTORE PUSH1 0x20 DUP1 DUP4 KECCAK256 SWAP1 SWAP2 ADD SLOAD PUSH1 0x1 PUSH1 0x1 PUSH1 0xA0 SHL SUB DUP8 DUP2 AND DUP5 MSTORE PUSH1 0x3 DUP4 MSTORE PUSH1 0x40 DUP1 DUP6 KECCAK256 SWAP2 SWAP1 SWAP3 AND DUP1 DUP6 MSTORE SWAP1 DUP4 MSTORE SWAP3 DUP2 SWAP1 KECCAK256 DUP2 MLOAD SWAP3 DUP4 ADD SWAP1 SWAP2 MSTORE SLOAD DUP1 DUP3 MSTORE SWAP2 SWAP3 POP SWAP1 ISZERO PUSH2 0x1E9C JUMPI PUSH1 0x1 PUSH1 0x1 PUSH1 0xA0 SHL SUB DUP3 AND PUSH0 SWAP1 DUP2 MSTORE PUSH1 0x4 PUSH1 0x20 DUP2 SWAP1 MSTORE PUSH1 0x40 DUP3 KECCAK256 ADD SLOAD DUP3 MLOAD PUSH12 0x33B2E3C9FD0803CE8000000 SWAP2 PUSH2 0x1D91 SWAP2 PUSH2 0x240C JUMP JUMPDEST PUSH2 0x1D9B SWAP2 SWAP1 PUSH2 0x2423 JUMP JUMPDEST PUSH1 0xD SLOAD PUSH1 0x40 MLOAD PUSH4 0x41976E09 PUSH1 0xE0 SHL DUP2 MSTORE PUSH1 0x1 PUSH1 0x1 PUSH1 0xA0 SHL SUB DUP7 DUP2 AND PUSH1 0x4 DUP4 ADD MSTORE SWAP3 SWAP4 POP PUSH0 SWAP3 SWAP1 SWAP2 AND SWAP1 PUSH4 0x41976E09 SWAP1 PUSH1 0x24 ADD PUSH1 0x20 PUSH1 0x40 MLOAD DUP1 DUP4 SUB DUP2 DUP7 GAS STATICCALL ISZERO DUP1 ISZERO PUSH2 0x1DE8 JUMPI RETURNDATASIZE PUSH0 DUP1 RETURNDATACOPY RETURNDATASIZE PUSH0 REVERT JUMPDEST POP POP POP POP PUSH1 0x40 MLOAD RETURNDATASIZE PUSH1 0x1F NOT PUSH1 0x1F DUP3 ADD AND DUP3 ADD DUP1 PUSH1 0x40 MSTORE POP DUP2 ADD SWAP1 PUSH2 0x1E0C SWAP2 SWAP1 PUSH2 0x22D3 JUMP JUMPDEST SWAP1 POP DUP4 PUSH1 0x1 PUSH1 0x1 PUSH1 0xA0 SHL SUB AND PUSH4 0x313CE567 PUSH1 0x40 MLOAD DUP2 PUSH4 0xFFFFFFFF AND PUSH1 0xE0 SHL DUP2 MSTORE PUSH1 0x4 ADD PUSH1 0x20 PUSH1 0x40 MLOAD DUP1 DUP4 SUB DUP2 DUP7 GAS STATICCALL ISZERO DUP1 ISZERO PUSH2 0x1E4A JUMPI RETURNDATASIZE PUSH0 DUP1 RETURNDATACOPY RETURNDATASIZE PUSH0 REVERT JUMPDEST POP POP POP POP PUSH1 0x40 MLOAD RETURNDATASIZE PUSH1 0x1F NOT PUSH1 0x1F DUP3 ADD AND DUP3 ADD DUP1 PUSH1 0x40 MSTORE POP DUP2 ADD SWAP1 PUSH2 0x1E6E SWAP2 SWAP1 PUSH2 0x22EA JUMP JUMPDEST PUSH2 0x1E79 SWAP1 PUSH1 0xA PUSH2 0x23FE JUMP JUMPDEST PUSH2 0x1E83 DUP3 DUP5 PUSH2 0x240C JUMP JUMPDEST PUSH2 0x1E8D SWAP2 SWAP1 PUSH2 0x2423 JUMP JUMPDEST PUSH2 0x1E97 SWAP1 DUP8 PUSH2 0x2455 JUMP JUMPDEST SWAP6 POP POP POP JUMPDEST POP POP PUSH1 0x1 ADD PUSH2 0x1CF9 JUMP JUMPDEST POP PUSH0 PUSH2 0x1EB1 DUP4 PUSH2 0x699 JUMP JUMPDEST PUSH1 0xE SLOAD PUSH1 0x40 MLOAD PUSH4 0xCA0CAF9D PUSH1 0xE0 SHL DUP2 MSTORE PUSH1 0x1 PUSH1 0x1 PUSH1 0xA0 SHL SUB DUP7 DUP2 AND PUSH1 0x4 DUP4 ADD MSTORE PUSH1 0x24 DUP3 ADD DUP7 SWAP1 MSTORE PUSH1 0x44 DUP3 ADD DUP5 SWAP1 MSTORE SWAP3 SWAP4 POP SWAP2 AND SWAP1 PUSH4 0xCA0CAF9D SWAP1 PUSH1 0x64 ADD PUSH0 PUSH1 0x40 MLOAD DUP1 DUP4 SUB DUP2 PUSH0 DUP8 DUP1 EXTCODESIZE ISZERO DUP1 ISZERO PUSH2 0x1F05 JUMPI PUSH0 DUP1 REVERT JUMPDEST POP GAS CALL ISZERO DUP1 ISZERO PUSH2 0x1F17 JUMPI RETURNDATASIZE PUSH0 DUP1 RETURNDATACOPY RETURNDATASIZE PUSH0 REVERT JUMPDEST POP POP POP POP POP POP POP JUMP JUMPDEST PUSH0 SLOAD PUSH1 0x1 PUSH1 0x1 PUSH1 0xA0 SHL SUB AND CALLER EQ PUSH2 0x1013 JUMPI PUSH1 0x40 MLOAD PUSH4 0x118CDAA7 PUSH1 0xE0 SHL DUP2 MSTORE CALLER PUSH1 0x4 DUP3 ADD MSTORE PUSH1 0x24 ADD PUSH2 0xA21 JUMP JUMPDEST PUSH1 0x40 MLOAD PUSH1 0x1 PUSH1 0x1 PUSH1 0xA0 SHL SUB DUP4 DUP2 AND PUSH1 0x24 DUP4 ADD MSTORE PUSH1 0x44 DUP3 ADD DUP4 SWAP1 MSTORE PUSH2 0xFFD SWAP2 DUP6 SWAP2 DUP3 AND SWAP1 PUSH4 0xA9059CBB SWAP1 PUSH1 0x64 ADD PUSH2 0x1C82 JUMP JUMPDEST PUSH0 DUP1 SLOAD PUSH1 0x1 PUSH1 0x1 PUSH1 0xA0 SHL SUB DUP4 DUP2 AND PUSH1 0x1 PUSH1 0x1 PUSH1 0xA0 SHL SUB NOT DUP4 AND DUP2 OR DUP5 SSTORE PUSH1 0x40 MLOAD SWAP2 SWAP1 SWAP3 AND SWAP3 DUP4 SWAP2 PUSH32 0x8BE0079C531659141344CD1FD0A4F28419497F9722A3DAAFE3B4186F6B6457E0 SWAP2 SWAP1 LOG3 POP POP JUMP JUMPDEST PUSH1 0x1 PUSH1 0x1 PUSH1 0xA0 SHL SUB DUP2 AND PUSH0 SWAP1 DUP2 MSTORE PUSH1 0xB PUSH1 0x20 MSTORE PUSH1 0x40 DUP2 KECCAK256 SLOAD SWAP1 DUP2 SWAP1 SUB PUSH2 0x1FF0 JUMPI POP POP JUMP JUMPDEST PUSH0 PUSH2 0x1FFC PUSH1 0x1 DUP4 PUSH2 0x2442 JUMP JUMPDEST PUSH1 0xA SLOAD SWAP1 SWAP2 POP PUSH0 SWAP1 PUSH2 0x2010 SWAP1 PUSH1 0x1 SWAP1 PUSH2 0x2442 JUMP JUMPDEST SWAP1 POP DUP1 DUP3 EQ PUSH2 0x20A8 JUMPI PUSH0 PUSH1 0xA DUP3 DUP2 SLOAD DUP2 LT PUSH2 0x202D JUMPI PUSH2 0x202D PUSH2 0x2468 JUMP JUMPDEST PUSH0 SWAP2 DUP3 MSTORE PUSH1 0x20 SWAP1 SWAP2 KECCAK256 ADD SLOAD PUSH1 0xA DUP1 SLOAD PUSH1 0x1 PUSH1 0x1 PUSH1 0xA0 SHL SUB SWAP1 SWAP3 AND SWAP3 POP DUP3 SWAP2 DUP6 SWAP1 DUP2 LT PUSH2 0x205B JUMPI PUSH2 0x205B PUSH2 0x2468 JUMP JUMPDEST PUSH0 SWAP2 DUP3 MSTORE PUSH1 0x20 SWAP1 SWAP2 KECCAK256 ADD DUP1 SLOAD PUSH1 0x1 PUSH1 0x1 PUSH1 0xA0 SHL SUB NOT AND PUSH1 0x1 PUSH1 0x1 PUSH1 0xA0 SHL SUB SWAP3 SWAP1 SWAP3 AND SWAP2 SWAP1 SWAP2 OR SWAP1 SSTORE PUSH2 0x208E DUP4 PUSH1 0x1 PUSH2 0x2455 JUMP JUMPDEST PUSH1 0x1 PUSH1 0x1 PUSH1 0xA0 SHL SUB SWAP1 SWAP2 AND PUSH0 SWAP1 DUP2 MSTORE PUSH1 0xB PUSH1 0x20 MSTORE PUSH1 0x40 SWAP1 KECCAK256 SSTORE JUMPDEST PUSH1 0xA DUP1 SLOAD DUP1 PUSH2 0x20B9 JUMPI PUSH2 0x20B9 PUSH2 0x247C JUMP JUMPDEST PUSH0 DUP3 DUP2 MSTORE PUSH1 0x20 DUP1 DUP3 KECCAK256 DUP4 ADD PUSH0 NOT SWAP1 DUP2 ADD DUP1 SLOAD PUSH1 0x1 PUSH1 0x1 PUSH1 0xA0 SHL SUB NOT AND SWAP1 SSTORE SWAP1 SWAP3 ADD SWAP1 SWAP3 SSTORE PUSH1 0x1 PUSH1 0x1 PUSH1 0xA0 SHL SUB SWAP6 SWAP1 SWAP6 AND DUP2 MSTORE PUSH1 0xB DUP6 MSTORE PUSH1 0x40 DUP1 DUP3 KECCAK256 DUP3 SWAP1 SSTORE PUSH1 0x9 SWAP1 SWAP6 MSTORE SWAP4 SWAP1 SWAP4 KECCAK256 DUP1 SLOAD PUSH1 0xFF NOT AND SWAP1 SSTORE POP POP POP JUMP JUMPDEST PUSH0 DUP1 PUSH1 0x20 PUSH0 DUP5 MLOAD PUSH1 0x20 DUP7 ADD PUSH0 DUP9 GAS CALL DUP1 PUSH2 0x212C JUMPI PUSH1 0x40 MLOAD RETURNDATASIZE PUSH0 DUP3 RETURNDATACOPY RETURNDATASIZE DUP2 REVERT JUMPDEST POP POP PUSH0 MLOAD RETURNDATASIZE SWAP2 POP DUP2 ISZERO PUSH2 0x2143 JUMPI DUP1 PUSH1 0x1 EQ ISZERO PUSH2 0x2150 JUMP JUMPDEST PUSH1 0x1 PUSH1 0x1 PUSH1 0xA0 SHL SUB DUP5 AND EXTCODESIZE ISZERO JUMPDEST ISZERO PUSH2 0x1CC9 JUMPI PUSH1 0x40 MLOAD PUSH4 0x5274AFE7 PUSH1 0xE0 SHL DUP2 MSTORE PUSH1 0x1 PUSH1 0x1 PUSH1 0xA0 SHL SUB DUP6 AND PUSH1 0x4 DUP3 ADD MSTORE PUSH1 0x24 ADD PUSH2 0xA21 JUMP JUMPDEST DUP1 CALLDATALOAD PUSH1 0x1 PUSH1 0x1 PUSH1 0xA0 SHL SUB DUP2 AND DUP2 EQ PUSH2 0x218F JUMPI PUSH0 DUP1 REVERT JUMPDEST SWAP2 SWAP1 POP JUMP JUMPDEST PUSH0 PUSH1 0x20 DUP3 DUP5 SUB SLT ISZERO PUSH2 0x21A4 JUMPI PUSH0 DUP1 REVERT JUMPDEST PUSH2 0x21AD DUP3 PUSH2 0x2179 JUMP JUMPDEST SWAP4 SWAP3 POP POP POP JUMP JUMPDEST PUSH0 DUP1 PUSH1 0x40 DUP4 DUP6 SUB SLT ISZERO PUSH2 0x21C5 JUMPI PUSH0 DUP1 REVERT JUMPDEST PUSH2 0x21CE DUP4 PUSH2 0x2179 JUMP JUMPDEST SWAP5 PUSH1 0x20 SWAP4 SWAP1 SWAP4 ADD CALLDATALOAD SWAP4 POP POP POP JUMP JUMPDEST PUSH0 DUP1 PUSH1 0x40 DUP4 DUP6 SUB SLT ISZERO PUSH2 0x21ED JUMPI PUSH0 DUP1 REVERT JUMPDEST PUSH2 0x21F6 DUP4 PUSH2 0x2179 JUMP JUMPDEST SWAP2 POP PUSH2 0x2204 PUSH1 0x20 DUP5 ADD PUSH2 0x2179 JUMP JUMPDEST SWAP1 POP SWAP3 POP SWAP3 SWAP1 POP JUMP JUMPDEST PUSH0 DUP1 PUSH0 PUSH1 0x60 DUP5 DUP7 SUB SLT ISZERO PUSH2 0x221F JUMPI PUSH0 DUP1 REVERT JUMPDEST PUSH2 0x2228 DUP5 PUSH2 0x2179 JUMP JUMPDEST SWAP6 PUSH1 0x20 DUP6 ADD CALLDATALOAD SWAP6 POP PUSH1 0x40 SWAP1 SWAP5 ADD CALLDATALOAD SWAP4 SWAP3 POP POP POP JUMP JUMPDEST PUSH0 DUP1 PUSH0 PUSH1 0x60 DUP5 DUP7 SUB SLT ISZERO PUSH2 0x224F JUMPI PUSH0 DUP1 REVERT JUMPDEST PUSH2 0x2258 DUP5 PUSH2 0x2179 JUMP JUMPDEST SWAP3 POP PUSH2 0x2266 PUSH1 0x20 DUP6 ADD PUSH2 0x2179 JUMP JUMPDEST SWAP2 POP PUSH1 0x40 DUP5 ADD CALLDATALOAD SWAP1 POP SWAP3 POP SWAP3 POP SWAP3 JUMP JUMPDEST PUSH0 PUSH1 0x20 DUP3 DUP5 SUB SLT ISZERO PUSH2 0x2286 JUMPI PUSH0 DUP1 REVERT JUMPDEST POP CALLDATALOAD SWAP2 SWAP1 POP JUMP JUMPDEST PUSH0 DUP1 PUSH0 DUP1 PUSH0 DUP1 PUSH1 0xC0 DUP8 DUP10 SUB SLT ISZERO PUSH2 0x22A2 JUMPI PUSH0 DUP1 REVERT JUMPDEST PUSH2 0x22AB DUP8 PUSH2 0x2179 JUMP JUMPDEST SWAP9 PUSH1 0x20 DUP9 ADD CALLDATALOAD SWAP9 POP PUSH1 0x40 DUP9 ADD CALLDATALOAD SWAP8 PUSH1 0x60 DUP2 ADD CALLDATALOAD SWAP8 POP PUSH1 0x80 DUP2 ADD CALLDATALOAD SWAP7 POP PUSH1 0xA0 ADD CALLDATALOAD SWAP5 POP SWAP3 POP POP POP JUMP JUMPDEST PUSH0 PUSH1 0x20 DUP3 DUP5 SUB SLT ISZERO PUSH2 0x22E3 JUMPI PUSH0 DUP1 REVERT JUMPDEST POP MLOAD SWAP2 SWAP1 POP JUMP JUMPDEST PUSH0 PUSH1 0x20 DUP3 DUP5 SUB SLT ISZERO PUSH2 0x22FA JUMPI PUSH0 DUP1 REVERT JUMPDEST DUP2 MLOAD PUSH1 0xFF DUP2 AND DUP2 EQ PUSH2 0x21AD JUMPI PUSH0 DUP1 REVERT JUMPDEST PUSH4 0x4E487B71 PUSH1 0xE0 SHL PUSH0 MSTORE PUSH1 0x11 PUSH1 0x4 MSTORE PUSH1 0x24 PUSH0 REVERT JUMPDEST PUSH1 0x1 DUP2 DUP2 JUMPDEST DUP1 DUP6 GT ISZERO PUSH2 0x2358 JUMPI DUP2 PUSH0 NOT DIV DUP3 GT ISZERO PUSH2 0x233E JUMPI PUSH2 0x233E PUSH2 0x230A JUMP JUMPDEST DUP1 DUP6 AND ISZERO PUSH2 0x234B JUMPI SWAP2 DUP2 MUL SWAP2 JUMPDEST SWAP4 DUP5 SHR SWAP4 SWAP1 DUP1 MUL SWAP1 PUSH2 0x2323 JUMP JUMPDEST POP SWAP3 POP SWAP3 SWAP1 POP JUMP JUMPDEST PUSH0 DUP3 PUSH2 0x236E JUMPI POP PUSH1 0x1 PUSH2 0x9C8 JUMP JUMPDEST DUP2 PUSH2 0x237A JUMPI POP PUSH0 PUSH2 0x9C8 JUMP JUMPDEST DUP2 PUSH1 0x1 DUP2 EQ PUSH2 0x2390 JUMPI PUSH1 0x2 DUP2 EQ PUSH2 0x239A JUMPI PUSH2 0x23B6 JUMP JUMPDEST PUSH1 0x1 SWAP2 POP POP PUSH2 0x9C8 JUMP JUMPDEST PUSH1 0xFF DUP5 GT ISZERO PUSH2 0x23AB JUMPI PUSH2 0x23AB PUSH2 0x230A JUMP JUMPDEST POP POP PUSH1 0x1 DUP3 SHL PUSH2 0x9C8 JUMP JUMPDEST POP PUSH1 0x20 DUP4 LT PUSH2 0x133 DUP4 LT AND PUSH1 0x4E DUP5 LT PUSH1 0xB DUP5 LT AND OR ISZERO PUSH2 0x23D9 JUMPI POP DUP2 DUP2 EXP PUSH2 0x9C8 JUMP JUMPDEST PUSH2 0x23E3 DUP4 DUP4 PUSH2 0x231E JUMP JUMPDEST DUP1 PUSH0 NOT DIV DUP3 GT ISZERO PUSH2 0x23F6 JUMPI PUSH2 0x23F6 PUSH2 0x230A JUMP JUMPDEST MUL SWAP4 SWAP3 POP POP POP JUMP JUMPDEST PUSH0 PUSH2 0x21AD PUSH1 0xFF DUP5 AND DUP4 PUSH2 0x2360 JUMP JUMPDEST DUP1 DUP3 MUL DUP2 ISZERO DUP3 DUP3 DIV DUP5 EQ OR PUSH2 0x9C8 JUMPI PUSH2 0x9C8 PUSH2 0x230A JUMP JUMPDEST PUSH0 DUP3 PUSH2 0x243D JUMPI PUSH4 0x4E487B71 PUSH1 0xE0 SHL PUSH0 MSTORE PUSH1 0x12 PUSH1 0x4 MSTORE PUSH1 0x24 PUSH0 REVERT JUMPDEST POP DIV SWAP1 JUMP JUMPDEST DUP2 DUP2 SUB DUP2 DUP2 GT ISZERO PUSH2 0x9C8 JUMPI PUSH2 0x9C8 PUSH2 0x230A JUMP JUMPDEST DUP1 DUP3 ADD DUP1 DUP3 GT ISZERO PUSH2 0x9C8 JUMPI PUSH2 0x9C8 PUSH2 0x230A JUMP JUMPDEST PUSH4 0x4E487B71 PUSH1 0xE0 SHL PUSH0 MSTORE PUSH1 0x32 PUSH1 0x4 MSTORE PUSH1 0x24 PUSH0 REVERT JUMPDEST PUSH4 0x4E487B71 PUSH1 0xE0 SHL PUSH0 MSTORE PUSH1 0x31 PUSH1 0x4 MSTORE PUSH1 0x24 PUSH0 REVERT INVALID LOG1 PUSH5 0x736F6C6343 STOP ADDMOD XOR STOP EXP "},"gasEstimates":{"creation":{"codeDepositCost":"1874600","executionCost":"infinite","totalCost":"infinite"},"external":{"RAY()":"262","SECONDS_PER_YEAR()":"305","accrueInterest(address)":"infinite","activeBorrowers(uint256)":"4667","collateralManager()":"2394","depositToPool(address,uint256)":"infinite","getAvailableLiquidity(address)":"infinite","getAvailableToWithdraw(address,address)":"infinite","getBorrowRate(address)":"infinite","getLoanToken(address)":"2600","getOutstandingLoan(address)":"infinite","getOutstandingLoanUSD(address)":"infinite","getSupplyRate(address)":"infinite","getUtilizationRate(address)":"infinite","isBorrower(address)":"2595","isSupportedToken(address)":"2619","lenders(address,address)":"infinite","loans(address)":"6962","owner()":"2430","priceOracle()":"2393","protocolProfit(address)":"2583","rateConfigs(address)":"9029","renounceOwnership()":"infinite","repay(address,uint256)":"infinite","repayAll(address)":"infinite","repayFor(address,address,uint256)":"infinite","requestLoan(address,uint256,uint256)":"infinite","rewardToken()":"2413","rewardsDistributor()":"2393","setPriceOracle(address)":"26844","setRewardToken(address)":"26822","setRewardsDistributor(address)":"26800","supportToken(address,uint256,uint256,uint256,uint256,uint256)":"257156","transferOwnership(address)":"28418","treasury(address)":"13302","withdraw(address,uint256)":"infinite","withdrawAll(address)":"infinite"},"internal":{"_notifyRewards(address)":"infinite","_removeActiveBorrower(address)":"infinite","_repayInternal(address,address,address,uint256)":"infinite"}},"methodIdentifiers":{"RAY()":"552033c4","SECONDS_PER_YEAR()":"e6a69ab8","accrueInterest(address)":"9198e515","activeBorrowers(uint256)":"9eb78798","collateralManager()":"23be345c","depositToPool(address,uint256)":"2f6d58dc","getAvailableLiquidity(address)":"266e2bd8","getAvailableToWithdraw(address,address)":"a611c62b","getBorrowRate(address)":"d71275f6","getLoanToken(address)":"0ccd8ab5","getOutstandingLoan(address)":"1b7adeca","getOutstandingLoanUSD(address)":"1955c977","getSupplyRate(address)":"6b5441a9","getUtilizationRate(address)":"7b6aa8bd","isBorrower(address)":"eaf6e483","isSupportedToken(address)":"240028e8","lenders(address,address)":"4162d0ea","loans(address)":"73b4086b","owner()":"8da5cb5b","priceOracle()":"2630c12f","protocolProfit(address)":"d85bf034","rateConfigs(address)":"c0e34fdf","renounceOwnership()":"715018a6","repay(address,uint256)":"22867d78","repayAll(address)":"7c27383b","repayFor(address,address,uint256)":"976ce495","requestLoan(address,uint256,uint256)":"6f77ff55","rewardToken()":"f7c618c1","rewardsDistributor()":"3f2a5540","setPriceOracle(address)":"530e784f","setRewardToken(address)":"8aee8127","setRewardsDistributor(address)":"d1f5c33b","supportToken(address,uint256,uint256,uint256,uint256,uint256)":"daf0ca5f","transferOwnership(address)":"f2fde38b","treasury(address)":"2d809cb6","withdraw(address,uint256)":"f3fef3a3","withdrawAll(address)":"fa09e630"}},"storageLayout":{"storage":[{"astId":8,"contract":"contracts/LoanManager.sol:LoanManager","label":"_owner","offset":0,"slot":"0","type":"t_address"},{"astId":1498,"contract":"contracts/LoanManager.sol:LoanManager","label":"_status","offset":0,"slot":"1","type":"t_uint256"},{"astId":2892,"contract":"contracts/LoanManager.sol:LoanManager","label":"loans","offset":0,"slot":"2","type":"t_mapping(t_address,t_struct(Loan)2884_storage)"},{"astId":2899,"contract":"contracts/LoanManager.sol:LoanManager","label":"lenders","offset":0,"slot":"3","type":"t_mapping(t_address,t_mapping(t_address,t_struct(Lender)2887_storage))"},{"astId":2904,"contract":"contracts/LoanManager.sol:LoanManager","label":"treasury","offset":0,"slot":"4","type":"t_mapping(t_address,t_struct(TreasuryStats)2877_storage)"},{"astId":2909,"contract":"contracts/LoanManager.sol:LoanManager","label":"rateConfigs","offset":0,"slot":"5","type":"t_mapping(t_address,t_struct(RateModelConfig)2864_storage)"},{"astId":2913,"contract":"contracts/LoanManager.sol:LoanManager","label":"isSupportedToken","offset":0,"slot":"6","type":"t_mapping(t_address,t_bool)"},{"astId":2916,"contract":"contracts/LoanManager.sol:LoanManager","label":"_supportedTokens","offset":0,"slot":"7","type":"t_array(t_address)dyn_storage"},{"astId":2920,"contract":"contracts/LoanManager.sol:LoanManager","label":"protocolProfit","offset":0,"slot":"8","type":"t_mapping(t_address,t_uint256)"},{"astId":2924,"contract":"contracts/LoanManager.sol:LoanManager","label":"isBorrower","offset":0,"slot":"9","type":"t_mapping(t_address,t_bool)"},{"astId":2927,"contract":"contracts/LoanManager.sol:LoanManager","label":"activeBorrowers","offset":0,"slot":"10","type":"t_array(t_address)dyn_storage"},{"astId":2931,"contract":"contracts/LoanManager.sol:LoanManager","label":"activeBorrowerIndex","offset":0,"slot":"11","type":"t_mapping(t_address,t_uint256)"},{"astId":2934,"contract":"contracts/LoanManager.sol:LoanManager","label":"collateralManager","offset":0,"slot":"12","type":"t_contract(ICollateralManager)2833"},{"astId":2937,"contract":"contracts/LoanManager.sol:LoanManager","label":"priceOracle","offset":0,"slot":"13","type":"t_contract(IPriceOracle)2841"},{"astId":2940,"contract":"contracts/LoanManager.sol:LoanManager","label":"rewardsDistributor","offset":0,"slot":"14","type":"t_contract(IRewardsDistributor)5509"},{"astId":2943,"contract":"contracts/LoanManager.sol:LoanManager","label":"rewardToken","offset":0,"slot":"15","type":"t_contract(IERC20)967"}],"types":{"t_address":{"encoding":"inplace","label":"address","numberOfBytes":"20"},"t_array(t_address)dyn_storage":{"base":"t_address","encoding":"dynamic_array","label":"address[]","numberOfBytes":"32"},"t_bool":{"encoding":"inplace","label":"bool","numberOfBytes":"1"},"t_contract(ICollateralManager)2833":{"encoding":"inplace","label":"contract ICollateralManager","numberOfBytes":"20"},"t_contract(IERC20)967":{"encoding":"inplace","label":"contract IERC20","numberOfBytes":"20"},"t_contract(IPriceOracle)2841":{"encoding":"inplace","label":"contract IPriceOracle","numberOfBytes":"20"},"t_contract(IRewardsDistributor)5509":{"encoding":"inplace","label":"contract IRewardsDistributor","numberOfBytes":"20"},"t_mapping(t_address,t_bool)":{"encoding":"mapping","key":"t_address","label":"mapping(address => bool)","numberOfBytes":"32","value":"t_bool"},"t_mapping(t_address,t_mapping(t_address,t_struct(Lender)2887_storage))":{"encoding":"mapping","key":"t_address","label":"mapping(address => mapping(address => struct LoanManager.Lender))","numberOfBytes":"32","value":"t_mapping(t_address,t_struct(Lender)2887_storage)"},"t_mapping(t_address,t_struct(Lender)2887_storage)":{"encoding":"mapping","key":"t_address","label":"mapping(address => struct LoanManager.Lender)","numberOfBytes":"32","value":"t_struct(Lender)2887_storage"},"t_mapping(t_address,t_struct(Loan)2884_storage)":{"encoding":"mapping","key":"t_address","label":"mapping(address => struct LoanManager.Loan)","numberOfBytes":"32","value":"t_struct(Loan)2884_storage"},"t_mapping(t_address,t_struct(RateModelConfig)2864_storage)":{"encoding":"mapping","key":"t_address","label":"mapping(address => struct LoanManager.RateModelConfig)","numberOfBytes":"32","value":"t_struct(RateModelConfig)2864_storage"},"t_mapping(t_address,t_struct(TreasuryStats)2877_storage)":{"encoding":"mapping","key":"t_address","label":"mapping(address => struct LoanManager.TreasuryStats)","numberOfBytes":"32","value":"t_struct(TreasuryStats)2877_storage"},"t_mapping(t_address,t_uint256)":{"encoding":"mapping","key":"t_address","label":"mapping(address => uint256)","numberOfBytes":"32","value":"t_uint256"},"t_struct(Lender)2887_storage":{"encoding":"inplace","label":"struct LoanManager.Lender","members":[{"astId":2886,"contract":"contracts/LoanManager.sol:LoanManager","label":"scaledBalance","offset":0,"slot":"0","type":"t_uint256"}],"numberOfBytes":"32"},"t_struct(Loan)2884_storage":{"encoding":"inplace","label":"struct LoanManager.Loan","members":[{"astId":2879,"contract":"contracts/LoanManager.sol:LoanManager","label":"token","offset":0,"slot":"0","type":"t_address"},{"astId":2881,"contract":"contracts/LoanManager.sol:LoanManager","label":"scaledPrincipal","offset":0,"slot":"1","type":"t_uint256"},{"astId":2883,"contract":"contracts/LoanManager.sol:LoanManager","label":"active","offset":0,"slot":"2","type":"t_bool"}],"numberOfBytes":"96"},"t_struct(RateModelConfig)2864_storage":{"encoding":"inplace","label":"struct LoanManager.RateModelConfig","members":[{"astId":2857,"contract":"contracts/LoanManager.sol:LoanManager","label":"baseRate","offset":0,"slot":"0","type":"t_uint256"},{"astId":2859,"contract":"contracts/LoanManager.sol:LoanManager","label":"slope1","offset":0,"slot":"1","type":"t_uint256"},{"astId":2861,"contract":"contracts/LoanManager.sol:LoanManager","label":"slope2","offset":0,"slot":"2","type":"t_uint256"},{"astId":2863,"contract":"contracts/LoanManager.sol:LoanManager","label":"optimalUtil","offset":0,"slot":"3","type":"t_uint256"}],"numberOfBytes":"128"},"t_struct(TreasuryStats)2877_storage":{"encoding":"inplace","label":"struct LoanManager.TreasuryStats","members":[{"astId":2866,"contract":"contracts/LoanManager.sol:LoanManager","label":"totalDeposits","offset":0,"slot":"0","type":"t_uint256"},{"astId":2868,"contract":"contracts/LoanManager.sol:LoanManager","label":"totalBorrows","offset":0,"slot":"1","type":"t_uint256"},{"astId":2870,"contract":"contracts/LoanManager.sol:LoanManager","label":"lastUpdate","offset":0,"slot":"2","type":"t_uint256"},{"astId":2872,"contract":"contracts/LoanManager.sol:LoanManager","label":"borrowIndex","offset":0,"slot":"3","type":"t_uint256"},{"astId":2874,"contract":"contracts/LoanManager.sol:LoanManager","label":"supplyIndex","offset":0,"slot":"4","type":"t_uint256"},{"astId":2876,"contract":"contracts/LoanManager.sol:LoanManager","label":"reserveFactor","offset":0,"slot":"5","type":"t_uint256"}],"numberOfBytes":"192"},"t_uint256":{"encoding":"inplace","label":"uint256","numberOfBytes":"32"}}},"userdoc":{"kind":"user","methods":{},"version":1}}}}