{"contracts/CollateralManager.sol":{"CollateralManager":{"abi":[{"inputs":[{"internalType":"address","name":"_oracle","type":"address"},{"internalType":"address","name":"_loanManager","type":"address"},{"internalType":"address","name":"initialOwner","type":"address"}],"stateMutability":"nonpayable","type":"constructor"},{"inputs":[{"internalType":"address","name":"owner","type":"address"}],"name":"OwnableInvalidOwner","type":"error"},{"inputs":[{"internalType":"address","name":"account","type":"address"}],"name":"OwnableUnauthorizedAccount","type":"error"},{"inputs":[],"name":"ReentrancyGuardReentrantCall","type":"error"},{"inputs":[{"internalType":"address","name":"spender","type":"address"},{"internalType":"uint256","name":"currentAllowance","type":"uint256"},{"internalType":"uint256","name":"requestedDecrease","type":"uint256"}],"name":"SafeERC20FailedDecreaseAllowance","type":"error"},{"inputs":[{"internalType":"address","name":"token","type":"address"}],"name":"SafeERC20FailedOperation","type":"error"},{"anonymous":false,"inputs":[{"indexed":true,"internalType":"address","name":"user","type":"address"},{"indexed":true,"internalType":"address","name":"token","type":"address"},{"indexed":false,"internalType":"uint256","name":"amount","type":"uint256"}],"name":"CollateralDeposited","type":"event"},{"anonymous":false,"inputs":[{"indexed":true,"internalType":"address","name":"borrower","type":"address"},{"indexed":true,"internalType":"address","name":"token","type":"address"},{"indexed":false,"internalType":"address","name":"liquidator","type":"address"},{"indexed":false,"internalType":"uint256","name":"repayAmount","type":"uint256"},{"indexed":false,"internalType":"uint256","name":"collateralSeized","type":"uint256"}],"name":"CollateralLiquidated","type":"event"},{"anonymous":false,"inputs":[{"indexed":true,"internalType":"address","name":"user","type":"address"},{"indexed":true,"internalType":"address","name":"token","type":"address"},{"indexed":false,"internalType":"uint256","name":"amount","type":"uint256"}],"name":"CollateralWithdrawn","type":"event"},{"anonymous":false,"inputs":[{"indexed":true,"internalType":"address","name":"previousOwner","type":"address"},{"indexed":true,"internalType":"address","name":"newOwner","type":"address"}],"name":"OwnershipTransferred","type":"event"},{"inputs":[{"internalType":"address","name":"token","type":"address"},{"internalType":"uint8","name":"ltv","type":"uint8"},{"internalType":"uint8","name":"liquidationThreshold","type":"uint8"}],"name":"addAllowedToken","outputs":[],"stateMutability":"nonpayable","type":"function"},{"inputs":[{"internalType":"uint256","name":"","type":"uint256"}],"name":"allowedTokens","outputs":[{"internalType":"address","name":"","type":"address"}],"stateMutability":"view","type":"function"},{"inputs":[],"name":"allowedTokensLength","outputs":[{"internalType":"uint256","name":"","type":"uint256"}],"stateMutability":"view","type":"function"},{"inputs":[],"name":"closeFactorBps","outputs":[{"internalType":"uint16","name":"","type":"uint16"}],"stateMutability":"view","type":"function"},{"inputs":[{"internalType":"address","name":"","type":"address"},{"internalType":"address","name":"","type":"address"}],"name":"collateralBalances","outputs":[{"internalType":"uint256","name":"","type":"uint256"}],"stateMutability":"view","type":"function"},{"inputs":[{"internalType":"address","name":"token","type":"address"},{"internalType":"uint256","name":"amount","type":"uint256"}],"name":"deposit","outputs":[],"stateMutability":"nonpayable","type":"function"},{"inputs":[{"internalType":"address","name":"user","type":"address"}],"name":"getCollateralValueUSD","outputs":[{"internalType":"uint256","name":"totalValue","type":"uint256"}],"stateMutability":"view","type":"function"},{"inputs":[{"internalType":"address","name":"user","type":"address"},{"internalType":"address","name":"token","type":"address"}],"name":"getCollateralValueUSDByToken","outputs":[{"internalType":"uint256","name":"","type":"uint256"}],"stateMutability":"view","type":"function"},{"inputs":[{"internalType":"address","name":"user","type":"address"}],"name":"getHealthFactor","outputs":[{"internalType":"uint256","name":"","type":"uint256"}],"stateMutability":"view","type":"function"},{"inputs":[{"internalType":"address","name":"user","type":"address"}],"name":"getMaxLoanAllowedUSD","outputs":[{"internalType":"uint256","name":"totalUSD","type":"uint256"}],"stateMutability":"view","type":"function"},{"inputs":[{"internalType":"address","name":"user","type":"address"}],"name":"getUserCollateralData","outputs":[{"internalType":"uint256","name":"totalCollateralUSD","type":"uint256"},{"internalType":"uint256","name":"maxLoanUSD","type":"uint256"},{"internalType":"uint256","name":"debtUSD","type":"uint256"},{"internalType":"uint256","name":"healthFactor","type":"uint256"}],"stateMutability":"view","type":"function"},{"inputs":[{"internalType":"address","name":"borrower","type":"address"},{"internalType":"address","name":"repayToken","type":"address"},{"internalType":"uint256","name":"repayAmount","type":"uint256"},{"internalType":"address","name":"collateralToken","type":"address"}],"name":"liquidate","outputs":[],"stateMutability":"nonpayable","type":"function"},{"inputs":[],"name":"liquidationBonusBps","outputs":[{"internalType":"uint16","name":"","type":"uint16"}],"stateMutability":"view","type":"function"},{"inputs":[],"name":"loanManager","outputs":[{"internalType":"contract ILoanManager","name":"","type":"address"}],"stateMutability":"view","type":"function"},{"inputs":[],"name":"owner","outputs":[{"internalType":"address","name":"","type":"address"}],"stateMutability":"view","type":"function"},{"inputs":[],"name":"priceOracle","outputs":[{"internalType":"contract IPriceOracle","name":"","type":"address"}],"stateMutability":"view","type":"function"},{"inputs":[],"name":"renounceOwnership","outputs":[],"stateMutability":"nonpayable","type":"function"},{"inputs":[{"internalType":"uint16","name":"newCloseFactorBps","type":"uint16"},{"internalType":"uint16","name":"newBonusBps","type":"uint16"}],"name":"setLiquidationParams","outputs":[],"stateMutability":"nonpayable","type":"function"},{"inputs":[{"internalType":"address","name":"_loanManager","type":"address"}],"name":"setLoanManager","outputs":[],"stateMutability":"nonpayable","type":"function"},{"inputs":[{"internalType":"address","name":"_oracle","type":"address"}],"name":"setPriceOracle","outputs":[],"stateMutability":"nonpayable","type":"function"},{"inputs":[{"internalType":"address","name":"","type":"address"}],"name":"tokenConfig","outputs":[{"internalType":"bool","name":"allowed","type":"bool"},{"internalType":"uint8","name":"ltv","type":"uint8"},{"internalType":"uint8","name":"liquidationThreshold","type":"uint8"}],"stateMutability":"view","type":"function"},{"inputs":[{"internalType":"address","name":"newOwner","type":"address"}],"name":"transferOwnership","outputs":[],"stateMutability":"nonpayable","type":"function"},{"inputs":[{"internalType":"address","name":"token","type":"address"},{"internalType":"uint8","name":"newLtv","type":"uint8"},{"internalType":"uint8","name":"newThreshold","type":"uint8"}],"name":"updateTokenLTV","outputs":[],"stateMutability":"nonpayable","type":"function"},{"inputs":[{"internalType":"address","name":"token","type":"address"},{"internalType":"uint256","name":"amount","type":"uint256"}],"name":"withdraw","outputs":[],"stateMutability":"nonpayable","type":"function"},{"inputs":[],"name":"withdrawAllCollateral","outputs":[],"stateMutability":"nonpayable","type":"function"}],"devdoc":{"errors":{"OwnableInvalidOwner(address)":[{"details":"The owner is not a valid owner account. (eg. `address(0)`)"}],"OwnableUnauthorizedAccount(address)":[{"details":"The caller account is not authorized to perform an operation."}],"ReentrancyGuardReentrantCall()":[{"details":"Unauthorized reentrant call."}],"SafeERC20FailedDecreaseAllowance(address,uint256,uint256)":[{"details":"Indicates a failed `decreaseAllowance` request."}],"SafeERC20FailedOperation(address)":[{"details":"An operation with an ERC-20 token failed."}]},"kind":"dev","methods":{"owner()":{"details":"Returns the address of the current owner."},"renounceOwnership()":{"details":"Leaves the contract without owner. It will not be possible to call `onlyOwner` functions. Can only be called by the current owner. NOTE: Renouncing ownership will leave the contract without an owner, thereby disabling any functionality that is only available to the owner."},"transferOwnership(address)":{"details":"Transfers ownership of the contract to a new account (`newOwner`). Can only be called by the current owner."}},"version":1},"evm":{"bytecode":{"linkReferences":{},"object":"60806040526006805463ffffffff60a01b1916623e827160a31b17905534801562000028575f80fd5b506040516200261e3803806200261e8339810160408190526200004b9162000128565b806001600160a01b0381166200007a57604051631e4fbdf760e01b81525f600482015260240160405180910390fd5b6200008581620000bd565b505060018055600580546001600160a01b039384166001600160a01b031991821617909155600680549290931691161790556200016f565b5f80546001600160a01b038381166001600160a01b0319831681178455604051919092169283917f8be0079c531659141344cd1fd0a4f28419497f9722a3daafe3b4186f6b6457e09190a35050565b80516001600160a01b038116811462000123575f80fd5b919050565b5f805f606084860312156200013b575f80fd5b62000146846200010c565b925062000156602085016200010c565b915062000166604085016200010c565b90509250925092565b6124a1806200017d5f395ff3fe608060405234801561000f575f80fd5b506004361061019a575f3560e01c80635a4b5a7c116100e8578063b341c2be11610093578063f2fde38b1161006e578063f2fde38b14610384578063f3fef3a314610397578063fe136c4e146103aa578063fe6bcd7c14610400575f80fd5b8063b341c2be1461034b578063b3ccbcfe1461035e578063dc627c6f14610371575f80fd5b806373749567116100c357806373749567146103005780638da5cb5b14610308578063b01edbd714610318575f80fd5b80635a4b5a7c146102d25780635e5f2e26146102e5578063715018a6146102f8575f80fd5b80633de2f6b21161014857806347e7ef241161012357806347e7ef2414610299578063530e784f146102ac5780635772ae70146102bf575f80fd5b80633de2f6b2146102695780634565e5ef1461027c5780634654440b14610284575f80fd5b806339ecf9ba1161017857806339ecf9ba1461020b5780633a5d0a48146102435780633b4cc65614610256575f80fd5b806319970d8e1461019e5780631a9f21fb146101cb5780632630c12f146101e0575b5f80fd5b6006546101b390600160b01b900461ffff1681565b60405161ffff90911681526020015b60405180910390f35b6101de6101d9366004612175565b610413565b005b6005546101f3906001600160a01b031681565b6040516001600160a01b0390911681526020016101c2565b6102356102193660046121bb565b600260209081525f928352604080842090915290825290205481565b6040519081526020016101c2565b6102356102513660046121ec565b610523565b6102356102643660046121ec565b6106c7565b6101de61027736600461220c565b6108ad565b600454610235565b6006546101b390600160a01b900461ffff1681565b6101de6102a7366004612256565b610bc1565b6101de6102ba3660046121ec565b610cfe565b6101de6102cd3660046121ec565b610d7e565b6101de6102e036600461228f565b610dfe565b6101f36102f33660046122b7565b610f2b565b6101de610f53565b6101de610f66565b5f546001600160a01b03166101f3565b61032b6103263660046121ec565b6110b9565b6040805194855260208501939093529183015260608201526080016101c2565b6101de610359366004612175565b611153565b6006546101f3906001600160a01b031681565b61023561037f3660046121bb565b6112e2565b6101de6103923660046121ec565b611450565b6101de6103a5366004612256565b61148d565b6103df6103b83660046121ec565b60036020525f908152604090205460ff808216916101008104821691620100009091041683565b60408051931515845260ff92831660208501529116908201526060016101c2565b61023561040e3660046121ec565b61168b565b61041b611761565b6001600160a01b0383165f9081526003602052604090205460ff1661047b5760405162461bcd60e51b8152602060048201526011602482015270151bdad95b881b9bdd08185b1b1bddd959607a1b60448201526064015b60405180910390fd5b5f8260ff1611801561049257508160ff168160ff16115b6104de5760405162461bcd60e51b815260206004820152600b60248201527f496e76616c6964204c54560000000000000000000000000000000000000000006044820152606401610472565b6001600160a01b03929092165f908152600360205260409020805462ffff00191661010060ff9384160262ff0000191617620100009290931691909102919091179055565b5f805b6004548110156106c1575f60048281548110610544576105446122ce565b5f9182526020808320909101546001600160a01b0387811684526002835260408085209190921680855292529091205490915080156106b7576005546040516341976e0960e01b81526001600160a01b0384811660048301525f9216906341976e0990602401602060405180830381865afa1580156105c5573d5f803e3d5ffd5b505050506040513d601f19601f820116820180604052508101906105e991906122e2565b90505f81116106265760405162461bcd60e51b815260206004820152600960248201526842616420707269636560b81b6044820152606401610472565b5f836001600160a01b031663313ce5676040518163ffffffff1660e01b8152600401602060405180830381865afa158015610663573d5f803e3d5ffd5b505050506040513d601f19601f8201168201806040525081019061068791906122f9565b905061069481600a612408565b61069e8385612416565b6106a8919061242d565b6106b2908761244c565b955050505b5050600101610526565b50919050565b5f805b6004548110156106c1575f600482815481106106e8576106e86122ce565b5f9182526020808320909101546001600160a01b038781168452600283526040808520919092168085529252822054909250908190036107295750506108a5565b6005546040516341976e0960e01b81526001600160a01b0384811660048301525f9216906341976e0990602401602060405180830381865afa158015610771573d5f803e3d5ffd5b505050506040513d601f19601f8201168201806040525081019061079591906122e2565b90505f81116107d25760405162461bcd60e51b815260206004820152600960248201526842616420707269636560b81b6044820152606401610472565b5f836001600160a01b031663313ce5676040518163ffffffff1660e01b8152600401602060405180830381865afa15801561080f573d5f803e3d5ffd5b505050506040513d601f19601f8201168201806040525081019061083391906122f9565b6001600160a01b0385165f9081526003602052604081205491925061010090910460ff169061086383600a612408565b61086d8587612416565b610877919061242d565b9050606461088860ff841683612416565b610892919061242d565b61089c908961244c565b97505050505050505b6001016106ca565b6108b561178d565b6001600160a01b0381165f9081526003602052604090205460ff1661091c5760405162461bcd60e51b815260206004820152601660248201527f436f6c6c61746572616c206e6f7420616c6c6f776564000000000000000000006044820152606401610472565b5f821161096b5760405162461bcd60e51b815260206004820152600860248201527f416d6f756e743d300000000000000000000000000000000000000000000000006044820152606401610472565b5f6109758561168b565b9050670de0b6b3a764000081106109ce5760405162461bcd60e51b815260206004820152600f60248201527f4865616c746879206163636f756e7400000000000000000000000000000000006044820152606401610472565b600654604051631955c97760e01b81526001600160a01b0387811660048301525f921690631955c97790602401602060405180830381865afa158015610a16573d5f803e3d5ffd5b505050506040513d601f19601f82011682018060405250810190610a3a91906122e2565b90505f8111610a8b5760405162461bcd60e51b815260206004820152600760248201527f4e6f2064656274000000000000000000000000000000000000000000000000006044820152606401610472565b610aa06001600160a01b0386163330876117b7565b6006545f9061271090610abe90600160a01b900461ffff1684612416565b610ac8919061242d565b90505f610ad88888888886611833565b6001600160a01b03808a165f908152600260209081526040808320938a168352929052205490915080821115610b0c578091505b6001600160a01b03808a165f908152600260209081526040808320938a1683529290529081208054849290610b4290849061245f565b90915550610b5c90506001600160a01b0387163384611c32565b60408051338152602081018990529081018390526001600160a01b0380881691908b16907f9459a8332762f885ecd10e55595000d48ad3d31187a66259d38102deadc2d6299060600160405180910390a35050505050610bbb60018055565b50505050565b610bc961178d565b6001600160a01b0382165f9081526003602052604090205460ff16610c245760405162461bcd60e51b8152602060048201526011602482015270151bdad95b881b9bdd08185b1b1bddd959607a1b6044820152606401610472565b5f8111610c645760405162461bcd60e51b815260206004820152600e60248201526d125b9d985b1a5908185b5bdd5b9d60921b6044820152606401610472565b610c796001600160a01b0383163330846117b7565b335f9081526002602090815260408083206001600160a01b038616845290915281208054839290610cab90849061244c565b90915550506040518181526001600160a01b0383169033907ff1c0dd7e9b98bbff859029005ef89b127af049cd18df1a8d79f0b7e019911e56906020015b60405180910390a3610cfa60018055565b5050565b610d06611761565b6001600160a01b038116610d5c5760405162461bcd60e51b815260206004820152600e60248201527f496e76616c6964206f7261636c650000000000000000000000000000000000006044820152606401610472565b600580546001600160a01b0319166001600160a01b0392909216919091179055565b610d86611761565b6001600160a01b038116610ddc5760405162461bcd60e51b815260206004820152600f60248201527f496e76616c6964206164647265737300000000000000000000000000000000006044820152606401610472565b600680546001600160a01b0319166001600160a01b0392909216919091179055565b610e06611761565b5f8261ffff16118015610e1f57506127108261ffff1611155b610e6b5760405162461bcd60e51b815260206004820152601060248201527f42616420636c6f736520666163746f72000000000000000000000000000000006044820152606401610472565b6113888161ffff161115610ec15760405162461bcd60e51b815260206004820152600e60248201527f426f6e757320746f6f20686967680000000000000000000000000000000000006044820152606401610472565b600680547fffffffffffffffff00000000ffffffffffffffffffffffffffffffffffffffff16600160a01b61ffff948516027fffffffffffffffff0000ffffffffffffffffffffffffffffffffffffffffffff1617600160b01b9290931691909102919091179055565b60048181548110610f3a575f80fd5b5f918252602090912001546001600160a01b0316905081565b610f5b611761565b610f645f611c68565b565b610f6e61178d565b5f610f783361168b565b9050670de0b6b3a7640000811015610fd25760405162461bcd60e51b815260206004820152600d60248201527f5269736b20746f6f2068696768000000000000000000000000000000000000006044820152606401610472565b5f5b6004548110156110ae575f60048281548110610ff257610ff26122ce565b5f9182526020808320909101543383526002825260408084206001600160a01b039092168085529190925290822054909250908190036110335750506110a6565b335f8181526002602090815260408083206001600160a01b03871680855292528220919091556110639183611c32565b6040518181526001600160a01b0383169033907f45892a46e6cef329bb642da6d69846d324db43d19008edc141ed82382eda1bee9060200160405180910390a350505b600101610fd4565b5050610f6460018055565b5f805f806110c685610523565b93506110d1856106c7565b600654604051631955c97760e01b81526001600160a01b038881166004830152929550911690631955c97790602401602060405180830381865afa15801561111b573d5f803e3d5ffd5b505050506040513d601f19601f8201168201806040525081019061113f91906122e2565b915061114a8561168b565b90509193509193565b61115b611761565b6001600160a01b0383165f9081526003602052604090205460ff16156111c35760405162461bcd60e51b815260206004820152600f60248201527f416c726561647920616c6c6f77656400000000000000000000000000000000006044820152606401610472565b5f8260ff161180156111da57508160ff168160ff16115b6112265760405162461bcd60e51b815260206004820152600e60248201527f496e76616c696420636f6e6669670000000000000000000000000000000000006044820152606401610472565b60408051606081018252600180825260ff94851660208084019182529486168385019081526001600160a01b039097165f818152600390965293852092518354915197518716620100000262ff000019989097166101000261ff00199115159190911661ffff199092169190911717959095169390931790925560048054938401815590527f8a35acfbc15ff81a39ae7d344fd709f28e8600b4aa8c65c6b64bfe7fe36bd19b90910180546001600160a01b0319169091179055565b6001600160a01b038083165f908152600260209081526040808320938516835292905290812054808203611319575f91505061144a565b6005546040516341976e0960e01b81526001600160a01b0385811660048301525f9216906341976e0990602401602060405180830381865afa158015611361573d5f803e3d5ffd5b505050506040513d601f19601f8201168201806040525081019061138591906122e2565b90505f81116113c25760405162461bcd60e51b815260206004820152600960248201526842616420707269636560b81b6044820152606401610472565b5f846001600160a01b031663313ce5676040518163ffffffff1660e01b8152600401602060405180830381865afa1580156113ff573d5f803e3d5ffd5b505050506040513d601f19601f8201168201806040525081019061142391906122f9565b905061143081600a612408565b61143a8385612416565b611444919061242d565b93505050505b92915050565b611458611761565b6001600160a01b03811661148157604051631e4fbdf760e01b81525f6004820152602401610472565b61148a81611c68565b50565b61149561178d565b6001600160a01b0382165f9081526003602052604090205460ff166114f05760405162461bcd60e51b8152602060048201526011602482015270151bdad95b881b9bdd08185b1b1bddd959607a1b6044820152606401610472565b5f81116115305760405162461bcd60e51b815260206004820152600e60248201526d125b9d985b1a5908185b5bdd5b9d60921b6044820152606401610472565b335f9081526002602090815260408083206001600160a01b03861684529091529020548111156115a25760405162461bcd60e51b815260206004820152601460248201527f496e73756666696369656e742062616c616e63650000000000000000000000006044820152606401610472565b335f9081526002602090815260408083206001600160a01b0386168452909152812080548392906115d490849061245f565b90915550670de0b6b3a764000090506115ec3361168b565b101561163a5760405162461bcd60e51b815260206004820152601f60248201527f43616e6e6f74207769746864726177202d207269736b20746f6f2068696768006044820152606401610472565b61164e6001600160a01b0383163383611c32565b6040518181526001600160a01b0383169033907f45892a46e6cef329bb642da6d69846d324db43d19008edc141ed82382eda1bee90602001610ce9565b600654604051631955c97760e01b81526001600160a01b0383811660048301525f928392911690631955c97790602401602060405180830381865afa1580156116d6573d5f803e3d5ffd5b505050506040513d601f19601f820116820180604052508101906116fa91906122e2565b9050805f0361170c57505f1992915050565b5f61171684610523565b90505f61172285611cb7565b905061172f836064612416565b61173c60ff831684612416565b61174e90670de0b6b3a7640000612416565b611758919061242d565b95945050505050565b5f546001600160a01b03163314610f645760405163118cdaa760e01b8152336004820152602401610472565b6002600154036117b057604051633ee5aeb560e01b815260040160405180910390fd5b6002600155565b6040516001600160a01b038481166024830152838116604483015260648201839052610bbb9186918216906323b872dd906084015b604051602081830303815290604052915060e01b6020820180517bffffffffffffffffffffffffffffffffffffffffffffffffffffffff8381831617835250505050611ebb565b6005546040516341976e0960e01b81526001600160a01b0386811660048301525f9283929116906341976e0990602401602060405180830381865afa15801561187e573d5f803e3d5ffd5b505050506040513d601f19601f820116820180604052508101906118a291906122e2565b6005546040516341976e0960e01b81526001600160a01b0387811660048301529293505f92909116906341976e0990602401602060405180830381865afa1580156118ef573d5f803e3d5ffd5b505050506040513d601f19601f8201168201806040525081019061191391906122e2565b90505f8211801561192357505f81115b61195b5760405162461bcd60e51b815260206004820152600960248201526842616420707269636560b81b6044820152606401610472565b5f876001600160a01b031663313ce5676040518163ffffffff1660e01b8152600401602060405180830381865afa158015611998573d5f803e3d5ffd5b505050506040513d601f19601f820116820180604052508101906119bc91906122f9565b90505f866001600160a01b031663313ce5676040518163ffffffff1660e01b8152600401602060405180830381865afa1580156119fb573d5f803e3d5ffd5b505050506040513d601f19601f82011682018060405250810190611a1f91906122f9565b90505f611a2d83600a612408565b611a37868b612416565b611a41919061242d565b905086811115611a935760405162461bcd60e51b815260206004820152601560248201527f436c6f736520666163746f7220657863656564656400000000000000000000006044820152606401610472565b600654604051636eb1769f60e11b81523060048201526001600160a01b0391821660248201528b915f919083169063dd62ed3e90604401602060405180830381865afa158015611ae5573d5f803e3d5ffd5b505050506040513d601f19601f82011682018060405250810190611b0991906122e2565b90508015611b2b57600654611b2b906001600160a01b03848116911683611f27565b600654611b45906001600160a01b0384811691168d611fe1565b60065460405163976ce49560e01b81526001600160a01b038f811660048301528e81166024830152604482018e90529091169063976ce495906064015f604051808303815f87803b158015611b98575f80fd5b505af1158015611baa573d5f803e3d5ffd5b5050600654611bc892506001600160a01b038581169250168d611f27565b6006545f9061271090611be690600160b01b900461ffff1682612472565b611bf49061ffff1686612416565b611bfe919061242d565b905086611c0c86600a612408565b611c169083612416565b611c20919061242d565b9e9d5050505050505050505050505050565b6040516001600160a01b03838116602483015260448201839052611c6391859182169063a9059cbb906064016117ec565b505050565b5f80546001600160a01b038381166001600160a01b0319831681178455604051919092169283917f8be0079c531659141344cd1fd0a4f28419497f9722a3daafe3b4186f6b6457e09190a35050565b5f8080805b600454811015611e9b575f60048281548110611cda57611cda6122ce565b5f9182526020808320909101546001600160a01b03898116845260028352604080852091909216808552925282205490925090819003611d1b575050611e93565b6005546040516341976e0960e01b81526001600160a01b0384811660048301525f9216906341976e0990602401602060405180830381865afa158015611d63573d5f803e3d5ffd5b505050506040513d601f19601f82011682018060405250810190611d8791906122e2565b90505f8111611dc45760405162461bcd60e51b815260206004820152600960248201526842616420707269636560b81b6044820152606401610472565b5f836001600160a01b031663313ce5676040518163ffffffff1660e01b8152600401602060405180830381865afa158015611e01573d5f803e3d5ffd5b505050506040513d601f19601f82011682018060405250810190611e2591906122f9565b90505f611e3382600a612408565b611e3d8486612416565b611e47919061242d565b9050611e53818961244c565b6001600160a01b0386165f90815260036020526040902054909850611e819062010000900460ff1682612416565b611e8b908861244c565b965050505050505b600101611cbc565b508115611eb157611eac828261242d565b611eb3565b5f5b949350505050565b5f8060205f8451602086015f885af180611eda576040513d5f823e3d81fd5b50505f513d91508115611ef1578060011415611efe565b6001600160a01b0384163b155b15610bbb57604051635274afe760e01b81526001600160a01b0385166004820152602401610472565b604051636eb1769f60e11b81523060048201526001600160a01b0383811660248301525f919085169063dd62ed3e90604401602060405180830381865afa158015611f74573d5f803e3d5ffd5b505050506040513d601f19601f82011682018060405250810190611f9891906122e2565b905081811015611fd45760405163e570110f60e01b81526001600160a01b03841660048201526024810182905260448101839052606401610472565b610bbb8484848403612063565b604051636eb1769f60e11b81523060048201526001600160a01b0383811660248301525f919085169063dd62ed3e90604401602060405180830381865afa15801561202e573d5f803e3d5ffd5b505050506040513d601f19601f8201168201806040525081019061205291906122e2565b9050610bbb8484612063858561244c565b604080516001600160a01b038416602482015260448082018490528251808303909101815260649091019091526020810180517bffffffffffffffffffffffffffffffffffffffffffffffffffffffff1663095ea7b360e01b1790526120c98482612107565b610bbb576040516001600160a01b0384811660248301525f60448301526120fd91869182169063095ea7b3906064016117ec565b610bbb8482611ebb565b5f805f8060205f8651602088015f8a5af192503d91505f519050828015611444575081156121385780600114611444565b50505050506001600160a01b03163b151590565b80356001600160a01b0381168114612162575f80fd5b919050565b60ff8116811461148a575f80fd5b5f805f60608486031215612187575f80fd5b6121908461214c565b925060208401356121a081612167565b915060408401356121b081612167565b809150509250925092565b5f80604083850312156121cc575f80fd5b6121d58361214c565b91506121e36020840161214c565b90509250929050565b5f602082840312156121fc575f80fd5b6122058261214c565b9392505050565b5f805f806080858703121561221f575f80fd5b6122288561214c565b93506122366020860161214c565b92506040850135915061224b6060860161214c565b905092959194509250565b5f8060408385031215612267575f80fd5b6122708361214c565b946020939093013593505050565b803561ffff81168114612162575f80fd5b5f80604083850312156122a0575f80fd5b6122a98361227e565b91506121e36020840161227e565b5f602082840312156122c7575f80fd5b5035919050565b634e487b7160e01b5f52603260045260245ffd5b5f602082840312156122f2575f80fd5b5051919050565b5f60208284031215612309575f80fd5b815161220581612167565b634e487b7160e01b5f52601160045260245ffd5b600181815b8085111561236257815f190482111561234857612348612314565b8085161561235557918102915b93841c939080029061232d565b509250929050565b5f826123785750600161144a565b8161238457505f61144a565b816001811461239a57600281146123a4576123c0565b600191505061144a565b60ff8411156123b5576123b5612314565b50506001821b61144a565b5060208310610133831016604e8410600b84101617156123e3575081810a61144a565b6123ed8383612328565b805f190482111561240057612400612314565b029392505050565b5f61220560ff84168361236a565b808202811582820484141761144a5761144a612314565b5f8261244757634e487b7160e01b5f52601260045260245ffd5b500490565b8082018082111561144a5761144a612314565b8181038181111561144a5761144a612314565b61ffff81811683821601908082111561248d5761248d612314565b509291505056fea164736f6c6343000818000a","opcodes":"PUSH1 0x80 PUSH1 0x40 MSTORE PUSH1 0x6 DUP1 SLOAD PUSH4 0xFFFFFFFF PUSH1 0xA0 SHL NOT AND PUSH3 0x3E8271 PUSH1 0xA3 SHL OR SWAP1 SSTORE CALLVALUE DUP1 ISZERO PUSH3 0x28 JUMPI PUSH0 DUP1 REVERT JUMPDEST POP PUSH1 0x40 MLOAD PUSH3 0x261E CODESIZE SUB DUP1 PUSH3 0x261E DUP4 CODECOPY DUP2 ADD PUSH1 0x40 DUP2 SWAP1 MSTORE PUSH3 0x4B SWAP2 PUSH3 0x128 JUMP JUMPDEST DUP1 PUSH1 0x1 PUSH1 0x1 PUSH1 0xA0 SHL SUB DUP2 AND PUSH3 0x7A JUMPI PUSH1 0x40 MLOAD PUSH4 0x1E4FBDF7 PUSH1 0xE0 SHL DUP2 MSTORE PUSH0 PUSH1 0x4 DUP3 ADD MSTORE PUSH1 0x24 ADD PUSH1 0x40 MLOAD DUP1 SWAP2 SUB SWAP1 REVERT JUMPDEST PUSH3 0x85 DUP2 PUSH3 0xBD JUMP JUMPDEST POP POP PUSH1 0x1 DUP1 SSTORE PUSH1 0x5 DUP1 SLOAD PUSH1 0x1 PUSH1 0x1 PUSH1 0xA0 SHL SUB SWAP4 DUP5 AND PUSH1 0x1 PUSH1 0x1 PUSH1 0xA0 SHL SUB NOT SWAP2 DUP3 AND OR SWAP1 SWAP2 SSTORE PUSH1 0x6 DUP1 SLOAD SWAP3 SWAP1 SWAP4 AND SWAP2 AND OR SWAP1 SSTORE PUSH3 0x16F JUMP JUMPDEST PUSH0 DUP1 SLOAD PUSH1 0x1 PUSH1 0x1 PUSH1 0xA0 SHL SUB DUP4 DUP2 AND PUSH1 0x1 PUSH1 0x1 PUSH1 0xA0 SHL SUB NOT DUP4 AND DUP2 OR DUP5 SSTORE PUSH1 0x40 MLOAD SWAP2 SWAP1 SWAP3 AND SWAP3 DUP4 SWAP2 PUSH32 0x8BE0079C531659141344CD1FD0A4F28419497F9722A3DAAFE3B4186F6B6457E0 SWAP2 SWAP1 LOG3 POP POP JUMP JUMPDEST DUP1 MLOAD PUSH1 0x1 PUSH1 0x1 PUSH1 0xA0 SHL SUB DUP2 AND DUP2 EQ PUSH3 0x123 JUMPI PUSH0 DUP1 REVERT JUMPDEST SWAP2 SWAP1 POP JUMP JUMPDEST PUSH0 DUP1 PUSH0 PUSH1 0x60 DUP5 DUP7 SUB SLT ISZERO PUSH3 0x13B JUMPI PUSH0 DUP1 REVERT JUMPDEST PUSH3 0x146 DUP5 PUSH3 0x10C JUMP JUMPDEST SWAP3 POP PUSH3 0x156 PUSH1 0x20 DUP6 ADD PUSH3 0x10C JUMP JUMPDEST SWAP2 POP PUSH3 0x166 PUSH1 0x40 DUP6 ADD PUSH3 0x10C JUMP JUMPDEST SWAP1 POP SWAP3 POP SWAP3 POP SWAP3 JUMP JUMPDEST PUSH2 0x24A1 DUP1 PUSH3 0x17D PUSH0 CODECOPY PUSH0 RETURN INVALID PUSH1 0x80 PUSH1 0x40 MSTORE CALLVALUE DUP1 ISZERO PUSH2 0xF JUMPI PUSH0 DUP1 REVERT JUMPDEST POP PUSH1 0x4 CALLDATASIZE LT PUSH2 0x19A JUMPI PUSH0 CALLDATALOAD PUSH1 0xE0 SHR DUP1 PUSH4 0x5A4B5A7C GT PUSH2 0xE8 JUMPI DUP1 PUSH4 0xB341C2BE GT PUSH2 0x93 JUMPI DUP1 PUSH4 0xF2FDE38B GT PUSH2 0x6E JUMPI DUP1 PUSH4 0xF2FDE38B EQ PUSH2 0x384 JUMPI DUP1 PUSH4 0xF3FEF3A3 EQ PUSH2 0x397 JUMPI DUP1 PUSH4 0xFE136C4E EQ PUSH2 0x3AA JUMPI DUP1 PUSH4 0xFE6BCD7C EQ PUSH2 0x400 JUMPI PUSH0 DUP1 REVERT JUMPDEST DUP1 PUSH4 0xB341C2BE EQ PUSH2 0x34B JUMPI DUP1 PUSH4 0xB3CCBCFE EQ PUSH2 0x35E JUMPI DUP1 PUSH4 0xDC627C6F EQ PUSH2 0x371 JUMPI PUSH0 DUP1 REVERT JUMPDEST DUP1 PUSH4 0x73749567 GT PUSH2 0xC3 JUMPI DUP1 PUSH4 0x73749567 EQ PUSH2 0x300 JUMPI DUP1 PUSH4 0x8DA5CB5B EQ PUSH2 0x308 JUMPI DUP1 PUSH4 0xB01EDBD7 EQ PUSH2 0x318 JUMPI PUSH0 DUP1 REVERT JUMPDEST DUP1 PUSH4 0x5A4B5A7C EQ PUSH2 0x2D2 JUMPI DUP1 PUSH4 0x5E5F2E26 EQ PUSH2 0x2E5 JUMPI DUP1 PUSH4 0x715018A6 EQ PUSH2 0x2F8 JUMPI PUSH0 DUP1 REVERT JUMPDEST DUP1 PUSH4 0x3DE2F6B2 GT PUSH2 0x148 JUMPI DUP1 PUSH4 0x47E7EF24 GT PUSH2 0x123 JUMPI DUP1 PUSH4 0x47E7EF24 EQ PUSH2 0x299 JUMPI DUP1 PUSH4 0x530E784F EQ PUSH2 0x2AC JUMPI DUP1 PUSH4 0x5772AE70 EQ PUSH2 0x2BF JUMPI PUSH0 DUP1 REVERT JUMPDEST DUP1 PUSH4 0x3DE2F6B2 EQ PUSH2 0x269 JUMPI DUP1 PUSH4 0x4565E5EF EQ PUSH2 0x27C JUMPI DUP1 PUSH4 0x4654440B EQ PUSH2 0x284 JUMPI PUSH0 DUP1 REVERT JUMPDEST DUP1 PUSH4 0x39ECF9BA GT PUSH2 0x178 JUMPI DUP1 PUSH4 0x39ECF9BA EQ PUSH2 0x20B JUMPI DUP1 PUSH4 0x3A5D0A48 EQ PUSH2 0x243 JUMPI DUP1 PUSH4 0x3B4CC656 EQ PUSH2 0x256 JUMPI PUSH0 DUP1 REVERT JUMPDEST DUP1 PUSH4 0x19970D8E EQ PUSH2 0x19E JUMPI DUP1 PUSH4 0x1A9F21FB EQ PUSH2 0x1CB JUMPI DUP1 PUSH4 0x2630C12F EQ PUSH2 0x1E0 JUMPI JUMPDEST PUSH0 DUP1 REVERT JUMPDEST PUSH1 0x6 SLOAD PUSH2 0x1B3 SWAP1 PUSH1 0x1 PUSH1 0xB0 SHL SWAP1 DIV PUSH2 0xFFFF AND DUP2 JUMP JUMPDEST PUSH1 0x40 MLOAD PUSH2 0xFFFF SWAP1 SWAP2 AND DUP2 MSTORE PUSH1 0x20 ADD JUMPDEST PUSH1 0x40 MLOAD DUP1 SWAP2 SUB SWAP1 RETURN JUMPDEST PUSH2 0x1DE PUSH2 0x1D9 CALLDATASIZE PUSH1 0x4 PUSH2 0x2175 JUMP JUMPDEST PUSH2 0x413 JUMP JUMPDEST STOP JUMPDEST PUSH1 0x5 SLOAD PUSH2 0x1F3 SWAP1 PUSH1 0x1 PUSH1 0x1 PUSH1 0xA0 SHL SUB AND DUP2 JUMP JUMPDEST PUSH1 0x40 MLOAD PUSH1 0x1 PUSH1 0x1 PUSH1 0xA0 SHL SUB SWAP1 SWAP2 AND DUP2 MSTORE PUSH1 0x20 ADD PUSH2 0x1C2 JUMP JUMPDEST PUSH2 0x235 PUSH2 0x219 CALLDATASIZE PUSH1 0x4 PUSH2 0x21BB JUMP JUMPDEST PUSH1 0x2 PUSH1 0x20 SWAP1 DUP2 MSTORE PUSH0 SWAP3 DUP4 MSTORE PUSH1 0x40 DUP1 DUP5 KECCAK256 SWAP1 SWAP2 MSTORE SWAP1 DUP3 MSTORE SWAP1 KECCAK256 SLOAD DUP2 JUMP JUMPDEST PUSH1 0x40 MLOAD SWAP1 DUP2 MSTORE PUSH1 0x20 ADD PUSH2 0x1C2 JUMP JUMPDEST PUSH2 0x235 PUSH2 0x251 CALLDATASIZE PUSH1 0x4 PUSH2 0x21EC JUMP JUMPDEST PUSH2 0x523 JUMP JUMPDEST PUSH2 0x235 PUSH2 0x264 CALLDATASIZE PUSH1 0x4 PUSH2 0x21EC JUMP JUMPDEST PUSH2 0x6C7 JUMP JUMPDEST PUSH2 0x1DE PUSH2 0x277 CALLDATASIZE PUSH1 0x4 PUSH2 0x220C JUMP JUMPDEST PUSH2 0x8AD JUMP JUMPDEST PUSH1 0x4 SLOAD PUSH2 0x235 JUMP JUMPDEST PUSH1 0x6 SLOAD PUSH2 0x1B3 SWAP1 PUSH1 0x1 PUSH1 0xA0 SHL SWAP1 DIV PUSH2 0xFFFF AND DUP2 JUMP JUMPDEST PUSH2 0x1DE PUSH2 0x2A7 CALLDATASIZE PUSH1 0x4 PUSH2 0x2256 JUMP JUMPDEST PUSH2 0xBC1 JUMP JUMPDEST PUSH2 0x1DE PUSH2 0x2BA CALLDATASIZE PUSH1 0x4 PUSH2 0x21EC JUMP JUMPDEST PUSH2 0xCFE JUMP JUMPDEST PUSH2 0x1DE PUSH2 0x2CD CALLDATASIZE PUSH1 0x4 PUSH2 0x21EC JUMP JUMPDEST PUSH2 0xD7E JUMP JUMPDEST PUSH2 0x1DE PUSH2 0x2E0 CALLDATASIZE PUSH1 0x4 PUSH2 0x228F JUMP JUMPDEST PUSH2 0xDFE JUMP JUMPDEST PUSH2 0x1F3 PUSH2 0x2F3 CALLDATASIZE PUSH1 0x4 PUSH2 0x22B7 JUMP JUMPDEST PUSH2 0xF2B JUMP JUMPDEST PUSH2 0x1DE PUSH2 0xF53 JUMP JUMPDEST PUSH2 0x1DE PUSH2 0xF66 JUMP JUMPDEST PUSH0 SLOAD PUSH1 0x1 PUSH1 0x1 PUSH1 0xA0 SHL SUB AND PUSH2 0x1F3 JUMP JUMPDEST PUSH2 0x32B PUSH2 0x326 CALLDATASIZE PUSH1 0x4 PUSH2 0x21EC JUMP JUMPDEST PUSH2 0x10B9 JUMP JUMPDEST PUSH1 0x40 DUP1 MLOAD SWAP5 DUP6 MSTORE PUSH1 0x20 DUP6 ADD SWAP4 SWAP1 SWAP4 MSTORE SWAP2 DUP4 ADD MSTORE PUSH1 0x60 DUP3 ADD MSTORE PUSH1 0x80 ADD PUSH2 0x1C2 JUMP JUMPDEST PUSH2 0x1DE PUSH2 0x359 CALLDATASIZE PUSH1 0x4 PUSH2 0x2175 JUMP JUMPDEST PUSH2 0x1153 JUMP JUMPDEST PUSH1 0x6 SLOAD PUSH2 0x1F3 SWAP1 PUSH1 0x1 PUSH1 0x1 PUSH1 0xA0 SHL SUB AND DUP2 JUMP JUMPDEST PUSH2 0x235 PUSH2 0x37F CALLDATASIZE PUSH1 0x4 PUSH2 0x21BB JUMP JUMPDEST PUSH2 0x12E2 JUMP JUMPDEST PUSH2 0x1DE PUSH2 0x392 CALLDATASIZE PUSH1 0x4 PUSH2 0x21EC JUMP JUMPDEST PUSH2 0x1450 JUMP JUMPDEST PUSH2 0x1DE PUSH2 0x3A5 CALLDATASIZE PUSH1 0x4 PUSH2 0x2256 JUMP JUMPDEST PUSH2 0x148D JUMP JUMPDEST PUSH2 0x3DF PUSH2 0x3B8 CALLDATASIZE PUSH1 0x4 PUSH2 0x21EC JUMP JUMPDEST PUSH1 0x3 PUSH1 0x20 MSTORE PUSH0 SWAP1 DUP2 MSTORE PUSH1 0x40 SWAP1 KECCAK256 SLOAD PUSH1 0xFF DUP1 DUP3 AND SWAP2 PUSH2 0x100 DUP2 DIV DUP3 AND SWAP2 PUSH3 0x10000 SWAP1 SWAP2 DIV AND DUP4 JUMP JUMPDEST PUSH1 0x40 DUP1 MLOAD SWAP4 ISZERO ISZERO DUP5 MSTORE PUSH1 0xFF SWAP3 DUP4 AND PUSH1 0x20 DUP6 ADD MSTORE SWAP2 AND SWAP1 DUP3 ADD MSTORE PUSH1 0x60 ADD PUSH2 0x1C2 JUMP JUMPDEST PUSH2 0x235 PUSH2 0x40E CALLDATASIZE PUSH1 0x4 PUSH2 0x21EC JUMP JUMPDEST PUSH2 0x168B JUMP JUMPDEST PUSH2 0x41B PUSH2 0x1761 JUMP JUMPDEST PUSH1 0x1 PUSH1 0x1 PUSH1 0xA0 SHL SUB DUP4 AND PUSH0 SWAP1 DUP2 MSTORE PUSH1 0x3 PUSH1 0x20 MSTORE PUSH1 0x40 SWAP1 KECCAK256 SLOAD PUSH1 0xFF AND PUSH2 0x47B JUMPI PUSH1 0x40 MLOAD PUSH3 0x461BCD PUSH1 0xE5 SHL DUP2 MSTORE PUSH1 0x20 PUSH1 0x4 DUP3 ADD MSTORE PUSH1 0x11 PUSH1 0x24 DUP3 ADD MSTORE PUSH17 0x151BDAD95B881B9BDD08185B1B1BDDD959 PUSH1 0x7A SHL PUSH1 0x44 DUP3 ADD MSTORE PUSH1 0x64 ADD JUMPDEST PUSH1 0x40 MLOAD DUP1 SWAP2 SUB SWAP1 REVERT JUMPDEST PUSH0 DUP3 PUSH1 0xFF AND GT DUP1 ISZERO PUSH2 0x492 JUMPI POP DUP2 PUSH1 0xFF AND DUP2 PUSH1 0xFF AND GT JUMPDEST PUSH2 0x4DE JUMPI PUSH1 0x40 MLOAD PUSH3 0x461BCD PUSH1 0xE5 SHL DUP2 MSTORE PUSH1 0x20 PUSH1 0x4 DUP3 ADD MSTORE PUSH1 0xB PUSH1 0x24 DUP3 ADD MSTORE PUSH32 0x496E76616C6964204C5456000000000000000000000000000000000000000000 PUSH1 0x44 DUP3 ADD MSTORE PUSH1 0x64 ADD PUSH2 0x472 JUMP JUMPDEST PUSH1 0x1 PUSH1 0x1 PUSH1 0xA0 SHL SUB SWAP3 SWAP1 SWAP3 AND PUSH0 SWAP1 DUP2 MSTORE PUSH1 0x3 PUSH1 0x20 MSTORE PUSH1 0x40 SWAP1 KECCAK256 DUP1 SLOAD PUSH3 0xFFFF00 NOT AND PUSH2 0x100 PUSH1 0xFF SWAP4 DUP5 AND MUL PUSH3 0xFF0000 NOT AND OR PUSH3 0x10000 SWAP3 SWAP1 SWAP4 AND SWAP2 SWAP1 SWAP2 MUL SWAP2 SWAP1 SWAP2 OR SWAP1 SSTORE JUMP JUMPDEST PUSH0 DUP1 JUMPDEST PUSH1 0x4 SLOAD DUP2 LT ISZERO PUSH2 0x6C1 JUMPI PUSH0 PUSH1 0x4 DUP3 DUP2 SLOAD DUP2 LT PUSH2 0x544 JUMPI PUSH2 0x544 PUSH2 0x22CE JUMP JUMPDEST PUSH0 SWAP2 DUP3 MSTORE PUSH1 0x20 DUP1 DUP4 KECCAK256 SWAP1 SWAP2 ADD SLOAD PUSH1 0x1 PUSH1 0x1 PUSH1 0xA0 SHL SUB DUP8 DUP2 AND DUP5 MSTORE PUSH1 0x2 DUP4 MSTORE PUSH1 0x40 DUP1 DUP6 KECCAK256 SWAP2 SWAP1 SWAP3 AND DUP1 DUP6 MSTORE SWAP3 MSTORE SWAP1 SWAP2 KECCAK256 SLOAD SWAP1 SWAP2 POP DUP1 ISZERO PUSH2 0x6B7 JUMPI PUSH1 0x5 SLOAD PUSH1 0x40 MLOAD PUSH4 0x41976E09 PUSH1 0xE0 SHL DUP2 MSTORE PUSH1 0x1 PUSH1 0x1 PUSH1 0xA0 SHL SUB DUP5 DUP2 AND PUSH1 0x4 DUP4 ADD MSTORE PUSH0 SWAP3 AND SWAP1 PUSH4 0x41976E09 SWAP1 PUSH1 0x24 ADD PUSH1 0x20 PUSH1 0x40 MLOAD DUP1 DUP4 SUB DUP2 DUP7 GAS STATICCALL ISZERO DUP1 ISZERO PUSH2 0x5C5 JUMPI RETURNDATASIZE PUSH0 DUP1 RETURNDATACOPY RETURNDATASIZE PUSH0 REVERT JUMPDEST POP POP POP POP PUSH1 0x40 MLOAD RETURNDATASIZE PUSH1 0x1F NOT PUSH1 0x1F DUP3 ADD AND DUP3 ADD DUP1 PUSH1 0x40 MSTORE POP DUP2 ADD SWAP1 PUSH2 0x5E9 SWAP2 SWAP1 PUSH2 0x22E2 JUMP JUMPDEST SWAP1 POP PUSH0 DUP2 GT PUSH2 0x626 JUMPI PUSH1 0x40 MLOAD PUSH3 0x461BCD PUSH1 0xE5 SHL DUP2 MSTORE PUSH1 0x20 PUSH1 0x4 DUP3 ADD MSTORE PUSH1 0x9 PUSH1 0x24 DUP3 ADD MSTORE PUSH9 0x426164207072696365 PUSH1 0xB8 SHL PUSH1 0x44 DUP3 ADD MSTORE PUSH1 0x64 ADD PUSH2 0x472 JUMP JUMPDEST PUSH0 DUP4 PUSH1 0x1 PUSH1 0x1 PUSH1 0xA0 SHL SUB AND PUSH4 0x313CE567 PUSH1 0x40 MLOAD DUP2 PUSH4 0xFFFFFFFF AND PUSH1 0xE0 SHL DUP2 MSTORE PUSH1 0x4 ADD PUSH1 0x20 PUSH1 0x40 MLOAD DUP1 DUP4 SUB DUP2 DUP7 GAS STATICCALL ISZERO DUP1 ISZERO PUSH2 0x663 JUMPI RETURNDATASIZE PUSH0 DUP1 RETURNDATACOPY RETURNDATASIZE PUSH0 REVERT JUMPDEST POP POP POP POP PUSH1 0x40 MLOAD RETURNDATASIZE PUSH1 0x1F NOT PUSH1 0x1F DUP3 ADD AND DUP3 ADD DUP1 PUSH1 0x40 MSTORE POP DUP2 ADD SWAP1 PUSH2 0x687 SWAP2 SWAP1 PUSH2 0x22F9 JUMP JUMPDEST SWAP1 POP PUSH2 0x694 DUP2 PUSH1 0xA PUSH2 0x2408 JUMP JUMPDEST PUSH2 0x69E DUP4 DUP6 PUSH2 0x2416 JUMP JUMPDEST PUSH2 0x6A8 SWAP2 SWAP1 PUSH2 0x242D JUMP JUMPDEST PUSH2 0x6B2 SWAP1 DUP8 PUSH2 0x244C JUMP JUMPDEST SWAP6 POP POP POP JUMPDEST POP POP PUSH1 0x1 ADD PUSH2 0x526 JUMP JUMPDEST POP SWAP2 SWAP1 POP JUMP JUMPDEST PUSH0 DUP1 JUMPDEST PUSH1 0x4 SLOAD DUP2 LT ISZERO PUSH2 0x6C1 JUMPI PUSH0 PUSH1 0x4 DUP3 DUP2 SLOAD DUP2 LT PUSH2 0x6E8 JUMPI PUSH2 0x6E8 PUSH2 0x22CE JUMP JUMPDEST PUSH0 SWAP2 DUP3 MSTORE PUSH1 0x20 DUP1 DUP4 KECCAK256 SWAP1 SWAP2 ADD SLOAD PUSH1 0x1 PUSH1 0x1 PUSH1 0xA0 SHL SUB DUP8 DUP2 AND DUP5 MSTORE PUSH1 0x2 DUP4 MSTORE PUSH1 0x40 DUP1 DUP6 KECCAK256 SWAP2 SWAP1 SWAP3 AND DUP1 DUP6 MSTORE SWAP3 MSTORE DUP3 KECCAK256 SLOAD SWAP1 SWAP3 POP SWAP1 DUP2 SWAP1 SUB PUSH2 0x729 JUMPI POP POP PUSH2 0x8A5 JUMP JUMPDEST PUSH1 0x5 SLOAD PUSH1 0x40 MLOAD PUSH4 0x41976E09 PUSH1 0xE0 SHL DUP2 MSTORE PUSH1 0x1 PUSH1 0x1 PUSH1 0xA0 SHL SUB DUP5 DUP2 AND PUSH1 0x4 DUP4 ADD MSTORE PUSH0 SWAP3 AND SWAP1 PUSH4 0x41976E09 SWAP1 PUSH1 0x24 ADD PUSH1 0x20 PUSH1 0x40 MLOAD DUP1 DUP4 SUB DUP2 DUP7 GAS STATICCALL ISZERO DUP1 ISZERO PUSH2 0x771 JUMPI RETURNDATASIZE PUSH0 DUP1 RETURNDATACOPY RETURNDATASIZE PUSH0 REVERT JUMPDEST POP POP POP POP PUSH1 0x40 MLOAD RETURNDATASIZE PUSH1 0x1F NOT PUSH1 0x1F DUP3 ADD AND DUP3 ADD DUP1 PUSH1 0x40 MSTORE POP DUP2 ADD SWAP1 PUSH2 0x795 SWAP2 SWAP1 PUSH2 0x22E2 JUMP JUMPDEST SWAP1 POP PUSH0 DUP2 GT PUSH2 0x7D2 JUMPI PUSH1 0x40 MLOAD PUSH3 0x461BCD PUSH1 0xE5 SHL DUP2 MSTORE PUSH1 0x20 PUSH1 0x4 DUP3 ADD MSTORE PUSH1 0x9 PUSH1 0x24 DUP3 ADD MSTORE PUSH9 0x426164207072696365 PUSH1 0xB8 SHL PUSH1 0x44 DUP3 ADD MSTORE PUSH1 0x64 ADD PUSH2 0x472 JUMP JUMPDEST PUSH0 DUP4 PUSH1 0x1 PUSH1 0x1 PUSH1 0xA0 SHL SUB AND PUSH4 0x313CE567 PUSH1 0x40 MLOAD DUP2 PUSH4 0xFFFFFFFF AND PUSH1 0xE0 SHL DUP2 MSTORE PUSH1 0x4 ADD PUSH1 0x20 PUSH1 0x40 MLOAD DUP1 DUP4 SUB DUP2 DUP7 GAS STATICCALL ISZERO DUP1 ISZERO PUSH2 0x80F JUMPI RETURNDATASIZE PUSH0 DUP1 RETURNDATACOPY RETURNDATASIZE PUSH0 REVERT JUMPDEST POP POP POP POP PUSH1 0x40 MLOAD RETURNDATASIZE PUSH1 0x1F NOT PUSH1 0x1F DUP3 ADD AND DUP3 ADD DUP1 PUSH1 0x40 MSTORE POP DUP2 ADD SWAP1 PUSH2 0x833 SWAP2 SWAP1 PUSH2 0x22F9 JUMP JUMPDEST PUSH1 0x1 PUSH1 0x1 PUSH1 0xA0 SHL SUB DUP6 AND PUSH0 SWAP1 DUP2 MSTORE PUSH1 0x3 PUSH1 0x20 MSTORE PUSH1 0x40 DUP2 KECCAK256 SLOAD SWAP2 SWAP3 POP PUSH2 0x100 SWAP1 SWAP2 DIV PUSH1 0xFF AND SWAP1 PUSH2 0x863 DUP4 PUSH1 0xA PUSH2 0x2408 JUMP JUMPDEST PUSH2 0x86D DUP6 DUP8 PUSH2 0x2416 JUMP JUMPDEST PUSH2 0x877 SWAP2 SWAP1 PUSH2 0x242D JUMP JUMPDEST SWAP1 POP PUSH1 0x64 PUSH2 0x888 PUSH1 0xFF DUP5 AND DUP4 PUSH2 0x2416 JUMP JUMPDEST PUSH2 0x892 SWAP2 SWAP1 PUSH2 0x242D JUMP JUMPDEST PUSH2 0x89C SWAP1 DUP10 PUSH2 0x244C JUMP JUMPDEST SWAP8 POP POP POP POP POP POP POP JUMPDEST PUSH1 0x1 ADD PUSH2 0x6CA JUMP JUMPDEST PUSH2 0x8B5 PUSH2 0x178D JUMP JUMPDEST PUSH1 0x1 PUSH1 0x1 PUSH1 0xA0 SHL SUB DUP2 AND PUSH0 SWAP1 DUP2 MSTORE PUSH1 0x3 PUSH1 0x20 MSTORE PUSH1 0x40 SWAP1 KECCAK256 SLOAD PUSH1 0xFF AND PUSH2 0x91C JUMPI PUSH1 0x40 MLOAD PUSH3 0x461BCD PUSH1 0xE5 SHL DUP2 MSTORE PUSH1 0x20 PUSH1 0x4 DUP3 ADD MSTORE PUSH1 0x16 PUSH1 0x24 DUP3 ADD MSTORE PUSH32 0x436F6C6C61746572616C206E6F7420616C6C6F77656400000000000000000000 PUSH1 0x44 DUP3 ADD MSTORE PUSH1 0x64 ADD PUSH2 0x472 JUMP JUMPDEST PUSH0 DUP3 GT PUSH2 0x96B JUMPI PUSH1 0x40 MLOAD PUSH3 0x461BCD PUSH1 0xE5 SHL DUP2 MSTORE PUSH1 0x20 PUSH1 0x4 DUP3 ADD MSTORE PUSH1 0x8 PUSH1 0x24 DUP3 ADD MSTORE PUSH32 0x416D6F756E743D30000000000000000000000000000000000000000000000000 PUSH1 0x44 DUP3 ADD MSTORE PUSH1 0x64 ADD PUSH2 0x472 JUMP JUMPDEST PUSH0 PUSH2 0x975 DUP6 PUSH2 0x168B JUMP JUMPDEST SWAP1 POP PUSH8 0xDE0B6B3A7640000 DUP2 LT PUSH2 0x9CE JUMPI PUSH1 0x40 MLOAD PUSH3 0x461BCD PUSH1 0xE5 SHL DUP2 MSTORE PUSH1 0x20 PUSH1 0x4 DUP3 ADD MSTORE PUSH1 0xF PUSH1 0x24 DUP3 ADD MSTORE PUSH32 0x4865616C746879206163636F756E740000000000000000000000000000000000 PUSH1 0x44 DUP3 ADD MSTORE PUSH1 0x64 ADD PUSH2 0x472 JUMP JUMPDEST PUSH1 0x6 SLOAD PUSH1 0x40 MLOAD PUSH4 0x1955C977 PUSH1 0xE0 SHL DUP2 MSTORE PUSH1 0x1 PUSH1 0x1 PUSH1 0xA0 SHL SUB DUP8 DUP2 AND PUSH1 0x4 DUP4 ADD MSTORE PUSH0 SWAP3 AND SWAP1 PUSH4 0x1955C977 SWAP1 PUSH1 0x24 ADD PUSH1 0x20 PUSH1 0x40 MLOAD DUP1 DUP4 SUB DUP2 DUP7 GAS STATICCALL ISZERO DUP1 ISZERO PUSH2 0xA16 JUMPI RETURNDATASIZE PUSH0 DUP1 RETURNDATACOPY RETURNDATASIZE PUSH0 REVERT JUMPDEST POP POP POP POP PUSH1 0x40 MLOAD RETURNDATASIZE PUSH1 0x1F NOT PUSH1 0x1F DUP3 ADD AND DUP3 ADD DUP1 PUSH1 0x40 MSTORE POP DUP2 ADD SWAP1 PUSH2 0xA3A SWAP2 SWAP1 PUSH2 0x22E2 JUMP JUMPDEST SWAP1 POP PUSH0 DUP2 GT PUSH2 0xA8B JUMPI PUSH1 0x40 MLOAD PUSH3 0x461BCD PUSH1 0xE5 SHL DUP2 MSTORE PUSH1 0x20 PUSH1 0x4 DUP3 ADD MSTORE PUSH1 0x7 PUSH1 0x24 DUP3 ADD MSTORE PUSH32 0x4E6F206465627400000000000000000000000000000000000000000000000000 PUSH1 0x44 DUP3 ADD MSTORE PUSH1 0x64 ADD PUSH2 0x472 JUMP JUMPDEST PUSH2 0xAA0 PUSH1 0x1 PUSH1 0x1 PUSH1 0xA0 SHL SUB DUP7 AND CALLER ADDRESS DUP8 PUSH2 0x17B7 JUMP JUMPDEST PUSH1 0x6 SLOAD PUSH0 SWAP1 PUSH2 0x2710 SWAP1 PUSH2 0xABE SWAP1 PUSH1 0x1 PUSH1 0xA0 SHL SWAP1 DIV PUSH2 0xFFFF AND DUP5 PUSH2 0x2416 JUMP JUMPDEST PUSH2 0xAC8 SWAP2 SWAP1 PUSH2 0x242D JUMP JUMPDEST SWAP1 POP PUSH0 PUSH2 0xAD8 DUP9 DUP9 DUP9 DUP9 DUP7 PUSH2 0x1833 JUMP JUMPDEST PUSH1 0x1 PUSH1 0x1 PUSH1 0xA0 SHL SUB DUP1 DUP11 AND PUSH0 SWAP1 DUP2 MSTORE PUSH1 0x2 PUSH1 0x20 SWAP1 DUP2 MSTORE PUSH1 0x40 DUP1 DUP4 KECCAK256 SWAP4 DUP11 AND DUP4 MSTORE SWAP3 SWAP1 MSTORE KECCAK256 SLOAD SWAP1 SWAP2 POP DUP1 DUP3 GT ISZERO PUSH2 0xB0C JUMPI DUP1 SWAP2 POP JUMPDEST PUSH1 0x1 PUSH1 0x1 PUSH1 0xA0 SHL SUB DUP1 DUP11 AND PUSH0 SWAP1 DUP2 MSTORE PUSH1 0x2 PUSH1 0x20 SWAP1 DUP2 MSTORE PUSH1 0x40 DUP1 DUP4 KECCAK256 SWAP4 DUP11 AND DUP4 MSTORE SWAP3 SWAP1 MSTORE SWAP1 DUP2 KECCAK256 DUP1 SLOAD DUP5 SWAP3 SWAP1 PUSH2 0xB42 SWAP1 DUP5 SWAP1 PUSH2 0x245F JUMP JUMPDEST SWAP1 SWAP2 SSTORE POP PUSH2 0xB5C SWAP1 POP PUSH1 0x1 PUSH1 0x1 PUSH1 0xA0 SHL SUB DUP8 AND CALLER DUP5 PUSH2 0x1C32 JUMP JUMPDEST PUSH1 0x40 DUP1 MLOAD CALLER DUP2 MSTORE PUSH1 0x20 DUP2 ADD DUP10 SWAP1 MSTORE SWAP1 DUP2 ADD DUP4 SWAP1 MSTORE PUSH1 0x1 PUSH1 0x1 PUSH1 0xA0 SHL SUB DUP1 DUP9 AND SWAP2 SWAP1 DUP12 AND SWAP1 PUSH32 0x9459A8332762F885ECD10E55595000D48AD3D31187A66259D38102DEADC2D629 SWAP1 PUSH1 0x60 ADD PUSH1 0x40 MLOAD DUP1 SWAP2 SUB SWAP1 LOG3 POP POP POP POP POP PUSH2 0xBBB PUSH1 0x1 DUP1 SSTORE JUMP JUMPDEST POP POP POP POP JUMP JUMPDEST PUSH2 0xBC9 PUSH2 0x178D JUMP JUMPDEST PUSH1 0x1 PUSH1 0x1 PUSH1 0xA0 SHL SUB DUP3 AND PUSH0 SWAP1 DUP2 MSTORE PUSH1 0x3 PUSH1 0x20 MSTORE PUSH1 0x40 SWAP1 KECCAK256 SLOAD PUSH1 0xFF AND PUSH2 0xC24 JUMPI PUSH1 0x40 MLOAD PUSH3 0x461BCD PUSH1 0xE5 SHL DUP2 MSTORE PUSH1 0x20 PUSH1 0x4 DUP3 ADD MSTORE PUSH1 0x11 PUSH1 0x24 DUP3 ADD MSTORE PUSH17 0x151BDAD95B881B9BDD08185B1B1BDDD959 PUSH1 0x7A SHL PUSH1 0x44 DUP3 ADD MSTORE PUSH1 0x64 ADD PUSH2 0x472 JUMP JUMPDEST PUSH0 DUP2 GT PUSH2 0xC64 JUMPI PUSH1 0x40 MLOAD PUSH3 0x461BCD PUSH1 0xE5 SHL DUP2 MSTORE PUSH1 0x20 PUSH1 0x4 DUP3 ADD MSTORE PUSH1 0xE PUSH1 0x24 DUP3 ADD MSTORE PUSH14 0x125B9D985B1A5908185B5BDD5B9D PUSH1 0x92 SHL PUSH1 0x44 DUP3 ADD MSTORE PUSH1 0x64 ADD PUSH2 0x472 JUMP JUMPDEST PUSH2 0xC79 PUSH1 0x1 PUSH1 0x1 PUSH1 0xA0 SHL SUB DUP4 AND CALLER ADDRESS DUP5 PUSH2 0x17B7 JUMP JUMPDEST CALLER PUSH0 SWAP1 DUP2 MSTORE PUSH1 0x2 PUSH1 0x20 SWAP1 DUP2 MSTORE PUSH1 0x40 DUP1 DUP4 KECCAK256 PUSH1 0x1 PUSH1 0x1 PUSH1 0xA0 SHL SUB DUP7 AND DUP5 MSTORE SWAP1 SWAP2 MSTORE DUP2 KECCAK256 DUP1 SLOAD DUP4 SWAP3 SWAP1 PUSH2 0xCAB SWAP1 DUP5 SWAP1 PUSH2 0x244C JUMP JUMPDEST SWAP1 SWAP2 SSTORE POP POP PUSH1 0x40 MLOAD DUP2 DUP2 MSTORE PUSH1 0x1 PUSH1 0x1 PUSH1 0xA0 SHL SUB DUP4 AND SWAP1 CALLER SWAP1 PUSH32 0xF1C0DD7E9B98BBFF859029005EF89B127AF049CD18DF1A8D79F0B7E019911E56 SWAP1 PUSH1 0x20 ADD JUMPDEST PUSH1 0x40 MLOAD DUP1 SWAP2 SUB SWAP1 LOG3 PUSH2 0xCFA PUSH1 0x1 DUP1 SSTORE JUMP JUMPDEST POP POP JUMP JUMPDEST PUSH2 0xD06 PUSH2 0x1761 JUMP JUMPDEST PUSH1 0x1 PUSH1 0x1 PUSH1 0xA0 SHL SUB DUP2 AND PUSH2 0xD5C JUMPI PUSH1 0x40 MLOAD PUSH3 0x461BCD PUSH1 0xE5 SHL DUP2 MSTORE PUSH1 0x20 PUSH1 0x4 DUP3 ADD MSTORE PUSH1 0xE PUSH1 0x24 DUP3 ADD MSTORE PUSH32 0x496E76616C6964206F7261636C65000000000000000000000000000000000000 PUSH1 0x44 DUP3 ADD MSTORE PUSH1 0x64 ADD PUSH2 0x472 JUMP JUMPDEST PUSH1 0x5 DUP1 SLOAD PUSH1 0x1 PUSH1 0x1 PUSH1 0xA0 SHL SUB NOT AND PUSH1 0x1 PUSH1 0x1 PUSH1 0xA0 SHL SUB SWAP3 SWAP1 SWAP3 AND SWAP2 SWAP1 SWAP2 OR SWAP1 SSTORE JUMP JUMPDEST PUSH2 0xD86 PUSH2 0x1761 JUMP JUMPDEST PUSH1 0x1 PUSH1 0x1 PUSH1 0xA0 SHL SUB DUP2 AND PUSH2 0xDDC JUMPI PUSH1 0x40 MLOAD PUSH3 0x461BCD PUSH1 0xE5 SHL DUP2 MSTORE PUSH1 0x20 PUSH1 0x4 DUP3 ADD MSTORE PUSH1 0xF PUSH1 0x24 DUP3 ADD MSTORE PUSH32 0x496E76616C696420616464726573730000000000000000000000000000000000 PUSH1 0x44 DUP3 ADD MSTORE PUSH1 0x64 ADD PUSH2 0x472 JUMP JUMPDEST PUSH1 0x6 DUP1 SLOAD PUSH1 0x1 PUSH1 0x1 PUSH1 0xA0 SHL SUB NOT AND PUSH1 0x1 PUSH1 0x1 PUSH1 0xA0 SHL SUB SWAP3 SWAP1 SWAP3 AND SWAP2 SWAP1 SWAP2 OR SWAP1 SSTORE JUMP JUMPDEST PUSH2 0xE06 PUSH2 0x1761 JUMP JUMPDEST PUSH0 DUP3 PUSH2 0xFFFF AND GT DUP1 ISZERO PUSH2 0xE1F JUMPI POP PUSH2 0x2710 DUP3 PUSH2 0xFFFF AND GT ISZERO JUMPDEST PUSH2 0xE6B JUMPI PUSH1 0x40 MLOAD PUSH3 0x461BCD PUSH1 0xE5 SHL DUP2 MSTORE PUSH1 0x20 PUSH1 0x4 DUP3 ADD MSTORE PUSH1 0x10 PUSH1 0x24 DUP3 ADD MSTORE PUSH32 0x42616420636C6F736520666163746F7200000000000000000000000000000000 PUSH1 0x44 DUP3 ADD MSTORE PUSH1 0x64 ADD PUSH2 0x472 JUMP JUMPDEST PUSH2 0x1388 DUP2 PUSH2 0xFFFF AND GT ISZERO PUSH2 0xEC1 JUMPI PUSH1 0x40 MLOAD PUSH3 0x461BCD PUSH1 0xE5 SHL DUP2 MSTORE PUSH1 0x20 PUSH1 0x4 DUP3 ADD MSTORE PUSH1 0xE PUSH1 0x24 DUP3 ADD MSTORE PUSH32 0x426F6E757320746F6F2068696768000000000000000000000000000000000000 PUSH1 0x44 DUP3 ADD MSTORE PUSH1 0x64 ADD PUSH2 0x472 JUMP JUMPDEST PUSH1 0x6 DUP1 SLOAD PUSH32 0xFFFFFFFFFFFFFFFF00000000FFFFFFFFFFFFFFFFFFFFFFFFFFFFFFFFFFFFFFFF AND PUSH1 0x1 PUSH1 0xA0 SHL PUSH2 0xFFFF SWAP5 DUP6 AND MUL PUSH32 0xFFFFFFFFFFFFFFFF0000FFFFFFFFFFFFFFFFFFFFFFFFFFFFFFFFFFFFFFFFFFFF AND OR PUSH1 0x1 PUSH1 0xB0 SHL SWAP3 SWAP1 SWAP4 AND SWAP2 SWAP1 SWAP2 MUL SWAP2 SWAP1 SWAP2 OR SWAP1 SSTORE JUMP JUMPDEST PUSH1 0x4 DUP2 DUP2 SLOAD DUP2 LT PUSH2 0xF3A JUMPI PUSH0 DUP1 REVERT JUMPDEST PUSH0 SWAP2 DUP3 MSTORE PUSH1 0x20 SWAP1 SWAP2 KECCAK256 ADD SLOAD PUSH1 0x1 PUSH1 0x1 PUSH1 0xA0 SHL SUB AND SWAP1 POP DUP2 JUMP JUMPDEST PUSH2 0xF5B PUSH2 0x1761 JUMP JUMPDEST PUSH2 0xF64 PUSH0 PUSH2 0x1C68 JUMP JUMPDEST JUMP JUMPDEST PUSH2 0xF6E PUSH2 0x178D JUMP JUMPDEST PUSH0 PUSH2 0xF78 CALLER PUSH2 0x168B JUMP JUMPDEST SWAP1 POP PUSH8 0xDE0B6B3A7640000 DUP2 LT ISZERO PUSH2 0xFD2 JUMPI PUSH1 0x40 MLOAD PUSH3 0x461BCD PUSH1 0xE5 SHL DUP2 MSTORE PUSH1 0x20 PUSH1 0x4 DUP3 ADD MSTORE PUSH1 0xD PUSH1 0x24 DUP3 ADD MSTORE PUSH32 0x5269736B20746F6F206869676800000000000000000000000000000000000000 PUSH1 0x44 DUP3 ADD MSTORE PUSH1 0x64 ADD PUSH2 0x472 JUMP JUMPDEST PUSH0 JUMPDEST PUSH1 0x4 SLOAD DUP2 LT ISZERO PUSH2 0x10AE JUMPI PUSH0 PUSH1 0x4 DUP3 DUP2 SLOAD DUP2 LT PUSH2 0xFF2 JUMPI PUSH2 0xFF2 PUSH2 0x22CE JUMP JUMPDEST PUSH0 SWAP2 DUP3 MSTORE PUSH1 0x20 DUP1 DUP4 KECCAK256 SWAP1 SWAP2 ADD SLOAD CALLER DUP4 MSTORE PUSH1 0x2 DUP3 MSTORE PUSH1 0x40 DUP1 DUP5 KECCAK256 PUSH1 0x1 PUSH1 0x1 PUSH1 0xA0 SHL SUB SWAP1 SWAP3 AND DUP1 DUP6 MSTORE SWAP2 SWAP1 SWAP3 MSTORE SWAP1 DUP3 KECCAK256 SLOAD SWAP1 SWAP3 POP SWAP1 DUP2 SWAP1 SUB PUSH2 0x1033 JUMPI POP POP PUSH2 0x10A6 JUMP JUMPDEST CALLER PUSH0 DUP2 DUP2 MSTORE PUSH1 0x2 PUSH1 0x20 SWAP1 DUP2 MSTORE PUSH1 0x40 DUP1 DUP4 KECCAK256 PUSH1 0x1 PUSH1 0x1 PUSH1 0xA0 SHL SUB DUP8 AND DUP1 DUP6 MSTORE SWAP3 MSTORE DUP3 KECCAK256 SWAP2 SWAP1 SWAP2 SSTORE PUSH2 0x1063 SWAP2 DUP4 PUSH2 0x1C32 JUMP JUMPDEST PUSH1 0x40 MLOAD DUP2 DUP2 MSTORE PUSH1 0x1 PUSH1 0x1 PUSH1 0xA0 SHL SUB DUP4 AND SWAP1 CALLER SWAP1 PUSH32 0x45892A46E6CEF329BB642DA6D69846D324DB43D19008EDC141ED82382EDA1BEE SWAP1 PUSH1 0x20 ADD PUSH1 0x40 MLOAD DUP1 SWAP2 SUB SWAP1 LOG3 POP POP JUMPDEST PUSH1 0x1 ADD PUSH2 0xFD4 JUMP JUMPDEST POP POP PUSH2 0xF64 PUSH1 0x1 DUP1 SSTORE JUMP JUMPDEST PUSH0 DUP1 PUSH0 DUP1 PUSH2 0x10C6 DUP6 PUSH2 0x523 JUMP JUMPDEST SWAP4 POP PUSH2 0x10D1 DUP6 PUSH2 0x6C7 JUMP JUMPDEST PUSH1 0x6 SLOAD PUSH1 0x40 MLOAD PUSH4 0x1955C977 PUSH1 0xE0 SHL DUP2 MSTORE PUSH1 0x1 PUSH1 0x1 PUSH1 0xA0 SHL SUB DUP9 DUP2 AND PUSH1 0x4 DUP4 ADD MSTORE SWAP3 SWAP6 POP SWAP2 AND SWAP1 PUSH4 0x1955C977 SWAP1 PUSH1 0x24 ADD PUSH1 0x20 PUSH1 0x40 MLOAD DUP1 DUP4 SUB DUP2 DUP7 GAS STATICCALL ISZERO DUP1 ISZERO PUSH2 0x111B JUMPI RETURNDATASIZE PUSH0 DUP1 RETURNDATACOPY RETURNDATASIZE PUSH0 REVERT JUMPDEST POP POP POP POP PUSH1 0x40 MLOAD RETURNDATASIZE PUSH1 0x1F NOT PUSH1 0x1F DUP3 ADD AND DUP3 ADD DUP1 PUSH1 0x40 MSTORE POP DUP2 ADD SWAP1 PUSH2 0x113F SWAP2 SWAP1 PUSH2 0x22E2 JUMP JUMPDEST SWAP2 POP PUSH2 0x114A DUP6 PUSH2 0x168B JUMP JUMPDEST SWAP1 POP SWAP2 SWAP4 POP SWAP2 SWAP4 JUMP JUMPDEST PUSH2 0x115B PUSH2 0x1761 JUMP JUMPDEST PUSH1 0x1 PUSH1 0x1 PUSH1 0xA0 SHL SUB DUP4 AND PUSH0 SWAP1 DUP2 MSTORE PUSH1 0x3 PUSH1 0x20 MSTORE PUSH1 0x40 SWAP1 KECCAK256 SLOAD PUSH1 0xFF AND ISZERO PUSH2 0x11C3 JUMPI PUSH1 0x40 MLOAD PUSH3 0x461BCD PUSH1 0xE5 SHL DUP2 MSTORE PUSH1 0x20 PUSH1 0x4 DUP3 ADD MSTORE PUSH1 0xF PUSH1 0x24 DUP3 ADD MSTORE PUSH32 0x416C726561647920616C6C6F7765640000000000000000000000000000000000 PUSH1 0x44 DUP3 ADD MSTORE PUSH1 0x64 ADD PUSH2 0x472 JUMP JUMPDEST PUSH0 DUP3 PUSH1 0xFF AND GT DUP1 ISZERO PUSH2 0x11DA JUMPI POP DUP2 PUSH1 0xFF AND DUP2 PUSH1 0xFF AND GT JUMPDEST PUSH2 0x1226 JUMPI PUSH1 0x40 MLOAD PUSH3 0x461BCD PUSH1 0xE5 SHL DUP2 MSTORE PUSH1 0x20 PUSH1 0x4 DUP3 ADD MSTORE PUSH1 0xE PUSH1 0x24 DUP3 ADD MSTORE PUSH32 0x496E76616C696420636F6E666967000000000000000000000000000000000000 PUSH1 0x44 DUP3 ADD MSTORE PUSH1 0x64 ADD PUSH2 0x472 JUMP JUMPDEST PUSH1 0x40 DUP1 MLOAD PUSH1 0x60 DUP2 ADD DUP3 MSTORE PUSH1 0x1 DUP1 DUP3 MSTORE PUSH1 0xFF SWAP5 DUP6 AND PUSH1 0x20 DUP1 DUP5 ADD SWAP2 DUP3 MSTORE SWAP5 DUP7 AND DUP4 DUP6 ADD SWAP1 DUP2 MSTORE PUSH1 0x1 PUSH1 0x1 PUSH1 0xA0 SHL SUB SWAP1 SWAP8 AND PUSH0 DUP2 DUP2 MSTORE PUSH1 0x3 SWAP1 SWAP7 MSTORE SWAP4 DUP6 KECCAK256 SWAP3 MLOAD DUP4 SLOAD SWAP2 MLOAD SWAP8 MLOAD DUP8 AND PUSH3 0x10000 MUL PUSH3 0xFF0000 NOT SWAP9 SWAP1 SWAP8 AND PUSH2 0x100 MUL PUSH2 0xFF00 NOT SWAP2 ISZERO ISZERO SWAP2 SWAP1 SWAP2 AND PUSH2 0xFFFF NOT SWAP1 SWAP3 AND SWAP2 SWAP1 SWAP2 OR OR SWAP6 SWAP1 SWAP6 AND SWAP4 SWAP1 SWAP4 OR SWAP1 SWAP3 SSTORE PUSH1 0x4 DUP1 SLOAD SWAP4 DUP5 ADD DUP2 SSTORE SWAP1 MSTORE PUSH32 0x8A35ACFBC15FF81A39AE7D344FD709F28E8600B4AA8C65C6B64BFE7FE36BD19B SWAP1 SWAP2 ADD DUP1 SLOAD PUSH1 0x1 PUSH1 0x1 PUSH1 0xA0 SHL SUB NOT AND SWAP1 SWAP2 OR SWAP1 SSTORE JUMP JUMPDEST PUSH1 0x1 PUSH1 0x1 PUSH1 0xA0 SHL SUB DUP1 DUP4 AND PUSH0 SWAP1 DUP2 MSTORE PUSH1 0x2 PUSH1 0x20 SWAP1 DUP2 MSTORE PUSH1 0x40 DUP1 DUP4 KECCAK256 SWAP4 DUP6 AND DUP4 MSTORE SWAP3 SWAP1 MSTORE SWAP1 DUP2 KECCAK256 SLOAD DUP1 DUP3 SUB PUSH2 0x1319 JUMPI PUSH0 SWAP2 POP POP PUSH2 0x144A JUMP JUMPDEST PUSH1 0x5 SLOAD PUSH1 0x40 MLOAD PUSH4 0x41976E09 PUSH1 0xE0 SHL DUP2 MSTORE PUSH1 0x1 PUSH1 0x1 PUSH1 0xA0 SHL SUB DUP6 DUP2 AND PUSH1 0x4 DUP4 ADD MSTORE PUSH0 SWAP3 AND SWAP1 PUSH4 0x41976E09 SWAP1 PUSH1 0x24 ADD PUSH1 0x20 PUSH1 0x40 MLOAD DUP1 DUP4 SUB DUP2 DUP7 GAS STATICCALL ISZERO DUP1 ISZERO PUSH2 0x1361 JUMPI RETURNDATASIZE PUSH0 DUP1 RETURNDATACOPY RETURNDATASIZE PUSH0 REVERT JUMPDEST POP POP POP POP PUSH1 0x40 MLOAD RETURNDATASIZE PUSH1 0x1F NOT PUSH1 0x1F DUP3 ADD AND DUP3 ADD DUP1 PUSH1 0x40 MSTORE POP DUP2 ADD SWAP1 PUSH2 0x1385 SWAP2 SWAP1 PUSH2 0x22E2 JUMP JUMPDEST SWAP1 POP PUSH0 DUP2 GT PUSH2 0x13C2 JUMPI PUSH1 0x40 MLOAD PUSH3 0x461BCD PUSH1 0xE5 SHL DUP2 MSTORE PUSH1 0x20 PUSH1 0x4 DUP3 ADD MSTORE PUSH1 0x9 PUSH1 0x24 DUP3 ADD MSTORE PUSH9 0x426164207072696365 PUSH1 0xB8 SHL PUSH1 0x44 DUP3 ADD MSTORE PUSH1 0x64 ADD PUSH2 0x472 JUMP JUMPDEST PUSH0 DUP5 PUSH1 0x1 PUSH1 0x1 PUSH1 0xA0 SHL SUB AND PUSH4 0x313CE567 PUSH1 0x40 MLOAD DUP2 PUSH4 0xFFFFFFFF AND PUSH1 0xE0 SHL DUP2 MSTORE PUSH1 0x4 ADD PUSH1 0x20 PUSH1 0x40 MLOAD DUP1 DUP4 SUB DUP2 DUP7 GAS STATICCALL ISZERO DUP1 ISZERO PUSH2 0x13FF JUMPI RETURNDATASIZE PUSH0 DUP1 RETURNDATACOPY RETURNDATASIZE PUSH0 REVERT JUMPDEST POP POP POP POP PUSH1 0x40 MLOAD RETURNDATASIZE PUSH1 0x1F NOT PUSH1 0x1F DUP3 ADD AND DUP3 ADD DUP1 PUSH1 0x40 MSTORE POP DUP2 ADD SWAP1 PUSH2 0x1423 SWAP2 SWAP1 PUSH2 0x22F9 JUMP JUMPDEST SWAP1 POP PUSH2 0x1430 DUP2 PUSH1 0xA PUSH2 0x2408 JUMP JUMPDEST PUSH2 0x143A DUP4 DUP6 PUSH2 0x2416 JUMP JUMPDEST PUSH2 0x1444 SWAP2 SWAP1 PUSH2 0x242D JUMP JUMPDEST SWAP4 POP POP POP POP JUMPDEST SWAP3 SWAP2 POP POP JUMP JUMPDEST PUSH2 0x1458 PUSH2 0x1761 JUMP JUMPDEST PUSH1 0x1 PUSH1 0x1 PUSH1 0xA0 SHL SUB DUP2 AND PUSH2 0x1481 JUMPI PUSH1 0x40 MLOAD PUSH4 0x1E4FBDF7 PUSH1 0xE0 SHL DUP2 MSTORE PUSH0 PUSH1 0x4 DUP3 ADD MSTORE PUSH1 0x24 ADD PUSH2 0x472 JUMP JUMPDEST PUSH2 0x148A DUP2 PUSH2 0x1C68 JUMP JUMPDEST POP JUMP JUMPDEST PUSH2 0x1495 PUSH2 0x178D JUMP JUMPDEST PUSH1 0x1 PUSH1 0x1 PUSH1 0xA0 SHL SUB DUP3 AND PUSH0 SWAP1 DUP2 MSTORE PUSH1 0x3 PUSH1 0x20 MSTORE PUSH1 0x40 SWAP1 KECCAK256 SLOAD PUSH1 0xFF AND PUSH2 0x14F0 JUMPI PUSH1 0x40 MLOAD PUSH3 0x461BCD PUSH1 0xE5 SHL DUP2 MSTORE PUSH1 0x20 PUSH1 0x4 DUP3 ADD MSTORE PUSH1 0x11 PUSH1 0x24 DUP3 ADD MSTORE PUSH17 0x151BDAD95B881B9BDD08185B1B1BDDD959 PUSH1 0x7A SHL PUSH1 0x44 DUP3 ADD MSTORE PUSH1 0x64 ADD PUSH2 0x472 JUMP JUMPDEST PUSH0 DUP2 GT PUSH2 0x1530 JUMPI PUSH1 0x40 MLOAD PUSH3 0x461BCD PUSH1 0xE5 SHL DUP2 MSTORE PUSH1 0x20 PUSH1 0x4 DUP3 ADD MSTORE PUSH1 0xE PUSH1 0x24 DUP3 ADD MSTORE PUSH14 0x125B9D985B1A5908185B5BDD5B9D PUSH1 0x92 SHL PUSH1 0x44 DUP3 ADD MSTORE PUSH1 0x64 ADD PUSH2 0x472 JUMP JUMPDEST CALLER PUSH0 SWAP1 DUP2 MSTORE PUSH1 0x2 PUSH1 0x20 SWAP1 DUP2 MSTORE PUSH1 0x40 DUP1 DUP4 KECCAK256 PUSH1 0x1 PUSH1 0x1 PUSH1 0xA0 SHL SUB DUP7 AND DUP5 MSTORE SWAP1 SWAP2 MSTORE SWAP1 KECCAK256 SLOAD DUP2 GT ISZERO PUSH2 0x15A2 JUMPI PUSH1 0x40 MLOAD PUSH3 0x461BCD PUSH1 0xE5 SHL DUP2 MSTORE PUSH1 0x20 PUSH1 0x4 DUP3 ADD MSTORE PUSH1 0x14 PUSH1 0x24 DUP3 ADD MSTORE PUSH32 0x496E73756666696369656E742062616C616E6365000000000000000000000000 PUSH1 0x44 DUP3 ADD MSTORE PUSH1 0x64 ADD PUSH2 0x472 JUMP JUMPDEST CALLER PUSH0 SWAP1 DUP2 MSTORE PUSH1 0x2 PUSH1 0x20 SWAP1 DUP2 MSTORE PUSH1 0x40 DUP1 DUP4 KECCAK256 PUSH1 0x1 PUSH1 0x1 PUSH1 0xA0 SHL SUB DUP7 AND DUP5 MSTORE SWAP1 SWAP2 MSTORE DUP2 KECCAK256 DUP1 SLOAD DUP4 SWAP3 SWAP1 PUSH2 0x15D4 SWAP1 DUP5 SWAP1 PUSH2 0x245F JUMP JUMPDEST SWAP1 SWAP2 SSTORE POP PUSH8 0xDE0B6B3A7640000 SWAP1 POP PUSH2 0x15EC CALLER PUSH2 0x168B JUMP JUMPDEST LT ISZERO PUSH2 0x163A JUMPI PUSH1 0x40 MLOAD PUSH3 0x461BCD PUSH1 0xE5 SHL DUP2 MSTORE PUSH1 0x20 PUSH1 0x4 DUP3 ADD MSTORE PUSH1 0x1F PUSH1 0x24 DUP3 ADD MSTORE PUSH32 0x43616E6E6F74207769746864726177202D207269736B20746F6F206869676800 PUSH1 0x44 DUP3 ADD MSTORE PUSH1 0x64 ADD PUSH2 0x472 JUMP JUMPDEST PUSH2 0x164E PUSH1 0x1 PUSH1 0x1 PUSH1 0xA0 SHL SUB DUP4 AND CALLER DUP4 PUSH2 0x1C32 JUMP JUMPDEST PUSH1 0x40 MLOAD DUP2 DUP2 MSTORE PUSH1 0x1 PUSH1 0x1 PUSH1 0xA0 SHL SUB DUP4 AND SWAP1 CALLER SWAP1 PUSH32 0x45892A46E6CEF329BB642DA6D69846D324DB43D19008EDC141ED82382EDA1BEE SWAP1 PUSH1 0x20 ADD PUSH2 0xCE9 JUMP JUMPDEST PUSH1 0x6 SLOAD PUSH1 0x40 MLOAD PUSH4 0x1955C977 PUSH1 0xE0 SHL DUP2 MSTORE PUSH1 0x1 PUSH1 0x1 PUSH1 0xA0 SHL SUB DUP4 DUP2 AND PUSH1 0x4 DUP4 ADD MSTORE PUSH0 SWAP3 DUP4 SWAP3 SWAP2 AND SWAP1 PUSH4 0x1955C977 SWAP1 PUSH1 0x24 ADD PUSH1 0x20 PUSH1 0x40 MLOAD DUP1 DUP4 SUB DUP2 DUP7 GAS STATICCALL ISZERO DUP1 ISZERO PUSH2 0x16D6 JUMPI RETURNDATASIZE PUSH0 DUP1 RETURNDATACOPY RETURNDATASIZE PUSH0 REVERT JUMPDEST POP POP POP POP PUSH1 0x40 MLOAD RETURNDATASIZE PUSH1 0x1F NOT PUSH1 0x1F DUP3 ADD AND DUP3 ADD DUP1 PUSH1 0x40 MSTORE POP DUP2 ADD SWAP1 PUSH2 0x16FA SWAP2 SWAP1 PUSH2 0x22E2 JUMP JUMPDEST SWAP1 POP DUP1 PUSH0 SUB PUSH2 0x170C JUMPI POP PUSH0 NOT SWAP3 SWAP2 POP POP JUMP JUMPDEST PUSH0 PUSH2 0x1716 DUP5 PUSH2 0x523 JUMP JUMPDEST SWAP1 POP PUSH0 PUSH2 0x1722 DUP6 PUSH2 0x1CB7 JUMP JUMPDEST SWAP1 POP PUSH2 0x172F DUP4 PUSH1 0x64 PUSH2 0x2416 JUMP JUMPDEST PUSH2 0x173C PUSH1 0xFF DUP4 AND DUP5 PUSH2 0x2416 JUMP JUMPDEST PUSH2 0x174E SWAP1 PUSH8 0xDE0B6B3A7640000 PUSH2 0x2416 JUMP JUMPDEST PUSH2 0x1758 SWAP2 SWAP1 PUSH2 0x242D JUMP JUMPDEST SWAP6 SWAP5 POP POP POP POP POP JUMP JUMPDEST PUSH0 SLOAD PUSH1 0x1 PUSH1 0x1 PUSH1 0xA0 SHL SUB AND CALLER EQ PUSH2 0xF64 JUMPI PUSH1 0x40 MLOAD PUSH4 0x118CDAA7 PUSH1 0xE0 SHL DUP2 MSTORE CALLER PUSH1 0x4 DUP3 ADD MSTORE PUSH1 0x24 ADD PUSH2 0x472 JUMP JUMPDEST PUSH1 0x2 PUSH1 0x1 SLOAD SUB PUSH2 0x17B0 JUMPI PUSH1 0x40 MLOAD PUSH4 0x3EE5AEB5 PUSH1 0xE0 SHL DUP2 MSTORE PUSH1 0x4 ADD PUSH1 0x40 MLOAD DUP1 SWAP2 SUB SWAP1 REVERT JUMPDEST PUSH1 0x2 PUSH1 0x1 SSTORE JUMP JUMPDEST PUSH1 0x40 MLOAD PUSH1 0x1 PUSH1 0x1 PUSH1 0xA0 SHL SUB DUP5 DUP2 AND PUSH1 0x24 DUP4 ADD MSTORE DUP4 DUP2 AND PUSH1 0x44 DUP4 ADD MSTORE PUSH1 0x64 DUP3 ADD DUP4 SWAP1 MSTORE PUSH2 0xBBB SWAP2 DUP7 SWAP2 DUP3 AND SWAP1 PUSH4 0x23B872DD SWAP1 PUSH1 0x84 ADD JUMPDEST PUSH1 0x40 MLOAD PUSH1 0x20 DUP2 DUP4 SUB SUB DUP2 MSTORE SWAP1 PUSH1 0x40 MSTORE SWAP2 POP PUSH1 0xE0 SHL PUSH1 0x20 DUP3 ADD DUP1 MLOAD PUSH28 0xFFFFFFFFFFFFFFFFFFFFFFFFFFFFFFFFFFFFFFFFFFFFFFFFFFFFFFFF DUP4 DUP2 DUP4 AND OR DUP4 MSTORE POP POP POP POP PUSH2 0x1EBB JUMP JUMPDEST PUSH1 0x5 SLOAD PUSH1 0x40 MLOAD PUSH4 0x41976E09 PUSH1 0xE0 SHL DUP2 MSTORE PUSH1 0x1 PUSH1 0x1 PUSH1 0xA0 SHL SUB DUP7 DUP2 AND PUSH1 0x4 DUP4 ADD MSTORE PUSH0 SWAP3 DUP4 SWAP3 SWAP2 AND SWAP1 PUSH4 0x41976E09 SWAP1 PUSH1 0x24 ADD PUSH1 0x20 PUSH1 0x40 MLOAD DUP1 DUP4 SUB DUP2 DUP7 GAS STATICCALL ISZERO DUP1 ISZERO PUSH2 0x187E JUMPI RETURNDATASIZE PUSH0 DUP1 RETURNDATACOPY RETURNDATASIZE PUSH0 REVERT JUMPDEST POP POP POP POP PUSH1 0x40 MLOAD RETURNDATASIZE PUSH1 0x1F NOT PUSH1 0x1F DUP3 ADD AND DUP3 ADD DUP1 PUSH1 0x40 MSTORE POP DUP2 ADD SWAP1 PUSH2 0x18A2 SWAP2 SWAP1 PUSH2 0x22E2 JUMP JUMPDEST PUSH1 0x5 SLOAD PUSH1 0x40 MLOAD PUSH4 0x41976E09 PUSH1 0xE0 SHL DUP2 MSTORE PUSH1 0x1 PUSH1 0x1 PUSH1 0xA0 SHL SUB DUP8 DUP2 AND PUSH1 0x4 DUP4 ADD MSTORE SWAP3 SWAP4 POP PUSH0 SWAP3 SWAP1 SWAP2 AND SWAP1 PUSH4 0x41976E09 SWAP1 PUSH1 0x24 ADD PUSH1 0x20 PUSH1 0x40 MLOAD DUP1 DUP4 SUB DUP2 DUP7 GAS STATICCALL ISZERO DUP1 ISZERO PUSH2 0x18EF JUMPI RETURNDATASIZE PUSH0 DUP1 RETURNDATACOPY RETURNDATASIZE PUSH0 REVERT JUMPDEST POP POP POP POP PUSH1 0x40 MLOAD RETURNDATASIZE PUSH1 0x1F NOT PUSH1 0x1F DUP3 ADD AND DUP3 ADD DUP1 PUSH1 0x40 MSTORE POP DUP2 ADD SWAP1 PUSH2 0x1913 SWAP2 SWAP1 PUSH2 0x22E2 JUMP JUMPDEST SWAP1 POP PUSH0 DUP3 GT DUP1 ISZERO PUSH2 0x1923 JUMPI POP PUSH0 DUP2 GT JUMPDEST PUSH2 0x195B JUMPI PUSH1 0x40 MLOAD PUSH3 0x461BCD PUSH1 0xE5 SHL DUP2 MSTORE PUSH1 0x20 PUSH1 0x4 DUP3 ADD MSTORE PUSH1 0x9 PUSH1 0x24 DUP3 ADD MSTORE PUSH9 0x426164207072696365 PUSH1 0xB8 SHL PUSH1 0x44 DUP3 ADD MSTORE PUSH1 0x64 ADD PUSH2 0x472 JUMP JUMPDEST PUSH0 DUP8 PUSH1 0x1 PUSH1 0x1 PUSH1 0xA0 SHL SUB AND PUSH4 0x313CE567 PUSH1 0x40 MLOAD DUP2 PUSH4 0xFFFFFFFF AND PUSH1 0xE0 SHL DUP2 MSTORE PUSH1 0x4 ADD PUSH1 0x20 PUSH1 0x40 MLOAD DUP1 DUP4 SUB DUP2 DUP7 GAS STATICCALL ISZERO DUP1 ISZERO PUSH2 0x1998 JUMPI RETURNDATASIZE PUSH0 DUP1 RETURNDATACOPY RETURNDATASIZE PUSH0 REVERT JUMPDEST POP POP POP POP PUSH1 0x40 MLOAD RETURNDATASIZE PUSH1 0x1F NOT PUSH1 0x1F DUP3 ADD AND DUP3 ADD DUP1 PUSH1 0x40 MSTORE POP DUP2 ADD SWAP1 PUSH2 0x19BC SWAP2 SWAP1 PUSH2 0x22F9 JUMP JUMPDEST SWAP1 POP PUSH0 DUP7 PUSH1 0x1 PUSH1 0x1 PUSH1 0xA0 SHL SUB AND PUSH4 0x313CE567 PUSH1 0x40 MLOAD DUP2 PUSH4 0xFFFFFFFF AND PUSH1 0xE0 SHL DUP2 MSTORE PUSH1 0x4 ADD PUSH1 0x20 PUSH1 0x40 MLOAD DUP1 DUP4 SUB DUP2 DUP7 GAS STATICCALL ISZERO DUP1 ISZERO PUSH2 0x19FB JUMPI RETURNDATASIZE PUSH0 DUP1 RETURNDATACOPY RETURNDATASIZE PUSH0 REVERT JUMPDEST POP POP POP POP PUSH1 0x40 MLOAD RETURNDATASIZE PUSH1 0x1F NOT PUSH1 0x1F DUP3 ADD AND DUP3 ADD DUP1 PUSH1 0x40 MSTORE POP DUP2 ADD SWAP1 PUSH2 0x1A1F SWAP2 SWAP1 PUSH2 0x22F9 JUMP JUMPDEST SWAP1 POP PUSH0 PUSH2 0x1A2D DUP4 PUSH1 0xA PUSH2 0x2408 JUMP JUMPDEST PUSH2 0x1A37 DUP7 DUP12 PUSH2 0x2416 JUMP JUMPDEST PUSH2 0x1A41 SWAP2 SWAP1 PUSH2 0x242D JUMP JUMPDEST SWAP1 POP DUP7 DUP2 GT ISZERO PUSH2 0x1A93 JUMPI PUSH1 0x40 MLOAD PUSH3 0x461BCD PUSH1 0xE5 SHL DUP2 MSTORE PUSH1 0x20 PUSH1 0x4 DUP3 ADD MSTORE PUSH1 0x15 PUSH1 0x24 DUP3 ADD MSTORE PUSH32 0x436C6F736520666163746F722065786365656465640000000000000000000000 PUSH1 0x44 DUP3 ADD MSTORE PUSH1 0x64 ADD PUSH2 0x472 JUMP JUMPDEST PUSH1 0x6 SLOAD PUSH1 0x40 MLOAD PUSH4 0x6EB1769F PUSH1 0xE1 SHL DUP2 MSTORE ADDRESS PUSH1 0x4 DUP3 ADD MSTORE PUSH1 0x1 PUSH1 0x1 PUSH1 0xA0 SHL SUB SWAP2 DUP3 AND PUSH1 0x24 DUP3 ADD MSTORE DUP12 SWAP2 PUSH0 SWAP2 SWAP1 DUP4 AND SWAP1 PUSH4 0xDD62ED3E SWAP1 PUSH1 0x44 ADD PUSH1 0x20 PUSH1 0x40 MLOAD DUP1 DUP4 SUB DUP2 DUP7 GAS STATICCALL ISZERO DUP1 ISZERO PUSH2 0x1AE5 JUMPI RETURNDATASIZE PUSH0 DUP1 RETURNDATACOPY RETURNDATASIZE PUSH0 REVERT JUMPDEST POP POP POP POP PUSH1 0x40 MLOAD RETURNDATASIZE PUSH1 0x1F NOT PUSH1 0x1F DUP3 ADD AND DUP3 ADD DUP1 PUSH1 0x40 MSTORE POP DUP2 ADD SWAP1 PUSH2 0x1B09 SWAP2 SWAP1 PUSH2 0x22E2 JUMP JUMPDEST SWAP1 POP DUP1 ISZERO PUSH2 0x1B2B JUMPI PUSH1 0x6 SLOAD PUSH2 0x1B2B SWAP1 PUSH1 0x1 PUSH1 0x1 PUSH1 0xA0 SHL SUB DUP5 DUP2 AND SWAP2 AND DUP4 PUSH2 0x1F27 JUMP JUMPDEST PUSH1 0x6 SLOAD PUSH2 0x1B45 SWAP1 PUSH1 0x1 PUSH1 0x1 PUSH1 0xA0 SHL SUB DUP5 DUP2 AND SWAP2 AND DUP14 PUSH2 0x1FE1 JUMP JUMPDEST PUSH1 0x6 SLOAD PUSH1 0x40 MLOAD PUSH4 0x976CE495 PUSH1 0xE0 SHL DUP2 MSTORE PUSH1 0x1 PUSH1 0x1 PUSH1 0xA0 SHL SUB DUP16 DUP2 AND PUSH1 0x4 DUP4 ADD MSTORE DUP15 DUP2 AND PUSH1 0x24 DUP4 ADD MSTORE PUSH1 0x44 DUP3 ADD DUP15 SWAP1 MSTORE SWAP1 SWAP2 AND SWAP1 PUSH4 0x976CE495 SWAP1 PUSH1 0x64 ADD PUSH0 PUSH1 0x40 MLOAD DUP1 DUP4 SUB DUP2 PUSH0 DUP8 DUP1 EXTCODESIZE ISZERO DUP1 ISZERO PUSH2 0x1B98 JUMPI PUSH0 DUP1 REVERT JUMPDEST POP GAS CALL ISZERO DUP1 ISZERO PUSH2 0x1BAA JUMPI RETURNDATASIZE PUSH0 DUP1 RETURNDATACOPY RETURNDATASIZE PUSH0 REVERT JUMPDEST POP POP PUSH1 0x6 SLOAD PUSH2 0x1BC8 SWAP3 POP PUSH1 0x1 PUSH1 0x1 PUSH1 0xA0 SHL SUB DUP6 DUP2 AND SWAP3 POP AND DUP14 PUSH2 0x1F27 JUMP JUMPDEST PUSH1 0x6 SLOAD PUSH0 SWAP1 PUSH2 0x2710 SWAP1 PUSH2 0x1BE6 SWAP1 PUSH1 0x1 PUSH1 0xB0 SHL SWAP1 DIV PUSH2 0xFFFF AND DUP3 PUSH2 0x2472 JUMP JUMPDEST PUSH2 0x1BF4 SWAP1 PUSH2 0xFFFF AND DUP7 PUSH2 0x2416 JUMP JUMPDEST PUSH2 0x1BFE SWAP2 SWAP1 PUSH2 0x242D JUMP JUMPDEST SWAP1 POP DUP7 PUSH2 0x1C0C DUP7 PUSH1 0xA PUSH2 0x2408 JUMP JUMPDEST PUSH2 0x1C16 SWAP1 DUP4 PUSH2 0x2416 JUMP JUMPDEST PUSH2 0x1C20 SWAP2 SWAP1 PUSH2 0x242D JUMP JUMPDEST SWAP15 SWAP14 POP POP POP POP POP POP POP POP POP POP POP POP POP POP JUMP JUMPDEST PUSH1 0x40 MLOAD PUSH1 0x1 PUSH1 0x1 PUSH1 0xA0 SHL SUB DUP4 DUP2 AND PUSH1 0x24 DUP4 ADD MSTORE PUSH1 0x44 DUP3 ADD DUP4 SWAP1 MSTORE PUSH2 0x1C63 SWAP2 DUP6 SWAP2 DUP3 AND SWAP1 PUSH4 0xA9059CBB SWAP1 PUSH1 0x64 ADD PUSH2 0x17EC JUMP JUMPDEST POP POP POP JUMP JUMPDEST PUSH0 DUP1 SLOAD PUSH1 0x1 PUSH1 0x1 PUSH1 0xA0 SHL SUB DUP4 DUP2 AND PUSH1 0x1 PUSH1 0x1 PUSH1 0xA0 SHL SUB NOT DUP4 AND DUP2 OR DUP5 SSTORE PUSH1 0x40 MLOAD SWAP2 SWAP1 SWAP3 AND SWAP3 DUP4 SWAP2 PUSH32 0x8BE0079C531659141344CD1FD0A4F28419497F9722A3DAAFE3B4186F6B6457E0 SWAP2 SWAP1 LOG3 POP POP JUMP JUMPDEST PUSH0 DUP1 DUP1 DUP1 JUMPDEST PUSH1 0x4 SLOAD DUP2 LT ISZERO PUSH2 0x1E9B JUMPI PUSH0 PUSH1 0x4 DUP3 DUP2 SLOAD DUP2 LT PUSH2 0x1CDA JUMPI PUSH2 0x1CDA PUSH2 0x22CE JUMP JUMPDEST PUSH0 SWAP2 DUP3 MSTORE PUSH1 0x20 DUP1 DUP4 KECCAK256 SWAP1 SWAP2 ADD SLOAD PUSH1 0x1 PUSH1 0x1 PUSH1 0xA0 SHL SUB DUP10 DUP2 AND DUP5 MSTORE PUSH1 0x2 DUP4 MSTORE PUSH1 0x40 DUP1 DUP6 KECCAK256 SWAP2 SWAP1 SWAP3 AND DUP1 DUP6 MSTORE SWAP3 MSTORE DUP3 KECCAK256 SLOAD SWAP1 SWAP3 POP SWAP1 DUP2 SWAP1 SUB PUSH2 0x1D1B JUMPI POP POP PUSH2 0x1E93 JUMP JUMPDEST PUSH1 0x5 SLOAD PUSH1 0x40 MLOAD PUSH4 0x41976E09 PUSH1 0xE0 SHL DUP2 MSTORE PUSH1 0x1 PUSH1 0x1 PUSH1 0xA0 SHL SUB DUP5 DUP2 AND PUSH1 0x4 DUP4 ADD MSTORE PUSH0 SWAP3 AND SWAP1 PUSH4 0x41976E09 SWAP1 PUSH1 0x24 ADD PUSH1 0x20 PUSH1 0x40 MLOAD DUP1 DUP4 SUB DUP2 DUP7 GAS STATICCALL ISZERO DUP1 ISZERO PUSH2 0x1D63 JUMPI RETURNDATASIZE PUSH0 DUP1 RETURNDATACOPY RETURNDATASIZE PUSH0 REVERT JUMPDEST POP POP POP POP PUSH1 0x40 MLOAD RETURNDATASIZE PUSH1 0x1F NOT PUSH1 0x1F DUP3 ADD AND DUP3 ADD DUP1 PUSH1 0x40 MSTORE POP DUP2 ADD SWAP1 PUSH2 0x1D87 SWAP2 SWAP1 PUSH2 0x22E2 JUMP JUMPDEST SWAP1 POP PUSH0 DUP2 GT PUSH2 0x1DC4 JUMPI PUSH1 0x40 MLOAD PUSH3 0x461BCD PUSH1 0xE5 SHL DUP2 MSTORE PUSH1 0x20 PUSH1 0x4 DUP3 ADD MSTORE PUSH1 0x9 PUSH1 0x24 DUP3 ADD MSTORE PUSH9 0x426164207072696365 PUSH1 0xB8 SHL PUSH1 0x44 DUP3 ADD MSTORE PUSH1 0x64 ADD PUSH2 0x472 JUMP JUMPDEST PUSH0 DUP4 PUSH1 0x1 PUSH1 0x1 PUSH1 0xA0 SHL SUB AND PUSH4 0x313CE567 PUSH1 0x40 MLOAD DUP2 PUSH4 0xFFFFFFFF AND PUSH1 0xE0 SHL DUP2 MSTORE PUSH1 0x4 ADD PUSH1 0x20 PUSH1 0x40 MLOAD DUP1 DUP4 SUB DUP2 DUP7 GAS STATICCALL ISZERO DUP1 ISZERO PUSH2 0x1E01 JUMPI RETURNDATASIZE PUSH0 DUP1 RETURNDATACOPY RETURNDATASIZE PUSH0 REVERT JUMPDEST POP POP POP POP PUSH1 0x40 MLOAD RETURNDATASIZE PUSH1 0x1F NOT PUSH1 0x1F DUP3 ADD AND DUP3 ADD DUP1 PUSH1 0x40 MSTORE POP DUP2 ADD SWAP1 PUSH2 0x1E25 SWAP2 SWAP1 PUSH2 0x22F9 JUMP JUMPDEST SWAP1 POP PUSH0 PUSH2 0x1E33 DUP3 PUSH1 0xA PUSH2 0x2408 JUMP JUMPDEST PUSH2 0x1E3D DUP5 DUP7 PUSH2 0x2416 JUMP JUMPDEST PUSH2 0x1E47 SWAP2 SWAP1 PUSH2 0x242D JUMP JUMPDEST SWAP1 POP PUSH2 0x1E53 DUP2 DUP10 PUSH2 0x244C JUMP JUMPDEST PUSH1 0x1 PUSH1 0x1 PUSH1 0xA0 SHL SUB DUP7 AND PUSH0 SWAP1 DUP2 MSTORE PUSH1 0x3 PUSH1 0x20 MSTORE PUSH1 0x40 SWAP1 KECCAK256 SLOAD SWAP1 SWAP9 POP PUSH2 0x1E81 SWAP1 PUSH3 0x10000 SWAP1 DIV PUSH1 0xFF AND DUP3 PUSH2 0x2416 JUMP JUMPDEST PUSH2 0x1E8B SWAP1 DUP9 PUSH2 0x244C JUMP JUMPDEST SWAP7 POP POP POP POP POP POP JUMPDEST PUSH1 0x1 ADD PUSH2 0x1CBC JUMP JUMPDEST POP DUP2 ISZERO PUSH2 0x1EB1 JUMPI PUSH2 0x1EAC DUP3 DUP3 PUSH2 0x242D JUMP JUMPDEST PUSH2 0x1EB3 JUMP JUMPDEST PUSH0 JUMPDEST SWAP5 SWAP4 POP POP POP POP JUMP JUMPDEST PUSH0 DUP1 PUSH1 0x20 PUSH0 DUP5 MLOAD PUSH1 0x20 DUP7 ADD PUSH0 DUP9 GAS CALL DUP1 PUSH2 0x1EDA JUMPI PUSH1 0x40 MLOAD RETURNDATASIZE PUSH0 DUP3 RETURNDATACOPY RETURNDATASIZE DUP2 REVERT JUMPDEST POP POP PUSH0 MLOAD RETURNDATASIZE SWAP2 POP DUP2 ISZERO PUSH2 0x1EF1 JUMPI DUP1 PUSH1 0x1 EQ ISZERO PUSH2 0x1EFE JUMP JUMPDEST PUSH1 0x1 PUSH1 0x1 PUSH1 0xA0 SHL SUB DUP5 AND EXTCODESIZE ISZERO JUMPDEST ISZERO PUSH2 0xBBB JUMPI PUSH1 0x40 MLOAD PUSH4 0x5274AFE7 PUSH1 0xE0 SHL DUP2 MSTORE PUSH1 0x1 PUSH1 0x1 PUSH1 0xA0 SHL SUB DUP6 AND PUSH1 0x4 DUP3 ADD MSTORE PUSH1 0x24 ADD PUSH2 0x472 JUMP JUMPDEST PUSH1 0x40 MLOAD PUSH4 0x6EB1769F PUSH1 0xE1 SHL DUP2 MSTORE ADDRESS PUSH1 0x4 DUP3 ADD MSTORE PUSH1 0x1 PUSH1 0x1 PUSH1 0xA0 SHL SUB DUP4 DUP2 AND PUSH1 0x24 DUP4 ADD MSTORE PUSH0 SWAP2 SWAP1 DUP6 AND SWAP1 PUSH4 0xDD62ED3E SWAP1 PUSH1 0x44 ADD PUSH1 0x20 PUSH1 0x40 MLOAD DUP1 DUP4 SUB DUP2 DUP7 GAS STATICCALL ISZERO DUP1 ISZERO PUSH2 0x1F74 JUMPI RETURNDATASIZE PUSH0 DUP1 RETURNDATACOPY RETURNDATASIZE PUSH0 REVERT JUMPDEST POP POP POP POP PUSH1 0x40 MLOAD RETURNDATASIZE PUSH1 0x1F NOT PUSH1 0x1F DUP3 ADD AND DUP3 ADD DUP1 PUSH1 0x40 MSTORE POP DUP2 ADD SWAP1 PUSH2 0x1F98 SWAP2 SWAP1 PUSH2 0x22E2 JUMP JUMPDEST SWAP1 POP DUP2 DUP2 LT ISZERO PUSH2 0x1FD4 JUMPI PUSH1 0x40 MLOAD PUSH4 0xE570110F PUSH1 0xE0 SHL DUP2 MSTORE PUSH1 0x1 PUSH1 0x1 PUSH1 0xA0 SHL SUB DUP5 AND PUSH1 0x4 DUP3 ADD MSTORE PUSH1 0x24 DUP2 ADD DUP3 SWAP1 MSTORE PUSH1 0x44 DUP2 ADD DUP4 SWAP1 MSTORE PUSH1 0x64 ADD PUSH2 0x472 JUMP JUMPDEST PUSH2 0xBBB DUP5 DUP5 DUP5 DUP5 SUB PUSH2 0x2063 JUMP JUMPDEST PUSH1 0x40 MLOAD PUSH4 0x6EB1769F PUSH1 0xE1 SHL DUP2 MSTORE ADDRESS PUSH1 0x4 DUP3 ADD MSTORE PUSH1 0x1 PUSH1 0x1 PUSH1 0xA0 SHL SUB DUP4 DUP2 AND PUSH1 0x24 DUP4 ADD MSTORE PUSH0 SWAP2 SWAP1 DUP6 AND SWAP1 PUSH4 0xDD62ED3E SWAP1 PUSH1 0x44 ADD PUSH1 0x20 PUSH1 0x40 MLOAD DUP1 DUP4 SUB DUP2 DUP7 GAS STATICCALL ISZERO DUP1 ISZERO PUSH2 0x202E JUMPI RETURNDATASIZE PUSH0 DUP1 RETURNDATACOPY RETURNDATASIZE PUSH0 REVERT JUMPDEST POP POP POP POP PUSH1 0x40 MLOAD RETURNDATASIZE PUSH1 0x1F NOT PUSH1 0x1F DUP3 ADD AND DUP3 ADD DUP1 PUSH1 0x40 MSTORE POP DUP2 ADD SWAP1 PUSH2 0x2052 SWAP2 SWAP1 PUSH2 0x22E2 JUMP JUMPDEST SWAP1 POP PUSH2 0xBBB DUP5 DUP5 PUSH2 0x2063 DUP6 DUP6 PUSH2 0x244C JUMP JUMPDEST PUSH1 0x40 DUP1 MLOAD PUSH1 0x1 PUSH1 0x1 PUSH1 0xA0 SHL SUB DUP5 AND PUSH1 0x24 DUP3 ADD MSTORE PUSH1 0x44 DUP1 DUP3 ADD DUP5 SWAP1 MSTORE DUP3 MLOAD DUP1 DUP4 SUB SWAP1 SWAP2 ADD DUP2 MSTORE PUSH1 0x64 SWAP1 SWAP2 ADD SWAP1 SWAP2 MSTORE PUSH1 0x20 DUP2 ADD DUP1 MLOAD PUSH28 0xFFFFFFFFFFFFFFFFFFFFFFFFFFFFFFFFFFFFFFFFFFFFFFFFFFFFFFFF AND PUSH4 0x95EA7B3 PUSH1 0xE0 SHL OR SWAP1 MSTORE PUSH2 0x20C9 DUP5 DUP3 PUSH2 0x2107 JUMP JUMPDEST PUSH2 0xBBB JUMPI PUSH1 0x40 MLOAD PUSH1 0x1 PUSH1 0x1 PUSH1 0xA0 SHL SUB DUP5 DUP2 AND PUSH1 0x24 DUP4 ADD MSTORE PUSH0 PUSH1 0x44 DUP4 ADD MSTORE PUSH2 0x20FD SWAP2 DUP7 SWAP2 DUP3 AND SWAP1 PUSH4 0x95EA7B3 SWAP1 PUSH1 0x64 ADD PUSH2 0x17EC JUMP JUMPDEST PUSH2 0xBBB DUP5 DUP3 PUSH2 0x1EBB JUMP JUMPDEST PUSH0 DUP1 PUSH0 DUP1 PUSH1 0x20 PUSH0 DUP7 MLOAD PUSH1 0x20 DUP9 ADD PUSH0 DUP11 GAS CALL SWAP3 POP RETURNDATASIZE SWAP2 POP PUSH0 MLOAD SWAP1 POP DUP3 DUP1 ISZERO PUSH2 0x1444 JUMPI POP DUP2 ISZERO PUSH2 0x2138 JUMPI DUP1 PUSH1 0x1 EQ PUSH2 0x1444 JUMP JUMPDEST POP POP POP POP POP PUSH1 0x1 PUSH1 0x1 PUSH1 0xA0 SHL SUB AND EXTCODESIZE ISZERO ISZERO SWAP1 JUMP JUMPDEST DUP1 CALLDATALOAD PUSH1 0x1 PUSH1 0x1 PUSH1 0xA0 SHL SUB DUP2 AND DUP2 EQ PUSH2 0x2162 JUMPI PUSH0 DUP1 REVERT JUMPDEST SWAP2 SWAP1 POP JUMP JUMPDEST PUSH1 0xFF DUP2 AND DUP2 EQ PUSH2 0x148A JUMPI PUSH0 DUP1 REVERT JUMPDEST PUSH0 DUP1 PUSH0 PUSH1 0x60 DUP5 DUP7 SUB SLT ISZERO PUSH2 0x2187 JUMPI PUSH0 DUP1 REVERT JUMPDEST PUSH2 0x2190 DUP5 PUSH2 0x214C JUMP JUMPDEST SWAP3 POP PUSH1 0x20 DUP5 ADD CALLDATALOAD PUSH2 0x21A0 DUP2 PUSH2 0x2167 JUMP JUMPDEST SWAP2 POP PUSH1 0x40 DUP5 ADD CALLDATALOAD PUSH2 0x21B0 DUP2 PUSH2 0x2167 JUMP JUMPDEST DUP1 SWAP2 POP POP SWAP3 POP SWAP3 POP SWAP3 JUMP JUMPDEST PUSH0 DUP1 PUSH1 0x40 DUP4 DUP6 SUB SLT ISZERO PUSH2 0x21CC JUMPI PUSH0 DUP1 REVERT JUMPDEST PUSH2 0x21D5 DUP4 PUSH2 0x214C JUMP JUMPDEST SWAP2 POP PUSH2 0x21E3 PUSH1 0x20 DUP5 ADD PUSH2 0x214C JUMP JUMPDEST SWAP1 POP SWAP3 POP SWAP3 SWAP1 POP JUMP JUMPDEST PUSH0 PUSH1 0x20 DUP3 DUP5 SUB SLT ISZERO PUSH2 0x21FC JUMPI PUSH0 DUP1 REVERT JUMPDEST PUSH2 0x2205 DUP3 PUSH2 0x214C JUMP JUMPDEST SWAP4 SWAP3 POP POP POP JUMP JUMPDEST PUSH0 DUP1 PUSH0 DUP1 PUSH1 0x80 DUP6 DUP8 SUB SLT ISZERO PUSH2 0x221F JUMPI PUSH0 DUP1 REVERT JUMPDEST PUSH2 0x2228 DUP6 PUSH2 0x214C JUMP JUMPDEST SWAP4 POP PUSH2 0x2236 PUSH1 0x20 DUP7 ADD PUSH2 0x214C JUMP JUMPDEST SWAP3 POP PUSH1 0x40 DUP6 ADD CALLDATALOAD SWAP2 POP PUSH2 0x224B PUSH1 0x60 DUP7 ADD PUSH2 0x214C JUMP JUMPDEST SWAP1 POP SWAP3 SWAP6 SWAP2 SWAP5 POP SWAP3 POP JUMP JUMPDEST PUSH0 DUP1 PUSH1 0x40 DUP4 DUP6 SUB SLT ISZERO PUSH2 0x2267 JUMPI PUSH0 DUP1 REVERT JUMPDEST PUSH2 0x2270 DUP4 PUSH2 0x214C JUMP JUMPDEST SWAP5 PUSH1 0x20 SWAP4 SWAP1 SWAP4 ADD CALLDATALOAD SWAP4 POP POP POP JUMP JUMPDEST DUP1 CALLDATALOAD PUSH2 0xFFFF DUP2 AND DUP2 EQ PUSH2 0x2162 JUMPI PUSH0 DUP1 REVERT JUMPDEST PUSH0 DUP1 PUSH1 0x40 DUP4 DUP6 SUB SLT ISZERO PUSH2 0x22A0 JUMPI PUSH0 DUP1 REVERT JUMPDEST PUSH2 0x22A9 DUP4 PUSH2 0x227E JUMP JUMPDEST SWAP2 POP PUSH2 0x21E3 PUSH1 0x20 DUP5 ADD PUSH2 0x227E JUMP JUMPDEST PUSH0 PUSH1 0x20 DUP3 DUP5 SUB SLT ISZERO PUSH2 0x22C7 JUMPI PUSH0 DUP1 REVERT JUMPDEST POP CALLDATALOAD SWAP2 SWAP1 POP JUMP JUMPDEST PUSH4 0x4E487B71 PUSH1 0xE0 SHL PUSH0 MSTORE PUSH1 0x32 PUSH1 0x4 MSTORE PUSH1 0x24 PUSH0 REVERT JUMPDEST PUSH0 PUSH1 0x20 DUP3 DUP5 SUB SLT ISZERO PUSH2 0x22F2 JUMPI PUSH0 DUP1 REVERT JUMPDEST POP MLOAD SWAP2 SWAP1 POP JUMP JUMPDEST PUSH0 PUSH1 0x20 DUP3 DUP5 SUB SLT ISZERO PUSH2 0x2309 JUMPI PUSH0 DUP1 REVERT JUMPDEST DUP2 MLOAD PUSH2 0x2205 DUP2 PUSH2 0x2167 JUMP JUMPDEST PUSH4 0x4E487B71 PUSH1 0xE0 SHL PUSH0 MSTORE PUSH1 0x11 PUSH1 0x4 MSTORE PUSH1 0x24 PUSH0 REVERT JUMPDEST PUSH1 0x1 DUP2 DUP2 JUMPDEST DUP1 DUP6 GT ISZERO PUSH2 0x2362 JUMPI DUP2 PUSH0 NOT DIV DUP3 GT ISZERO PUSH2 0x2348 JUMPI PUSH2 0x2348 PUSH2 0x2314 JUMP JUMPDEST DUP1 DUP6 AND ISZERO PUSH2 0x2355 JUMPI SWAP2 DUP2 MUL SWAP2 JUMPDEST SWAP4 DUP5 SHR SWAP4 SWAP1 DUP1 MUL SWAP1 PUSH2 0x232D JUMP JUMPDEST POP SWAP3 POP SWAP3 SWAP1 POP JUMP JUMPDEST PUSH0 DUP3 PUSH2 0x2378 JUMPI POP PUSH1 0x1 PUSH2 0x144A JUMP JUMPDEST DUP2 PUSH2 0x2384 JUMPI POP PUSH0 PUSH2 0x144A JUMP JUMPDEST DUP2 PUSH1 0x1 DUP2 EQ PUSH2 0x239A JUMPI PUSH1 0x2 DUP2 EQ PUSH2 0x23A4 JUMPI PUSH2 0x23C0 JUMP JUMPDEST PUSH1 0x1 SWAP2 POP POP PUSH2 0x144A JUMP JUMPDEST PUSH1 0xFF DUP5 GT ISZERO PUSH2 0x23B5 JUMPI PUSH2 0x23B5 PUSH2 0x2314 JUMP JUMPDEST POP POP PUSH1 0x1 DUP3 SHL PUSH2 0x144A JUMP JUMPDEST POP PUSH1 0x20 DUP4 LT PUSH2 0x133 DUP4 LT AND PUSH1 0x4E DUP5 LT PUSH1 0xB DUP5 LT AND OR ISZERO PUSH2 0x23E3 JUMPI POP DUP2 DUP2 EXP PUSH2 0x144A JUMP JUMPDEST PUSH2 0x23ED DUP4 DUP4 PUSH2 0x2328 JUMP JUMPDEST DUP1 PUSH0 NOT DIV DUP3 GT ISZERO PUSH2 0x2400 JUMPI PUSH2 0x2400 PUSH2 0x2314 JUMP JUMPDEST MUL SWAP4 SWAP3 POP POP POP JUMP JUMPDEST PUSH0 PUSH2 0x2205 PUSH1 0xFF DUP5 AND DUP4 PUSH2 0x236A JUMP JUMPDEST DUP1 DUP3 MUL DUP2 ISZERO DUP3 DUP3 DIV DUP5 EQ OR PUSH2 0x144A JUMPI PUSH2 0x144A PUSH2 0x2314 JUMP JUMPDEST PUSH0 DUP3 PUSH2 0x2447 JUMPI PUSH4 0x4E487B71 PUSH1 0xE0 SHL PUSH0 MSTORE PUSH1 0x12 PUSH1 0x4 MSTORE PUSH1 0x24 PUSH0 REVERT JUMPDEST POP DIV SWAP1 JUMP JUMPDEST DUP1 DUP3 ADD DUP1 DUP3 GT ISZERO PUSH2 0x144A JUMPI PUSH2 0x144A PUSH2 0x2314 JUMP JUMPDEST DUP2 DUP2 SUB DUP2 DUP2 GT ISZERO PUSH2 0x144A JUMPI PUSH2 0x144A PUSH2 0x2314 JUMP JUMPDEST PUSH2 0xFFFF DUP2 DUP2 AND DUP4 DUP3 AND ADD SWAP1 DUP1 DUP3 GT ISZERO PUSH2 0x248D JUMPI PUSH2 0x248D PUSH2 0x2314 JUMP JUMPDEST POP SWAP3 SWAP2 POP POP JUMP INVALID LOG1 PUSH5 0x736F6C6343 STOP ADDMOD XOR STOP EXP "},"gasEstimates":{"creation":{"codeDepositCost":"1875400","executionCost":"infinite","totalCost":"infinite"},"external":{"addAllowedToken(address,uint8,uint8)":"infinite","allowedTokens(uint256)":"4679","allowedTokensLength()":"2359","closeFactorBps()":"2408","collateralBalances(address,address)":"infinite","deposit(address,uint256)":"infinite","getCollateralValueUSD(address)":"infinite","getCollateralValueUSDByToken(address,address)":"infinite","getHealthFactor(address)":"infinite","getMaxLoanAllowedUSD(address)":"infinite","getUserCollateralData(address)":"infinite","liquidate(address,address,uint256,address)":"infinite","liquidationBonusBps()":"2365","loanManager()":"2403","owner()":"2396","priceOracle()":"2427","renounceOwnership()":"infinite","setLiquidationParams(uint16,uint16)":"infinite","setLoanManager(address)":"26856","setPriceOracle(address)":"26834","tokenConfig(address)":"2713","transferOwnership(address)":"28373","updateTokenLTV(address,uint8,uint8)":"infinite","withdraw(address,uint256)":"infinite","withdrawAllCollateral()":"infinite"},"internal":{"_repayAndComputeSeize(address,address,uint256,address,uint256)":"infinite","getWeightedLiquidationThreshold(address)":"infinite"}},"methodIdentifiers":{"addAllowedToken(address,uint8,uint8)":"b341c2be","allowedTokens(uint256)":"5e5f2e26","allowedTokensLength()":"4565e5ef","closeFactorBps()":"4654440b","collateralBalances(address,address)":"39ecf9ba","deposit(address,uint256)":"47e7ef24","getCollateralValueUSD(address)":"3a5d0a48","getCollateralValueUSDByToken(address,address)":"dc627c6f","getHealthFactor(address)":"fe6bcd7c","getMaxLoanAllowedUSD(address)":"3b4cc656","getUserCollateralData(address)":"b01edbd7","liquidate(address,address,uint256,address)":"3de2f6b2","liquidationBonusBps()":"19970d8e","loanManager()":"b3ccbcfe","owner()":"8da5cb5b","priceOracle()":"2630c12f","renounceOwnership()":"715018a6","setLiquidationParams(uint16,uint16)":"5a4b5a7c","setLoanManager(address)":"5772ae70","setPriceOracle(address)":"530e784f","tokenConfig(address)":"fe136c4e","transferOwnership(address)":"f2fde38b","updateTokenLTV(address,uint8,uint8)":"1a9f21fb","withdraw(address,uint256)":"f3fef3a3","withdrawAllCollateral()":"73749567"}},"storageLayout":{"storage":[{"astId":8,"contract":"contracts/CollateralManager.sol:CollateralManager","label":"_owner","offset":0,"slot":"0","type":"t_address"},{"astId":1498,"contract":"contracts/CollateralManager.sol:CollateralManager","label":"_status","offset":0,"slot":"1","type":"t_uint256"},{"astId":1635,"contract":"contracts/CollateralManager.sol:CollateralManager","label":"collateralBalances","offset":0,"slot":"2","type":"t_mapping(t_address,t_mapping(t_address,t_uint256))"},{"astId":1640,"contract":"contracts/CollateralManager.sol:CollateralManager","label":"tokenConfig","offset":0,"slot":"3","type":"t_mapping(t_address,t_struct(CollateralConfig)1629_storage)"},{"astId":1643,"contract":"contracts/CollateralManager.sol:CollateralManager","label":"allowedTokens","offset":0,"slot":"4","type":"t_array(t_address)dyn_storage"},{"astId":1646,"contract":"contracts/CollateralManager.sol:CollateralManager","label":"priceOracle","offset":0,"slot":"5","type":"t_contract(IPriceOracle)1582"},{"astId":1649,"contract":"contracts/CollateralManager.sol:CollateralManager","label":"loanManager","offset":0,"slot":"6","type":"t_contract(ILoanManager)1614"},{"astId":1652,"contract":"contracts/CollateralManager.sol:CollateralManager","label":"closeFactorBps","offset":20,"slot":"6","type":"t_uint16"},{"astId":1655,"contract":"contracts/CollateralManager.sol:CollateralManager","label":"liquidationBonusBps","offset":22,"slot":"6","type":"t_uint16"}],"types":{"t_address":{"encoding":"inplace","label":"address","numberOfBytes":"20"},"t_array(t_address)dyn_storage":{"base":"t_address","encoding":"dynamic_array","label":"address[]","numberOfBytes":"32"},"t_bool":{"encoding":"inplace","label":"bool","numberOfBytes":"1"},"t_contract(ILoanManager)1614":{"encoding":"inplace","label":"contract ILoanManager","numberOfBytes":"20"},"t_contract(IPriceOracle)1582":{"encoding":"inplace","label":"contract IPriceOracle","numberOfBytes":"20"},"t_mapping(t_address,t_mapping(t_address,t_uint256))":{"encoding":"mapping","key":"t_address","label":"mapping(address => mapping(address => uint256))","numberOfBytes":"32","value":"t_mapping(t_address,t_uint256)"},"t_mapping(t_address,t_struct(CollateralConfig)1629_storage)":{"encoding":"mapping","key":"t_address","label":"mapping(address => struct CollateralManager.CollateralConfig)","numberOfBytes":"32","value":"t_struct(CollateralConfig)1629_storage"},"t_mapping(t_address,t_uint256)":{"encoding":"mapping","key":"t_address","label":"mapping(address => uint256)","numberOfBytes":"32","value":"t_uint256"},"t_struct(CollateralConfig)1629_storage":{"encoding":"inplace","label":"struct CollateralManager.CollateralConfig","members":[{"astId":1624,"contract":"contracts/CollateralManager.sol:CollateralManager","label":"allowed","offset":0,"slot":"0","type":"t_bool"},{"astId":1626,"contract":"contracts/CollateralManager.sol:CollateralManager","label":"ltv","offset":1,"slot":"0","type":"t_uint8"},{"astId":1628,"contract":"contracts/CollateralManager.sol:CollateralManager","label":"liquidationThreshold","offset":2,"slot":"0","type":"t_uint8"}],"numberOfBytes":"32"},"t_uint16":{"encoding":"inplace","label":"uint16","numberOfBytes":"2"},"t_uint256":{"encoding":"inplace","label":"uint256","numberOfBytes":"32"},"t_uint8":{"encoding":"inplace","label":"uint8","numberOfBytes":"1"}}},"userdoc":{"kind":"user","methods":{"getUserCollateralData(address)":{"notice":"Dashboard tổng hợp cho UI"},"withdrawAllCollateral()":{"notice":"Rút toàn bộ tài sản thế chấp (khi không còn nợ)"}},"version":1}}}}