{"contracts/RewardsDistributor.sol":{"RewardsDistributor":{"abi":[{"inputs":[{"internalType":"address","name":"_rewardToken","type":"address"},{"internalType":"address","name":"_owner","type":"address"},{"internalType":"address","name":"_pointsManager","type":"address"}],"stateMutability":"nonpayable","type":"constructor"},{"inputs":[{"internalType":"address","name":"owner","type":"address"}],"name":"OwnableInvalidOwner","type":"error"},{"inputs":[{"internalType":"address","name":"account","type":"address"}],"name":"OwnableUnauthorizedAccount","type":"error"},{"inputs":[{"internalType":"address","name":"token","type":"address"}],"name":"SafeERC20FailedOperation","type":"error"},{"anonymous":false,"inputs":[{"indexed":false,"internalType":"uint256","name":"newBorrowWeightBps","type":"uint256"}],"name":"BorrowWeightUpdated","type":"event"},{"anonymous":false,"inputs":[{"indexed":false,"internalType":"uint256","name":"newEmissionPerSec","type":"uint256"}],"name":"EmissionUpdated","type":"event"},{"anonymous":false,"inputs":[{"indexed":true,"internalType":"address","name":"funder","type":"address"},{"indexed":false,"internalType":"uint256","name":"amount","type":"uint256"}],"name":"Funded","type":"event"},{"anonymous":false,"inputs":[{"indexed":true,"internalType":"address","name":"previousOwner","type":"address"},{"indexed":true,"internalType":"address","name":"newOwner","type":"address"}],"name":"OwnershipTransferred","type":"event"},{"anonymous":false,"inputs":[{"indexed":true,"internalType":"address","name":"newManager","type":"address"}],"name":"PointsManagerUpdated","type":"event"},{"anonymous":false,"inputs":[{"indexed":true,"internalType":"address","name":"user","type":"address"},{"indexed":false,"internalType":"uint256","name":"newPoints","type":"uint256"}],"name":"PointsUpdated","type":"event"},{"anonymous":false,"inputs":[{"indexed":true,"internalType":"address","name":"user","type":"address"},{"indexed":false,"internalType":"uint256","name":"amount","type":"uint256"}],"name":"RewardsClaimed","type":"event"},{"inputs":[],"name":"accRewardPerPoint","outputs":[{"internalType":"uint256","name":"","type":"uint256"}],"stateMutability":"view","type":"function"},{"inputs":[],"name":"borrowWeightBps","outputs":[{"internalType":"uint256","name":"","type":"uint256"}],"stateMutability":"view","type":"function"},{"inputs":[{"internalType":"address","name":"user","type":"address"}],"name":"claim","outputs":[{"internalType":"uint256","name":"","type":"uint256"}],"stateMutability":"nonpayable","type":"function"},{"inputs":[{"internalType":"address","name":"user","type":"address"},{"internalType":"address","name":"recipient","type":"address"}],"name":"claim","outputs":[{"internalType":"uint256","name":"","type":"uint256"}],"stateMutability":"nonpayable","type":"function"},{"inputs":[],"name":"claimForSelf","outputs":[{"internalType":"uint256","name":"","type":"uint256"}],"stateMutability":"nonpayable","type":"function"},{"inputs":[],"name":"emissionPerSec","outputs":[{"internalType":"uint256","name":"","type":"uint256"}],"stateMutability":"view","type":"function"},{"inputs":[{"internalType":"uint256","name":"amount","type":"uint256"}],"name":"fund","outputs":[],"stateMutability":"nonpayable","type":"function"},{"inputs":[],"name":"lastUpdate","outputs":[{"internalType":"uint256","name":"","type":"uint256"}],"stateMutability":"view","type":"function"},{"inputs":[{"internalType":"address","name":"user","type":"address"},{"internalType":"uint256","name":"usdSupplied","type":"uint256"},{"internalType":"uint256","name":"usdBorrowed","type":"uint256"}],"name":"onAction","outputs":[],"stateMutability":"nonpayable","type":"function"},{"inputs":[],"name":"owner","outputs":[{"internalType":"address","name":"","type":"address"}],"stateMutability":"view","type":"function"},{"inputs":[{"internalType":"address","name":"user","type":"address"}],"name":"pendingRewards","outputs":[{"internalType":"uint256","name":"","type":"uint256"}],"stateMutability":"view","type":"function"},{"inputs":[],"name":"pointsManager","outputs":[{"internalType":"address","name":"","type":"address"}],"stateMutability":"view","type":"function"},{"inputs":[],"name":"renounceOwnership","outputs":[],"stateMutability":"nonpayable","type":"function"},{"inputs":[],"name":"rewardToken","outputs":[{"internalType":"contract IERC20","name":"","type":"address"}],"stateMutability":"view","type":"function"},{"inputs":[{"internalType":"uint256","name":"newWeightBps","type":"uint256"}],"name":"setBorrowWeightBps","outputs":[],"stateMutability":"nonpayable","type":"function"},{"inputs":[{"internalType":"uint256","name":"perSec","type":"uint256"}],"name":"setEmissionPerSec","outputs":[],"stateMutability":"nonpayable","type":"function"},{"inputs":[{"internalType":"address","name":"manager","type":"address"}],"name":"setPointsManager","outputs":[],"stateMutability":"nonpayable","type":"function"},{"inputs":[],"name":"totalPoints","outputs":[{"internalType":"uint256","name":"","type":"uint256"}],"stateMutability":"view","type":"function"},{"inputs":[{"internalType":"address","name":"newOwner","type":"address"}],"name":"transferOwnership","outputs":[],"stateMutability":"nonpayable","type":"function"},{"inputs":[{"internalType":"address","name":"","type":"address"}],"name":"users","outputs":[{"internalType":"uint256","name":"points","type":"uint256"},{"internalType":"uint256","name":"rewardDebt","type":"uint256"},{"internalType":"uint256","name":"pending","type":"uint256"}],"stateMutability":"view","type":"function"}],"devdoc":{"errors":{"OwnableInvalidOwner(address)":[{"details":"The owner is not a valid owner account. (eg. `address(0)`)"}],"OwnableUnauthorizedAccount(address)":[{"details":"The caller account is not authorized to perform an operation."}],"SafeERC20FailedOperation(address)":[{"details":"An operation with an ERC-20 token failed."}]},"kind":"dev","methods":{"owner()":{"details":"Returns the address of the current owner."},"renounceOwnership()":{"details":"Leaves the contract without owner. It will not be possible to call `onlyOwner` functions. Can only be called by the current owner. NOTE: Renouncing ownership will leave the contract without an owner, thereby disabling any functionality that is only available to the owner."},"transferOwnership(address)":{"details":"Transfers ownership of the contract to a new account (`newOwner`). Can only be called by the current owner."}},"version":1},"evm":{"bytecode":{"linkReferences":{},"object":"60a0604052613a9860035534801562000016575f80fd5b506040516200109038038062001090833981016040819052620000399162000152565b816001600160a01b0381166200006957604051631e4fbdf760e01b81525f60048201526024015b60405180910390fd5b6200007481620000e7565b506001600160a01b038316620000b85760405162461bcd60e51b815260206004820152600860248201526707265776172643d360c41b604482015260640162000060565b6001600160a01b03928316608052600180546001600160a01b0319169190931617909155504260065562000199565b5f80546001600160a01b038381166001600160a01b0319831681178455604051919092169283917f8be0079c531659141344cd1fd0a4f28419497f9722a3daafe3b4186f6b6457e09190a35050565b80516001600160a01b03811681146200014d575f80fd5b919050565b5f805f6060848603121562000165575f80fd5b620001708462000136565b9250620001806020850162000136565b9150620001906040850162000136565b90509250925092565b608051610ec9620001c75f395f81816102e80152818161082801528181610a150152610aba0152610ec95ff3fe608060405234801561000f575f80fd5b5060043610610162575f3560e01c80638da5cb5b116100c7578063ca0caf9d1161007d578063cae42a0811610063578063cae42a08146102bd578063f2fde38b146102d0578063f7c618c1146102e3575f80fd5b8063ca0caf9d14610297578063ca1d209d146102aa575f80fd5b8063904b5f03116100ad578063904b5f0314610232578063a87430ba14610245578063c04637111461028e575f80fd5b80638da5cb5b146102055780638eeddedd14610229575f80fd5b80634c7ba87a1161011c57806370addc3b1161010257806370addc3b146101e1578063715018a6146101ea5780638662f382146101f2575f80fd5b80634c7ba87a146101c3578063567142be146101d8575f80fd5b80631e83409a1161014c5780631e83409a1461018a57806321c0b3421461019d57806331d7a262146101b0575f80fd5b80628ef7cf146101665780630dc65d9614610181575b5f80fd5b61016e61030a565b6040519081526020015b60405180910390f35b61016e60035481565b61016e610198366004610da4565b61031a565b61016e6101ab366004610dbd565b61037a565b61016e6101be366004610da4565b610396565b6101d66101d1366004610dee565b6104a5565b005b61016e60045481565b61016e60025481565b6101d66104f1565b6101d6610200366004610dee565b610504565b5f546001600160a01b03165b6040516001600160a01b039091168152602001610178565b61016e60055481565b600154610211906001600160a01b031681565b610273610253366004610da4565b60076020525f908152604090208054600182015460029092015490919083565b60408051938452602084019290925290820152606001610178565b61016e60065481565b6101d66102a5366004610e05565b610593565b6101d66102b8366004610dee565b610813565b6101d66102cb366004610da4565b610888565b6101d66102de366004610da4565b6108e6565b6102117f000000000000000000000000000000000000000000000000000000000000000081565b5f6103153333610923565b905090565b6001545f906001600160a01b031633146103695760405162461bcd60e51b815260206004820152600b60248201526a2737ba1036b0b730b3b2b960a91b60448201526064015b60405180910390fd5b61037282610b5a565b90505b919050565b5f610383610b65565b61038d8383610923565b90505b92915050565b6001600160a01b0381165f9081526007602090815260408083208151606081018352815481526001820154938101939093526002015490820152600554600654421180156103e557505f600254115b80156103f257505f600454115b15610448575f600654426104069190610e49565b90505f816002546104179190610e5c565b60045490915061042f670de0b6b3a764000083610e5c565b6104399190610e73565b6104439084610e92565b925050505b5f670de0b6b3a764000082845f01516104619190610e5c565b61046b9190610e73565b604084015160208501519192509082111561049c57602084015161048f9083610e49565b6104999082610e92565b90505b95945050505050565b6104ad610b65565b6104b5610b91565b60028190556040518181527fb114240d54ce08081cbd18870dc3b6cd4091bb86ff29d2ad41906c2a2d6723d4906020015b60405180910390a150565b6104f9610b65565b6105025f610c13565b565b61050c610b65565b61271081101561055e5760405162461bcd60e51b815260206004820152600e60248201527f57656967687420746f6f206c6f770000000000000000000000000000000000006044820152606401610360565b60038190556040518181527f8d7de63f70d1051c944578f00a1f27f8c93e824e564ac194835418e18f975801906020016104e6565b6001546001600160a01b031633146105db5760405162461bcd60e51b815260206004820152600b60248201526a2737ba1036b0b730b3b2b960a91b6044820152606401610360565b6001600160a01b0383166106315760405162461bcd60e51b815260206004820152600660248201527f757365723d3000000000000000000000000000000000000000000000000000006044820152606401610360565b610639610b91565b5f6127106003548361064b9190610e5c565b6106559190610e73565b90505f6106628285610e92565b610671906402540be400610e5c565b6001600160a01b0386165f90815260076020526040902080549192509082036106c4576005548154670de0b6b3a7640000916106ac91610e5c565b6106b69190610e73565b6001909101555061080e9050565b805415610727575f670de0b6b3a7640000600554835f01546106e69190610e5c565b6106f09190610e73565b9050816001015481111561072557600182015461070d9082610e49565b826002015f82825461071f9190610e92565b90915550505b505b805460045410156107865760405162461bcd60e51b8152602060048201526024808201527f496e76617269616e743a20746f74616c506f696e7473203c207573657220706f604482015263696e747360e01b6064820152608401610360565b8054600454839161079691610e49565b6107a09190610e92565b600455818155600554670de0b6b3a7640000906107bd9084610e5c565b6107c79190610e73565b60018201556040518281526001600160a01b038716907fa05f39e6d8d4e060324edb900f0f5909de621fd93f19ccf65ba74e5965c98c369060200160405180910390a25050505b505050565b61081b610b65565b6108506001600160a01b037f000000000000000000000000000000000000000000000000000000000000000016333084610c6f565b60405181815233907f5af8184bef8e4b45eb9f6ed7734d04da38ced226495548f46e0c8ff8d7d9a5249060200160405180910390a250565b610890610b65565b6001805473ffffffffffffffffffffffffffffffffffffffff19166001600160a01b0383169081179091556040517f7619eb3b0b2346250e2839a10da35fc58eea3632c6f045e8abffa1864bce2551905f90a250565b6108ee610b65565b6001600160a01b03811661091757604051631e4fbdf760e01b81525f6004820152602401610360565b61092081610c13565b50565b5f6001600160a01b03821661097a5760405162461bcd60e51b815260206004820152600b60248201527f726563697069656e743d300000000000000000000000000000000000000000006044820152606401610360565b610982610b91565b6001600160a01b0383165f9081526007602052604081206005548154919291670de0b6b3a7640000916109b491610e5c565b6109be9190610e73565b905081600101548111156109f35760018201546109db9082610e49565b826002015f8282546109ed9190610e92565b90915550505b60028201548015610b26576040516370a0823160e01b81523060048201525f907f00000000000000000000000000000000000000000000000000000000000000006001600160a01b0316906370a0823190602401602060405180830381865afa158015610a62573d5f803e3d5ffd5b505050506040513d601f19601f82011682018060405250810190610a869190610ea5565b905080821115610a94578091505b81846002015f828254610aa79190610e49565b90915550610ae190506001600160a01b037f0000000000000000000000000000000000000000000000000000000000000000168784610cf1565b866001600160a01b03167ffc30cddea38e2bf4d6ea7d3f9ed3b6ad7f176419f4963bd81318067a4aee73fe83604051610b1c91815260200190565b60405180910390a2505b6005548354670de0b6b3a764000091610b3e91610e5c565b610b489190610e73565b60019093019290925550905092915050565b5f6103728283610923565b5f546001600160a01b031633146105025760405163118cdaa760e01b8152336004820152602401610360565b6006544211610b9c57565b5f600454118015610bae57505f600254115b15610c0d575f60065442610bc29190610e49565b90505f81600254610bd39190610e5c565b600454909150610beb670de0b6b3a764000083610e5c565b610bf59190610e73565b60055f828254610c059190610e92565b909155505050505b42600655565b5f80546001600160a01b0383811673ffffffffffffffffffffffffffffffffffffffff19831681178455604051919092169283917f8be0079c531659141344cd1fd0a4f28419497f9722a3daafe3b4186f6b6457e09190a35050565b6040516001600160a01b038481166024830152838116604483015260648201839052610ceb9186918216906323b872dd906084015b604051602081830303815290604052915060e01b6020820180517bffffffffffffffffffffffffffffffffffffffffffffffffffffffff8381831617835250505050610d22565b50505050565b6040516001600160a01b0383811660248301526044820183905261080e91859182169063a9059cbb90606401610ca4565b5f8060205f8451602086015f885af180610d41576040513d5f823e3d81fd5b50505f513d91508115610d58578060011415610d65565b6001600160a01b0384163b155b15610ceb57604051635274afe760e01b81526001600160a01b0385166004820152602401610360565b80356001600160a01b0381168114610375575f80fd5b5f60208284031215610db4575f80fd5b61038d82610d8e565b5f8060408385031215610dce575f80fd5b610dd783610d8e565b9150610de560208401610d8e565b90509250929050565b5f60208284031215610dfe575f80fd5b5035919050565b5f805f60608486031215610e17575f80fd5b610e2084610d8e565b95602085013595506040909401359392505050565b634e487b7160e01b5f52601160045260245ffd5b8181038181111561039057610390610e35565b808202811582820484141761039057610390610e35565b5f82610e8d57634e487b7160e01b5f52601260045260245ffd5b500490565b8082018082111561039057610390610e35565b5f60208284031215610eb5575f80fd5b505191905056fea164736f6c6343000818000a","opcodes":"PUSH1 0xA0 PUSH1 0x40 MSTORE PUSH2 0x3A98 PUSH1 0x3 SSTORE CALLVALUE DUP1 ISZERO PUSH3 0x16 JUMPI PUSH0 DUP1 REVERT JUMPDEST POP PUSH1 0x40 MLOAD PUSH3 0x1090 CODESIZE SUB DUP1 PUSH3 0x1090 DUP4 CODECOPY DUP2 ADD PUSH1 0x40 DUP2 SWAP1 MSTORE PUSH3 0x39 SWAP2 PUSH3 0x152 JUMP JUMPDEST DUP2 PUSH1 0x1 PUSH1 0x1 PUSH1 0xA0 SHL SUB DUP2 AND PUSH3 0x69 JUMPI PUSH1 0x40 MLOAD PUSH4 0x1E4FBDF7 PUSH1 0xE0 SHL DUP2 MSTORE PUSH0 PUSH1 0x4 DUP3 ADD MSTORE PUSH1 0x24 ADD JUMPDEST PUSH1 0x40 MLOAD DUP1 SWAP2 SUB SWAP1 REVERT JUMPDEST PUSH3 0x74 DUP2 PUSH3 0xE7 JUMP JUMPDEST POP PUSH1 0x1 PUSH1 0x1 PUSH1 0xA0 SHL SUB DUP4 AND PUSH3 0xB8 JUMPI PUSH1 0x40 MLOAD PUSH3 0x461BCD PUSH1 0xE5 SHL DUP2 MSTORE PUSH1 0x20 PUSH1 0x4 DUP3 ADD MSTORE PUSH1 0x8 PUSH1 0x24 DUP3 ADD MSTORE PUSH8 0x7265776172643D3 PUSH1 0xC4 SHL PUSH1 0x44 DUP3 ADD MSTORE PUSH1 0x64 ADD PUSH3 0x60 JUMP JUMPDEST PUSH1 0x1 PUSH1 0x1 PUSH1 0xA0 SHL SUB SWAP3 DUP4 AND PUSH1 0x80 MSTORE PUSH1 0x1 DUP1 SLOAD PUSH1 0x1 PUSH1 0x1 PUSH1 0xA0 SHL SUB NOT AND SWAP2 SWAP1 SWAP4 AND OR SWAP1 SWAP2 SSTORE POP TIMESTAMP PUSH1 0x6 SSTORE PUSH3 0x199 JUMP JUMPDEST PUSH0 DUP1 SLOAD PUSH1 0x1 PUSH1 0x1 PUSH1 0xA0 SHL SUB DUP4 DUP2 AND PUSH1 0x1 PUSH1 0x1 PUSH1 0xA0 SHL SUB NOT DUP4 AND DUP2 OR DUP5 SSTORE PUSH1 0x40 MLOAD SWAP2 SWAP1 SWAP3 AND SWAP3 DUP4 SWAP2 PUSH32 0x8BE0079C531659141344CD1FD0A4F28419497F9722A3DAAFE3B4186F6B6457E0 SWAP2 SWAP1 LOG3 POP POP JUMP JUMPDEST DUP1 MLOAD PUSH1 0x1 PUSH1 0x1 PUSH1 0xA0 SHL SUB DUP2 AND DUP2 EQ PUSH3 0x14D JUMPI PUSH0 DUP1 REVERT JUMPDEST SWAP2 SWAP1 POP JUMP JUMPDEST PUSH0 DUP1 PUSH0 PUSH1 0x60 DUP5 DUP7 SUB SLT ISZERO PUSH3 0x165 JUMPI PUSH0 DUP1 REVERT JUMPDEST PUSH3 0x170 DUP5 PUSH3 0x136 JUMP JUMPDEST SWAP3 POP PUSH3 0x180 PUSH1 0x20 DUP6 ADD PUSH3 0x136 JUMP JUMPDEST SWAP2 POP PUSH3 0x190 PUSH1 0x40 DUP6 ADD PUSH3 0x136 JUMP JUMPDEST SWAP1 POP SWAP3 POP SWAP3 POP SWAP3 JUMP JUMPDEST PUSH1 0x80 MLOAD PUSH2 0xEC9 PUSH3 0x1C7 PUSH0 CODECOPY PUSH0 DUP2 DUP2 PUSH2 0x2E8 ADD MSTORE DUP2 DUP2 PUSH2 0x828 ADD MSTORE DUP2 DUP2 PUSH2 0xA15 ADD MSTORE PUSH2 0xABA ADD MSTORE PUSH2 0xEC9 PUSH0 RETURN INVALID PUSH1 0x80 PUSH1 0x40 MSTORE CALLVALUE DUP1 ISZERO PUSH2 0xF JUMPI PUSH0 DUP1 REVERT JUMPDEST POP PUSH1 0x4 CALLDATASIZE LT PUSH2 0x162 JUMPI PUSH0 CALLDATALOAD PUSH1 0xE0 SHR DUP1 PUSH4 0x8DA5CB5B GT PUSH2 0xC7 JUMPI DUP1 PUSH4 0xCA0CAF9D GT PUSH2 0x7D JUMPI DUP1 PUSH4 0xCAE42A08 GT PUSH2 0x63 JUMPI DUP1 PUSH4 0xCAE42A08 EQ PUSH2 0x2BD JUMPI DUP1 PUSH4 0xF2FDE38B EQ PUSH2 0x2D0 JUMPI DUP1 PUSH4 0xF7C618C1 EQ PUSH2 0x2E3 JUMPI PUSH0 DUP1 REVERT JUMPDEST DUP1 PUSH4 0xCA0CAF9D EQ PUSH2 0x297 JUMPI DUP1 PUSH4 0xCA1D209D EQ PUSH2 0x2AA JUMPI PUSH0 DUP1 REVERT JUMPDEST DUP1 PUSH4 0x904B5F03 GT PUSH2 0xAD JUMPI DUP1 PUSH4 0x904B5F03 EQ PUSH2 0x232 JUMPI DUP1 PUSH4 0xA87430BA EQ PUSH2 0x245 JUMPI DUP1 PUSH4 0xC0463711 EQ PUSH2 0x28E JUMPI PUSH0 DUP1 REVERT JUMPDEST DUP1 PUSH4 0x8DA5CB5B EQ PUSH2 0x205 JUMPI DUP1 PUSH4 0x8EEDDEDD EQ PUSH2 0x229 JUMPI PUSH0 DUP1 REVERT JUMPDEST DUP1 PUSH4 0x4C7BA87A GT PUSH2 0x11C JUMPI DUP1 PUSH4 0x70ADDC3B GT PUSH2 0x102 JUMPI DUP1 PUSH4 0x70ADDC3B EQ PUSH2 0x1E1 JUMPI DUP1 PUSH4 0x715018A6 EQ PUSH2 0x1EA JUMPI DUP1 PUSH4 0x8662F382 EQ PUSH2 0x1F2 JUMPI PUSH0 DUP1 REVERT JUMPDEST DUP1 PUSH4 0x4C7BA87A EQ PUSH2 0x1C3 JUMPI DUP1 PUSH4 0x567142BE EQ PUSH2 0x1D8 JUMPI PUSH0 DUP1 REVERT JUMPDEST DUP1 PUSH4 0x1E83409A GT PUSH2 0x14C JUMPI DUP1 PUSH4 0x1E83409A EQ PUSH2 0x18A JUMPI DUP1 PUSH4 0x21C0B342 EQ PUSH2 0x19D JUMPI DUP1 PUSH4 0x31D7A262 EQ PUSH2 0x1B0 JUMPI PUSH0 DUP1 REVERT JUMPDEST DUP1 PUSH3 0x8EF7CF EQ PUSH2 0x166 JUMPI DUP1 PUSH4 0xDC65D96 EQ PUSH2 0x181 JUMPI JUMPDEST PUSH0 DUP1 REVERT JUMPDEST PUSH2 0x16E PUSH2 0x30A JUMP JUMPDEST PUSH1 0x40 MLOAD SWAP1 DUP2 MSTORE PUSH1 0x20 ADD JUMPDEST PUSH1 0x40 MLOAD DUP1 SWAP2 SUB SWAP1 RETURN JUMPDEST PUSH2 0x16E PUSH1 0x3 SLOAD DUP2 JUMP JUMPDEST PUSH2 0x16E PUSH2 0x198 CALLDATASIZE PUSH1 0x4 PUSH2 0xDA4 JUMP JUMPDEST PUSH2 0x31A JUMP JUMPDEST PUSH2 0x16E PUSH2 0x1AB CALLDATASIZE PUSH1 0x4 PUSH2 0xDBD JUMP JUMPDEST PUSH2 0x37A JUMP JUMPDEST PUSH2 0x16E PUSH2 0x1BE CALLDATASIZE PUSH1 0x4 PUSH2 0xDA4 JUMP JUMPDEST PUSH2 0x396 JUMP JUMPDEST PUSH2 0x1D6 PUSH2 0x1D1 CALLDATASIZE PUSH1 0x4 PUSH2 0xDEE JUMP JUMPDEST PUSH2 0x4A5 JUMP JUMPDEST STOP JUMPDEST PUSH2 0x16E PUSH1 0x4 SLOAD DUP2 JUMP JUMPDEST PUSH2 0x16E PUSH1 0x2 SLOAD DUP2 JUMP JUMPDEST PUSH2 0x1D6 PUSH2 0x4F1 JUMP JUMPDEST PUSH2 0x1D6 PUSH2 0x200 CALLDATASIZE PUSH1 0x4 PUSH2 0xDEE JUMP JUMPDEST PUSH2 0x504 JUMP JUMPDEST PUSH0 SLOAD PUSH1 0x1 PUSH1 0x1 PUSH1 0xA0 SHL SUB AND JUMPDEST PUSH1 0x40 MLOAD PUSH1 0x1 PUSH1 0x1 PUSH1 0xA0 SHL SUB SWAP1 SWAP2 AND DUP2 MSTORE PUSH1 0x20 ADD PUSH2 0x178 JUMP JUMPDEST PUSH2 0x16E PUSH1 0x5 SLOAD DUP2 JUMP JUMPDEST PUSH1 0x1 SLOAD PUSH2 0x211 SWAP1 PUSH1 0x1 PUSH1 0x1 PUSH1 0xA0 SHL SUB AND DUP2 JUMP JUMPDEST PUSH2 0x273 PUSH2 0x253 CALLDATASIZE PUSH1 0x4 PUSH2 0xDA4 JUMP JUMPDEST PUSH1 0x7 PUSH1 0x20 MSTORE PUSH0 SWAP1 DUP2 MSTORE PUSH1 0x40 SWAP1 KECCAK256 DUP1 SLOAD PUSH1 0x1 DUP3 ADD SLOAD PUSH1 0x2 SWAP1 SWAP3 ADD SLOAD SWAP1 SWAP2 SWAP1 DUP4 JUMP JUMPDEST PUSH1 0x40 DUP1 MLOAD SWAP4 DUP5 MSTORE PUSH1 0x20 DUP5 ADD SWAP3 SWAP1 SWAP3 MSTORE SWAP1 DUP3 ADD MSTORE PUSH1 0x60 ADD PUSH2 0x178 JUMP JUMPDEST PUSH2 0x16E PUSH1 0x6 SLOAD DUP2 JUMP JUMPDEST PUSH2 0x1D6 PUSH2 0x2A5 CALLDATASIZE PUSH1 0x4 PUSH2 0xE05 JUMP JUMPDEST PUSH2 0x593 JUMP JUMPDEST PUSH2 0x1D6 PUSH2 0x2B8 CALLDATASIZE PUSH1 0x4 PUSH2 0xDEE JUMP JUMPDEST PUSH2 0x813 JUMP JUMPDEST PUSH2 0x1D6 PUSH2 0x2CB CALLDATASIZE PUSH1 0x4 PUSH2 0xDA4 JUMP JUMPDEST PUSH2 0x888 JUMP JUMPDEST PUSH2 0x1D6 PUSH2 0x2DE CALLDATASIZE PUSH1 0x4 PUSH2 0xDA4 JUMP JUMPDEST PUSH2 0x8E6 JUMP JUMPDEST PUSH2 0x211 PUSH32 0x0 DUP2 JUMP JUMPDEST PUSH0 PUSH2 0x315 CALLER CALLER PUSH2 0x923 JUMP JUMPDEST SWAP1 POP SWAP1 JUMP JUMPDEST PUSH1 0x1 SLOAD PUSH0 SWAP1 PUSH1 0x1 PUSH1 0x1 PUSH1 0xA0 SHL SUB AND CALLER EQ PUSH2 0x369 JUMPI PUSH1 0x40 MLOAD PUSH3 0x461BCD PUSH1 0xE5 SHL DUP2 MSTORE PUSH1 0x20 PUSH1 0x4 DUP3 ADD MSTORE PUSH1 0xB PUSH1 0x24 DUP3 ADD MSTORE PUSH11 0x2737BA1036B0B730B3B2B9 PUSH1 0xA9 SHL PUSH1 0x44 DUP3 ADD MSTORE PUSH1 0x64 ADD JUMPDEST PUSH1 0x40 MLOAD DUP1 SWAP2 SUB SWAP1 REVERT JUMPDEST PUSH2 0x372 DUP3 PUSH2 0xB5A JUMP JUMPDEST SWAP1 POP JUMPDEST SWAP2 SWAP1 POP JUMP JUMPDEST PUSH0 PUSH2 0x383 PUSH2 0xB65 JUMP JUMPDEST PUSH2 0x38D DUP4 DUP4 PUSH2 0x923 JUMP JUMPDEST SWAP1 POP JUMPDEST SWAP3 SWAP2 POP POP JUMP JUMPDEST PUSH1 0x1 PUSH1 0x1 PUSH1 0xA0 SHL SUB DUP2 AND PUSH0 SWAP1 DUP2 MSTORE PUSH1 0x7 PUSH1 0x20 SWAP1 DUP2 MSTORE PUSH1 0x40 DUP1 DUP4 KECCAK256 DUP2 MLOAD PUSH1 0x60 DUP2 ADD DUP4 MSTORE DUP2 SLOAD DUP2 MSTORE PUSH1 0x1 DUP3 ADD SLOAD SWAP4 DUP2 ADD SWAP4 SWAP1 SWAP4 MSTORE PUSH1 0x2 ADD SLOAD SWAP1 DUP3 ADD MSTORE PUSH1 0x5 SLOAD PUSH1 0x6 SLOAD TIMESTAMP GT DUP1 ISZERO PUSH2 0x3E5 JUMPI POP PUSH0 PUSH1 0x2 SLOAD GT JUMPDEST DUP1 ISZERO PUSH2 0x3F2 JUMPI POP PUSH0 PUSH1 0x4 SLOAD GT JUMPDEST ISZERO PUSH2 0x448 JUMPI PUSH0 PUSH1 0x6 SLOAD TIMESTAMP PUSH2 0x406 SWAP2 SWAP1 PUSH2 0xE49 JUMP JUMPDEST SWAP1 POP PUSH0 DUP2 PUSH1 0x2 SLOAD PUSH2 0x417 SWAP2 SWAP1 PUSH2 0xE5C JUMP JUMPDEST PUSH1 0x4 SLOAD SWAP1 SWAP2 POP PUSH2 0x42F PUSH8 0xDE0B6B3A7640000 DUP4 PUSH2 0xE5C JUMP JUMPDEST PUSH2 0x439 SWAP2 SWAP1 PUSH2 0xE73 JUMP JUMPDEST PUSH2 0x443 SWAP1 DUP5 PUSH2 0xE92 JUMP JUMPDEST SWAP3 POP POP POP JUMPDEST PUSH0 PUSH8 0xDE0B6B3A7640000 DUP3 DUP5 PUSH0 ADD MLOAD PUSH2 0x461 SWAP2 SWAP1 PUSH2 0xE5C JUMP JUMPDEST PUSH2 0x46B SWAP2 SWAP1 PUSH2 0xE73 JUMP JUMPDEST PUSH1 0x40 DUP5 ADD MLOAD PUSH1 0x20 DUP6 ADD MLOAD SWAP2 SWAP3 POP SWAP1 DUP3 GT ISZERO PUSH2 0x49C JUMPI PUSH1 0x20 DUP5 ADD MLOAD PUSH2 0x48F SWAP1 DUP4 PUSH2 0xE49 JUMP JUMPDEST PUSH2 0x499 SWAP1 DUP3 PUSH2 0xE92 JUMP JUMPDEST SWAP1 POP JUMPDEST SWAP6 SWAP5 POP POP POP POP POP JUMP JUMPDEST PUSH2 0x4AD PUSH2 0xB65 JUMP JUMPDEST PUSH2 0x4B5 PUSH2 0xB91 JUMP JUMPDEST PUSH1 0x2 DUP2 SWAP1 SSTORE PUSH1 0x40 MLOAD DUP2 DUP2 MSTORE PUSH32 0xB114240D54CE08081CBD18870DC3B6CD4091BB86FF29D2AD41906C2A2D6723D4 SWAP1 PUSH1 0x20 ADD JUMPDEST PUSH1 0x40 MLOAD DUP1 SWAP2 SUB SWAP1 LOG1 POP JUMP JUMPDEST PUSH2 0x4F9 PUSH2 0xB65 JUMP JUMPDEST PUSH2 0x502 PUSH0 PUSH2 0xC13 JUMP JUMPDEST JUMP JUMPDEST PUSH2 0x50C PUSH2 0xB65 JUMP JUMPDEST PUSH2 0x2710 DUP2 LT ISZERO PUSH2 0x55E JUMPI PUSH1 0x40 MLOAD PUSH3 0x461BCD PUSH1 0xE5 SHL DUP2 MSTORE PUSH1 0x20 PUSH1 0x4 DUP3 ADD MSTORE PUSH1 0xE PUSH1 0x24 DUP3 ADD MSTORE PUSH32 0x57656967687420746F6F206C6F77000000000000000000000000000000000000 PUSH1 0x44 DUP3 ADD MSTORE PUSH1 0x64 ADD PUSH2 0x360 JUMP JUMPDEST PUSH1 0x3 DUP2 SWAP1 SSTORE PUSH1 0x40 MLOAD DUP2 DUP2 MSTORE PUSH32 0x8D7DE63F70D1051C944578F00A1F27F8C93E824E564AC194835418E18F975801 SWAP1 PUSH1 0x20 ADD PUSH2 0x4E6 JUMP JUMPDEST PUSH1 0x1 SLOAD PUSH1 0x1 PUSH1 0x1 PUSH1 0xA0 SHL SUB AND CALLER EQ PUSH2 0x5DB JUMPI PUSH1 0x40 MLOAD PUSH3 0x461BCD PUSH1 0xE5 SHL DUP2 MSTORE PUSH1 0x20 PUSH1 0x4 DUP3 ADD MSTORE PUSH1 0xB PUSH1 0x24 DUP3 ADD MSTORE PUSH11 0x2737BA1036B0B730B3B2B9 PUSH1 0xA9 SHL PUSH1 0x44 DUP3 ADD MSTORE PUSH1 0x64 ADD PUSH2 0x360 JUMP JUMPDEST PUSH1 0x1 PUSH1 0x1 PUSH1 0xA0 SHL SUB DUP4 AND PUSH2 0x631 JUMPI PUSH1 0x40 MLOAD PUSH3 0x461BCD PUSH1 0xE5 SHL DUP2 MSTORE PUSH1 0x20 PUSH1 0x4 DUP3 ADD MSTORE PUSH1 0x6 PUSH1 0x24 DUP3 ADD MSTORE PUSH32 0x757365723D300000000000000000000000000000000000000000000000000000 PUSH1 0x44 DUP3 ADD MSTORE PUSH1 0x64 ADD PUSH2 0x360 JUMP JUMPDEST PUSH2 0x639 PUSH2 0xB91 JUMP JUMPDEST PUSH0 PUSH2 0x2710 PUSH1 0x3 SLOAD DUP4 PUSH2 0x64B SWAP2 SWAP1 PUSH2 0xE5C JUMP JUMPDEST PUSH2 0x655 SWAP2 SWAP1 PUSH2 0xE73 JUMP JUMPDEST SWAP1 POP PUSH0 PUSH2 0x662 DUP3 DUP6 PUSH2 0xE92 JUMP JUMPDEST PUSH2 0x671 SWAP1 PUSH5 0x2540BE400 PUSH2 0xE5C JUMP JUMPDEST PUSH1 0x1 PUSH1 0x1 PUSH1 0xA0 SHL SUB DUP7 AND PUSH0 SWAP1 DUP2 MSTORE PUSH1 0x7 PUSH1 0x20 MSTORE PUSH1 0x40 SWAP1 KECCAK256 DUP1 SLOAD SWAP2 SWAP3 POP SWAP1 DUP3 SUB PUSH2 0x6C4 JUMPI PUSH1 0x5 SLOAD DUP2 SLOAD PUSH8 0xDE0B6B3A7640000 SWAP2 PUSH2 0x6AC SWAP2 PUSH2 0xE5C JUMP JUMPDEST PUSH2 0x6B6 SWAP2 SWAP1 PUSH2 0xE73 JUMP JUMPDEST PUSH1 0x1 SWAP1 SWAP2 ADD SSTORE POP PUSH2 0x80E SWAP1 POP JUMP JUMPDEST DUP1 SLOAD ISZERO PUSH2 0x727 JUMPI PUSH0 PUSH8 0xDE0B6B3A7640000 PUSH1 0x5 SLOAD DUP4 PUSH0 ADD SLOAD PUSH2 0x6E6 SWAP2 SWAP1 PUSH2 0xE5C JUMP JUMPDEST PUSH2 0x6F0 SWAP2 SWAP1 PUSH2 0xE73 JUMP JUMPDEST SWAP1 POP DUP2 PUSH1 0x1 ADD SLOAD DUP2 GT ISZERO PUSH2 0x725 JUMPI PUSH1 0x1 DUP3 ADD SLOAD PUSH2 0x70D SWAP1 DUP3 PUSH2 0xE49 JUMP JUMPDEST DUP3 PUSH1 0x2 ADD PUSH0 DUP3 DUP3 SLOAD PUSH2 0x71F SWAP2 SWAP1 PUSH2 0xE92 JUMP JUMPDEST SWAP1 SWAP2 SSTORE POP POP JUMPDEST POP JUMPDEST DUP1 SLOAD PUSH1 0x4 SLOAD LT ISZERO PUSH2 0x786 JUMPI PUSH1 0x40 MLOAD PUSH3 0x461BCD PUSH1 0xE5 SHL DUP2 MSTORE PUSH1 0x20 PUSH1 0x4 DUP3 ADD MSTORE PUSH1 0x24 DUP1 DUP3 ADD MSTORE PUSH32 0x496E76617269616E743A20746F74616C506F696E7473203C207573657220706F PUSH1 0x44 DUP3 ADD MSTORE PUSH4 0x696E7473 PUSH1 0xE0 SHL PUSH1 0x64 DUP3 ADD MSTORE PUSH1 0x84 ADD PUSH2 0x360 JUMP JUMPDEST DUP1 SLOAD PUSH1 0x4 SLOAD DUP4 SWAP2 PUSH2 0x796 SWAP2 PUSH2 0xE49 JUMP JUMPDEST PUSH2 0x7A0 SWAP2 SWAP1 PUSH2 0xE92 JUMP JUMPDEST PUSH1 0x4 SSTORE DUP2 DUP2 SSTORE PUSH1 0x5 SLOAD PUSH8 0xDE0B6B3A7640000 SWAP1 PUSH2 0x7BD SWAP1 DUP5 PUSH2 0xE5C JUMP JUMPDEST PUSH2 0x7C7 SWAP2 SWAP1 PUSH2 0xE73 JUMP JUMPDEST PUSH1 0x1 DUP3 ADD SSTORE PUSH1 0x40 MLOAD DUP3 DUP2 MSTORE PUSH1 0x1 PUSH1 0x1 PUSH1 0xA0 SHL SUB DUP8 AND SWAP1 PUSH32 0xA05F39E6D8D4E060324EDB900F0F5909DE621FD93F19CCF65BA74E5965C98C36 SWAP1 PUSH1 0x20 ADD PUSH1 0x40 MLOAD DUP1 SWAP2 SUB SWAP1 LOG2 POP POP POP JUMPDEST POP POP POP JUMP JUMPDEST PUSH2 0x81B PUSH2 0xB65 JUMP JUMPDEST PUSH2 0x850 PUSH1 0x1 PUSH1 0x1 PUSH1 0xA0 SHL SUB PUSH32 0x0 AND CALLER ADDRESS DUP5 PUSH2 0xC6F JUMP JUMPDEST PUSH1 0x40 MLOAD DUP2 DUP2 MSTORE CALLER SWAP1 PUSH32 0x5AF8184BEF8E4B45EB9F6ED7734D04DA38CED226495548F46E0C8FF8D7D9A524 SWAP1 PUSH1 0x20 ADD PUSH1 0x40 MLOAD DUP1 SWAP2 SUB SWAP1 LOG2 POP JUMP JUMPDEST PUSH2 0x890 PUSH2 0xB65 JUMP JUMPDEST PUSH1 0x1 DUP1 SLOAD PUSH20 0xFFFFFFFFFFFFFFFFFFFFFFFFFFFFFFFFFFFFFFFF NOT AND PUSH1 0x1 PUSH1 0x1 PUSH1 0xA0 SHL SUB DUP4 AND SWAP1 DUP2 OR SWAP1 SWAP2 SSTORE PUSH1 0x40 MLOAD PUSH32 0x7619EB3B0B2346250E2839A10DA35FC58EEA3632C6F045E8ABFFA1864BCE2551 SWAP1 PUSH0 SWAP1 LOG2 POP JUMP JUMPDEST PUSH2 0x8EE PUSH2 0xB65 JUMP JUMPDEST PUSH1 0x1 PUSH1 0x1 PUSH1 0xA0 SHL SUB DUP2 AND PUSH2 0x917 JUMPI PUSH1 0x40 MLOAD PUSH4 0x1E4FBDF7 PUSH1 0xE0 SHL DUP2 MSTORE PUSH0 PUSH1 0x4 DUP3 ADD MSTORE PUSH1 0x24 ADD PUSH2 0x360 JUMP JUMPDEST PUSH2 0x920 DUP2 PUSH2 0xC13 JUMP JUMPDEST POP JUMP JUMPDEST PUSH0 PUSH1 0x1 PUSH1 0x1 PUSH1 0xA0 SHL SUB DUP3 AND PUSH2 0x97A JUMPI PUSH1 0x40 MLOAD PUSH3 0x461BCD PUSH1 0xE5 SHL DUP2 MSTORE PUSH1 0x20 PUSH1 0x4 DUP3 ADD MSTORE PUSH1 0xB PUSH1 0x24 DUP3 ADD MSTORE PUSH32 0x726563697069656E743D30000000000000000000000000000000000000000000 PUSH1 0x44 DUP3 ADD MSTORE PUSH1 0x64 ADD PUSH2 0x360 JUMP JUMPDEST PUSH2 0x982 PUSH2 0xB91 JUMP JUMPDEST PUSH1 0x1 PUSH1 0x1 PUSH1 0xA0 SHL SUB DUP4 AND PUSH0 SWAP1 DUP2 MSTORE PUSH1 0x7 PUSH1 0x20 MSTORE PUSH1 0x40 DUP2 KECCAK256 PUSH1 0x5 SLOAD DUP2 SLOAD SWAP2 SWAP3 SWAP2 PUSH8 0xDE0B6B3A7640000 SWAP2 PUSH2 0x9B4 SWAP2 PUSH2 0xE5C JUMP JUMPDEST PUSH2 0x9BE SWAP2 SWAP1 PUSH2 0xE73 JUMP JUMPDEST SWAP1 POP DUP2 PUSH1 0x1 ADD SLOAD DUP2 GT ISZERO PUSH2 0x9F3 JUMPI PUSH1 0x1 DUP3 ADD SLOAD PUSH2 0x9DB SWAP1 DUP3 PUSH2 0xE49 JUMP JUMPDEST DUP3 PUSH1 0x2 ADD PUSH0 DUP3 DUP3 SLOAD PUSH2 0x9ED SWAP2 SWAP1 PUSH2 0xE92 JUMP JUMPDEST SWAP1 SWAP2 SSTORE POP POP JUMPDEST PUSH1 0x2 DUP3 ADD SLOAD DUP1 ISZERO PUSH2 0xB26 JUMPI PUSH1 0x40 MLOAD PUSH4 0x70A08231 PUSH1 0xE0 SHL DUP2 MSTORE ADDRESS PUSH1 0x4 DUP3 ADD MSTORE PUSH0 SWAP1 PUSH32 0x0 PUSH1 0x1 PUSH1 0x1 PUSH1 0xA0 SHL SUB AND SWAP1 PUSH4 0x70A08231 SWAP1 PUSH1 0x24 ADD PUSH1 0x20 PUSH1 0x40 MLOAD DUP1 DUP4 SUB DUP2 DUP7 GAS STATICCALL ISZERO DUP1 ISZERO PUSH2 0xA62 JUMPI RETURNDATASIZE PUSH0 DUP1 RETURNDATACOPY RETURNDATASIZE PUSH0 REVERT JUMPDEST POP POP POP POP PUSH1 0x40 MLOAD RETURNDATASIZE PUSH1 0x1F NOT PUSH1 0x1F DUP3 ADD AND DUP3 ADD DUP1 PUSH1 0x40 MSTORE POP DUP2 ADD SWAP1 PUSH2 0xA86 SWAP2 SWAP1 PUSH2 0xEA5 JUMP JUMPDEST SWAP1 POP DUP1 DUP3 GT ISZERO PUSH2 0xA94 JUMPI DUP1 SWAP2 POP JUMPDEST DUP2 DUP5 PUSH1 0x2 ADD PUSH0 DUP3 DUP3 SLOAD PUSH2 0xAA7 SWAP2 SWAP1 PUSH2 0xE49 JUMP JUMPDEST SWAP1 SWAP2 SSTORE POP PUSH2 0xAE1 SWAP1 POP PUSH1 0x1 PUSH1 0x1 PUSH1 0xA0 SHL SUB PUSH32 0x0 AND DUP8 DUP5 PUSH2 0xCF1 JUMP JUMPDEST DUP7 PUSH1 0x1 PUSH1 0x1 PUSH1 0xA0 SHL SUB AND PUSH32 0xFC30CDDEA38E2BF4D6EA7D3F9ED3B6AD7F176419F4963BD81318067A4AEE73FE DUP4 PUSH1 0x40 MLOAD PUSH2 0xB1C SWAP2 DUP2 MSTORE PUSH1 0x20 ADD SWAP1 JUMP JUMPDEST PUSH1 0x40 MLOAD DUP1 SWAP2 SUB SWAP1 LOG2 POP JUMPDEST PUSH1 0x5 SLOAD DUP4 SLOAD PUSH8 0xDE0B6B3A7640000 SWAP2 PUSH2 0xB3E SWAP2 PUSH2 0xE5C JUMP JUMPDEST PUSH2 0xB48 SWAP2 SWAP1 PUSH2 0xE73 JUMP JUMPDEST PUSH1 0x1 SWAP1 SWAP4 ADD SWAP3 SWAP1 SWAP3 SSTORE POP SWAP1 POP SWAP3 SWAP2 POP POP JUMP JUMPDEST PUSH0 PUSH2 0x372 DUP3 DUP4 PUSH2 0x923 JUMP JUMPDEST PUSH0 SLOAD PUSH1 0x1 PUSH1 0x1 PUSH1 0xA0 SHL SUB AND CALLER EQ PUSH2 0x502 JUMPI PUSH1 0x40 MLOAD PUSH4 0x118CDAA7 PUSH1 0xE0 SHL DUP2 MSTORE CALLER PUSH1 0x4 DUP3 ADD MSTORE PUSH1 0x24 ADD PUSH2 0x360 JUMP JUMPDEST PUSH1 0x6 SLOAD TIMESTAMP GT PUSH2 0xB9C JUMPI JUMP JUMPDEST PUSH0 PUSH1 0x4 SLOAD GT DUP1 ISZERO PUSH2 0xBAE JUMPI POP PUSH0 PUSH1 0x2 SLOAD GT JUMPDEST ISZERO PUSH2 0xC0D JUMPI PUSH0 PUSH1 0x6 SLOAD TIMESTAMP PUSH2 0xBC2 SWAP2 SWAP1 PUSH2 0xE49 JUMP JUMPDEST SWAP1 POP PUSH0 DUP2 PUSH1 0x2 SLOAD PUSH2 0xBD3 SWAP2 SWAP1 PUSH2 0xE5C JUMP JUMPDEST PUSH1 0x4 SLOAD SWAP1 SWAP2 POP PUSH2 0xBEB PUSH8 0xDE0B6B3A7640000 DUP4 PUSH2 0xE5C JUMP JUMPDEST PUSH2 0xBF5 SWAP2 SWAP1 PUSH2 0xE73 JUMP JUMPDEST PUSH1 0x5 PUSH0 DUP3 DUP3 SLOAD PUSH2 0xC05 SWAP2 SWAP1 PUSH2 0xE92 JUMP JUMPDEST SWAP1 SWAP2 SSTORE POP POP POP POP JUMPDEST TIMESTAMP PUSH1 0x6 SSTORE JUMP JUMPDEST PUSH0 DUP1 SLOAD PUSH1 0x1 PUSH1 0x1 PUSH1 0xA0 SHL SUB DUP4 DUP2 AND PUSH20 0xFFFFFFFFFFFFFFFFFFFFFFFFFFFFFFFFFFFFFFFF NOT DUP4 AND DUP2 OR DUP5 SSTORE PUSH1 0x40 MLOAD SWAP2 SWAP1 SWAP3 AND SWAP3 DUP4 SWAP2 PUSH32 0x8BE0079C531659141344CD1FD0A4F28419497F9722A3DAAFE3B4186F6B6457E0 SWAP2 SWAP1 LOG3 POP POP JUMP JUMPDEST PUSH1 0x40 MLOAD PUSH1 0x1 PUSH1 0x1 PUSH1 0xA0 SHL SUB DUP5 DUP2 AND PUSH1 0x24 DUP4 ADD MSTORE DUP4 DUP2 AND PUSH1 0x44 DUP4 ADD MSTORE PUSH1 0x64 DUP3 ADD DUP4 SWAP1 MSTORE PUSH2 0xCEB SWAP2 DUP7 SWAP2 DUP3 AND SWAP1 PUSH4 0x23B872DD SWAP1 PUSH1 0x84 ADD JUMPDEST PUSH1 0x40 MLOAD PUSH1 0x20 DUP2 DUP4 SUB SUB DUP2 MSTORE SWAP1 PUSH1 0x40 MSTORE SWAP2 POP PUSH1 0xE0 SHL PUSH1 0x20 DUP3 ADD DUP1 MLOAD PUSH28 0xFFFFFFFFFFFFFFFFFFFFFFFFFFFFFFFFFFFFFFFFFFFFFFFFFFFFFFFF DUP4 DUP2 DUP4 AND OR DUP4 MSTORE POP POP POP POP PUSH2 0xD22 JUMP JUMPDEST POP POP POP POP JUMP JUMPDEST PUSH1 0x40 MLOAD PUSH1 0x1 PUSH1 0x1 PUSH1 0xA0 SHL SUB DUP4 DUP2 AND PUSH1 0x24 DUP4 ADD MSTORE PUSH1 0x44 DUP3 ADD DUP4 SWAP1 MSTORE PUSH2 0x80E SWAP2 DUP6 SWAP2 DUP3 AND SWAP1 PUSH4 0xA9059CBB SWAP1 PUSH1 0x64 ADD PUSH2 0xCA4 JUMP JUMPDEST PUSH0 DUP1 PUSH1 0x20 PUSH0 DUP5 MLOAD PUSH1 0x20 DUP7 ADD PUSH0 DUP9 GAS CALL DUP1 PUSH2 0xD41 JUMPI PUSH1 0x40 MLOAD RETURNDATASIZE PUSH0 DUP3 RETURNDATACOPY RETURNDATASIZE DUP2 REVERT JUMPDEST POP POP PUSH0 MLOAD RETURNDATASIZE SWAP2 POP DUP2 ISZERO PUSH2 0xD58 JUMPI DUP1 PUSH1 0x1 EQ ISZERO PUSH2 0xD65 JUMP JUMPDEST PUSH1 0x1 PUSH1 0x1 PUSH1 0xA0 SHL SUB DUP5 AND EXTCODESIZE ISZERO JUMPDEST ISZERO PUSH2 0xCEB JUMPI PUSH1 0x40 MLOAD PUSH4 0x5274AFE7 PUSH1 0xE0 SHL DUP2 MSTORE PUSH1 0x1 PUSH1 0x1 PUSH1 0xA0 SHL SUB DUP6 AND PUSH1 0x4 DUP3 ADD MSTORE PUSH1 0x24 ADD PUSH2 0x360 JUMP JUMPDEST DUP1 CALLDATALOAD PUSH1 0x1 PUSH1 0x1 PUSH1 0xA0 SHL SUB DUP2 AND DUP2 EQ PUSH2 0x375 JUMPI PUSH0 DUP1 REVERT JUMPDEST PUSH0 PUSH1 0x20 DUP3 DUP5 SUB SLT ISZERO PUSH2 0xDB4 JUMPI PUSH0 DUP1 REVERT JUMPDEST PUSH2 0x38D DUP3 PUSH2 0xD8E JUMP JUMPDEST PUSH0 DUP1 PUSH1 0x40 DUP4 DUP6 SUB SLT ISZERO PUSH2 0xDCE JUMPI PUSH0 DUP1 REVERT JUMPDEST PUSH2 0xDD7 DUP4 PUSH2 0xD8E JUMP JUMPDEST SWAP2 POP PUSH2 0xDE5 PUSH1 0x20 DUP5 ADD PUSH2 0xD8E JUMP JUMPDEST SWAP1 POP SWAP3 POP SWAP3 SWAP1 POP JUMP JUMPDEST PUSH0 PUSH1 0x20 DUP3 DUP5 SUB SLT ISZERO PUSH2 0xDFE JUMPI PUSH0 DUP1 REVERT JUMPDEST POP CALLDATALOAD SWAP2 SWAP1 POP JUMP JUMPDEST PUSH0 DUP1 PUSH0 PUSH1 0x60 DUP5 DUP7 SUB SLT ISZERO PUSH2 0xE17 JUMPI PUSH0 DUP1 REVERT JUMPDEST PUSH2 0xE20 DUP5 PUSH2 0xD8E JUMP JUMPDEST SWAP6 PUSH1 0x20 DUP6 ADD CALLDATALOAD SWAP6 POP PUSH1 0x40 SWAP1 SWAP5 ADD CALLDATALOAD SWAP4 SWAP3 POP POP POP JUMP JUMPDEST PUSH4 0x4E487B71 PUSH1 0xE0 SHL PUSH0 MSTORE PUSH1 0x11 PUSH1 0x4 MSTORE PUSH1 0x24 PUSH0 REVERT JUMPDEST DUP2 DUP2 SUB DUP2 DUP2 GT ISZERO PUSH2 0x390 JUMPI PUSH2 0x390 PUSH2 0xE35 JUMP JUMPDEST DUP1 DUP3 MUL DUP2 ISZERO DUP3 DUP3 DIV DUP5 EQ OR PUSH2 0x390 JUMPI PUSH2 0x390 PUSH2 0xE35 JUMP JUMPDEST PUSH0 DUP3 PUSH2 0xE8D JUMPI PUSH4 0x4E487B71 PUSH1 0xE0 SHL PUSH0 MSTORE PUSH1 0x12 PUSH1 0x4 MSTORE PUSH1 0x24 PUSH0 REVERT JUMPDEST POP DIV SWAP1 JUMP JUMPDEST DUP1 DUP3 ADD DUP1 DUP3 GT ISZERO PUSH2 0x390 JUMPI PUSH2 0x390 PUSH2 0xE35 JUMP JUMPDEST PUSH0 PUSH1 0x20 DUP3 DUP5 SUB SLT ISZERO PUSH2 0xEB5 JUMPI PUSH0 DUP1 REVERT JUMPDEST POP MLOAD SWAP2 SWAP1 POP JUMP INVALID LOG1 PUSH5 0x736F6C6343 STOP ADDMOD XOR STOP EXP "},"gasEstimates":{"creation":{"codeDepositCost":"757000","executionCost":"infinite","totalCost":"infinite"},"external":{"accRewardPerPoint()":"2351","borrowWeightBps()":"2352","claim(address)":"infinite","claim(address,address)":"infinite","claimForSelf()":"infinite","emissionPerSec()":"2328","fund(uint256)":"infinite","lastUpdate()":"2372","onAction(address,uint256,uint256)":"infinite","owner()":"2364","pendingRewards(address)":"infinite","pointsManager()":"2381","renounceOwnership()":"infinite","rewardToken()":"infinite","setBorrowWeightBps(uint256)":"25677","setEmissionPerSec(uint256)":"infinite","setPointsManager(address)":"27906","totalPoints()":"2351","transferOwnership(address)":"28387","users(address)":"6862"},"internal":{"_claimFor(address)":"infinite","_claimTo(address,address)":"infinite","_updateGlobalState()":"infinite"}},"methodIdentifiers":{"accRewardPerPoint()":"8eeddedd","borrowWeightBps()":"0dc65d96","claim(address)":"1e83409a","claim(address,address)":"21c0b342","claimForSelf()":"008ef7cf","emissionPerSec()":"70addc3b","fund(uint256)":"ca1d209d","lastUpdate()":"c0463711","onAction(address,uint256,uint256)":"ca0caf9d","owner()":"8da5cb5b","pendingRewards(address)":"31d7a262","pointsManager()":"904b5f03","renounceOwnership()":"715018a6","rewardToken()":"f7c618c1","setBorrowWeightBps(uint256)":"8662f382","setEmissionPerSec(uint256)":"4c7ba87a","setPointsManager(address)":"cae42a08","totalPoints()":"567142be","transferOwnership(address)":"f2fde38b","users(address)":"a87430ba"}},"storageLayout":{"storage":[{"astId":8,"contract":"contracts/RewardsDistributor.sol:RewardsDistributor","label":"_owner","offset":0,"slot":"0","type":"t_address"},{"astId":5174,"contract":"contracts/RewardsDistributor.sol:RewardsDistributor","label":"pointsManager","offset":0,"slot":"1","type":"t_address"},{"astId":5176,"contract":"contracts/RewardsDistributor.sol:RewardsDistributor","label":"emissionPerSec","offset":0,"slot":"2","type":"t_uint256"},{"astId":5179,"contract":"contracts/RewardsDistributor.sol:RewardsDistributor","label":"borrowWeightBps","offset":0,"slot":"3","type":"t_uint256"},{"astId":5181,"contract":"contracts/RewardsDistributor.sol:RewardsDistributor","label":"totalPoints","offset":0,"slot":"4","type":"t_uint256"},{"astId":5183,"contract":"contracts/RewardsDistributor.sol:RewardsDistributor","label":"accRewardPerPoint","offset":0,"slot":"5","type":"t_uint256"},{"astId":5185,"contract":"contracts/RewardsDistributor.sol:RewardsDistributor","label":"lastUpdate","offset":0,"slot":"6","type":"t_uint256"},{"astId":5197,"contract":"contracts/RewardsDistributor.sol:RewardsDistributor","label":"users","offset":0,"slot":"7","type":"t_mapping(t_address,t_struct(UserInfo)5192_storage)"}],"types":{"t_address":{"encoding":"inplace","label":"address","numberOfBytes":"20"},"t_mapping(t_address,t_struct(UserInfo)5192_storage)":{"encoding":"mapping","key":"t_address","label":"mapping(address => struct RewardsDistributor.UserInfo)","numberOfBytes":"32","value":"t_struct(UserInfo)5192_storage"},"t_struct(UserInfo)5192_storage":{"encoding":"inplace","label":"struct RewardsDistributor.UserInfo","members":[{"astId":5187,"contract":"contracts/RewardsDistributor.sol:RewardsDistributor","label":"points","offset":0,"slot":"0","type":"t_uint256"},{"astId":5189,"contract":"contracts/RewardsDistributor.sol:RewardsDistributor","label":"rewardDebt","offset":0,"slot":"1","type":"t_uint256"},{"astId":5191,"contract":"contracts/RewardsDistributor.sol:RewardsDistributor","label":"pending","offset":0,"slot":"2","type":"t_uint256"}],"numberOfBytes":"96"},"t_uint256":{"encoding":"inplace","label":"uint256","numberOfBytes":"32"}}},"userdoc":{"kind":"user","methods":{},"version":1}}}}