{"contracts/LoanManager.sol":{"LoanManager":{"abi":[{"inputs":[{"internalType":"address","name":"_collateralManager","type":"address"},{"internalType":"address","name":"initialOwner","type":"address"}],"stateMutability":"nonpayable","type":"constructor"},{"inputs":[{"internalType":"address","name":"owner","type":"address"}],"name":"OwnableInvalidOwner","type":"error"},{"inputs":[{"internalType":"address","name":"account","type":"address"}],"name":"OwnableUnauthorizedAccount","type":"error"},{"inputs":[],"name":"ReentrancyGuardReentrantCall","type":"error"},{"inputs":[{"internalType":"address","name":"token","type":"address"}],"name":"SafeERC20FailedOperation","type":"error"},{"anonymous":false,"inputs":[{"indexed":true,"internalType":"address","name":"user","type":"address"},{"indexed":false,"internalType":"address","name":"token","type":"address"},{"indexed":false,"internalType":"uint256","name":"amount","type":"uint256"}],"name":"DepositedToPool","type":"event"},{"anonymous":false,"inputs":[{"indexed":true,"internalType":"address","name":"user","type":"address"},{"indexed":false,"internalType":"address","name":"token","type":"address"},{"indexed":false,"internalType":"uint256","name":"repayAmount","type":"uint256"},{"indexed":false,"internalType":"uint256","name":"remainingDebt","type":"uint256"}],"name":"LoanRepaid","type":"event"},{"anonymous":false,"inputs":[{"indexed":true,"internalType":"address","name":"payer","type":"address"},{"indexed":true,"internalType":"address","name":"borrower","type":"address"},{"indexed":false,"internalType":"address","name":"token","type":"address"},{"indexed":false,"internalType":"uint256","name":"paid","type":"uint256"}],"name":"LoanRepaidFor","type":"event"},{"anonymous":false,"inputs":[{"indexed":true,"internalType":"address","name":"user","type":"address"},{"indexed":false,"internalType":"address","name":"token","type":"address"},{"indexed":false,"internalType":"uint256","name":"principal","type":"uint256"},{"indexed":false,"internalType":"uint256","name":"rateBps","type":"uint256"}],"name":"LoanRequested","type":"event"},{"anonymous":false,"inputs":[{"indexed":true,"internalType":"address","name":"previousOwner","type":"address"},{"indexed":true,"internalType":"address","name":"newOwner","type":"address"}],"name":"OwnershipTransferred","type":"event"},{"anonymous":false,"inputs":[{"indexed":true,"internalType":"address","name":"user","type":"address"},{"indexed":false,"internalType":"uint256","name":"amount","type":"uint256"}],"name":"RewardDistributed","type":"event"},{"anonymous":false,"inputs":[{"indexed":true,"internalType":"address","name":"distributor","type":"address"}],"name":"RewardsDistributorUpdated","type":"event"},{"anonymous":false,"inputs":[{"indexed":false,"internalType":"address","name":"token","type":"address"},{"indexed":false,"internalType":"uint256","name":"borrowRateBps","type":"uint256"},{"indexed":false,"internalType":"uint256","name":"lendRateBps","type":"uint256"}],"name":"TokenSupported","type":"event"},{"anonymous":false,"inputs":[{"indexed":true,"internalType":"address","name":"user","type":"address"},{"indexed":false,"internalType":"address","name":"token","type":"address"},{"indexed":false,"internalType":"uint256","name":"principalOut","type":"uint256"},{"indexed":false,"internalType":"uint256","name":"interestOut","type":"uint256"},{"indexed":false,"internalType":"uint256","name":"totalOut","type":"uint256"}],"name":"Withdrawn","type":"event"},{"inputs":[{"internalType":"uint256","name":"","type":"uint256"}],"name":"activeBorrowers","outputs":[{"internalType":"address","name":"","type":"address"}],"stateMutability":"view","type":"function"},{"inputs":[{"internalType":"address","name":"user","type":"address"}],"name":"calculateInterest","outputs":[{"internalType":"uint256","name":"","type":"uint256"}],"stateMutability":"view","type":"function"},{"inputs":[{"internalType":"address","name":"user","type":"address"},{"internalType":"address","name":"token","type":"address"}],"name":"calculateLenderReward","outputs":[{"internalType":"uint256","name":"","type":"uint256"}],"stateMutability":"view","type":"function"},{"inputs":[],"name":"claimRewards","outputs":[],"stateMutability":"nonpayable","type":"function"},{"inputs":[],"name":"collateralManager","outputs":[{"internalType":"contract ICollateralManager","name":"","type":"address"}],"stateMutability":"view","type":"function"},{"inputs":[{"internalType":"address","name":"token","type":"address"},{"internalType":"uint256","name":"amount","type":"uint256"}],"name":"depositToPool","outputs":[],"stateMutability":"nonpayable","type":"function"},{"inputs":[],"name":"getActiveBorrowerCount","outputs":[{"internalType":"uint256","name":"","type":"uint256"}],"stateMutability":"view","type":"function"},{"inputs":[],"name":"getActiveBorrowers","outputs":[{"internalType":"address[]","name":"","type":"address[]"}],"stateMutability":"view","type":"function"},{"inputs":[{"internalType":"address","name":"token","type":"address"}],"name":"getAvailableLiquidity","outputs":[{"internalType":"uint256","name":"","type":"uint256"}],"stateMutability":"view","type":"function"},{"inputs":[{"internalType":"address","name":"user","type":"address"}],"name":"getLoanToken","outputs":[{"internalType":"address","name":"","type":"address"}],"stateMutability":"view","type":"function"},{"inputs":[{"internalType":"address","name":"user","type":"address"}],"name":"getOutstandingLoan","outputs":[{"internalType":"uint256","name":"","type":"uint256"}],"stateMutability":"view","type":"function"},{"inputs":[{"internalType":"address","name":"user","type":"address"}],"name":"getOutstandingLoanUSD","outputs":[{"internalType":"uint256","name":"","type":"uint256"}],"stateMutability":"view","type":"function"},{"inputs":[{"internalType":"address","name":"","type":"address"}],"name":"isBorrower","outputs":[{"internalType":"bool","name":"","type":"bool"}],"stateMutability":"view","type":"function"},{"inputs":[{"internalType":"address","name":"","type":"address"}],"name":"isSupportedToken","outputs":[{"internalType":"bool","name":"","type":"bool"}],"stateMutability":"view","type":"function"},{"inputs":[{"internalType":"address","name":"","type":"address"},{"internalType":"address","name":"","type":"address"}],"name":"lenders","outputs":[{"internalType":"uint256","name":"deposited","type":"uint256"},{"internalType":"uint256","name":"depositTime","type":"uint256"},{"internalType":"uint256","name":"rewardClaimed","type":"uint256"}],"stateMutability":"view","type":"function"},{"inputs":[{"internalType":"address","name":"","type":"address"}],"name":"loans","outputs":[{"internalType":"address","name":"token","type":"address"},{"internalType":"uint256","name":"principal","type":"uint256"},{"internalType":"uint256","name":"rate","type":"uint256"},{"internalType":"uint256","name":"totalInterest","type":"uint256"},{"internalType":"uint256","name":"createdAt","type":"uint256"},{"internalType":"uint256","name":"duration","type":"uint256"},{"internalType":"bool","name":"active","type":"bool"}],"stateMutability":"view","type":"function"},{"inputs":[],"name":"owner","outputs":[{"internalType":"address","name":"","type":"address"}],"stateMutability":"view","type":"function"},{"inputs":[],"name":"priceOracle","outputs":[{"internalType":"contract IPriceOracle","name":"","type":"address"}],"stateMutability":"view","type":"function"},{"inputs":[{"internalType":"address","name":"","type":"address"}],"name":"protocolProfit","outputs":[{"internalType":"uint256","name":"","type":"uint256"}],"stateMutability":"view","type":"function"},{"inputs":[{"internalType":"address","name":"","type":"address"}],"name":"ratesByToken","outputs":[{"internalType":"uint256","name":"borrowRate","type":"uint256"},{"internalType":"uint256","name":"lendRate","type":"uint256"}],"stateMutability":"view","type":"function"},{"inputs":[],"name":"renounceOwnership","outputs":[],"stateMutability":"nonpayable","type":"function"},{"inputs":[{"internalType":"address","name":"token","type":"address"},{"internalType":"uint256","name":"amount","type":"uint256"}],"name":"repay","outputs":[],"stateMutability":"nonpayable","type":"function"},{"inputs":[{"internalType":"address","name":"token","type":"address"}],"name":"repayAll","outputs":[],"stateMutability":"nonpayable","type":"function"},{"inputs":[{"internalType":"address","name":"borrower","type":"address"},{"internalType":"address","name":"token","type":"address"},{"internalType":"uint256","name":"amount","type":"uint256"}],"name":"repayFor","outputs":[],"stateMutability":"nonpayable","type":"function"},{"inputs":[{"internalType":"address","name":"token","type":"address"},{"internalType":"uint256","name":"principal","type":"uint256"},{"internalType":"uint256","name":"duration","type":"uint256"}],"name":"requestLoan","outputs":[],"stateMutability":"nonpayable","type":"function"},{"inputs":[],"name":"rewardToken","outputs":[{"internalType":"contract IERC20","name":"","type":"address"}],"stateMutability":"view","type":"function"},{"inputs":[],"name":"rewardsDistributor","outputs":[{"internalType":"contract IRewardsDistributor","name":"","type":"address"}],"stateMutability":"view","type":"function"},{"inputs":[{"internalType":"address","name":"_oracle","type":"address"}],"name":"setPriceOracle","outputs":[],"stateMutability":"nonpayable","type":"function"},{"inputs":[{"internalType":"address","name":"token","type":"address"}],"name":"setRewardToken","outputs":[],"stateMutability":"nonpayable","type":"function"},{"inputs":[{"internalType":"address","name":"distributor","type":"address"}],"name":"setRewardsDistributor","outputs":[],"stateMutability":"nonpayable","type":"function"},{"inputs":[{"internalType":"address","name":"token","type":"address"},{"internalType":"uint256","name":"borrowRateBps","type":"uint256"},{"internalType":"uint256","name":"lendRateBps","type":"uint256"}],"name":"supportToken","outputs":[],"stateMutability":"nonpayable","type":"function"},{"inputs":[{"internalType":"address","name":"newOwner","type":"address"}],"name":"transferOwnership","outputs":[],"stateMutability":"nonpayable","type":"function"},{"inputs":[{"internalType":"address","name":"","type":"address"}],"name":"treasury","outputs":[{"internalType":"uint256","name":"totalDeposits","type":"uint256"},{"internalType":"uint256","name":"totalBorrows","type":"uint256"},{"internalType":"uint256","name":"totalRepayments","type":"uint256"}],"stateMutability":"view","type":"function"},{"inputs":[{"internalType":"address","name":"token","type":"address"},{"internalType":"uint256","name":"amount","type":"uint256"}],"name":"withdraw","outputs":[],"stateMutability":"nonpayable","type":"function"},{"inputs":[{"internalType":"address","name":"token","type":"address"}],"name":"withdrawAll","outputs":[],"stateMutability":"nonpayable","type":"function"},{"inputs":[{"internalType":"address","name":"token","type":"address"},{"internalType":"uint256","name":"amount","type":"uint256"},{"internalType":"address","name":"to","type":"address"}],"name":"withdrawProtocolProfit","outputs":[],"stateMutability":"nonpayable","type":"function"}],"devdoc":{"errors":{"OwnableInvalidOwner(address)":[{"details":"The owner is not a valid owner account. (eg. `address(0)`)"}],"OwnableUnauthorizedAccount(address)":[{"details":"The caller account is not authorized to perform an operation."}],"ReentrancyGuardReentrantCall()":[{"details":"Unauthorized reentrant call."}],"SafeERC20FailedOperation(address)":[{"details":"An operation with an ERC-20 token failed."}]},"kind":"dev","methods":{"owner()":{"details":"Returns the address of the current owner."},"renounceOwnership()":{"details":"Leaves the contract without owner. It will not be possible to call `onlyOwner` functions. Can only be called by the current owner. NOTE: Renouncing ownership will leave the contract without an owner, thereby disabling any functionality that is only available to the owner."},"transferOwnership(address)":{"details":"Transfers ownership of the contract to a new account (`newOwner`). Can only be called by the current owner."}},"version":1},"evm":{"bytecode":{"linkReferences":{},"object":"608060405234801562000010575f80fd5b506040516200302438038062003024833981016040819052620000339162000104565b806001600160a01b0381166200006257604051631e4fbdf760e01b81525f600482015260240160405180910390fd5b6200006d8162000099565b505060018055600b80546001600160a01b0319166001600160a01b03929092169190911790556200013a565b5f80546001600160a01b038381166001600160a01b0319831681178455604051919092169283917f8be0079c531659141344cd1fd0a4f28419497f9722a3daafe3b4186f6b6457e09190a35050565b80516001600160a01b0381168114620000ff575f80fd5b919050565b5f806040838503121562000116575f80fd5b6200012183620000e8565b91506200013160208401620000e8565b90509250929050565b612edc80620001485f395ff3fe608060405234801561000f575f80fd5b506004361061024f575f3560e01c8063715018a61161013d578063c63ee4d0116100b8578063eaf6e48311610088578063f3fef3a31161006e578063f3fef3a31461062c578063f7c618c11461063f578063fa09e63014610652575f80fd5b8063eaf6e483146105f7578063f2fde38b14610619575f80fd5b8063c63ee4d0146105aa578063d1f5c33b146105b2578063d85bf034146105c5578063e11932cf146105e4575f80fd5b80638da5cb5b1161010d578063976ce495116100f3578063976ce495146105715780639eb7879814610584578063b2d16bc714610597575f80fd5b80638da5cb5b1461054c5780638f6596b11461055c575f80fd5b8063715018a61461048657806373b4086b1461048e5780637c27383b146105265780638aee812714610539575f80fd5b80632d809cb6116101cd5780634162d0ea1161019d578063581fe91711610183578063581fe9171461042557806363c29926146104385780636f77ff5514610473575f80fd5b80634162d0ea146103d9578063530e784f14610412575f80fd5b80632d809cb6146103625780632f6d58dc146103ab578063372500ab146103be5780633f2a5540146103c6575f80fd5b806323be345c116102225780632630c12f116102085780632630c12f14610329578063263aa7ba1461033c578063266e2bd81461034f575f80fd5b806323be345c146102e4578063240028e8146102f7575f80fd5b80630ccd8ab5146102535780631955c9771461029b5780631b7adeca146102bc57806322867d78146102cf575b5f80fd5b61027e610261366004612b9b565b6001600160a01b039081165f908152600260205260409020541690565b6040516001600160a01b0390911681526020015b60405180910390f35b6102ae6102a9366004612b9b565b610665565b604051908152602001610292565b6102ae6102ca366004612b9b565b6108b3565b6102e26102dd366004612bb4565b610950565b005b600b5461027e906001600160a01b031681565b610319610305366004612b9b565b60046020525f908152604090205460ff1681565b6040519015158152602001610292565b600c5461027e906001600160a01b031681565b6102e261034a366004612bdc565b6109df565b6102ae61035d366004612b9b565b610b94565b610390610370366004612b9b565b60066020525f908152604090208054600182015460029092015490919083565b60408051938452602084019290925290820152606001610292565b6102e26103b9366004612bb4565b610c02565b6102e2610dec565b600e5461027e906001600160a01b031681565b6103906103e7366004612c0c565b600560209081525f928352604080842090915290825290208054600182015460029092015490919083565b6102e2610420366004612b9b565b610ecc565b6102ae610433366004612c0c565b610f4c565b61045e610446366004612b9b565b60036020525f90815260409020805460019091015482565b60408051928352602083019190915201610292565b6102e2610481366004612bdc565b61101b565b6102e26114d8565b6104e561049c366004612b9b565b600260208190525f918252604090912080546001820154928201546003830154600484015460058501546006909501546001600160a01b03909416959492939192909160ff1687565b604080516001600160a01b0390981688526020880196909652948601939093526060850191909152608084015260a0830152151560c082015260e001610292565b6102e2610534366004612b9b565b6114e9565b6102e2610547366004612b9b565b611629565b5f546001600160a01b031661027e565b610564611653565b6040516102929190612c3d565b6102e261057f366004612c89565b6116b3565b61027e610592366004612cc2565b6117de565b6102e26105a5366004612cd9565b611806565b6008546102ae565b6102e26105c0366004612b9b565b611957565b6102ae6105d3366004612b9b565b60076020525f908152604090205481565b6102ae6105f2366004612b9b565b6119a8565b610319610605366004612b9b565b60096020525f908152604090205460ff1681565b6102e2610627366004612b9b565b611a70565b6102e261063a366004612bb4565b611aaa565b600d5461027e906001600160a01b031681565b6102e2610660366004612b9b565b611ac6565b6001600160a01b038082165f908152600260208181526040808420815160e0810183528154909616865260018101549286019290925291810154918401919091526003810154606084015260048101546080840152600581015460a08401526006015460ff16151560c083018190529091906106e357505f92915050565b600c546001600160a01b03166107405760405162461bcd60e51b815260206004820152600e60248201527f4f7261636c65206e6f742073657400000000000000000000000000000000000060448201526064015b60405180910390fd5b80516001600160a01b03166107975760405162461bcd60e51b815260206004820152600d60248201527f4e6f206c6f616e20746f6b656e000000000000000000000000000000000000006044820152606401610737565b5f6107a1846119a8565b82602001516107b09190612d26565b600c5483516040516341976e0960e01b81526001600160a01b0391821660048201529293505f929116906341976e0990602401602060405180830381865afa1580156107fe573d5f803e3d5ffd5b505050506040513d601f19601f820116820180604052508101906108229190612d39565b90505f835f01516001600160a01b031663313ce5676040518163ffffffff1660e01b8152600401602060405180830381865afa158015610864573d5f803e3d5ffd5b505050506040513d601f19601f820116820180604052508101906108889190612d50565b905061089581600a612e50565b61089f8385612e5e565b6108a99190612e75565b9695505050505050565b6001600160a01b038082165f908152600260208181526040808420815160e0810183528154909616865260018101549286019290925291810154918401919091526003810154606084015260048101546080840152600581015460a08401526006015460ff16151560c0830181905290919061093157505f92915050565b61093a836119a8565b81602001516109499190612d26565b9392505050565b610958611ae3565b335f908152600260205260409020546001600160a01b031680156109c557806001600160a01b0316836001600160a01b0316146109c55760405162461bcd60e51b815260206004820152600b60248201526a2bb937b733903a37b5b2b760a91b6044820152606401610737565b6109d133338585611b0d565b506109db60018055565b5050565b6109e7611ea1565b6001600160a01b038316610a3d5760405162461bcd60e51b815260206004820152600d60248201527f496e76616c696420746f6b656e000000000000000000000000000000000000006044820152606401610737565b6127108211158015610a5157506127108111155b610a9d5760405162461bcd60e51b815260206004820152600d60248201527f5261746520746f6f2068696768000000000000000000000000000000000000006044820152606401610737565b60408051808201825283815260208082018481526001600160a01b0387165f9081526003835284812093518455905160019093019290925560049052205460ff16610b4557600f805460018082019092557f8d1108e10bcb7c27dddfc02ed9d693a074039d026cf4ea4240b40f7d581ac8020180546001600160a01b0319166001600160a01b0386169081179091555f908152600460205260409020805460ff191690911790555b604080516001600160a01b0385168152602081018490529081018290527fab37265069a9fb56421aaa91a9c209f5f0636ccb1b4d03810244fefa1b67611b9060600160405180910390a1505050565b6040516370a0823160e01b81523060048201525f906001600160a01b038316906370a0823190602401602060405180830381865afa158015610bd8573d5f803e3d5ffd5b505050506040513d601f19601f82011682018060405250810190610bfc9190612d39565b92915050565b610c0a611ae3565b5f8111610c445760405162461bcd60e51b81526020600482015260086024820152670416d6f756e743d360c41b6044820152606401610737565b6001600160a01b0382165f9081526004602052604090205460ff16610cab5760405162461bcd60e51b815260206004820152601160248201527f556e737570706f7274656420746f6b656e0000000000000000000000000000006044820152606401610737565b335f9081526005602090815260408083206001600160a01b03861684529091529020805415801590610ce057505f8160010154115b15610d41575f610d1e825f015460035f876001600160a01b03166001600160a01b031681526020019081526020015f20600101548460010154611ecd565b90508015610d3f5780826002015f828254610d399190612d26565b90915550505b505b610d566001600160a01b038416333085611f00565b81815f015f828254610d689190612d26565b90915550504260018201556001600160a01b0383165f9081526006602052604081208054849290610d9a908490612d26565b9091555050604080516001600160a01b03851681526020810184905233917fa3682f0a1f3e048663c72c176dc0871190ad77f88864de24b60be522e8bb3b85910160405180910390a26109d133611f82565b610df4611ae3565b600e546001600160a01b0316610e4c5760405162461bcd60e51b815260206004820152601060248201527f526577617264732064697361626c6564000000000000000000000000000000006044820152606401610737565b610e5533611f82565b600e54604051630f41a04d60e11b81523360048201526001600160a01b0390911690631e83409a906024016020604051808303815f875af1158015610e9c573d5f803e3d5ffd5b505050506040513d601f19601f82011682018060405250810190610ec09190612d39565b50610eca60018055565b565b610ed4611ea1565b6001600160a01b038116610f2a5760405162461bcd60e51b815260206004820152600e60248201527f496e76616c6964206f7261636c650000000000000000000000000000000000006044820152606401610737565b600c80546001600160a01b0319166001600160a01b0392909216919091179055565b6001600160a01b038083165f908152600560209081526040808320938516835292815282822083516060810185528154808252600183015493820193909352600290910154938101939093529091901580610fa957506020810151155b15610fb7575f915050610bfc565b5f610ff0825f015160035f876001600160a01b03166001600160a01b031681526020019081526020015f20600101548460200151611ecd565b905081604001518111611003575f611012565b60408201516110129082612e94565b95945050505050565b611023611ae3565b335f9081526002602052604090206006015460ff16156110855760405162461bcd60e51b815260206004820152600b60248201527f4c6f616e206163746976650000000000000000000000000000000000000000006044820152606401610737565b5f8211801561109357505f81115b6110df5760405162461bcd60e51b815260206004820152600d60248201527f496e76616c696420696e707574000000000000000000000000000000000000006044820152606401610737565b6001600160a01b0383165f9081526004602052604090205460ff166111465760405162461bcd60e51b815260206004820152601160248201527f556e737570706f7274656420746f6b656e0000000000000000000000000000006044820152606401610737565b6001600160a01b0383165f90815260036020526040902054806111ab5760405162461bcd60e51b815260206004820152601360248201527f426f72726f772072617465206e6f7420736574000000000000000000000000006044820152606401610737565b600b54604051633f9af35f60e21b8152336004820152670de0b6b3a7640000916001600160a01b03169063fe6bcd7c90602401602060405180830381865afa1580156111f9573d5f803e3d5ffd5b505050506040513d601f19601f8201168201806040525081019061121d9190612d39565b101561126b5760405162461bcd60e51b815260206004820152601160248201527f556e6865616c746879206163636f756e740000000000000000000000000000006044820152606401610737565b6040516370a0823160e01b815230600482015283906001600160a01b038616906370a0823190602401602060405180830381865afa1580156112af573d5f803e3d5ffd5b505050506040513d601f19601f820116820180604052508101906112d39190612d39565b10156113215760405162461bcd60e51b815260206004820152600c60248201527f4e6f206c697175696469747900000000000000000000000000000000000000006044820152606401610737565b6040805160e0810182526001600160a01b0386811680835260208084018881528486018781525f60608701818152426080890190815260a089018c8152600160c08b018181523386526002808a528d87209c518d546001600160a01b0319169c169b909b178c5596518b8201559451988a0198909855905160038901555160048801559451600587015590516006958601805460ff1916911515919091179055918352929092529182200180548592906113dc908490612d26565b9091555050335f9081526009602052604090205460ff1661146057335f818152600960209081526040808320805460ff191660019081179091556008805491820181557ff3f7a9fe364faab93b216da50a3214154f22a0a2b415b23a84c8169e8b636ee390910180546001600160a01b0319168617905554938352600a9091529020555b6114746001600160a01b038516338561202e565b604080516001600160a01b03861681526020810185905290810182905233907f8ca033dfe8ac84b6e3e48aa36967e19d52a93a3f4d880ce8005fd4e04c97c94d9060600160405180910390a26114c933611f82565b506114d360018055565b505050565b6114e0611ea1565b610eca5f61205f565b6114f1611ae3565b335f90815260026020818152604092839020835160e08101855281546001600160a01b0316815260018201549281019290925291820154928101929092526003810154606083015260048101546080830152600581015460a08301526006015460ff16151560c0820181905261159a5760405162461bcd60e51b815260206004820152600e60248201526d27379030b1ba34bb32903637b0b760911b6044820152606401610737565b80516001600160a01b0316156115f45780516001600160a01b038381169116146115f45760405162461bcd60e51b815260206004820152600b60248201526a2bb937b733903a37b5b2b760a91b6044820152606401610737565b5f6115fe336119a8565b826020015161160d9190612d26565b905061161b33338584611b0d565b505061162660018055565b50565b611631611ea1565b600d80546001600160a01b0319166001600160a01b0392909216919091179055565b606060088054806020026020016040519081016040528092919081815260200182805480156116a957602002820191905f5260205f20905b81546001600160a01b0316815260019091019060200180831161168b575b5050505050905090565b6116bb611ae3565b6001600160a01b0383166117115760405162461bcd60e51b815260206004820152601060248201527f496e76616c696420626f72726f776572000000000000000000000000000000006044820152606401610737565b6001600160a01b038084165f9081526002602052604090205416801561178057806001600160a01b0316836001600160a01b0316146117805760405162461bcd60e51b815260206004820152600b60248201526a2bb937b733903a37b5b2b760a91b6044820152606401610737565b61178c33858585611b0d565b604080516001600160a01b0385811682526020820185905286169133917ffdf4eca8a57db936f4318275c3026ce05c05b1ae0070e178be74903a6d0a5e19910160405180910390a3506114d360018055565b600881815481106117ed575f80fd5b5f918252602090912001546001600160a01b0316905081565b61180e611ea1565b611816611ae3565b6001600160a01b03811661186c5760405162461bcd60e51b815260206004820152600e60248201527f496e76616c6964207461726765740000000000000000000000000000000000006044820152606401610737565b5f82116118a65760405162461bcd60e51b81526020600482015260086024820152670416d6f756e743d360c41b6044820152606401610737565b6001600160a01b0383165f9081526007602052604090205482111561190d5760405162461bcd60e51b815260206004820152600e60248201527f457863656564732070726f6669740000000000000000000000000000000000006044820152606401610737565b6001600160a01b0383165f9081526007602052604081208054849290611934908490612e94565b9091555061194e90506001600160a01b038416828461202e565b6114d360018055565b61195f611ea1565b600e80546001600160a01b0319166001600160a01b0383169081179091556040517f1cc0d0fcd88df90cde5f20b27b655722f28afe56a6384c3c7a339ec18564c439905f90a250565b6001600160a01b038082165f908152600260208181526040808420815160e0810183528154909616865260018101549286019290925291810154918401919091526003810154606084015260048101546080840152600581015460a08401526006015460ff16151560c08301819052909190611a2657505f92915050565b5f816080015142611a379190612e94565b905064496cebb8008183604001518460200151611a549190612e5e565b611a5e9190612e5e565b611a689190612e75565b949350505050565b611a78611ea1565b6001600160a01b038116611aa157604051631e4fbdf760e01b81525f6004820152602401610737565b6116268161205f565b611ab2611ae3565b611abd3383836120ae565b6109db60018055565b611ace611ae3565b611ada33825f196120ae565b61162660018055565b600260015403611b0657604051633ee5aeb560e01b815260040160405180910390fd5b6002600155565b6001600160a01b0383165f908152600260205260409020600681015460ff16611b695760405162461bcd60e51b815260206004820152600e60248201526d27379030b1ba34bb32903637b0b760911b6044820152606401610737565b5f8211611ba35760405162461bcd60e51b81526020600482015260086024820152670416d6f756e743d360c41b6044820152606401610737565b611bb86001600160a01b038416863085611f00565b6001600160a01b0383165f9081526006602052604081206002018054849290611be2908490612d26565b909155505f9050611bf2856119a8565b90505f818360010154611c059190612d26565b905080841115611c13578093505b835f838210611c4957611c268483612e94565b915083856003015f828254611c3b9190612d26565b90915550849150611c669050565b81856003015f828254611c5c9190612d26565b909155505f929150505b8015611d3a5760028501546001600160a01b0388165f90815260036020526040812060010154908215801590611c9b57505f82115b15611cc25782611cab8386612e5e565b611cb59190612e75565b905083811115611cc25750825b5f611ccd8286612e94565b90508115611d02576001600160a01b038b165f9081526006602052604081208054849290611cfc908490612d26565b90915550505b8015611d35576001600160a01b038b165f9081526007602052604081208054839290611d2f908490612d26565b90915550505b505050505b8115611d6f5784600101548210611d56575f6001860155611d6f565b81856001015f828254611d699190612e94565b90915550505b42600486015560018501545f03611e0f5760068501805460ff1916905584546001600160a01b03191685556001600160a01b0388165f9081526009602052604090205460ff1615611de2576001600160a01b0388165f908152600960205260409020805460ff19169055611de288612561565b876001600160a01b0316896001600160a01b031603611e0f57611e0f88611e0a600a87612e75565b612692565b60068501545f9060ff16611e23575f611e3b565b611e2c896119a8565b8660010154611e3b9190612d26565b604080516001600160a01b038b81168252602082018b90529181018390529192508a16907fa6f6d5e50bc84f153a0d6a9f9b37780433f92dc32d7e10f975ab3831c36898fa9060600160405180910390a2611e9589611f82565b50505050505050505050565b5f546001600160a01b03163314610eca5760405163118cdaa760e01b8152336004820152602401610737565b5f80611ed98342612e94565b905064496cebb80081611eec8688612e5e565b611ef69190612e5e565b6110129190612e75565b6040516001600160a01b038481166024830152838116604483015260648201839052611f7c9186918216906323b872dd906084015b604051602081830303815290604052915060e01b6020820180517bffffffffffffffffffffffffffffffffffffffffffffffffffffffff8381831617835250505050612782565b50505050565b600e546001600160a01b03161580611fa157506001600160a01b038116155b15611fa95750565b5f611fb3826127ee565b90505f611fbf836129fa565b600e5460405163ca0caf9d60e01b81526001600160a01b038681166004830152602482018690526044820184905292935091169063ca0caf9d906064015f604051808303815f87803b158015612013575f80fd5b505af1158015612025573d5f803e3d5ffd5b50505050505050565b6040516001600160a01b038381166024830152604482018390526114d391859182169063a9059cbb90606401611f35565b5f80546001600160a01b038381166001600160a01b0319831681178455604051919092169283917f8be0079c531659141344cd1fd0a4f28419497f9722a3daafe3b4186f6b6457e09190a35050565b6001600160a01b038084165f90815260056020908152604080832093861683529290522080546121205760405162461bcd60e51b815260206004820152600a60248201527f4e6f206465706f736974000000000000000000000000000000000000000000006044820152606401610737565b80545f61212d8686610f4c565b90505f19840361230a575f6121428284612d26565b6040516370a0823160e01b815230600482015290915081906001600160a01b038816906370a0823190602401602060405180830381865afa158015612189573d5f803e3d5ffd5b505050506040513d601f19601f820116820180604052508101906121ad9190612d39565b10156121fb5760405162461bcd60e51b815260206004820152601660248201527f496e73756666696369656e74206c6971756964697479000000000000000000006044820152606401610737565b5f8085556001850181905560028501805484929061221a908490612d26565b90915550506001600160a01b0386165f90815260066020526040902054831161226f576001600160a01b0386165f9081526006602052604081208054859290612264908490612e94565b909155506122889050565b6001600160a01b0386165f908152600660205260408120555b61229c6001600160a01b038716888361202e565b6122ab87611e0a600a85612e75565b604080516001600160a01b0388811682526020820186905291810184905260608101839052908816907f3cae9923fd3c2f468aa25a8ef687923e37f957459557c0380fd06526c0b8cdbc9060800160405180910390a250505050505050565b5f841180156123195750818411155b6123655760405162461bcd60e51b815260206004820152600e60248201527f496e76616c696420616d6f756e740000000000000000000000000000000000006044820152606401610737565b5f808311612373575f612388565b8261237e8684612e5e565b6123889190612e75565b90505f6123958287612d26565b6040516370a0823160e01b815230600482015290915081906001600160a01b038916906370a0823190602401602060405180830381865afa1580156123dc573d5f803e3d5ffd5b505050506040513d601f19601f820116820180604052508101906124009190612d39565b101561244e5760405162461bcd60e51b815260206004820152601660248201527f496e73756666696369656e74206c6971756964697479000000000000000000006044820152606401610737565b6124588685612e94565b85556002850180548391905f90612470908490612d26565b90915550504260018601556001600160a01b0387165f9081526006602052604090205486116124cb576001600160a01b0387165f90815260066020526040812080548892906124c0908490612e94565b909155506124e49050565b6001600160a01b0387165f908152600660205260408120555b6124f86001600160a01b038816898361202e565b604080516001600160a01b0389811682526020820189905291810184905260608101839052908916907f3cae9923fd3c2f468aa25a8ef687923e37f957459557c0380fd06526c0b8cdbc9060800160405180910390a261255788611f82565b5050505050505050565b6001600160a01b0381165f908152600a602052604081205490819003612585575050565b5f612591600183612e94565b6008549091505f906125a590600190612e94565b905080821461263d575f600882815481106125c2576125c2612ea7565b5f91825260209091200154600880546001600160a01b0390921692508291859081106125f0576125f0612ea7565b5f91825260209091200180546001600160a01b0319166001600160a01b0392909216919091179055612623836001612d26565b6001600160a01b039091165f908152600a60205260409020555b600880548061264e5761264e612ebb565b5f828152602080822083015f1990810180546001600160a01b03191690559092019092556001600160a01b03959095168152600a9094525050604082209190915550565b600d546001600160a01b0316158015906126ab57505f81115b156109db57600d546040516370a0823160e01b81523060048201525f916001600160a01b0316906370a0823190602401602060405180830381865afa1580156126f6573d5f803e3d5ffd5b505050506040513d601f19601f8201168201806040525081019061271a9190612d39565b90508181106114d357600d5461273a906001600160a01b0316848461202e565b826001600160a01b03167fe34918ff1c7084970068b53fd71ad6d8b04e9f15d3886cbf006443e6cdc52ea68360405161277591815260200190565b60405180910390a2505050565b5f8060205f8451602086015f885af1806127a1576040513d5f823e3d81fd5b50505f513d915081156127b85780600114156127c5565b6001600160a01b0384163b155b15611f7c57604051635274afe760e01b81526001600160a01b0385166004820152602401610737565b600c545f906001600160a01b031615806128085750600f54155b1561281457505f919050565b5f5b600f548110156129f4575f600f828154811061283457612834612ea7565b5f9182526020808320909101546001600160a01b038781168452600583526040808520919092168085529083528184208251606081018452815480825260018301549582019590955260029091015492810192909252935091036128995750506129ec565b600c546040516341976e0960e01b81526001600160a01b0384811660048301525f9216906341976e0990602401602060405180830381865afa1580156128e1573d5f803e3d5ffd5b505050506040513d601f19601f820116820180604052508101906129059190612d39565b90505f81116129565760405162461bcd60e51b815260206004820152600960248201527f42616420707269636500000000000000000000000000000000000000000000006044820152606401610737565b5f836001600160a01b031663313ce5676040518163ffffffff1660e01b8152600401602060405180830381865afa158015612993573d5f803e3d5ffd5b505050506040513d601f19601f820116820180604052508101906129b79190612d50565b90506129c481600a612e50565b83516129d1908490612e5e565b6129db9190612e75565b6129e59087612d26565b9550505050505b600101612816565b50919050565b600c545f906001600160a01b0316612a1357505f919050565b6001600160a01b038083165f90815260026020818152604092839020835160e0810185528154909516855260018101549185019190915290810154918301919091526003810154606083015260048101546080830152600581015460a08301526006015460ff1615801560c083015280612a95575080516001600160a01b0316155b15612aa257505f92915050565b5f612aac846119a8565b8260200151612abb9190612d26565b600c5483516040516341976e0960e01b81526001600160a01b0391821660048201529293505f929116906341976e0990602401602060405180830381865afa158015612b09573d5f803e3d5ffd5b505050506040513d601f19601f82011682018060405250810190612b2d9190612d39565b9050805f03612b4057505f949350505050565b5f835f01516001600160a01b031663313ce5676040518163ffffffff1660e01b8152600401602060405180830381865afa158015610864573d5f803e3d5ffd5b80356001600160a01b0381168114612b96575f80fd5b919050565b5f60208284031215612bab575f80fd5b61094982612b80565b5f8060408385031215612bc5575f80fd5b612bce83612b80565b946020939093013593505050565b5f805f60608486031215612bee575f80fd5b612bf784612b80565b95602085013595506040909401359392505050565b5f8060408385031215612c1d575f80fd5b612c2683612b80565b9150612c3460208401612b80565b90509250929050565b602080825282518282018190525f9190848201906040850190845b81811015612c7d5783516001600160a01b031683529284019291840191600101612c58565b50909695505050505050565b5f805f60608486031215612c9b575f80fd5b612ca484612b80565b9250612cb260208501612b80565b9150604084013590509250925092565b5f60208284031215612cd2575f80fd5b5035919050565b5f805f60608486031215612ceb575f80fd5b612cf484612b80565b925060208401359150612d0960408501612b80565b90509250925092565b634e487b7160e01b5f52601160045260245ffd5b80820180821115610bfc57610bfc612d12565b5f60208284031215612d49575f80fd5b5051919050565b5f60208284031215612d60575f80fd5b815160ff81168114610949575f80fd5b600181815b80851115612daa57815f1904821115612d9057612d90612d12565b80851615612d9d57918102915b93841c9390800290612d75565b509250929050565b5f82612dc057506001610bfc565b81612dcc57505f610bfc565b8160018114612de25760028114612dec57612e08565b6001915050610bfc565b60ff841115612dfd57612dfd612d12565b50506001821b610bfc565b5060208310610133831016604e8410600b8410161715612e2b575081810a610bfc565b612e358383612d70565b805f1904821115612e4857612e48612d12565b029392505050565b5f61094960ff841683612db2565b8082028115828204841417610bfc57610bfc612d12565b5f82612e8f57634e487b7160e01b5f52601260045260245ffd5b500490565b81810381811115610bfc57610bfc612d12565b634e487b7160e01b5f52603260045260245ffd5b634e487b7160e01b5f52603160045260245ffdfea164736f6c6343000818000a","opcodes":"PUSH1 0x80 PUSH1 0x40 MSTORE CALLVALUE DUP1 ISZERO PUSH3 0x10 JUMPI PUSH0 DUP1 REVERT JUMPDEST POP PUSH1 0x40 MLOAD PUSH3 0x3024 CODESIZE SUB DUP1 PUSH3 0x3024 DUP4 CODECOPY DUP2 ADD PUSH1 0x40 DUP2 SWAP1 MSTORE PUSH3 0x33 SWAP2 PUSH3 0x104 JUMP JUMPDEST DUP1 PUSH1 0x1 PUSH1 0x1 PUSH1 0xA0 SHL SUB DUP2 AND PUSH3 0x62 JUMPI PUSH1 0x40 MLOAD PUSH4 0x1E4FBDF7 PUSH1 0xE0 SHL DUP2 MSTORE PUSH0 PUSH1 0x4 DUP3 ADD MSTORE PUSH1 0x24 ADD PUSH1 0x40 MLOAD DUP1 SWAP2 SUB SWAP1 REVERT JUMPDEST PUSH3 0x6D DUP2 PUSH3 0x99 JUMP JUMPDEST POP POP PUSH1 0x1 DUP1 SSTORE PUSH1 0xB DUP1 SLOAD PUSH1 0x1 PUSH1 0x1 PUSH1 0xA0 SHL SUB NOT AND PUSH1 0x1 PUSH1 0x1 PUSH1 0xA0 SHL SUB SWAP3 SWAP1 SWAP3 AND SWAP2 SWAP1 SWAP2 OR SWAP1 SSTORE PUSH3 0x13A JUMP JUMPDEST PUSH0 DUP1 SLOAD PUSH1 0x1 PUSH1 0x1 PUSH1 0xA0 SHL SUB DUP4 DUP2 AND PUSH1 0x1 PUSH1 0x1 PUSH1 0xA0 SHL SUB NOT DUP4 AND DUP2 OR DUP5 SSTORE PUSH1 0x40 MLOAD SWAP2 SWAP1 SWAP3 AND SWAP3 DUP4 SWAP2 PUSH32 0x8BE0079C531659141344CD1FD0A4F28419497F9722A3DAAFE3B4186F6B6457E0 SWAP2 SWAP1 LOG3 POP POP JUMP JUMPDEST DUP1 MLOAD PUSH1 0x1 PUSH1 0x1 PUSH1 0xA0 SHL SUB DUP2 AND DUP2 EQ PUSH3 0xFF JUMPI PUSH0 DUP1 REVERT JUMPDEST SWAP2 SWAP1 POP JUMP JUMPDEST PUSH0 DUP1 PUSH1 0x40 DUP4 DUP6 SUB SLT ISZERO PUSH3 0x116 JUMPI PUSH0 DUP1 REVERT JUMPDEST PUSH3 0x121 DUP4 PUSH3 0xE8 JUMP JUMPDEST SWAP2 POP PUSH3 0x131 PUSH1 0x20 DUP5 ADD PUSH3 0xE8 JUMP JUMPDEST SWAP1 POP SWAP3 POP SWAP3 SWAP1 POP JUMP JUMPDEST PUSH2 0x2EDC DUP1 PUSH3 0x148 PUSH0 CODECOPY PUSH0 RETURN INVALID PUSH1 0x80 PUSH1 0x40 MSTORE CALLVALUE DUP1 ISZERO PUSH2 0xF JUMPI PUSH0 DUP1 REVERT JUMPDEST POP PUSH1 0x4 CALLDATASIZE LT PUSH2 0x24F JUMPI PUSH0 CALLDATALOAD PUSH1 0xE0 SHR DUP1 PUSH4 0x715018A6 GT PUSH2 0x13D JUMPI DUP1 PUSH4 0xC63EE4D0 GT PUSH2 0xB8 JUMPI DUP1 PUSH4 0xEAF6E483 GT PUSH2 0x88 JUMPI DUP1 PUSH4 0xF3FEF3A3 GT PUSH2 0x6E JUMPI DUP1 PUSH4 0xF3FEF3A3 EQ PUSH2 0x62C JUMPI DUP1 PUSH4 0xF7C618C1 EQ PUSH2 0x63F JUMPI DUP1 PUSH4 0xFA09E630 EQ PUSH2 0x652 JUMPI PUSH0 DUP1 REVERT JUMPDEST DUP1 PUSH4 0xEAF6E483 EQ PUSH2 0x5F7 JUMPI DUP1 PUSH4 0xF2FDE38B EQ PUSH2 0x619 JUMPI PUSH0 DUP1 REVERT JUMPDEST DUP1 PUSH4 0xC63EE4D0 EQ PUSH2 0x5AA JUMPI DUP1 PUSH4 0xD1F5C33B EQ PUSH2 0x5B2 JUMPI DUP1 PUSH4 0xD85BF034 EQ PUSH2 0x5C5 JUMPI DUP1 PUSH4 0xE11932CF EQ PUSH2 0x5E4 JUMPI PUSH0 DUP1 REVERT JUMPDEST DUP1 PUSH4 0x8DA5CB5B GT PUSH2 0x10D JUMPI DUP1 PUSH4 0x976CE495 GT PUSH2 0xF3 JUMPI DUP1 PUSH4 0x976CE495 EQ PUSH2 0x571 JUMPI DUP1 PUSH4 0x9EB78798 EQ PUSH2 0x584 JUMPI DUP1 PUSH4 0xB2D16BC7 EQ PUSH2 0x597 JUMPI PUSH0 DUP1 REVERT JUMPDEST DUP1 PUSH4 0x8DA5CB5B EQ PUSH2 0x54C JUMPI DUP1 PUSH4 0x8F6596B1 EQ PUSH2 0x55C JUMPI PUSH0 DUP1 REVERT JUMPDEST DUP1 PUSH4 0x715018A6 EQ PUSH2 0x486 JUMPI DUP1 PUSH4 0x73B4086B EQ PUSH2 0x48E JUMPI DUP1 PUSH4 0x7C27383B EQ PUSH2 0x526 JUMPI DUP1 PUSH4 0x8AEE8127 EQ PUSH2 0x539 JUMPI PUSH0 DUP1 REVERT JUMPDEST DUP1 PUSH4 0x2D809CB6 GT PUSH2 0x1CD JUMPI DUP1 PUSH4 0x4162D0EA GT PUSH2 0x19D JUMPI DUP1 PUSH4 0x581FE917 GT PUSH2 0x183 JUMPI DUP1 PUSH4 0x581FE917 EQ PUSH2 0x425 JUMPI DUP1 PUSH4 0x63C29926 EQ PUSH2 0x438 JUMPI DUP1 PUSH4 0x6F77FF55 EQ PUSH2 0x473 JUMPI PUSH0 DUP1 REVERT JUMPDEST DUP1 PUSH4 0x4162D0EA EQ PUSH2 0x3D9 JUMPI DUP1 PUSH4 0x530E784F EQ PUSH2 0x412 JUMPI PUSH0 DUP1 REVERT JUMPDEST DUP1 PUSH4 0x2D809CB6 EQ PUSH2 0x362 JUMPI DUP1 PUSH4 0x2F6D58DC EQ PUSH2 0x3AB JUMPI DUP1 PUSH4 0x372500AB EQ PUSH2 0x3BE JUMPI DUP1 PUSH4 0x3F2A5540 EQ PUSH2 0x3C6 JUMPI PUSH0 DUP1 REVERT JUMPDEST DUP1 PUSH4 0x23BE345C GT PUSH2 0x222 JUMPI DUP1 PUSH4 0x2630C12F GT PUSH2 0x208 JUMPI DUP1 PUSH4 0x2630C12F EQ PUSH2 0x329 JUMPI DUP1 PUSH4 0x263AA7BA EQ PUSH2 0x33C JUMPI DUP1 PUSH4 0x266E2BD8 EQ PUSH2 0x34F JUMPI PUSH0 DUP1 REVERT JUMPDEST DUP1 PUSH4 0x23BE345C EQ PUSH2 0x2E4 JUMPI DUP1 PUSH4 0x240028E8 EQ PUSH2 0x2F7 JUMPI PUSH0 DUP1 REVERT JUMPDEST DUP1 PUSH4 0xCCD8AB5 EQ PUSH2 0x253 JUMPI DUP1 PUSH4 0x1955C977 EQ PUSH2 0x29B JUMPI DUP1 PUSH4 0x1B7ADECA EQ PUSH2 0x2BC JUMPI DUP1 PUSH4 0x22867D78 EQ PUSH2 0x2CF JUMPI JUMPDEST PUSH0 DUP1 REVERT JUMPDEST PUSH2 0x27E PUSH2 0x261 CALLDATASIZE PUSH1 0x4 PUSH2 0x2B9B JUMP JUMPDEST PUSH1 0x1 PUSH1 0x1 PUSH1 0xA0 SHL SUB SWAP1 DUP2 AND PUSH0 SWAP1 DUP2 MSTORE PUSH1 0x2 PUSH1 0x20 MSTORE PUSH1 0x40 SWAP1 KECCAK256 SLOAD AND SWAP1 JUMP JUMPDEST PUSH1 0x40 MLOAD PUSH1 0x1 PUSH1 0x1 PUSH1 0xA0 SHL SUB SWAP1 SWAP2 AND DUP2 MSTORE PUSH1 0x20 ADD JUMPDEST PUSH1 0x40 MLOAD DUP1 SWAP2 SUB SWAP1 RETURN JUMPDEST PUSH2 0x2AE PUSH2 0x2A9 CALLDATASIZE PUSH1 0x4 PUSH2 0x2B9B JUMP JUMPDEST PUSH2 0x665 JUMP JUMPDEST PUSH1 0x40 MLOAD SWAP1 DUP2 MSTORE PUSH1 0x20 ADD PUSH2 0x292 JUMP JUMPDEST PUSH2 0x2AE PUSH2 0x2CA CALLDATASIZE PUSH1 0x4 PUSH2 0x2B9B JUMP JUMPDEST PUSH2 0x8B3 JUMP JUMPDEST PUSH2 0x2E2 PUSH2 0x2DD CALLDATASIZE PUSH1 0x4 PUSH2 0x2BB4 JUMP JUMPDEST PUSH2 0x950 JUMP JUMPDEST STOP JUMPDEST PUSH1 0xB SLOAD PUSH2 0x27E SWAP1 PUSH1 0x1 PUSH1 0x1 PUSH1 0xA0 SHL SUB AND DUP2 JUMP JUMPDEST PUSH2 0x319 PUSH2 0x305 CALLDATASIZE PUSH1 0x4 PUSH2 0x2B9B JUMP JUMPDEST PUSH1 0x4 PUSH1 0x20 MSTORE PUSH0 SWAP1 DUP2 MSTORE PUSH1 0x40 SWAP1 KECCAK256 SLOAD PUSH1 0xFF AND DUP2 JUMP JUMPDEST PUSH1 0x40 MLOAD SWAP1 ISZERO ISZERO DUP2 MSTORE PUSH1 0x20 ADD PUSH2 0x292 JUMP JUMPDEST PUSH1 0xC SLOAD PUSH2 0x27E SWAP1 PUSH1 0x1 PUSH1 0x1 PUSH1 0xA0 SHL SUB AND DUP2 JUMP JUMPDEST PUSH2 0x2E2 PUSH2 0x34A CALLDATASIZE PUSH1 0x4 PUSH2 0x2BDC JUMP JUMPDEST PUSH2 0x9DF JUMP JUMPDEST PUSH2 0x2AE PUSH2 0x35D CALLDATASIZE PUSH1 0x4 PUSH2 0x2B9B JUMP JUMPDEST PUSH2 0xB94 JUMP JUMPDEST PUSH2 0x390 PUSH2 0x370 CALLDATASIZE PUSH1 0x4 PUSH2 0x2B9B JUMP JUMPDEST PUSH1 0x6 PUSH1 0x20 MSTORE PUSH0 SWAP1 DUP2 MSTORE PUSH1 0x40 SWAP1 KECCAK256 DUP1 SLOAD PUSH1 0x1 DUP3 ADD SLOAD PUSH1 0x2 SWAP1 SWAP3 ADD SLOAD SWAP1 SWAP2 SWAP1 DUP4 JUMP JUMPDEST PUSH1 0x40 DUP1 MLOAD SWAP4 DUP5 MSTORE PUSH1 0x20 DUP5 ADD SWAP3 SWAP1 SWAP3 MSTORE SWAP1 DUP3 ADD MSTORE PUSH1 0x60 ADD PUSH2 0x292 JUMP JUMPDEST PUSH2 0x2E2 PUSH2 0x3B9 CALLDATASIZE PUSH1 0x4 PUSH2 0x2BB4 JUMP JUMPDEST PUSH2 0xC02 JUMP JUMPDEST PUSH2 0x2E2 PUSH2 0xDEC JUMP JUMPDEST PUSH1 0xE SLOAD PUSH2 0x27E SWAP1 PUSH1 0x1 PUSH1 0x1 PUSH1 0xA0 SHL SUB AND DUP2 JUMP JUMPDEST PUSH2 0x390 PUSH2 0x3E7 CALLDATASIZE PUSH1 0x4 PUSH2 0x2C0C JUMP JUMPDEST PUSH1 0x5 PUSH1 0x20 SWAP1 DUP2 MSTORE PUSH0 SWAP3 DUP4 MSTORE PUSH1 0x40 DUP1 DUP5 KECCAK256 SWAP1 SWAP2 MSTORE SWAP1 DUP3 MSTORE SWAP1 KECCAK256 DUP1 SLOAD PUSH1 0x1 DUP3 ADD SLOAD PUSH1 0x2 SWAP1 SWAP3 ADD SLOAD SWAP1 SWAP2 SWAP1 DUP4 JUMP JUMPDEST PUSH2 0x2E2 PUSH2 0x420 CALLDATASIZE PUSH1 0x4 PUSH2 0x2B9B JUMP JUMPDEST PUSH2 0xECC JUMP JUMPDEST PUSH2 0x2AE PUSH2 0x433 CALLDATASIZE PUSH1 0x4 PUSH2 0x2C0C JUMP JUMPDEST PUSH2 0xF4C JUMP JUMPDEST PUSH2 0x45E PUSH2 0x446 CALLDATASIZE PUSH1 0x4 PUSH2 0x2B9B JUMP JUMPDEST PUSH1 0x3 PUSH1 0x20 MSTORE PUSH0 SWAP1 DUP2 MSTORE PUSH1 0x40 SWAP1 KECCAK256 DUP1 SLOAD PUSH1 0x1 SWAP1 SWAP2 ADD SLOAD DUP3 JUMP JUMPDEST PUSH1 0x40 DUP1 MLOAD SWAP3 DUP4 MSTORE PUSH1 0x20 DUP4 ADD SWAP2 SWAP1 SWAP2 MSTORE ADD PUSH2 0x292 JUMP JUMPDEST PUSH2 0x2E2 PUSH2 0x481 CALLDATASIZE PUSH1 0x4 PUSH2 0x2BDC JUMP JUMPDEST PUSH2 0x101B JUMP JUMPDEST PUSH2 0x2E2 PUSH2 0x14D8 JUMP JUMPDEST PUSH2 0x4E5 PUSH2 0x49C CALLDATASIZE PUSH1 0x4 PUSH2 0x2B9B JUMP JUMPDEST PUSH1 0x2 PUSH1 0x20 DUP2 SWAP1 MSTORE PUSH0 SWAP2 DUP3 MSTORE PUSH1 0x40 SWAP1 SWAP2 KECCAK256 DUP1 SLOAD PUSH1 0x1 DUP3 ADD SLOAD SWAP3 DUP3 ADD SLOAD PUSH1 0x3 DUP4 ADD SLOAD PUSH1 0x4 DUP5 ADD SLOAD PUSH1 0x5 DUP6 ADD SLOAD PUSH1 0x6 SWAP1 SWAP6 ADD SLOAD PUSH1 0x1 PUSH1 0x1 PUSH1 0xA0 SHL SUB SWAP1 SWAP5 AND SWAP6 SWAP5 SWAP3 SWAP4 SWAP2 SWAP3 SWAP1 SWAP2 PUSH1 0xFF AND DUP8 JUMP JUMPDEST PUSH1 0x40 DUP1 MLOAD PUSH1 0x1 PUSH1 0x1 PUSH1 0xA0 SHL SUB SWAP1 SWAP9 AND DUP9 MSTORE PUSH1 0x20 DUP9 ADD SWAP7 SWAP1 SWAP7 MSTORE SWAP5 DUP7 ADD SWAP4 SWAP1 SWAP4 MSTORE PUSH1 0x60 DUP6 ADD SWAP2 SWAP1 SWAP2 MSTORE PUSH1 0x80 DUP5 ADD MSTORE PUSH1 0xA0 DUP4 ADD MSTORE ISZERO ISZERO PUSH1 0xC0 DUP3 ADD MSTORE PUSH1 0xE0 ADD PUSH2 0x292 JUMP JUMPDEST PUSH2 0x2E2 PUSH2 0x534 CALLDATASIZE PUSH1 0x4 PUSH2 0x2B9B JUMP JUMPDEST PUSH2 0x14E9 JUMP JUMPDEST PUSH2 0x2E2 PUSH2 0x547 CALLDATASIZE PUSH1 0x4 PUSH2 0x2B9B JUMP JUMPDEST PUSH2 0x1629 JUMP JUMPDEST PUSH0 SLOAD PUSH1 0x1 PUSH1 0x1 PUSH1 0xA0 SHL SUB AND PUSH2 0x27E JUMP JUMPDEST PUSH2 0x564 PUSH2 0x1653 JUMP JUMPDEST PUSH1 0x40 MLOAD PUSH2 0x292 SWAP2 SWAP1 PUSH2 0x2C3D JUMP JUMPDEST PUSH2 0x2E2 PUSH2 0x57F CALLDATASIZE PUSH1 0x4 PUSH2 0x2C89 JUMP JUMPDEST PUSH2 0x16B3 JUMP JUMPDEST PUSH2 0x27E PUSH2 0x592 CALLDATASIZE PUSH1 0x4 PUSH2 0x2CC2 JUMP JUMPDEST PUSH2 0x17DE JUMP JUMPDEST PUSH2 0x2E2 PUSH2 0x5A5 CALLDATASIZE PUSH1 0x4 PUSH2 0x2CD9 JUMP JUMPDEST PUSH2 0x1806 JUMP JUMPDEST PUSH1 0x8 SLOAD PUSH2 0x2AE JUMP JUMPDEST PUSH2 0x2E2 PUSH2 0x5C0 CALLDATASIZE PUSH1 0x4 PUSH2 0x2B9B JUMP JUMPDEST PUSH2 0x1957 JUMP JUMPDEST PUSH2 0x2AE PUSH2 0x5D3 CALLDATASIZE PUSH1 0x4 PUSH2 0x2B9B JUMP JUMPDEST PUSH1 0x7 PUSH1 0x20 MSTORE PUSH0 SWAP1 DUP2 MSTORE PUSH1 0x40 SWAP1 KECCAK256 SLOAD DUP2 JUMP JUMPDEST PUSH2 0x2AE PUSH2 0x5F2 CALLDATASIZE PUSH1 0x4 PUSH2 0x2B9B JUMP JUMPDEST PUSH2 0x19A8 JUMP JUMPDEST PUSH2 0x319 PUSH2 0x605 CALLDATASIZE PUSH1 0x4 PUSH2 0x2B9B JUMP JUMPDEST PUSH1 0x9 PUSH1 0x20 MSTORE PUSH0 SWAP1 DUP2 MSTORE PUSH1 0x40 SWAP1 KECCAK256 SLOAD PUSH1 0xFF AND DUP2 JUMP JUMPDEST PUSH2 0x2E2 PUSH2 0x627 CALLDATASIZE PUSH1 0x4 PUSH2 0x2B9B JUMP JUMPDEST PUSH2 0x1A70 JUMP JUMPDEST PUSH2 0x2E2 PUSH2 0x63A CALLDATASIZE PUSH1 0x4 PUSH2 0x2BB4 JUMP JUMPDEST PUSH2 0x1AAA JUMP JUMPDEST PUSH1 0xD SLOAD PUSH2 0x27E SWAP1 PUSH1 0x1 PUSH1 0x1 PUSH1 0xA0 SHL SUB AND DUP2 JUMP JUMPDEST PUSH2 0x2E2 PUSH2 0x660 CALLDATASIZE PUSH1 0x4 PUSH2 0x2B9B JUMP JUMPDEST PUSH2 0x1AC6 JUMP JUMPDEST PUSH1 0x1 PUSH1 0x1 PUSH1 0xA0 SHL SUB DUP1 DUP3 AND PUSH0 SWAP1 DUP2 MSTORE PUSH1 0x2 PUSH1 0x20 DUP2 DUP2 MSTORE PUSH1 0x40 DUP1 DUP5 KECCAK256 DUP2 MLOAD PUSH1 0xE0 DUP2 ADD DUP4 MSTORE DUP2 SLOAD SWAP1 SWAP7 AND DUP7 MSTORE PUSH1 0x1 DUP2 ADD SLOAD SWAP3 DUP7 ADD SWAP3 SWAP1 SWAP3 MSTORE SWAP2 DUP2 ADD SLOAD SWAP2 DUP5 ADD SWAP2 SWAP1 SWAP2 MSTORE PUSH1 0x3 DUP2 ADD SLOAD PUSH1 0x60 DUP5 ADD MSTORE PUSH1 0x4 DUP2 ADD SLOAD PUSH1 0x80 DUP5 ADD MSTORE PUSH1 0x5 DUP2 ADD SLOAD PUSH1 0xA0 DUP5 ADD MSTORE PUSH1 0x6 ADD SLOAD PUSH1 0xFF AND ISZERO ISZERO PUSH1 0xC0 DUP4 ADD DUP2 SWAP1 MSTORE SWAP1 SWAP2 SWAP1 PUSH2 0x6E3 JUMPI POP PUSH0 SWAP3 SWAP2 POP POP JUMP JUMPDEST PUSH1 0xC SLOAD PUSH1 0x1 PUSH1 0x1 PUSH1 0xA0 SHL SUB AND PUSH2 0x740 JUMPI PUSH1 0x40 MLOAD PUSH3 0x461BCD PUSH1 0xE5 SHL DUP2 MSTORE PUSH1 0x20 PUSH1 0x4 DUP3 ADD MSTORE PUSH1 0xE PUSH1 0x24 DUP3 ADD MSTORE PUSH32 0x4F7261636C65206E6F7420736574000000000000000000000000000000000000 PUSH1 0x44 DUP3 ADD MSTORE PUSH1 0x64 ADD JUMPDEST PUSH1 0x40 MLOAD DUP1 SWAP2 SUB SWAP1 REVERT JUMPDEST DUP1 MLOAD PUSH1 0x1 PUSH1 0x1 PUSH1 0xA0 SHL SUB AND PUSH2 0x797 JUMPI PUSH1 0x40 MLOAD PUSH3 0x461BCD PUSH1 0xE5 SHL DUP2 MSTORE PUSH1 0x20 PUSH1 0x4 DUP3 ADD MSTORE PUSH1 0xD PUSH1 0x24 DUP3 ADD MSTORE PUSH32 0x4E6F206C6F616E20746F6B656E00000000000000000000000000000000000000 PUSH1 0x44 DUP3 ADD MSTORE PUSH1 0x64 ADD PUSH2 0x737 JUMP JUMPDEST PUSH0 PUSH2 0x7A1 DUP5 PUSH2 0x19A8 JUMP JUMPDEST DUP3 PUSH1 0x20 ADD MLOAD PUSH2 0x7B0 SWAP2 SWAP1 PUSH2 0x2D26 JUMP JUMPDEST PUSH1 0xC SLOAD DUP4 MLOAD PUSH1 0x40 MLOAD PUSH4 0x41976E09 PUSH1 0xE0 SHL DUP2 MSTORE PUSH1 0x1 PUSH1 0x1 PUSH1 0xA0 SHL SUB SWAP2 DUP3 AND PUSH1 0x4 DUP3 ADD MSTORE SWAP3 SWAP4 POP PUSH0 SWAP3 SWAP2 AND SWAP1 PUSH4 0x41976E09 SWAP1 PUSH1 0x24 ADD PUSH1 0x20 PUSH1 0x40 MLOAD DUP1 DUP4 SUB DUP2 DUP7 GAS STATICCALL ISZERO DUP1 ISZERO PUSH2 0x7FE JUMPI RETURNDATASIZE PUSH0 DUP1 RETURNDATACOPY RETURNDATASIZE PUSH0 REVERT JUMPDEST POP POP POP POP PUSH1 0x40 MLOAD RETURNDATASIZE PUSH1 0x1F NOT PUSH1 0x1F DUP3 ADD AND DUP3 ADD DUP1 PUSH1 0x40 MSTORE POP DUP2 ADD SWAP1 PUSH2 0x822 SWAP2 SWAP1 PUSH2 0x2D39 JUMP JUMPDEST SWAP1 POP PUSH0 DUP4 PUSH0 ADD MLOAD PUSH1 0x1 PUSH1 0x1 PUSH1 0xA0 SHL SUB AND PUSH4 0x313CE567 PUSH1 0x40 MLOAD DUP2 PUSH4 0xFFFFFFFF AND PUSH1 0xE0 SHL DUP2 MSTORE PUSH1 0x4 ADD PUSH1 0x20 PUSH1 0x40 MLOAD DUP1 DUP4 SUB DUP2 DUP7 GAS STATICCALL ISZERO DUP1 ISZERO PUSH2 0x864 JUMPI RETURNDATASIZE PUSH0 DUP1 RETURNDATACOPY RETURNDATASIZE PUSH0 REVERT JUMPDEST POP POP POP POP PUSH1 0x40 MLOAD RETURNDATASIZE PUSH1 0x1F NOT PUSH1 0x1F DUP3 ADD AND DUP3 ADD DUP1 PUSH1 0x40 MSTORE POP DUP2 ADD SWAP1 PUSH2 0x888 SWAP2 SWAP1 PUSH2 0x2D50 JUMP JUMPDEST SWAP1 POP PUSH2 0x895 DUP2 PUSH1 0xA PUSH2 0x2E50 JUMP JUMPDEST PUSH2 0x89F DUP4 DUP6 PUSH2 0x2E5E JUMP JUMPDEST PUSH2 0x8A9 SWAP2 SWAP1 PUSH2 0x2E75 JUMP JUMPDEST SWAP7 SWAP6 POP POP POP POP POP POP JUMP JUMPDEST PUSH1 0x1 PUSH1 0x1 PUSH1 0xA0 SHL SUB DUP1 DUP3 AND PUSH0 SWAP1 DUP2 MSTORE PUSH1 0x2 PUSH1 0x20 DUP2 DUP2 MSTORE PUSH1 0x40 DUP1 DUP5 KECCAK256 DUP2 MLOAD PUSH1 0xE0 DUP2 ADD DUP4 MSTORE DUP2 SLOAD SWAP1 SWAP7 AND DUP7 MSTORE PUSH1 0x1 DUP2 ADD SLOAD SWAP3 DUP7 ADD SWAP3 SWAP1 SWAP3 MSTORE SWAP2 DUP2 ADD SLOAD SWAP2 DUP5 ADD SWAP2 SWAP1 SWAP2 MSTORE PUSH1 0x3 DUP2 ADD SLOAD PUSH1 0x60 DUP5 ADD MSTORE PUSH1 0x4 DUP2 ADD SLOAD PUSH1 0x80 DUP5 ADD MSTORE PUSH1 0x5 DUP2 ADD SLOAD PUSH1 0xA0 DUP5 ADD MSTORE PUSH1 0x6 ADD SLOAD PUSH1 0xFF AND ISZERO ISZERO PUSH1 0xC0 DUP4 ADD DUP2 SWAP1 MSTORE SWAP1 SWAP2 SWAP1 PUSH2 0x931 JUMPI POP PUSH0 SWAP3 SWAP2 POP POP JUMP JUMPDEST PUSH2 0x93A DUP4 PUSH2 0x19A8 JUMP JUMPDEST DUP2 PUSH1 0x20 ADD MLOAD PUSH2 0x949 SWAP2 SWAP1 PUSH2 0x2D26 JUMP JUMPDEST SWAP4 SWAP3 POP POP POP JUMP JUMPDEST PUSH2 0x958 PUSH2 0x1AE3 JUMP JUMPDEST CALLER PUSH0 SWAP1 DUP2 MSTORE PUSH1 0x2 PUSH1 0x20 MSTORE PUSH1 0x40 SWAP1 KECCAK256 SLOAD PUSH1 0x1 PUSH1 0x1 PUSH1 0xA0 SHL SUB AND DUP1 ISZERO PUSH2 0x9C5 JUMPI DUP1 PUSH1 0x1 PUSH1 0x1 PUSH1 0xA0 SHL SUB AND DUP4 PUSH1 0x1 PUSH1 0x1 PUSH1 0xA0 SHL SUB AND EQ PUSH2 0x9C5 JUMPI PUSH1 0x40 MLOAD PUSH3 0x461BCD PUSH1 0xE5 SHL DUP2 MSTORE PUSH1 0x20 PUSH1 0x4 DUP3 ADD MSTORE PUSH1 0xB PUSH1 0x24 DUP3 ADD MSTORE PUSH11 0x2BB937B733903A37B5B2B7 PUSH1 0xA9 SHL PUSH1 0x44 DUP3 ADD MSTORE PUSH1 0x64 ADD PUSH2 0x737 JUMP JUMPDEST PUSH2 0x9D1 CALLER CALLER DUP6 DUP6 PUSH2 0x1B0D JUMP JUMPDEST POP PUSH2 0x9DB PUSH1 0x1 DUP1 SSTORE JUMP JUMPDEST POP POP JUMP JUMPDEST PUSH2 0x9E7 PUSH2 0x1EA1 JUMP JUMPDEST PUSH1 0x1 PUSH1 0x1 PUSH1 0xA0 SHL SUB DUP4 AND PUSH2 0xA3D JUMPI PUSH1 0x40 MLOAD PUSH3 0x461BCD PUSH1 0xE5 SHL DUP2 MSTORE PUSH1 0x20 PUSH1 0x4 DUP3 ADD MSTORE PUSH1 0xD PUSH1 0x24 DUP3 ADD MSTORE PUSH32 0x496E76616C696420746F6B656E00000000000000000000000000000000000000 PUSH1 0x44 DUP3 ADD MSTORE PUSH1 0x64 ADD PUSH2 0x737 JUMP JUMPDEST PUSH2 0x2710 DUP3 GT ISZERO DUP1 ISZERO PUSH2 0xA51 JUMPI POP PUSH2 0x2710 DUP2 GT ISZERO JUMPDEST PUSH2 0xA9D JUMPI PUSH1 0x40 MLOAD PUSH3 0x461BCD PUSH1 0xE5 SHL DUP2 MSTORE PUSH1 0x20 PUSH1 0x4 DUP3 ADD MSTORE PUSH1 0xD PUSH1 0x24 DUP3 ADD MSTORE PUSH32 0x5261746520746F6F206869676800000000000000000000000000000000000000 PUSH1 0x44 DUP3 ADD MSTORE PUSH1 0x64 ADD PUSH2 0x737 JUMP JUMPDEST PUSH1 0x40 DUP1 MLOAD DUP1 DUP3 ADD DUP3 MSTORE DUP4 DUP2 MSTORE PUSH1 0x20 DUP1 DUP3 ADD DUP5 DUP2 MSTORE PUSH1 0x1 PUSH1 0x1 PUSH1 0xA0 SHL SUB DUP8 AND PUSH0 SWAP1 DUP2 MSTORE PUSH1 0x3 DUP4 MSTORE DUP5 DUP2 KECCAK256 SWAP4 MLOAD DUP5 SSTORE SWAP1 MLOAD PUSH1 0x1 SWAP1 SWAP4 ADD SWAP3 SWAP1 SWAP3 SSTORE PUSH1 0x4 SWAP1 MSTORE KECCAK256 SLOAD PUSH1 0xFF AND PUSH2 0xB45 JUMPI PUSH1 0xF DUP1 SLOAD PUSH1 0x1 DUP1 DUP3 ADD SWAP1 SWAP3 SSTORE PUSH32 0x8D1108E10BCB7C27DDDFC02ED9D693A074039D026CF4EA4240B40F7D581AC802 ADD DUP1 SLOAD PUSH1 0x1 PUSH1 0x1 PUSH1 0xA0 SHL SUB NOT AND PUSH1 0x1 PUSH1 0x1 PUSH1 0xA0 SHL SUB DUP7 AND SWAP1 DUP2 OR SWAP1 SWAP2 SSTORE PUSH0 SWAP1 DUP2 MSTORE PUSH1 0x4 PUSH1 0x20 MSTORE PUSH1 0x40 SWAP1 KECCAK256 DUP1 SLOAD PUSH1 0xFF NOT AND SWAP1 SWAP2 OR SWAP1 SSTORE JUMPDEST PUSH1 0x40 DUP1 MLOAD PUSH1 0x1 PUSH1 0x1 PUSH1 0xA0 SHL SUB DUP6 AND DUP2 MSTORE PUSH1 0x20 DUP2 ADD DUP5 SWAP1 MSTORE SWAP1 DUP2 ADD DUP3 SWAP1 MSTORE PUSH32 0xAB37265069A9FB56421AAA91A9C209F5F0636CCB1B4D03810244FEFA1B67611B SWAP1 PUSH1 0x60 ADD PUSH1 0x40 MLOAD DUP1 SWAP2 SUB SWAP1 LOG1 POP POP POP JUMP JUMPDEST PUSH1 0x40 MLOAD PUSH4 0x70A08231 PUSH1 0xE0 SHL DUP2 MSTORE ADDRESS PUSH1 0x4 DUP3 ADD MSTORE PUSH0 SWAP1 PUSH1 0x1 PUSH1 0x1 PUSH1 0xA0 SHL SUB DUP4 AND SWAP1 PUSH4 0x70A08231 SWAP1 PUSH1 0x24 ADD PUSH1 0x20 PUSH1 0x40 MLOAD DUP1 DUP4 SUB DUP2 DUP7 GAS STATICCALL ISZERO DUP1 ISZERO PUSH2 0xBD8 JUMPI RETURNDATASIZE PUSH0 DUP1 RETURNDATACOPY RETURNDATASIZE PUSH0 REVERT JUMPDEST POP POP POP POP PUSH1 0x40 MLOAD RETURNDATASIZE PUSH1 0x1F NOT PUSH1 0x1F DUP3 ADD AND DUP3 ADD DUP1 PUSH1 0x40 MSTORE POP DUP2 ADD SWAP1 PUSH2 0xBFC SWAP2 SWAP1 PUSH2 0x2D39 JUMP JUMPDEST SWAP3 SWAP2 POP POP JUMP JUMPDEST PUSH2 0xC0A PUSH2 0x1AE3 JUMP JUMPDEST PUSH0 DUP2 GT PUSH2 0xC44 JUMPI PUSH1 0x40 MLOAD PUSH3 0x461BCD PUSH1 0xE5 SHL DUP2 MSTORE PUSH1 0x20 PUSH1 0x4 DUP3 ADD MSTORE PUSH1 0x8 PUSH1 0x24 DUP3 ADD MSTORE PUSH8 0x416D6F756E743D3 PUSH1 0xC4 SHL PUSH1 0x44 DUP3 ADD MSTORE PUSH1 0x64 ADD PUSH2 0x737 JUMP JUMPDEST PUSH1 0x1 PUSH1 0x1 PUSH1 0xA0 SHL SUB DUP3 AND PUSH0 SWAP1 DUP2 MSTORE PUSH1 0x4 PUSH1 0x20 MSTORE PUSH1 0x40 SWAP1 KECCAK256 SLOAD PUSH1 0xFF AND PUSH2 0xCAB JUMPI PUSH1 0x40 MLOAD PUSH3 0x461BCD PUSH1 0xE5 SHL DUP2 MSTORE PUSH1 0x20 PUSH1 0x4 DUP3 ADD MSTORE PUSH1 0x11 PUSH1 0x24 DUP3 ADD MSTORE PUSH32 0x556E737570706F7274656420746F6B656E000000000000000000000000000000 PUSH1 0x44 DUP3 ADD MSTORE PUSH1 0x64 ADD PUSH2 0x737 JUMP JUMPDEST CALLER PUSH0 SWAP1 DUP2 MSTORE PUSH1 0x5 PUSH1 0x20 SWAP1 DUP2 MSTORE PUSH1 0x40 DUP1 DUP4 KECCAK256 PUSH1 0x1 PUSH1 0x1 PUSH1 0xA0 SHL SUB DUP7 AND DUP5 MSTORE SWAP1 SWAP2 MSTORE SWAP1 KECCAK256 DUP1 SLOAD ISZERO DUP1 ISZERO SWAP1 PUSH2 0xCE0 JUMPI POP PUSH0 DUP2 PUSH1 0x1 ADD SLOAD GT JUMPDEST ISZERO PUSH2 0xD41 JUMPI PUSH0 PUSH2 0xD1E DUP3 PUSH0 ADD SLOAD PUSH1 0x3 PUSH0 DUP8 PUSH1 0x1 PUSH1 0x1 PUSH1 0xA0 SHL SUB AND PUSH1 0x1 PUSH1 0x1 PUSH1 0xA0 SHL SUB AND DUP2 MSTORE PUSH1 0x20 ADD SWAP1 DUP2 MSTORE PUSH1 0x20 ADD PUSH0 KECCAK256 PUSH1 0x1 ADD SLOAD DUP5 PUSH1 0x1 ADD SLOAD PUSH2 0x1ECD JUMP JUMPDEST SWAP1 POP DUP1 ISZERO PUSH2 0xD3F JUMPI DUP1 DUP3 PUSH1 0x2 ADD PUSH0 DUP3 DUP3 SLOAD PUSH2 0xD39 SWAP2 SWAP1 PUSH2 0x2D26 JUMP JUMPDEST SWAP1 SWAP2 SSTORE POP POP JUMPDEST POP JUMPDEST PUSH2 0xD56 PUSH1 0x1 PUSH1 0x1 PUSH1 0xA0 SHL SUB DUP5 AND CALLER ADDRESS DUP6 PUSH2 0x1F00 JUMP JUMPDEST DUP2 DUP2 PUSH0 ADD PUSH0 DUP3 DUP3 SLOAD PUSH2 0xD68 SWAP2 SWAP1 PUSH2 0x2D26 JUMP JUMPDEST SWAP1 SWAP2 SSTORE POP POP TIMESTAMP PUSH1 0x1 DUP3 ADD SSTORE PUSH1 0x1 PUSH1 0x1 PUSH1 0xA0 SHL SUB DUP4 AND PUSH0 SWAP1 DUP2 MSTORE PUSH1 0x6 PUSH1 0x20 MSTORE PUSH1 0x40 DUP2 KECCAK256 DUP1 SLOAD DUP5 SWAP3 SWAP1 PUSH2 0xD9A SWAP1 DUP5 SWAP1 PUSH2 0x2D26 JUMP JUMPDEST SWAP1 SWAP2 SSTORE POP POP PUSH1 0x40 DUP1 MLOAD PUSH1 0x1 PUSH1 0x1 PUSH1 0xA0 SHL SUB DUP6 AND DUP2 MSTORE PUSH1 0x20 DUP2 ADD DUP5 SWAP1 MSTORE CALLER SWAP2 PUSH32 0xA3682F0A1F3E048663C72C176DC0871190AD77F88864DE24B60BE522E8BB3B85 SWAP2 ADD PUSH1 0x40 MLOAD DUP1 SWAP2 SUB SWAP1 LOG2 PUSH2 0x9D1 CALLER PUSH2 0x1F82 JUMP JUMPDEST PUSH2 0xDF4 PUSH2 0x1AE3 JUMP JUMPDEST PUSH1 0xE SLOAD PUSH1 0x1 PUSH1 0x1 PUSH1 0xA0 SHL SUB AND PUSH2 0xE4C JUMPI PUSH1 0x40 MLOAD PUSH3 0x461BCD PUSH1 0xE5 SHL DUP2 MSTORE PUSH1 0x20 PUSH1 0x4 DUP3 ADD MSTORE PUSH1 0x10 PUSH1 0x24 DUP3 ADD MSTORE PUSH32 0x526577617264732064697361626C656400000000000000000000000000000000 PUSH1 0x44 DUP3 ADD MSTORE PUSH1 0x64 ADD PUSH2 0x737 JUMP JUMPDEST PUSH2 0xE55 CALLER PUSH2 0x1F82 JUMP JUMPDEST PUSH1 0xE SLOAD PUSH1 0x40 MLOAD PUSH4 0xF41A04D PUSH1 0xE1 SHL DUP2 MSTORE CALLER PUSH1 0x4 DUP3 ADD MSTORE PUSH1 0x1 PUSH1 0x1 PUSH1 0xA0 SHL SUB SWAP1 SWAP2 AND SWAP1 PUSH4 0x1E83409A SWAP1 PUSH1 0x24 ADD PUSH1 0x20 PUSH1 0x40 MLOAD DUP1 DUP4 SUB DUP2 PUSH0 DUP8 GAS CALL ISZERO DUP1 ISZERO PUSH2 0xE9C JUMPI RETURNDATASIZE PUSH0 DUP1 RETURNDATACOPY RETURNDATASIZE PUSH0 REVERT JUMPDEST POP POP POP POP PUSH1 0x40 MLOAD RETURNDATASIZE PUSH1 0x1F NOT PUSH1 0x1F DUP3 ADD AND DUP3 ADD DUP1 PUSH1 0x40 MSTORE POP DUP2 ADD SWAP1 PUSH2 0xEC0 SWAP2 SWAP1 PUSH2 0x2D39 JUMP JUMPDEST POP PUSH2 0xECA PUSH1 0x1 DUP1 SSTORE JUMP JUMPDEST JUMP JUMPDEST PUSH2 0xED4 PUSH2 0x1EA1 JUMP JUMPDEST PUSH1 0x1 PUSH1 0x1 PUSH1 0xA0 SHL SUB DUP2 AND PUSH2 0xF2A JUMPI PUSH1 0x40 MLOAD PUSH3 0x461BCD PUSH1 0xE5 SHL DUP2 MSTORE PUSH1 0x20 PUSH1 0x4 DUP3 ADD MSTORE PUSH1 0xE PUSH1 0x24 DUP3 ADD MSTORE PUSH32 0x496E76616C6964206F7261636C65000000000000000000000000000000000000 PUSH1 0x44 DUP3 ADD MSTORE PUSH1 0x64 ADD PUSH2 0x737 JUMP JUMPDEST PUSH1 0xC DUP1 SLOAD PUSH1 0x1 PUSH1 0x1 PUSH1 0xA0 SHL SUB NOT AND PUSH1 0x1 PUSH1 0x1 PUSH1 0xA0 SHL SUB SWAP3 SWAP1 SWAP3 AND SWAP2 SWAP1 SWAP2 OR SWAP1 SSTORE JUMP JUMPDEST PUSH1 0x1 PUSH1 0x1 PUSH1 0xA0 SHL SUB DUP1 DUP4 AND PUSH0 SWAP1 DUP2 MSTORE PUSH1 0x5 PUSH1 0x20 SWAP1 DUP2 MSTORE PUSH1 0x40 DUP1 DUP4 KECCAK256 SWAP4 DUP6 AND DUP4 MSTORE SWAP3 DUP2 MSTORE DUP3 DUP3 KECCAK256 DUP4 MLOAD PUSH1 0x60 DUP2 ADD DUP6 MSTORE DUP2 SLOAD DUP1 DUP3 MSTORE PUSH1 0x1 DUP4 ADD SLOAD SWAP4 DUP3 ADD SWAP4 SWAP1 SWAP4 MSTORE PUSH1 0x2 SWAP1 SWAP2 ADD SLOAD SWAP4 DUP2 ADD SWAP4 SWAP1 SWAP4 MSTORE SWAP1 SWAP2 SWAP1 ISZERO DUP1 PUSH2 0xFA9 JUMPI POP PUSH1 0x20 DUP2 ADD MLOAD ISZERO JUMPDEST ISZERO PUSH2 0xFB7 JUMPI PUSH0 SWAP2 POP POP PUSH2 0xBFC JUMP JUMPDEST PUSH0 PUSH2 0xFF0 DUP3 PUSH0 ADD MLOAD PUSH1 0x3 PUSH0 DUP8 PUSH1 0x1 PUSH1 0x1 PUSH1 0xA0 SHL SUB AND PUSH1 0x1 PUSH1 0x1 PUSH1 0xA0 SHL SUB AND DUP2 MSTORE PUSH1 0x20 ADD SWAP1 DUP2 MSTORE PUSH1 0x20 ADD PUSH0 KECCAK256 PUSH1 0x1 ADD SLOAD DUP5 PUSH1 0x20 ADD MLOAD PUSH2 0x1ECD JUMP JUMPDEST SWAP1 POP DUP2 PUSH1 0x40 ADD MLOAD DUP2 GT PUSH2 0x1003 JUMPI PUSH0 PUSH2 0x1012 JUMP JUMPDEST PUSH1 0x40 DUP3 ADD MLOAD PUSH2 0x1012 SWAP1 DUP3 PUSH2 0x2E94 JUMP JUMPDEST SWAP6 SWAP5 POP POP POP POP POP JUMP JUMPDEST PUSH2 0x1023 PUSH2 0x1AE3 JUMP JUMPDEST CALLER PUSH0 SWAP1 DUP2 MSTORE PUSH1 0x2 PUSH1 0x20 MSTORE PUSH1 0x40 SWAP1 KECCAK256 PUSH1 0x6 ADD SLOAD PUSH1 0xFF AND ISZERO PUSH2 0x1085 JUMPI PUSH1 0x40 MLOAD PUSH3 0x461BCD PUSH1 0xE5 SHL DUP2 MSTORE PUSH1 0x20 PUSH1 0x4 DUP3 ADD MSTORE PUSH1 0xB PUSH1 0x24 DUP3 ADD MSTORE PUSH32 0x4C6F616E20616374697665000000000000000000000000000000000000000000 PUSH1 0x44 DUP3 ADD MSTORE PUSH1 0x64 ADD PUSH2 0x737 JUMP JUMPDEST PUSH0 DUP3 GT DUP1 ISZERO PUSH2 0x1093 JUMPI POP PUSH0 DUP2 GT JUMPDEST PUSH2 0x10DF JUMPI PUSH1 0x40 MLOAD PUSH3 0x461BCD PUSH1 0xE5 SHL DUP2 MSTORE PUSH1 0x20 PUSH1 0x4 DUP3 ADD MSTORE PUSH1 0xD PUSH1 0x24 DUP3 ADD MSTORE PUSH32 0x496E76616C696420696E70757400000000000000000000000000000000000000 PUSH1 0x44 DUP3 ADD MSTORE PUSH1 0x64 ADD PUSH2 0x737 JUMP JUMPDEST PUSH1 0x1 PUSH1 0x1 PUSH1 0xA0 SHL SUB DUP4 AND PUSH0 SWAP1 DUP2 MSTORE PUSH1 0x4 PUSH1 0x20 MSTORE PUSH1 0x40 SWAP1 KECCAK256 SLOAD PUSH1 0xFF AND PUSH2 0x1146 JUMPI PUSH1 0x40 MLOAD PUSH3 0x461BCD PUSH1 0xE5 SHL DUP2 MSTORE PUSH1 0x20 PUSH1 0x4 DUP3 ADD MSTORE PUSH1 0x11 PUSH1 0x24 DUP3 ADD MSTORE PUSH32 0x556E737570706F7274656420746F6B656E000000000000000000000000000000 PUSH1 0x44 DUP3 ADD MSTORE PUSH1 0x64 ADD PUSH2 0x737 JUMP JUMPDEST PUSH1 0x1 PUSH1 0x1 PUSH1 0xA0 SHL SUB DUP4 AND PUSH0 SWAP1 DUP2 MSTORE PUSH1 0x3 PUSH1 0x20 MSTORE PUSH1 0x40 SWAP1 KECCAK256 SLOAD DUP1 PUSH2 0x11AB JUMPI PUSH1 0x40 MLOAD PUSH3 0x461BCD PUSH1 0xE5 SHL DUP2 MSTORE PUSH1 0x20 PUSH1 0x4 DUP3 ADD MSTORE PUSH1 0x13 PUSH1 0x24 DUP3 ADD MSTORE PUSH32 0x426F72726F772072617465206E6F742073657400000000000000000000000000 PUSH1 0x44 DUP3 ADD MSTORE PUSH1 0x64 ADD PUSH2 0x737 JUMP JUMPDEST PUSH1 0xB SLOAD PUSH1 0x40 MLOAD PUSH4 0x3F9AF35F PUSH1 0xE2 SHL DUP2 MSTORE CALLER PUSH1 0x4 DUP3 ADD MSTORE PUSH8 0xDE0B6B3A7640000 SWAP2 PUSH1 0x1 PUSH1 0x1 PUSH1 0xA0 SHL SUB AND SWAP1 PUSH4 0xFE6BCD7C SWAP1 PUSH1 0x24 ADD PUSH1 0x20 PUSH1 0x40 MLOAD DUP1 DUP4 SUB DUP2 DUP7 GAS STATICCALL ISZERO DUP1 ISZERO PUSH2 0x11F9 JUMPI RETURNDATASIZE PUSH0 DUP1 RETURNDATACOPY RETURNDATASIZE PUSH0 REVERT JUMPDEST POP POP POP POP PUSH1 0x40 MLOAD RETURNDATASIZE PUSH1 0x1F NOT PUSH1 0x1F DUP3 ADD AND DUP3 ADD DUP1 PUSH1 0x40 MSTORE POP DUP2 ADD SWAP1 PUSH2 0x121D SWAP2 SWAP1 PUSH2 0x2D39 JUMP JUMPDEST LT ISZERO PUSH2 0x126B JUMPI PUSH1 0x40 MLOAD PUSH3 0x461BCD PUSH1 0xE5 SHL DUP2 MSTORE PUSH1 0x20 PUSH1 0x4 DUP3 ADD MSTORE PUSH1 0x11 PUSH1 0x24 DUP3 ADD MSTORE PUSH32 0x556E6865616C746879206163636F756E74000000000000000000000000000000 PUSH1 0x44 DUP3 ADD MSTORE PUSH1 0x64 ADD PUSH2 0x737 JUMP JUMPDEST PUSH1 0x40 MLOAD PUSH4 0x70A08231 PUSH1 0xE0 SHL DUP2 MSTORE ADDRESS PUSH1 0x4 DUP3 ADD MSTORE DUP4 SWAP1 PUSH1 0x1 PUSH1 0x1 PUSH1 0xA0 SHL SUB DUP7 AND SWAP1 PUSH4 0x70A08231 SWAP1 PUSH1 0x24 ADD PUSH1 0x20 PUSH1 0x40 MLOAD DUP1 DUP4 SUB DUP2 DUP7 GAS STATICCALL ISZERO DUP1 ISZERO PUSH2 0x12AF JUMPI RETURNDATASIZE PUSH0 DUP1 RETURNDATACOPY RETURNDATASIZE PUSH0 REVERT JUMPDEST POP POP POP POP PUSH1 0x40 MLOAD RETURNDATASIZE PUSH1 0x1F NOT PUSH1 0x1F DUP3 ADD AND DUP3 ADD DUP1 PUSH1 0x40 MSTORE POP DUP2 ADD SWAP1 PUSH2 0x12D3 SWAP2 SWAP1 PUSH2 0x2D39 JUMP JUMPDEST LT ISZERO PUSH2 0x1321 JUMPI PUSH1 0x40 MLOAD PUSH3 0x461BCD PUSH1 0xE5 SHL DUP2 MSTORE PUSH1 0x20 PUSH1 0x4 DUP3 ADD MSTORE PUSH1 0xC PUSH1 0x24 DUP3 ADD MSTORE PUSH32 0x4E6F206C69717569646974790000000000000000000000000000000000000000 PUSH1 0x44 DUP3 ADD MSTORE PUSH1 0x64 ADD PUSH2 0x737 JUMP JUMPDEST PUSH1 0x40 DUP1 MLOAD PUSH1 0xE0 DUP2 ADD DUP3 MSTORE PUSH1 0x1 PUSH1 0x1 PUSH1 0xA0 SHL SUB DUP7 DUP2 AND DUP1 DUP4 MSTORE PUSH1 0x20 DUP1 DUP5 ADD DUP9 DUP2 MSTORE DUP5 DUP7 ADD DUP8 DUP2 MSTORE PUSH0 PUSH1 0x60 DUP8 ADD DUP2 DUP2 MSTORE TIMESTAMP PUSH1 0x80 DUP10 ADD SWAP1 DUP2 MSTORE PUSH1 0xA0 DUP10 ADD DUP13 DUP2 MSTORE PUSH1 0x1 PUSH1 0xC0 DUP12 ADD DUP2 DUP2 MSTORE CALLER DUP7 MSTORE PUSH1 0x2 DUP1 DUP11 MSTORE DUP14 DUP8 KECCAK256 SWAP13 MLOAD DUP14 SLOAD PUSH1 0x1 PUSH1 0x1 PUSH1 0xA0 SHL SUB NOT AND SWAP13 AND SWAP12 SWAP1 SWAP12 OR DUP13 SSTORE SWAP7 MLOAD DUP12 DUP3 ADD SSTORE SWAP5 MLOAD SWAP9 DUP11 ADD SWAP9 SWAP1 SWAP9 SSTORE SWAP1 MLOAD PUSH1 0x3 DUP10 ADD SSTORE MLOAD PUSH1 0x4 DUP9 ADD SSTORE SWAP5 MLOAD PUSH1 0x5 DUP8 ADD SSTORE SWAP1 MLOAD PUSH1 0x6 SWAP6 DUP7 ADD DUP1 SLOAD PUSH1 0xFF NOT AND SWAP2 ISZERO ISZERO SWAP2 SWAP1 SWAP2 OR SWAP1 SSTORE SWAP2 DUP4 MSTORE SWAP3 SWAP1 SWAP3 MSTORE SWAP2 DUP3 KECCAK256 ADD DUP1 SLOAD DUP6 SWAP3 SWAP1 PUSH2 0x13DC SWAP1 DUP5 SWAP1 PUSH2 0x2D26 JUMP JUMPDEST SWAP1 SWAP2 SSTORE POP POP CALLER PUSH0 SWAP1 DUP2 MSTORE PUSH1 0x9 PUSH1 0x20 MSTORE PUSH1 0x40 SWAP1 KECCAK256 SLOAD PUSH1 0xFF AND PUSH2 0x1460 JUMPI CALLER PUSH0 DUP2 DUP2 MSTORE PUSH1 0x9 PUSH1 0x20 SWAP1 DUP2 MSTORE PUSH1 0x40 DUP1 DUP4 KECCAK256 DUP1 SLOAD PUSH1 0xFF NOT AND PUSH1 0x1 SWAP1 DUP2 OR SWAP1 SWAP2 SSTORE PUSH1 0x8 DUP1 SLOAD SWAP2 DUP3 ADD DUP2 SSTORE PUSH32 0xF3F7A9FE364FAAB93B216DA50A3214154F22A0A2B415B23A84C8169E8B636EE3 SWAP1 SWAP2 ADD DUP1 SLOAD PUSH1 0x1 PUSH1 0x1 PUSH1 0xA0 SHL SUB NOT AND DUP7 OR SWAP1 SSTORE SLOAD SWAP4 DUP4 MSTORE PUSH1 0xA SWAP1 SWAP2 MSTORE SWAP1 KECCAK256 SSTORE JUMPDEST PUSH2 0x1474 PUSH1 0x1 PUSH1 0x1 PUSH1 0xA0 SHL SUB DUP6 AND CALLER DUP6 PUSH2 0x202E JUMP JUMPDEST PUSH1 0x40 DUP1 MLOAD PUSH1 0x1 PUSH1 0x1 PUSH1 0xA0 SHL SUB DUP7 AND DUP2 MSTORE PUSH1 0x20 DUP2 ADD DUP6 SWAP1 MSTORE SWAP1 DUP2 ADD DUP3 SWAP1 MSTORE CALLER SWAP1 PUSH32 0x8CA033DFE8AC84B6E3E48AA36967E19D52A93A3F4D880CE8005FD4E04C97C94D SWAP1 PUSH1 0x60 ADD PUSH1 0x40 MLOAD DUP1 SWAP2 SUB SWAP1 LOG2 PUSH2 0x14C9 CALLER PUSH2 0x1F82 JUMP JUMPDEST POP PUSH2 0x14D3 PUSH1 0x1 DUP1 SSTORE JUMP JUMPDEST POP POP POP JUMP JUMPDEST PUSH2 0x14E0 PUSH2 0x1EA1 JUMP JUMPDEST PUSH2 0xECA PUSH0 PUSH2 0x205F JUMP JUMPDEST PUSH2 0x14F1 PUSH2 0x1AE3 JUMP JUMPDEST CALLER PUSH0 SWAP1 DUP2 MSTORE PUSH1 0x2 PUSH1 0x20 DUP2 DUP2 MSTORE PUSH1 0x40 SWAP3 DUP4 SWAP1 KECCAK256 DUP4 MLOAD PUSH1 0xE0 DUP2 ADD DUP6 MSTORE DUP2 SLOAD PUSH1 0x1 PUSH1 0x1 PUSH1 0xA0 SHL SUB AND DUP2 MSTORE PUSH1 0x1 DUP3 ADD SLOAD SWAP3 DUP2 ADD SWAP3 SWAP1 SWAP3 MSTORE SWAP2 DUP3 ADD SLOAD SWAP3 DUP2 ADD SWAP3 SWAP1 SWAP3 MSTORE PUSH1 0x3 DUP2 ADD SLOAD PUSH1 0x60 DUP4 ADD MSTORE PUSH1 0x4 DUP2 ADD SLOAD PUSH1 0x80 DUP4 ADD MSTORE PUSH1 0x5 DUP2 ADD SLOAD PUSH1 0xA0 DUP4 ADD MSTORE PUSH1 0x6 ADD SLOAD PUSH1 0xFF AND ISZERO ISZERO PUSH1 0xC0 DUP3 ADD DUP2 SWAP1 MSTORE PUSH2 0x159A JUMPI PUSH1 0x40 MLOAD PUSH3 0x461BCD PUSH1 0xE5 SHL DUP2 MSTORE PUSH1 0x20 PUSH1 0x4 DUP3 ADD MSTORE PUSH1 0xE PUSH1 0x24 DUP3 ADD MSTORE PUSH14 0x27379030B1BA34BB32903637B0B7 PUSH1 0x91 SHL PUSH1 0x44 DUP3 ADD MSTORE PUSH1 0x64 ADD PUSH2 0x737 JUMP JUMPDEST DUP1 MLOAD PUSH1 0x1 PUSH1 0x1 PUSH1 0xA0 SHL SUB AND ISZERO PUSH2 0x15F4 JUMPI DUP1 MLOAD PUSH1 0x1 PUSH1 0x1 PUSH1 0xA0 SHL SUB DUP4 DUP2 AND SWAP2 AND EQ PUSH2 0x15F4 JUMPI PUSH1 0x40 MLOAD PUSH3 0x461BCD PUSH1 0xE5 SHL DUP2 MSTORE PUSH1 0x20 PUSH1 0x4 DUP3 ADD MSTORE PUSH1 0xB PUSH1 0x24 DUP3 ADD MSTORE PUSH11 0x2BB937B733903A37B5B2B7 PUSH1 0xA9 SHL PUSH1 0x44 DUP3 ADD MSTORE PUSH1 0x64 ADD PUSH2 0x737 JUMP JUMPDEST PUSH0 PUSH2 0x15FE CALLER PUSH2 0x19A8 JUMP JUMPDEST DUP3 PUSH1 0x20 ADD MLOAD PUSH2 0x160D SWAP2 SWAP1 PUSH2 0x2D26 JUMP JUMPDEST SWAP1 POP PUSH2 0x161B CALLER CALLER DUP6 DUP5 PUSH2 0x1B0D JUMP JUMPDEST POP POP PUSH2 0x1626 PUSH1 0x1 DUP1 SSTORE JUMP JUMPDEST POP JUMP JUMPDEST PUSH2 0x1631 PUSH2 0x1EA1 JUMP JUMPDEST PUSH1 0xD DUP1 SLOAD PUSH1 0x1 PUSH1 0x1 PUSH1 0xA0 SHL SUB NOT AND PUSH1 0x1 PUSH1 0x1 PUSH1 0xA0 SHL SUB SWAP3 SWAP1 SWAP3 AND SWAP2 SWAP1 SWAP2 OR SWAP1 SSTORE JUMP JUMPDEST PUSH1 0x60 PUSH1 0x8 DUP1 SLOAD DUP1 PUSH1 0x20 MUL PUSH1 0x20 ADD PUSH1 0x40 MLOAD SWAP1 DUP2 ADD PUSH1 0x40 MSTORE DUP1 SWAP3 SWAP2 SWAP1 DUP2 DUP2 MSTORE PUSH1 0x20 ADD DUP3 DUP1 SLOAD DUP1 ISZERO PUSH2 0x16A9 JUMPI PUSH1 0x20 MUL DUP3 ADD SWAP2 SWAP1 PUSH0 MSTORE PUSH1 0x20 PUSH0 KECCAK256 SWAP1 JUMPDEST DUP2 SLOAD PUSH1 0x1 PUSH1 0x1 PUSH1 0xA0 SHL SUB AND DUP2 MSTORE PUSH1 0x1 SWAP1 SWAP2 ADD SWAP1 PUSH1 0x20 ADD DUP1 DUP4 GT PUSH2 0x168B JUMPI JUMPDEST POP POP POP POP POP SWAP1 POP SWAP1 JUMP JUMPDEST PUSH2 0x16BB PUSH2 0x1AE3 JUMP JUMPDEST PUSH1 0x1 PUSH1 0x1 PUSH1 0xA0 SHL SUB DUP4 AND PUSH2 0x1711 JUMPI PUSH1 0x40 MLOAD PUSH3 0x461BCD PUSH1 0xE5 SHL DUP2 MSTORE PUSH1 0x20 PUSH1 0x4 DUP3 ADD MSTORE PUSH1 0x10 PUSH1 0x24 DUP3 ADD MSTORE PUSH32 0x496E76616C696420626F72726F77657200000000000000000000000000000000 PUSH1 0x44 DUP3 ADD MSTORE PUSH1 0x64 ADD PUSH2 0x737 JUMP JUMPDEST PUSH1 0x1 PUSH1 0x1 PUSH1 0xA0 SHL SUB DUP1 DUP5 AND PUSH0 SWAP1 DUP2 MSTORE PUSH1 0x2 PUSH1 0x20 MSTORE PUSH1 0x40 SWAP1 KECCAK256 SLOAD AND DUP1 ISZERO PUSH2 0x1780 JUMPI DUP1 PUSH1 0x1 PUSH1 0x1 PUSH1 0xA0 SHL SUB AND DUP4 PUSH1 0x1 PUSH1 0x1 PUSH1 0xA0 SHL SUB AND EQ PUSH2 0x1780 JUMPI PUSH1 0x40 MLOAD PUSH3 0x461BCD PUSH1 0xE5 SHL DUP2 MSTORE PUSH1 0x20 PUSH1 0x4 DUP3 ADD MSTORE PUSH1 0xB PUSH1 0x24 DUP3 ADD MSTORE PUSH11 0x2BB937B733903A37B5B2B7 PUSH1 0xA9 SHL PUSH1 0x44 DUP3 ADD MSTORE PUSH1 0x64 ADD PUSH2 0x737 JUMP JUMPDEST PUSH2 0x178C CALLER DUP6 DUP6 DUP6 PUSH2 0x1B0D JUMP JUMPDEST PUSH1 0x40 DUP1 MLOAD PUSH1 0x1 PUSH1 0x1 PUSH1 0xA0 SHL SUB DUP6 DUP2 AND DUP3 MSTORE PUSH1 0x20 DUP3 ADD DUP6 SWAP1 MSTORE DUP7 AND SWAP2 CALLER SWAP2 PUSH32 0xFDF4ECA8A57DB936F4318275C3026CE05C05B1AE0070E178BE74903A6D0A5E19 SWAP2 ADD PUSH1 0x40 MLOAD DUP1 SWAP2 SUB SWAP1 LOG3 POP PUSH2 0x14D3 PUSH1 0x1 DUP1 SSTORE JUMP JUMPDEST PUSH1 0x8 DUP2 DUP2 SLOAD DUP2 LT PUSH2 0x17ED JUMPI PUSH0 DUP1 REVERT JUMPDEST PUSH0 SWAP2 DUP3 MSTORE PUSH1 0x20 SWAP1 SWAP2 KECCAK256 ADD SLOAD PUSH1 0x1 PUSH1 0x1 PUSH1 0xA0 SHL SUB AND SWAP1 POP DUP2 JUMP JUMPDEST PUSH2 0x180E PUSH2 0x1EA1 JUMP JUMPDEST PUSH2 0x1816 PUSH2 0x1AE3 JUMP JUMPDEST PUSH1 0x1 PUSH1 0x1 PUSH1 0xA0 SHL SUB DUP2 AND PUSH2 0x186C JUMPI PUSH1 0x40 MLOAD PUSH3 0x461BCD PUSH1 0xE5 SHL DUP2 MSTORE PUSH1 0x20 PUSH1 0x4 DUP3 ADD MSTORE PUSH1 0xE PUSH1 0x24 DUP3 ADD MSTORE PUSH32 0x496E76616C696420746172676574000000000000000000000000000000000000 PUSH1 0x44 DUP3 ADD MSTORE PUSH1 0x64 ADD PUSH2 0x737 JUMP JUMPDEST PUSH0 DUP3 GT PUSH2 0x18A6 JUMPI PUSH1 0x40 MLOAD PUSH3 0x461BCD PUSH1 0xE5 SHL DUP2 MSTORE PUSH1 0x20 PUSH1 0x4 DUP3 ADD MSTORE PUSH1 0x8 PUSH1 0x24 DUP3 ADD MSTORE PUSH8 0x416D6F756E743D3 PUSH1 0xC4 SHL PUSH1 0x44 DUP3 ADD MSTORE PUSH1 0x64 ADD PUSH2 0x737 JUMP JUMPDEST PUSH1 0x1 PUSH1 0x1 PUSH1 0xA0 SHL SUB DUP4 AND PUSH0 SWAP1 DUP2 MSTORE PUSH1 0x7 PUSH1 0x20 MSTORE PUSH1 0x40 SWAP1 KECCAK256 SLOAD DUP3 GT ISZERO PUSH2 0x190D JUMPI PUSH1 0x40 MLOAD PUSH3 0x461BCD PUSH1 0xE5 SHL DUP2 MSTORE PUSH1 0x20 PUSH1 0x4 DUP3 ADD MSTORE PUSH1 0xE PUSH1 0x24 DUP3 ADD MSTORE PUSH32 0x457863656564732070726F666974000000000000000000000000000000000000 PUSH1 0x44 DUP3 ADD MSTORE PUSH1 0x64 ADD PUSH2 0x737 JUMP JUMPDEST PUSH1 0x1 PUSH1 0x1 PUSH1 0xA0 SHL SUB DUP4 AND PUSH0 SWAP1 DUP2 MSTORE PUSH1 0x7 PUSH1 0x20 MSTORE PUSH1 0x40 DUP2 KECCAK256 DUP1 SLOAD DUP5 SWAP3 SWAP1 PUSH2 0x1934 SWAP1 DUP5 SWAP1 PUSH2 0x2E94 JUMP JUMPDEST SWAP1 SWAP2 SSTORE POP PUSH2 0x194E SWAP1 POP PUSH1 0x1 PUSH1 0x1 PUSH1 0xA0 SHL SUB DUP5 AND DUP3 DUP5 PUSH2 0x202E JUMP JUMPDEST PUSH2 0x14D3 PUSH1 0x1 DUP1 SSTORE JUMP JUMPDEST PUSH2 0x195F PUSH2 0x1EA1 JUMP JUMPDEST PUSH1 0xE DUP1 SLOAD PUSH1 0x1 PUSH1 0x1 PUSH1 0xA0 SHL SUB NOT AND PUSH1 0x1 PUSH1 0x1 PUSH1 0xA0 SHL SUB DUP4 AND SWAP1 DUP2 OR SWAP1 SWAP2 SSTORE PUSH1 0x40 MLOAD PUSH32 0x1CC0D0FCD88DF90CDE5F20B27B655722F28AFE56A6384C3C7A339EC18564C439 SWAP1 PUSH0 SWAP1 LOG2 POP JUMP JUMPDEST PUSH1 0x1 PUSH1 0x1 PUSH1 0xA0 SHL SUB DUP1 DUP3 AND PUSH0 SWAP1 DUP2 MSTORE PUSH1 0x2 PUSH1 0x20 DUP2 DUP2 MSTORE PUSH1 0x40 DUP1 DUP5 KECCAK256 DUP2 MLOAD PUSH1 0xE0 DUP2 ADD DUP4 MSTORE DUP2 SLOAD SWAP1 SWAP7 AND DUP7 MSTORE PUSH1 0x1 DUP2 ADD SLOAD SWAP3 DUP7 ADD SWAP3 SWAP1 SWAP3 MSTORE SWAP2 DUP2 ADD SLOAD SWAP2 DUP5 ADD SWAP2 SWAP1 SWAP2 MSTORE PUSH1 0x3 DUP2 ADD SLOAD PUSH1 0x60 DUP5 ADD MSTORE PUSH1 0x4 DUP2 ADD SLOAD PUSH1 0x80 DUP5 ADD MSTORE PUSH1 0x5 DUP2 ADD SLOAD PUSH1 0xA0 DUP5 ADD MSTORE PUSH1 0x6 ADD SLOAD PUSH1 0xFF AND ISZERO ISZERO PUSH1 0xC0 DUP4 ADD DUP2 SWAP1 MSTORE SWAP1 SWAP2 SWAP1 PUSH2 0x1A26 JUMPI POP PUSH0 SWAP3 SWAP2 POP POP JUMP JUMPDEST PUSH0 DUP2 PUSH1 0x80 ADD MLOAD TIMESTAMP PUSH2 0x1A37 SWAP2 SWAP1 PUSH2 0x2E94 JUMP JUMPDEST SWAP1 POP PUSH5 0x496CEBB800 DUP2 DUP4 PUSH1 0x40 ADD MLOAD DUP5 PUSH1 0x20 ADD MLOAD PUSH2 0x1A54 SWAP2 SWAP1 PUSH2 0x2E5E JUMP JUMPDEST PUSH2 0x1A5E SWAP2 SWAP1 PUSH2 0x2E5E JUMP JUMPDEST PUSH2 0x1A68 SWAP2 SWAP1 PUSH2 0x2E75 JUMP JUMPDEST SWAP5 SWAP4 POP POP POP POP JUMP JUMPDEST PUSH2 0x1A78 PUSH2 0x1EA1 JUMP JUMPDEST PUSH1 0x1 PUSH1 0x1 PUSH1 0xA0 SHL SUB DUP2 AND PUSH2 0x1AA1 JUMPI PUSH1 0x40 MLOAD PUSH4 0x1E4FBDF7 PUSH1 0xE0 SHL DUP2 MSTORE PUSH0 PUSH1 0x4 DUP3 ADD MSTORE PUSH1 0x24 ADD PUSH2 0x737 JUMP JUMPDEST PUSH2 0x1626 DUP2 PUSH2 0x205F JUMP JUMPDEST PUSH2 0x1AB2 PUSH2 0x1AE3 JUMP JUMPDEST PUSH2 0x1ABD CALLER DUP4 DUP4 PUSH2 0x20AE JUMP JUMPDEST PUSH2 0x9DB PUSH1 0x1 DUP1 SSTORE JUMP JUMPDEST PUSH2 0x1ACE PUSH2 0x1AE3 JUMP JUMPDEST PUSH2 0x1ADA CALLER DUP3 PUSH0 NOT PUSH2 0x20AE JUMP JUMPDEST PUSH2 0x1626 PUSH1 0x1 DUP1 SSTORE JUMP JUMPDEST PUSH1 0x2 PUSH1 0x1 SLOAD SUB PUSH2 0x1B06 JUMPI PUSH1 0x40 MLOAD PUSH4 0x3EE5AEB5 PUSH1 0xE0 SHL DUP2 MSTORE PUSH1 0x4 ADD PUSH1 0x40 MLOAD DUP1 SWAP2 SUB SWAP1 REVERT JUMPDEST PUSH1 0x2 PUSH1 0x1 SSTORE JUMP JUMPDEST PUSH1 0x1 PUSH1 0x1 PUSH1 0xA0 SHL SUB DUP4 AND PUSH0 SWAP1 DUP2 MSTORE PUSH1 0x2 PUSH1 0x20 MSTORE PUSH1 0x40 SWAP1 KECCAK256 PUSH1 0x6 DUP2 ADD SLOAD PUSH1 0xFF AND PUSH2 0x1B69 JUMPI PUSH1 0x40 MLOAD PUSH3 0x461BCD PUSH1 0xE5 SHL DUP2 MSTORE PUSH1 0x20 PUSH1 0x4 DUP3 ADD MSTORE PUSH1 0xE PUSH1 0x24 DUP3 ADD MSTORE PUSH14 0x27379030B1BA34BB32903637B0B7 PUSH1 0x91 SHL PUSH1 0x44 DUP3 ADD MSTORE PUSH1 0x64 ADD PUSH2 0x737 JUMP JUMPDEST PUSH0 DUP3 GT PUSH2 0x1BA3 JUMPI PUSH1 0x40 MLOAD PUSH3 0x461BCD PUSH1 0xE5 SHL DUP2 MSTORE PUSH1 0x20 PUSH1 0x4 DUP3 ADD MSTORE PUSH1 0x8 PUSH1 0x24 DUP3 ADD MSTORE PUSH8 0x416D6F756E743D3 PUSH1 0xC4 SHL PUSH1 0x44 DUP3 ADD MSTORE PUSH1 0x64 ADD PUSH2 0x737 JUMP JUMPDEST PUSH2 0x1BB8 PUSH1 0x1 PUSH1 0x1 PUSH1 0xA0 SHL SUB DUP5 AND DUP7 ADDRESS DUP6 PUSH2 0x1F00 JUMP JUMPDEST PUSH1 0x1 PUSH1 0x1 PUSH1 0xA0 SHL SUB DUP4 AND PUSH0 SWAP1 DUP2 MSTORE PUSH1 0x6 PUSH1 0x20 MSTORE PUSH1 0x40 DUP2 KECCAK256 PUSH1 0x2 ADD DUP1 SLOAD DUP5 SWAP3 SWAP1 PUSH2 0x1BE2 SWAP1 DUP5 SWAP1 PUSH2 0x2D26 JUMP JUMPDEST SWAP1 SWAP2 SSTORE POP PUSH0 SWAP1 POP PUSH2 0x1BF2 DUP6 PUSH2 0x19A8 JUMP JUMPDEST SWAP1 POP PUSH0 DUP2 DUP4 PUSH1 0x1 ADD SLOAD PUSH2 0x1C05 SWAP2 SWAP1 PUSH2 0x2D26 JUMP JUMPDEST SWAP1 POP DUP1 DUP5 GT ISZERO PUSH2 0x1C13 JUMPI DUP1 SWAP4 POP JUMPDEST DUP4 PUSH0 DUP4 DUP3 LT PUSH2 0x1C49 JUMPI PUSH2 0x1C26 DUP5 DUP4 PUSH2 0x2E94 JUMP JUMPDEST SWAP2 POP DUP4 DUP6 PUSH1 0x3 ADD PUSH0 DUP3 DUP3 SLOAD PUSH2 0x1C3B SWAP2 SWAP1 PUSH2 0x2D26 JUMP JUMPDEST SWAP1 SWAP2 SSTORE POP DUP5 SWAP2 POP PUSH2 0x1C66 SWAP1 POP JUMP JUMPDEST DUP2 DUP6 PUSH1 0x3 ADD PUSH0 DUP3 DUP3 SLOAD PUSH2 0x1C5C SWAP2 SWAP1 PUSH2 0x2D26 JUMP JUMPDEST SWAP1 SWAP2 SSTORE POP PUSH0 SWAP3 SWAP2 POP POP JUMPDEST DUP1 ISZERO PUSH2 0x1D3A JUMPI PUSH1 0x2 DUP6 ADD SLOAD PUSH1 0x1 PUSH1 0x1 PUSH1 0xA0 SHL SUB DUP9 AND PUSH0 SWAP1 DUP2 MSTORE PUSH1 0x3 PUSH1 0x20 MSTORE PUSH1 0x40 DUP2 KECCAK256 PUSH1 0x1 ADD SLOAD SWAP1 DUP3 ISZERO DUP1 ISZERO SWAP1 PUSH2 0x1C9B JUMPI POP PUSH0 DUP3 GT JUMPDEST ISZERO PUSH2 0x1CC2 JUMPI DUP3 PUSH2 0x1CAB DUP4 DUP7 PUSH2 0x2E5E JUMP JUMPDEST PUSH2 0x1CB5 SWAP2 SWAP1 PUSH2 0x2E75 JUMP JUMPDEST SWAP1 POP DUP4 DUP2 GT ISZERO PUSH2 0x1CC2 JUMPI POP DUP3 JUMPDEST PUSH0 PUSH2 0x1CCD DUP3 DUP7 PUSH2 0x2E94 JUMP JUMPDEST SWAP1 POP DUP2 ISZERO PUSH2 0x1D02 JUMPI PUSH1 0x1 PUSH1 0x1 PUSH1 0xA0 SHL SUB DUP12 AND PUSH0 SWAP1 DUP2 MSTORE PUSH1 0x6 PUSH1 0x20 MSTORE PUSH1 0x40 DUP2 KECCAK256 DUP1 SLOAD DUP5 SWAP3 SWAP1 PUSH2 0x1CFC SWAP1 DUP5 SWAP1 PUSH2 0x2D26 JUMP JUMPDEST SWAP1 SWAP2 SSTORE POP POP JUMPDEST DUP1 ISZERO PUSH2 0x1D35 JUMPI PUSH1 0x1 PUSH1 0x1 PUSH1 0xA0 SHL SUB DUP12 AND PUSH0 SWAP1 DUP2 MSTORE PUSH1 0x7 PUSH1 0x20 MSTORE PUSH1 0x40 DUP2 KECCAK256 DUP1 SLOAD DUP4 SWAP3 SWAP1 PUSH2 0x1D2F SWAP1 DUP5 SWAP1 PUSH2 0x2D26 JUMP JUMPDEST SWAP1 SWAP2 SSTORE POP POP JUMPDEST POP POP POP POP JUMPDEST DUP2 ISZERO PUSH2 0x1D6F JUMPI DUP5 PUSH1 0x1 ADD SLOAD DUP3 LT PUSH2 0x1D56 JUMPI PUSH0 PUSH1 0x1 DUP7 ADD SSTORE PUSH2 0x1D6F JUMP JUMPDEST DUP2 DUP6 PUSH1 0x1 ADD PUSH0 DUP3 DUP3 SLOAD PUSH2 0x1D69 SWAP2 SWAP1 PUSH2 0x2E94 JUMP JUMPDEST SWAP1 SWAP2 SSTORE POP POP JUMPDEST TIMESTAMP PUSH1 0x4 DUP7 ADD SSTORE PUSH1 0x1 DUP6 ADD SLOAD PUSH0 SUB PUSH2 0x1E0F JUMPI PUSH1 0x6 DUP6 ADD DUP1 SLOAD PUSH1 0xFF NOT AND SWAP1 SSTORE DUP5 SLOAD PUSH1 0x1 PUSH1 0x1 PUSH1 0xA0 SHL SUB NOT AND DUP6 SSTORE PUSH1 0x1 PUSH1 0x1 PUSH1 0xA0 SHL SUB DUP9 AND PUSH0 SWAP1 DUP2 MSTORE PUSH1 0x9 PUSH1 0x20 MSTORE PUSH1 0x40 SWAP1 KECCAK256 SLOAD PUSH1 0xFF AND ISZERO PUSH2 0x1DE2 JUMPI PUSH1 0x1 PUSH1 0x1 PUSH1 0xA0 SHL SUB DUP9 AND PUSH0 SWAP1 DUP2 MSTORE PUSH1 0x9 PUSH1 0x20 MSTORE PUSH1 0x40 SWAP1 KECCAK256 DUP1 SLOAD PUSH1 0xFF NOT AND SWAP1 SSTORE PUSH2 0x1DE2 DUP9 PUSH2 0x2561 JUMP JUMPDEST DUP8 PUSH1 0x1 PUSH1 0x1 PUSH1 0xA0 SHL SUB AND DUP10 PUSH1 0x1 PUSH1 0x1 PUSH1 0xA0 SHL SUB AND SUB PUSH2 0x1E0F JUMPI PUSH2 0x1E0F DUP9 PUSH2 0x1E0A PUSH1 0xA DUP8 PUSH2 0x2E75 JUMP JUMPDEST PUSH2 0x2692 JUMP JUMPDEST PUSH1 0x6 DUP6 ADD SLOAD PUSH0 SWAP1 PUSH1 0xFF AND PUSH2 0x1E23 JUMPI PUSH0 PUSH2 0x1E3B JUMP JUMPDEST PUSH2 0x1E2C DUP10 PUSH2 0x19A8 JUMP JUMPDEST DUP7 PUSH1 0x1 ADD SLOAD PUSH2 0x1E3B SWAP2 SWAP1 PUSH2 0x2D26 JUMP JUMPDEST PUSH1 0x40 DUP1 MLOAD PUSH1 0x1 PUSH1 0x1 PUSH1 0xA0 SHL SUB DUP12 DUP2 AND DUP3 MSTORE PUSH1 0x20 DUP3 ADD DUP12 SWAP1 MSTORE SWAP2 DUP2 ADD DUP4 SWAP1 MSTORE SWAP2 SWAP3 POP DUP11 AND SWAP1 PUSH32 0xA6F6D5E50BC84F153A0D6A9F9B37780433F92DC32D7E10F975AB3831C36898FA SWAP1 PUSH1 0x60 ADD PUSH1 0x40 MLOAD DUP1 SWAP2 SUB SWAP1 LOG2 PUSH2 0x1E95 DUP10 PUSH2 0x1F82 JUMP JUMPDEST POP POP POP POP POP POP POP POP POP POP JUMP JUMPDEST PUSH0 SLOAD PUSH1 0x1 PUSH1 0x1 PUSH1 0xA0 SHL SUB AND CALLER EQ PUSH2 0xECA JUMPI PUSH1 0x40 MLOAD PUSH4 0x118CDAA7 PUSH1 0xE0 SHL DUP2 MSTORE CALLER PUSH1 0x4 DUP3 ADD MSTORE PUSH1 0x24 ADD PUSH2 0x737 JUMP JUMPDEST PUSH0 DUP1 PUSH2 0x1ED9 DUP4 TIMESTAMP PUSH2 0x2E94 JUMP JUMPDEST SWAP1 POP PUSH5 0x496CEBB800 DUP2 PUSH2 0x1EEC DUP7 DUP9 PUSH2 0x2E5E JUMP JUMPDEST PUSH2 0x1EF6 SWAP2 SWAP1 PUSH2 0x2E5E JUMP JUMPDEST PUSH2 0x1012 SWAP2 SWAP1 PUSH2 0x2E75 JUMP JUMPDEST PUSH1 0x40 MLOAD PUSH1 0x1 PUSH1 0x1 PUSH1 0xA0 SHL SUB DUP5 DUP2 AND PUSH1 0x24 DUP4 ADD MSTORE DUP4 DUP2 AND PUSH1 0x44 DUP4 ADD MSTORE PUSH1 0x64 DUP3 ADD DUP4 SWAP1 MSTORE PUSH2 0x1F7C SWAP2 DUP7 SWAP2 DUP3 AND SWAP1 PUSH4 0x23B872DD SWAP1 PUSH1 0x84 ADD JUMPDEST PUSH1 0x40 MLOAD PUSH1 0x20 DUP2 DUP4 SUB SUB DUP2 MSTORE SWAP1 PUSH1 0x40 MSTORE SWAP2 POP PUSH1 0xE0 SHL PUSH1 0x20 DUP3 ADD DUP1 MLOAD PUSH28 0xFFFFFFFFFFFFFFFFFFFFFFFFFFFFFFFFFFFFFFFFFFFFFFFFFFFFFFFF DUP4 DUP2 DUP4 AND OR DUP4 MSTORE POP POP POP POP PUSH2 0x2782 JUMP JUMPDEST POP POP POP POP JUMP JUMPDEST PUSH1 0xE SLOAD PUSH1 0x1 PUSH1 0x1 PUSH1 0xA0 SHL SUB AND ISZERO DUP1 PUSH2 0x1FA1 JUMPI POP PUSH1 0x1 PUSH1 0x1 PUSH1 0xA0 SHL SUB DUP2 AND ISZERO JUMPDEST ISZERO PUSH2 0x1FA9 JUMPI POP JUMP JUMPDEST PUSH0 PUSH2 0x1FB3 DUP3 PUSH2 0x27EE JUMP JUMPDEST SWAP1 POP PUSH0 PUSH2 0x1FBF DUP4 PUSH2 0x29FA JUMP JUMPDEST PUSH1 0xE SLOAD PUSH1 0x40 MLOAD PUSH4 0xCA0CAF9D PUSH1 0xE0 SHL DUP2 MSTORE PUSH1 0x1 PUSH1 0x1 PUSH1 0xA0 SHL SUB DUP7 DUP2 AND PUSH1 0x4 DUP4 ADD MSTORE PUSH1 0x24 DUP3 ADD DUP7 SWAP1 MSTORE PUSH1 0x44 DUP3 ADD DUP5 SWAP1 MSTORE SWAP3 SWAP4 POP SWAP2 AND SWAP1 PUSH4 0xCA0CAF9D SWAP1 PUSH1 0x64 ADD PUSH0 PUSH1 0x40 MLOAD DUP1 DUP4 SUB DUP2 PUSH0 DUP8 DUP1 EXTCODESIZE ISZERO DUP1 ISZERO PUSH2 0x2013 JUMPI PUSH0 DUP1 REVERT JUMPDEST POP GAS CALL ISZERO DUP1 ISZERO PUSH2 0x2025 JUMPI RETURNDATASIZE PUSH0 DUP1 RETURNDATACOPY RETURNDATASIZE PUSH0 REVERT JUMPDEST POP POP POP POP POP POP POP JUMP JUMPDEST PUSH1 0x40 MLOAD PUSH1 0x1 PUSH1 0x1 PUSH1 0xA0 SHL SUB DUP4 DUP2 AND PUSH1 0x24 DUP4 ADD MSTORE PUSH1 0x44 DUP3 ADD DUP4 SWAP1 MSTORE PUSH2 0x14D3 SWAP2 DUP6 SWAP2 DUP3 AND SWAP1 PUSH4 0xA9059CBB SWAP1 PUSH1 0x64 ADD PUSH2 0x1F35 JUMP JUMPDEST PUSH0 DUP1 SLOAD PUSH1 0x1 PUSH1 0x1 PUSH1 0xA0 SHL SUB DUP4 DUP2 AND PUSH1 0x1 PUSH1 0x1 PUSH1 0xA0 SHL SUB NOT DUP4 AND DUP2 OR DUP5 SSTORE PUSH1 0x40 MLOAD SWAP2 SWAP1 SWAP3 AND SWAP3 DUP4 SWAP2 PUSH32 0x8BE0079C531659141344CD1FD0A4F28419497F9722A3DAAFE3B4186F6B6457E0 SWAP2 SWAP1 LOG3 POP POP JUMP JUMPDEST PUSH1 0x1 PUSH1 0x1 PUSH1 0xA0 SHL SUB DUP1 DUP5 AND PUSH0 SWAP1 DUP2 MSTORE PUSH1 0x5 PUSH1 0x20 SWAP1 DUP2 MSTORE PUSH1 0x40 DUP1 DUP4 KECCAK256 SWAP4 DUP7 AND DUP4 MSTORE SWAP3 SWAP1 MSTORE KECCAK256 DUP1 SLOAD PUSH2 0x2120 JUMPI PUSH1 0x40 MLOAD PUSH3 0x461BCD PUSH1 0xE5 SHL DUP2 MSTORE PUSH1 0x20 PUSH1 0x4 DUP3 ADD MSTORE PUSH1 0xA PUSH1 0x24 DUP3 ADD MSTORE PUSH32 0x4E6F206465706F73697400000000000000000000000000000000000000000000 PUSH1 0x44 DUP3 ADD MSTORE PUSH1 0x64 ADD PUSH2 0x737 JUMP JUMPDEST DUP1 SLOAD PUSH0 PUSH2 0x212D DUP7 DUP7 PUSH2 0xF4C JUMP JUMPDEST SWAP1 POP PUSH0 NOT DUP5 SUB PUSH2 0x230A JUMPI PUSH0 PUSH2 0x2142 DUP3 DUP5 PUSH2 0x2D26 JUMP JUMPDEST PUSH1 0x40 MLOAD PUSH4 0x70A08231 PUSH1 0xE0 SHL DUP2 MSTORE ADDRESS PUSH1 0x4 DUP3 ADD MSTORE SWAP1 SWAP2 POP DUP2 SWAP1 PUSH1 0x1 PUSH1 0x1 PUSH1 0xA0 SHL SUB DUP9 AND SWAP1 PUSH4 0x70A08231 SWAP1 PUSH1 0x24 ADD PUSH1 0x20 PUSH1 0x40 MLOAD DUP1 DUP4 SUB DUP2 DUP7 GAS STATICCALL ISZERO DUP1 ISZERO PUSH2 0x2189 JUMPI RETURNDATASIZE PUSH0 DUP1 RETURNDATACOPY RETURNDATASIZE PUSH0 REVERT JUMPDEST POP POP POP POP PUSH1 0x40 MLOAD RETURNDATASIZE PUSH1 0x1F NOT PUSH1 0x1F DUP3 ADD AND DUP3 ADD DUP1 PUSH1 0x40 MSTORE POP DUP2 ADD SWAP1 PUSH2 0x21AD SWAP2 SWAP1 PUSH2 0x2D39 JUMP JUMPDEST LT ISZERO PUSH2 0x21FB JUMPI PUSH1 0x40 MLOAD PUSH3 0x461BCD PUSH1 0xE5 SHL DUP2 MSTORE PUSH1 0x20 PUSH1 0x4 DUP3 ADD MSTORE PUSH1 0x16 PUSH1 0x24 DUP3 ADD MSTORE PUSH32 0x496E73756666696369656E74206C697175696469747900000000000000000000 PUSH1 0x44 DUP3 ADD MSTORE PUSH1 0x64 ADD PUSH2 0x737 JUMP JUMPDEST PUSH0 DUP1 DUP6 SSTORE PUSH1 0x1 DUP6 ADD DUP2 SWAP1 SSTORE PUSH1 0x2 DUP6 ADD DUP1 SLOAD DUP5 SWAP3 SWAP1 PUSH2 0x221A SWAP1 DUP5 SWAP1 PUSH2 0x2D26 JUMP JUMPDEST SWAP1 SWAP2 SSTORE POP POP PUSH1 0x1 PUSH1 0x1 PUSH1 0xA0 SHL SUB DUP7 AND PUSH0 SWAP1 DUP2 MSTORE PUSH1 0x6 PUSH1 0x20 MSTORE PUSH1 0x40 SWAP1 KECCAK256 SLOAD DUP4 GT PUSH2 0x226F JUMPI PUSH1 0x1 PUSH1 0x1 PUSH1 0xA0 SHL SUB DUP7 AND PUSH0 SWAP1 DUP2 MSTORE PUSH1 0x6 PUSH1 0x20 MSTORE PUSH1 0x40 DUP2 KECCAK256 DUP1 SLOAD DUP6 SWAP3 SWAP1 PUSH2 0x2264 SWAP1 DUP5 SWAP1 PUSH2 0x2E94 JUMP JUMPDEST SWAP1 SWAP2 SSTORE POP PUSH2 0x2288 SWAP1 POP JUMP JUMPDEST PUSH1 0x1 PUSH1 0x1 PUSH1 0xA0 SHL SUB DUP7 AND PUSH0 SWAP1 DUP2 MSTORE PUSH1 0x6 PUSH1 0x20 MSTORE PUSH1 0x40 DUP2 KECCAK256 SSTORE JUMPDEST PUSH2 0x229C PUSH1 0x1 PUSH1 0x1 PUSH1 0xA0 SHL SUB DUP8 AND DUP9 DUP4 PUSH2 0x202E JUMP JUMPDEST PUSH2 0x22AB DUP8 PUSH2 0x1E0A PUSH1 0xA DUP6 PUSH2 0x2E75 JUMP JUMPDEST PUSH1 0x40 DUP1 MLOAD PUSH1 0x1 PUSH1 0x1 PUSH1 0xA0 SHL SUB DUP9 DUP2 AND DUP3 MSTORE PUSH1 0x20 DUP3 ADD DUP7 SWAP1 MSTORE SWAP2 DUP2 ADD DUP5 SWAP1 MSTORE PUSH1 0x60 DUP2 ADD DUP4 SWAP1 MSTORE SWAP1 DUP9 AND SWAP1 PUSH32 0x3CAE9923FD3C2F468AA25A8EF687923E37F957459557C0380FD06526C0B8CDBC SWAP1 PUSH1 0x80 ADD PUSH1 0x40 MLOAD DUP1 SWAP2 SUB SWAP1 LOG2 POP POP POP POP POP POP POP JUMP JUMPDEST PUSH0 DUP5 GT DUP1 ISZERO PUSH2 0x2319 JUMPI POP DUP2 DUP5 GT ISZERO JUMPDEST PUSH2 0x2365 JUMPI PUSH1 0x40 MLOAD PUSH3 0x461BCD PUSH1 0xE5 SHL DUP2 MSTORE PUSH1 0x20 PUSH1 0x4 DUP3 ADD MSTORE PUSH1 0xE PUSH1 0x24 DUP3 ADD MSTORE PUSH32 0x496E76616C696420616D6F756E74000000000000000000000000000000000000 PUSH1 0x44 DUP3 ADD MSTORE PUSH1 0x64 ADD PUSH2 0x737 JUMP JUMPDEST PUSH0 DUP1 DUP4 GT PUSH2 0x2373 JUMPI PUSH0 PUSH2 0x2388 JUMP JUMPDEST DUP3 PUSH2 0x237E DUP7 DUP5 PUSH2 0x2E5E JUMP JUMPDEST PUSH2 0x2388 SWAP2 SWAP1 PUSH2 0x2E75 JUMP JUMPDEST SWAP1 POP PUSH0 PUSH2 0x2395 DUP3 DUP8 PUSH2 0x2D26 JUMP JUMPDEST PUSH1 0x40 MLOAD PUSH4 0x70A08231 PUSH1 0xE0 SHL DUP2 MSTORE ADDRESS PUSH1 0x4 DUP3 ADD MSTORE SWAP1 SWAP2 POP DUP2 SWAP1 PUSH1 0x1 PUSH1 0x1 PUSH1 0xA0 SHL SUB DUP10 AND SWAP1 PUSH4 0x70A08231 SWAP1 PUSH1 0x24 ADD PUSH1 0x20 PUSH1 0x40 MLOAD DUP1 DUP4 SUB DUP2 DUP7 GAS STATICCALL ISZERO DUP1 ISZERO PUSH2 0x23DC JUMPI RETURNDATASIZE PUSH0 DUP1 RETURNDATACOPY RETURNDATASIZE PUSH0 REVERT JUMPDEST POP POP POP POP PUSH1 0x40 MLOAD RETURNDATASIZE PUSH1 0x1F NOT PUSH1 0x1F DUP3 ADD AND DUP3 ADD DUP1 PUSH1 0x40 MSTORE POP DUP2 ADD SWAP1 PUSH2 0x2400 SWAP2 SWAP1 PUSH2 0x2D39 JUMP JUMPDEST LT ISZERO PUSH2 0x244E JUMPI PUSH1 0x40 MLOAD PUSH3 0x461BCD PUSH1 0xE5 SHL DUP2 MSTORE PUSH1 0x20 PUSH1 0x4 DUP3 ADD MSTORE PUSH1 0x16 PUSH1 0x24 DUP3 ADD MSTORE PUSH32 0x496E73756666696369656E74206C697175696469747900000000000000000000 PUSH1 0x44 DUP3 ADD MSTORE PUSH1 0x64 ADD PUSH2 0x737 JUMP JUMPDEST PUSH2 0x2458 DUP7 DUP6 PUSH2 0x2E94 JUMP JUMPDEST DUP6 SSTORE PUSH1 0x2 DUP6 ADD DUP1 SLOAD DUP4 SWAP2 SWAP1 PUSH0 SWAP1 PUSH2 0x2470 SWAP1 DUP5 SWAP1 PUSH2 0x2D26 JUMP JUMPDEST SWAP1 SWAP2 SSTORE POP POP TIMESTAMP PUSH1 0x1 DUP7 ADD SSTORE PUSH1 0x1 PUSH1 0x1 PUSH1 0xA0 SHL SUB DUP8 AND PUSH0 SWAP1 DUP2 MSTORE PUSH1 0x6 PUSH1 0x20 MSTORE PUSH1 0x40 SWAP1 KECCAK256 SLOAD DUP7 GT PUSH2 0x24CB JUMPI PUSH1 0x1 PUSH1 0x1 PUSH1 0xA0 SHL SUB DUP8 AND PUSH0 SWAP1 DUP2 MSTORE PUSH1 0x6 PUSH1 0x20 MSTORE PUSH1 0x40 DUP2 KECCAK256 DUP1 SLOAD DUP9 SWAP3 SWAP1 PUSH2 0x24C0 SWAP1 DUP5 SWAP1 PUSH2 0x2E94 JUMP JUMPDEST SWAP1 SWAP2 SSTORE POP PUSH2 0x24E4 SWAP1 POP JUMP JUMPDEST PUSH1 0x1 PUSH1 0x1 PUSH1 0xA0 SHL SUB DUP8 AND PUSH0 SWAP1 DUP2 MSTORE PUSH1 0x6 PUSH1 0x20 MSTORE PUSH1 0x40 DUP2 KECCAK256 SSTORE JUMPDEST PUSH2 0x24F8 PUSH1 0x1 PUSH1 0x1 PUSH1 0xA0 SHL SUB DUP9 AND DUP10 DUP4 PUSH2 0x202E JUMP JUMPDEST PUSH1 0x40 DUP1 MLOAD PUSH1 0x1 PUSH1 0x1 PUSH1 0xA0 SHL SUB DUP10 DUP2 AND DUP3 MSTORE PUSH1 0x20 DUP3 ADD DUP10 SWAP1 MSTORE SWAP2 DUP2 ADD DUP5 SWAP1 MSTORE PUSH1 0x60 DUP2 ADD DUP4 SWAP1 MSTORE SWAP1 DUP10 AND SWAP1 PUSH32 0x3CAE9923FD3C2F468AA25A8EF687923E37F957459557C0380FD06526C0B8CDBC SWAP1 PUSH1 0x80 ADD PUSH1 0x40 MLOAD DUP1 SWAP2 SUB SWAP1 LOG2 PUSH2 0x2557 DUP9 PUSH2 0x1F82 JUMP JUMPDEST POP POP POP POP POP POP POP POP JUMP JUMPDEST PUSH1 0x1 PUSH1 0x1 PUSH1 0xA0 SHL SUB DUP2 AND PUSH0 SWAP1 DUP2 MSTORE PUSH1 0xA PUSH1 0x20 MSTORE PUSH1 0x40 DUP2 KECCAK256 SLOAD SWAP1 DUP2 SWAP1 SUB PUSH2 0x2585 JUMPI POP POP JUMP JUMPDEST PUSH0 PUSH2 0x2591 PUSH1 0x1 DUP4 PUSH2 0x2E94 JUMP JUMPDEST PUSH1 0x8 SLOAD SWAP1 SWAP2 POP PUSH0 SWAP1 PUSH2 0x25A5 SWAP1 PUSH1 0x1 SWAP1 PUSH2 0x2E94 JUMP JUMPDEST SWAP1 POP DUP1 DUP3 EQ PUSH2 0x263D JUMPI PUSH0 PUSH1 0x8 DUP3 DUP2 SLOAD DUP2 LT PUSH2 0x25C2 JUMPI PUSH2 0x25C2 PUSH2 0x2EA7 JUMP JUMPDEST PUSH0 SWAP2 DUP3 MSTORE PUSH1 0x20 SWAP1 SWAP2 KECCAK256 ADD SLOAD PUSH1 0x8 DUP1 SLOAD PUSH1 0x1 PUSH1 0x1 PUSH1 0xA0 SHL SUB SWAP1 SWAP3 AND SWAP3 POP DUP3 SWAP2 DUP6 SWAP1 DUP2 LT PUSH2 0x25F0 JUMPI PUSH2 0x25F0 PUSH2 0x2EA7 JUMP JUMPDEST PUSH0 SWAP2 DUP3 MSTORE PUSH1 0x20 SWAP1 SWAP2 KECCAK256 ADD DUP1 SLOAD PUSH1 0x1 PUSH1 0x1 PUSH1 0xA0 SHL SUB NOT AND PUSH1 0x1 PUSH1 0x1 PUSH1 0xA0 SHL SUB SWAP3 SWAP1 SWAP3 AND SWAP2 SWAP1 SWAP2 OR SWAP1 SSTORE PUSH2 0x2623 DUP4 PUSH1 0x1 PUSH2 0x2D26 JUMP JUMPDEST PUSH1 0x1 PUSH1 0x1 PUSH1 0xA0 SHL SUB SWAP1 SWAP2 AND PUSH0 SWAP1 DUP2 MSTORE PUSH1 0xA PUSH1 0x20 MSTORE PUSH1 0x40 SWAP1 KECCAK256 SSTORE JUMPDEST PUSH1 0x8 DUP1 SLOAD DUP1 PUSH2 0x264E JUMPI PUSH2 0x264E PUSH2 0x2EBB JUMP JUMPDEST PUSH0 DUP3 DUP2 MSTORE PUSH1 0x20 DUP1 DUP3 KECCAK256 DUP4 ADD PUSH0 NOT SWAP1 DUP2 ADD DUP1 SLOAD PUSH1 0x1 PUSH1 0x1 PUSH1 0xA0 SHL SUB NOT AND SWAP1 SSTORE SWAP1 SWAP3 ADD SWAP1 SWAP3 SSTORE PUSH1 0x1 PUSH1 0x1 PUSH1 0xA0 SHL SUB SWAP6 SWAP1 SWAP6 AND DUP2 MSTORE PUSH1 0xA SWAP1 SWAP5 MSTORE POP POP PUSH1 0x40 DUP3 KECCAK256 SWAP2 SWAP1 SWAP2 SSTORE POP JUMP JUMPDEST PUSH1 0xD SLOAD PUSH1 0x1 PUSH1 0x1 PUSH1 0xA0 SHL SUB AND ISZERO DUP1 ISZERO SWAP1 PUSH2 0x26AB JUMPI POP PUSH0 DUP2 GT JUMPDEST ISZERO PUSH2 0x9DB JUMPI PUSH1 0xD SLOAD PUSH1 0x40 MLOAD PUSH4 0x70A08231 PUSH1 0xE0 SHL DUP2 MSTORE ADDRESS PUSH1 0x4 DUP3 ADD MSTORE PUSH0 SWAP2 PUSH1 0x1 PUSH1 0x1 PUSH1 0xA0 SHL SUB AND SWAP1 PUSH4 0x70A08231 SWAP1 PUSH1 0x24 ADD PUSH1 0x20 PUSH1 0x40 MLOAD DUP1 DUP4 SUB DUP2 DUP7 GAS STATICCALL ISZERO DUP1 ISZERO PUSH2 0x26F6 JUMPI RETURNDATASIZE PUSH0 DUP1 RETURNDATACOPY RETURNDATASIZE PUSH0 REVERT JUMPDEST POP POP POP POP PUSH1 0x40 MLOAD RETURNDATASIZE PUSH1 0x1F NOT PUSH1 0x1F DUP3 ADD AND DUP3 ADD DUP1 PUSH1 0x40 MSTORE POP DUP2 ADD SWAP1 PUSH2 0x271A SWAP2 SWAP1 PUSH2 0x2D39 JUMP JUMPDEST SWAP1 POP DUP2 DUP2 LT PUSH2 0x14D3 JUMPI PUSH1 0xD SLOAD PUSH2 0x273A SWAP1 PUSH1 0x1 PUSH1 0x1 PUSH1 0xA0 SHL SUB AND DUP5 DUP5 PUSH2 0x202E JUMP JUMPDEST DUP3 PUSH1 0x1 PUSH1 0x1 PUSH1 0xA0 SHL SUB AND PUSH32 0xE34918FF1C7084970068B53FD71AD6D8B04E9F15D3886CBF006443E6CDC52EA6 DUP4 PUSH1 0x40 MLOAD PUSH2 0x2775 SWAP2 DUP2 MSTORE PUSH1 0x20 ADD SWAP1 JUMP JUMPDEST PUSH1 0x40 MLOAD DUP1 SWAP2 SUB SWAP1 LOG2 POP POP POP JUMP JUMPDEST PUSH0 DUP1 PUSH1 0x20 PUSH0 DUP5 MLOAD PUSH1 0x20 DUP7 ADD PUSH0 DUP9 GAS CALL DUP1 PUSH2 0x27A1 JUMPI PUSH1 0x40 MLOAD RETURNDATASIZE PUSH0 DUP3 RETURNDATACOPY RETURNDATASIZE DUP2 REVERT JUMPDEST POP POP PUSH0 MLOAD RETURNDATASIZE SWAP2 POP DUP2 ISZERO PUSH2 0x27B8 JUMPI DUP1 PUSH1 0x1 EQ ISZERO PUSH2 0x27C5 JUMP JUMPDEST PUSH1 0x1 PUSH1 0x1 PUSH1 0xA0 SHL SUB DUP5 AND EXTCODESIZE ISZERO JUMPDEST ISZERO PUSH2 0x1F7C JUMPI PUSH1 0x40 MLOAD PUSH4 0x5274AFE7 PUSH1 0xE0 SHL DUP2 MSTORE PUSH1 0x1 PUSH1 0x1 PUSH1 0xA0 SHL SUB DUP6 AND PUSH1 0x4 DUP3 ADD MSTORE PUSH1 0x24 ADD PUSH2 0x737 JUMP JUMPDEST PUSH1 0xC SLOAD PUSH0 SWAP1 PUSH1 0x1 PUSH1 0x1 PUSH1 0xA0 SHL SUB AND ISZERO DUP1 PUSH2 0x2808 JUMPI POP PUSH1 0xF SLOAD ISZERO JUMPDEST ISZERO PUSH2 0x2814 JUMPI POP PUSH0 SWAP2 SWAP1 POP JUMP JUMPDEST PUSH0 JUMPDEST PUSH1 0xF SLOAD DUP2 LT ISZERO PUSH2 0x29F4 JUMPI PUSH0 PUSH1 0xF DUP3 DUP2 SLOAD DUP2 LT PUSH2 0x2834 JUMPI PUSH2 0x2834 PUSH2 0x2EA7 JUMP JUMPDEST PUSH0 SWAP2 DUP3 MSTORE PUSH1 0x20 DUP1 DUP4 KECCAK256 SWAP1 SWAP2 ADD SLOAD PUSH1 0x1 PUSH1 0x1 PUSH1 0xA0 SHL SUB DUP8 DUP2 AND DUP5 MSTORE PUSH1 0x5 DUP4 MSTORE PUSH1 0x40 DUP1 DUP6 KECCAK256 SWAP2 SWAP1 SWAP3 AND DUP1 DUP6 MSTORE SWAP1 DUP4 MSTORE DUP2 DUP5 KECCAK256 DUP3 MLOAD PUSH1 0x60 DUP2 ADD DUP5 MSTORE DUP2 SLOAD DUP1 DUP3 MSTORE PUSH1 0x1 DUP4 ADD SLOAD SWAP6 DUP3 ADD SWAP6 SWAP1 SWAP6 MSTORE PUSH1 0x2 SWAP1 SWAP2 ADD SLOAD SWAP3 DUP2 ADD SWAP3 SWAP1 SWAP3 MSTORE SWAP4 POP SWAP2 SUB PUSH2 0x2899 JUMPI POP POP PUSH2 0x29EC JUMP JUMPDEST PUSH1 0xC SLOAD PUSH1 0x40 MLOAD PUSH4 0x41976E09 PUSH1 0xE0 SHL DUP2 MSTORE PUSH1 0x1 PUSH1 0x1 PUSH1 0xA0 SHL SUB DUP5 DUP2 AND PUSH1 0x4 DUP4 ADD MSTORE PUSH0 SWAP3 AND SWAP1 PUSH4 0x41976E09 SWAP1 PUSH1 0x24 ADD PUSH1 0x20 PUSH1 0x40 MLOAD DUP1 DUP4 SUB DUP2 DUP7 GAS STATICCALL ISZERO DUP1 ISZERO PUSH2 0x28E1 JUMPI RETURNDATASIZE PUSH0 DUP1 RETURNDATACOPY RETURNDATASIZE PUSH0 REVERT JUMPDEST POP POP POP POP PUSH1 0x40 MLOAD RETURNDATASIZE PUSH1 0x1F NOT PUSH1 0x1F DUP3 ADD AND DUP3 ADD DUP1 PUSH1 0x40 MSTORE POP DUP2 ADD SWAP1 PUSH2 0x2905 SWAP2 SWAP1 PUSH2 0x2D39 JUMP JUMPDEST SWAP1 POP PUSH0 DUP2 GT PUSH2 0x2956 JUMPI PUSH1 0x40 MLOAD PUSH3 0x461BCD PUSH1 0xE5 SHL DUP2 MSTORE PUSH1 0x20 PUSH1 0x4 DUP3 ADD MSTORE PUSH1 0x9 PUSH1 0x24 DUP3 ADD MSTORE PUSH32 0x4261642070726963650000000000000000000000000000000000000000000000 PUSH1 0x44 DUP3 ADD MSTORE PUSH1 0x64 ADD PUSH2 0x737 JUMP JUMPDEST PUSH0 DUP4 PUSH1 0x1 PUSH1 0x1 PUSH1 0xA0 SHL SUB AND PUSH4 0x313CE567 PUSH1 0x40 MLOAD DUP2 PUSH4 0xFFFFFFFF AND PUSH1 0xE0 SHL DUP2 MSTORE PUSH1 0x4 ADD PUSH1 0x20 PUSH1 0x40 MLOAD DUP1 DUP4 SUB DUP2 DUP7 GAS STATICCALL ISZERO DUP1 ISZERO PUSH2 0x2993 JUMPI RETURNDATASIZE PUSH0 DUP1 RETURNDATACOPY RETURNDATASIZE PUSH0 REVERT JUMPDEST POP POP POP POP PUSH1 0x40 MLOAD RETURNDATASIZE PUSH1 0x1F NOT PUSH1 0x1F DUP3 ADD AND DUP3 ADD DUP1 PUSH1 0x40 MSTORE POP DUP2 ADD SWAP1 PUSH2 0x29B7 SWAP2 SWAP1 PUSH2 0x2D50 JUMP JUMPDEST SWAP1 POP PUSH2 0x29C4 DUP2 PUSH1 0xA PUSH2 0x2E50 JUMP JUMPDEST DUP4 MLOAD PUSH2 0x29D1 SWAP1 DUP5 SWAP1 PUSH2 0x2E5E JUMP JUMPDEST PUSH2 0x29DB SWAP2 SWAP1 PUSH2 0x2E75 JUMP JUMPDEST PUSH2 0x29E5 SWAP1 DUP8 PUSH2 0x2D26 JUMP JUMPDEST SWAP6 POP POP POP POP POP JUMPDEST PUSH1 0x1 ADD PUSH2 0x2816 JUMP JUMPDEST POP SWAP2 SWAP1 POP JUMP JUMPDEST PUSH1 0xC SLOAD PUSH0 SWAP1 PUSH1 0x1 PUSH1 0x1 PUSH1 0xA0 SHL SUB AND PUSH2 0x2A13 JUMPI POP PUSH0 SWAP2 SWAP1 POP JUMP JUMPDEST PUSH1 0x1 PUSH1 0x1 PUSH1 0xA0 SHL SUB DUP1 DUP4 AND PUSH0 SWAP1 DUP2 MSTORE PUSH1 0x2 PUSH1 0x20 DUP2 DUP2 MSTORE PUSH1 0x40 SWAP3 DUP4 SWAP1 KECCAK256 DUP4 MLOAD PUSH1 0xE0 DUP2 ADD DUP6 MSTORE DUP2 SLOAD SWAP1 SWAP6 AND DUP6 MSTORE PUSH1 0x1 DUP2 ADD SLOAD SWAP2 DUP6 ADD SWAP2 SWAP1 SWAP2 MSTORE SWAP1 DUP2 ADD SLOAD SWAP2 DUP4 ADD SWAP2 SWAP1 SWAP2 MSTORE PUSH1 0x3 DUP2 ADD SLOAD PUSH1 0x60 DUP4 ADD MSTORE PUSH1 0x4 DUP2 ADD SLOAD PUSH1 0x80 DUP4 ADD MSTORE PUSH1 0x5 DUP2 ADD SLOAD PUSH1 0xA0 DUP4 ADD MSTORE PUSH1 0x6 ADD SLOAD PUSH1 0xFF AND ISZERO DUP1 ISZERO PUSH1 0xC0 DUP4 ADD MSTORE DUP1 PUSH2 0x2A95 JUMPI POP DUP1 MLOAD PUSH1 0x1 PUSH1 0x1 PUSH1 0xA0 SHL SUB AND ISZERO JUMPDEST ISZERO PUSH2 0x2AA2 JUMPI POP PUSH0 SWAP3 SWAP2 POP POP JUMP JUMPDEST PUSH0 PUSH2 0x2AAC DUP5 PUSH2 0x19A8 JUMP JUMPDEST DUP3 PUSH1 0x20 ADD MLOAD PUSH2 0x2ABB SWAP2 SWAP1 PUSH2 0x2D26 JUMP JUMPDEST PUSH1 0xC SLOAD DUP4 MLOAD PUSH1 0x40 MLOAD PUSH4 0x41976E09 PUSH1 0xE0 SHL DUP2 MSTORE PUSH1 0x1 PUSH1 0x1 PUSH1 0xA0 SHL SUB SWAP2 DUP3 AND PUSH1 0x4 DUP3 ADD MSTORE SWAP3 SWAP4 POP PUSH0 SWAP3 SWAP2 AND SWAP1 PUSH4 0x41976E09 SWAP1 PUSH1 0x24 ADD PUSH1 0x20 PUSH1 0x40 MLOAD DUP1 DUP4 SUB DUP2 DUP7 GAS STATICCALL ISZERO DUP1 ISZERO PUSH2 0x2B09 JUMPI RETURNDATASIZE PUSH0 DUP1 RETURNDATACOPY RETURNDATASIZE PUSH0 REVERT JUMPDEST POP POP POP POP PUSH1 0x40 MLOAD RETURNDATASIZE PUSH1 0x1F NOT PUSH1 0x1F DUP3 ADD AND DUP3 ADD DUP1 PUSH1 0x40 MSTORE POP DUP2 ADD SWAP1 PUSH2 0x2B2D SWAP2 SWAP1 PUSH2 0x2D39 JUMP JUMPDEST SWAP1 POP DUP1 PUSH0 SUB PUSH2 0x2B40 JUMPI POP PUSH0 SWAP5 SWAP4 POP POP POP POP JUMP JUMPDEST PUSH0 DUP4 PUSH0 ADD MLOAD PUSH1 0x1 PUSH1 0x1 PUSH1 0xA0 SHL SUB AND PUSH4 0x313CE567 PUSH1 0x40 MLOAD DUP2 PUSH4 0xFFFFFFFF AND PUSH1 0xE0 SHL DUP2 MSTORE PUSH1 0x4 ADD PUSH1 0x20 PUSH1 0x40 MLOAD DUP1 DUP4 SUB DUP2 DUP7 GAS STATICCALL ISZERO DUP1 ISZERO PUSH2 0x864 JUMPI RETURNDATASIZE PUSH0 DUP1 RETURNDATACOPY RETURNDATASIZE PUSH0 REVERT JUMPDEST DUP1 CALLDATALOAD PUSH1 0x1 PUSH1 0x1 PUSH1 0xA0 SHL SUB DUP2 AND DUP2 EQ PUSH2 0x2B96 JUMPI PUSH0 DUP1 REVERT JUMPDEST SWAP2 SWAP1 POP JUMP JUMPDEST PUSH0 PUSH1 0x20 DUP3 DUP5 SUB SLT ISZERO PUSH2 0x2BAB JUMPI PUSH0 DUP1 REVERT JUMPDEST PUSH2 0x949 DUP3 PUSH2 0x2B80 JUMP JUMPDEST PUSH0 DUP1 PUSH1 0x40 DUP4 DUP6 SUB SLT ISZERO PUSH2 0x2BC5 JUMPI PUSH0 DUP1 REVERT JUMPDEST PUSH2 0x2BCE DUP4 PUSH2 0x2B80 JUMP JUMPDEST SWAP5 PUSH1 0x20 SWAP4 SWAP1 SWAP4 ADD CALLDATALOAD SWAP4 POP POP POP JUMP JUMPDEST PUSH0 DUP1 PUSH0 PUSH1 0x60 DUP5 DUP7 SUB SLT ISZERO PUSH2 0x2BEE JUMPI PUSH0 DUP1 REVERT JUMPDEST PUSH2 0x2BF7 DUP5 PUSH2 0x2B80 JUMP JUMPDEST SWAP6 PUSH1 0x20 DUP6 ADD CALLDATALOAD SWAP6 POP PUSH1 0x40 SWAP1 SWAP5 ADD CALLDATALOAD SWAP4 SWAP3 POP POP POP JUMP JUMPDEST PUSH0 DUP1 PUSH1 0x40 DUP4 DUP6 SUB SLT ISZERO PUSH2 0x2C1D JUMPI PUSH0 DUP1 REVERT JUMPDEST PUSH2 0x2C26 DUP4 PUSH2 0x2B80 JUMP JUMPDEST SWAP2 POP PUSH2 0x2C34 PUSH1 0x20 DUP5 ADD PUSH2 0x2B80 JUMP JUMPDEST SWAP1 POP SWAP3 POP SWAP3 SWAP1 POP JUMP JUMPDEST PUSH1 0x20 DUP1 DUP3 MSTORE DUP3 MLOAD DUP3 DUP3 ADD DUP2 SWAP1 MSTORE PUSH0 SWAP2 SWAP1 DUP5 DUP3 ADD SWAP1 PUSH1 0x40 DUP6 ADD SWAP1 DUP5 JUMPDEST DUP2 DUP2 LT ISZERO PUSH2 0x2C7D JUMPI DUP4 MLOAD PUSH1 0x1 PUSH1 0x1 PUSH1 0xA0 SHL SUB AND DUP4 MSTORE SWAP3 DUP5 ADD SWAP3 SWAP2 DUP5 ADD SWAP2 PUSH1 0x1 ADD PUSH2 0x2C58 JUMP JUMPDEST POP SWAP1 SWAP7 SWAP6 POP POP POP POP POP POP JUMP JUMPDEST PUSH0 DUP1 PUSH0 PUSH1 0x60 DUP5 DUP7 SUB SLT ISZERO PUSH2 0x2C9B JUMPI PUSH0 DUP1 REVERT JUMPDEST PUSH2 0x2CA4 DUP5 PUSH2 0x2B80 JUMP JUMPDEST SWAP3 POP PUSH2 0x2CB2 PUSH1 0x20 DUP6 ADD PUSH2 0x2B80 JUMP JUMPDEST SWAP2 POP PUSH1 0x40 DUP5 ADD CALLDATALOAD SWAP1 POP SWAP3 POP SWAP3 POP SWAP3 JUMP JUMPDEST PUSH0 PUSH1 0x20 DUP3 DUP5 SUB SLT ISZERO PUSH2 0x2CD2 JUMPI PUSH0 DUP1 REVERT JUMPDEST POP CALLDATALOAD SWAP2 SWAP1 POP JUMP JUMPDEST PUSH0 DUP1 PUSH0 PUSH1 0x60 DUP5 DUP7 SUB SLT ISZERO PUSH2 0x2CEB JUMPI PUSH0 DUP1 REVERT JUMPDEST PUSH2 0x2CF4 DUP5 PUSH2 0x2B80 JUMP JUMPDEST SWAP3 POP PUSH1 0x20 DUP5 ADD CALLDATALOAD SWAP2 POP PUSH2 0x2D09 PUSH1 0x40 DUP6 ADD PUSH2 0x2B80 JUMP JUMPDEST SWAP1 POP SWAP3 POP SWAP3 POP SWAP3 JUMP JUMPDEST PUSH4 0x4E487B71 PUSH1 0xE0 SHL PUSH0 MSTORE PUSH1 0x11 PUSH1 0x4 MSTORE PUSH1 0x24 PUSH0 REVERT JUMPDEST DUP1 DUP3 ADD DUP1 DUP3 GT ISZERO PUSH2 0xBFC JUMPI PUSH2 0xBFC PUSH2 0x2D12 JUMP JUMPDEST PUSH0 PUSH1 0x20 DUP3 DUP5 SUB SLT ISZERO PUSH2 0x2D49 JUMPI PUSH0 DUP1 REVERT JUMPDEST POP MLOAD SWAP2 SWAP1 POP JUMP JUMPDEST PUSH0 PUSH1 0x20 DUP3 DUP5 SUB SLT ISZERO PUSH2 0x2D60 JUMPI PUSH0 DUP1 REVERT JUMPDEST DUP2 MLOAD PUSH1 0xFF DUP2 AND DUP2 EQ PUSH2 0x949 JUMPI PUSH0 DUP1 REVERT JUMPDEST PUSH1 0x1 DUP2 DUP2 JUMPDEST DUP1 DUP6 GT ISZERO PUSH2 0x2DAA JUMPI DUP2 PUSH0 NOT DIV DUP3 GT ISZERO PUSH2 0x2D90 JUMPI PUSH2 0x2D90 PUSH2 0x2D12 JUMP JUMPDEST DUP1 DUP6 AND ISZERO PUSH2 0x2D9D JUMPI SWAP2 DUP2 MUL SWAP2 JUMPDEST SWAP4 DUP5 SHR SWAP4 SWAP1 DUP1 MUL SWAP1 PUSH2 0x2D75 JUMP JUMPDEST POP SWAP3 POP SWAP3 SWAP1 POP JUMP JUMPDEST PUSH0 DUP3 PUSH2 0x2DC0 JUMPI POP PUSH1 0x1 PUSH2 0xBFC JUMP JUMPDEST DUP2 PUSH2 0x2DCC JUMPI POP PUSH0 PUSH2 0xBFC JUMP JUMPDEST DUP2 PUSH1 0x1 DUP2 EQ PUSH2 0x2DE2 JUMPI PUSH1 0x2 DUP2 EQ PUSH2 0x2DEC JUMPI PUSH2 0x2E08 JUMP JUMPDEST PUSH1 0x1 SWAP2 POP POP PUSH2 0xBFC JUMP JUMPDEST PUSH1 0xFF DUP5 GT ISZERO PUSH2 0x2DFD JUMPI PUSH2 0x2DFD PUSH2 0x2D12 JUMP JUMPDEST POP POP PUSH1 0x1 DUP3 SHL PUSH2 0xBFC JUMP JUMPDEST POP PUSH1 0x20 DUP4 LT PUSH2 0x133 DUP4 LT AND PUSH1 0x4E DUP5 LT PUSH1 0xB DUP5 LT AND OR ISZERO PUSH2 0x2E2B JUMPI POP DUP2 DUP2 EXP PUSH2 0xBFC JUMP JUMPDEST PUSH2 0x2E35 DUP4 DUP4 PUSH2 0x2D70 JUMP JUMPDEST DUP1 PUSH0 NOT DIV DUP3 GT ISZERO PUSH2 0x2E48 JUMPI PUSH2 0x2E48 PUSH2 0x2D12 JUMP JUMPDEST MUL SWAP4 SWAP3 POP POP POP JUMP JUMPDEST PUSH0 PUSH2 0x949 PUSH1 0xFF DUP5 AND DUP4 PUSH2 0x2DB2 JUMP JUMPDEST DUP1 DUP3 MUL DUP2 ISZERO DUP3 DUP3 DIV DUP5 EQ OR PUSH2 0xBFC JUMPI PUSH2 0xBFC PUSH2 0x2D12 JUMP JUMPDEST PUSH0 DUP3 PUSH2 0x2E8F JUMPI PUSH4 0x4E487B71 PUSH1 0xE0 SHL PUSH0 MSTORE PUSH1 0x12 PUSH1 0x4 MSTORE PUSH1 0x24 PUSH0 REVERT JUMPDEST POP DIV SWAP1 JUMP JUMPDEST DUP2 DUP2 SUB DUP2 DUP2 GT ISZERO PUSH2 0xBFC JUMPI PUSH2 0xBFC PUSH2 0x2D12 JUMP JUMPDEST PUSH4 0x4E487B71 PUSH1 0xE0 SHL PUSH0 MSTORE PUSH1 0x32 PUSH1 0x4 MSTORE PUSH1 0x24 PUSH0 REVERT JUMPDEST PUSH4 0x4E487B71 PUSH1 0xE0 SHL PUSH0 MSTORE PUSH1 0x31 PUSH1 0x4 MSTORE PUSH1 0x24 PUSH0 REVERT INVALID LOG1 PUSH5 0x736F6C6343 STOP ADDMOD XOR STOP EXP "},"gasEstimates":{"creation":{"codeDepositCost":"2399200","executionCost":"infinite","totalCost":"infinite"},"external":{"activeBorrowers(uint256)":"4689","calculateInterest(address)":"infinite","calculateLenderReward(address,address)":"infinite","claimRewards()":"infinite","collateralManager()":"2394","depositToPool(address,uint256)":"infinite","getActiveBorrowerCount()":"2336","getActiveBorrowers()":"infinite","getAvailableLiquidity(address)":"infinite","getLoanToken(address)":"2600","getOutstandingLoan(address)":"infinite","getOutstandingLoanUSD(address)":"infinite","isBorrower(address)":"2595","isSupportedToken(address)":"2619","lenders(address,address)":"infinite","loans(address)":"15454","owner()":"2386","priceOracle()":"2393","protocolProfit(address)":"2605","ratesByToken(address)":"4744","renounceOwnership()":"infinite","repay(address,uint256)":"infinite","repayAll(address)":"infinite","repayFor(address,address,uint256)":"infinite","requestLoan(address,uint256,uint256)":"infinite","rewardToken()":"2413","rewardsDistributor()":"2437","setPriceOracle(address)":"26857","setRewardToken(address)":"26844","setRewardsDistributor(address)":"27937","supportToken(address,uint256,uint256)":"123664","transferOwnership(address)":"28418","treasury(address)":"6837","withdraw(address,uint256)":"infinite","withdrawAll(address)":"infinite","withdrawProtocolProfit(address,uint256,address)":"infinite"},"internal":{"_accrueLender(uint256,uint256,uint256)":"infinite","_distributeReward(address,uint256)":"infinite","_getUserBorrowedUSD(address)":"infinite","_getUserSuppliedUSD(address)":"infinite","_notifyRewards(address)":"infinite","_removeActiveBorrower(address)":"infinite","_repayInternal(address,address,address,uint256)":"infinite","_withdraw(address,address,uint256)":"infinite"}},"methodIdentifiers":{"activeBorrowers(uint256)":"9eb78798","calculateInterest(address)":"e11932cf","calculateLenderReward(address,address)":"581fe917","claimRewards()":"372500ab","collateralManager()":"23be345c","depositToPool(address,uint256)":"2f6d58dc","getActiveBorrowerCount()":"c63ee4d0","getActiveBorrowers()":"8f6596b1","getAvailableLiquidity(address)":"266e2bd8","getLoanToken(address)":"0ccd8ab5","getOutstandingLoan(address)":"1b7adeca","getOutstandingLoanUSD(address)":"1955c977","isBorrower(address)":"eaf6e483","isSupportedToken(address)":"240028e8","lenders(address,address)":"4162d0ea","loans(address)":"73b4086b","owner()":"8da5cb5b","priceOracle()":"2630c12f","protocolProfit(address)":"d85bf034","ratesByToken(address)":"63c29926","renounceOwnership()":"715018a6","repay(address,uint256)":"22867d78","repayAll(address)":"7c27383b","repayFor(address,address,uint256)":"976ce495","requestLoan(address,uint256,uint256)":"6f77ff55","rewardToken()":"f7c618c1","rewardsDistributor()":"3f2a5540","setPriceOracle(address)":"530e784f","setRewardToken(address)":"8aee8127","setRewardsDistributor(address)":"d1f5c33b","supportToken(address,uint256,uint256)":"263aa7ba","transferOwnership(address)":"f2fde38b","treasury(address)":"2d809cb6","withdraw(address,uint256)":"f3fef3a3","withdrawAll(address)":"fa09e630","withdrawProtocolProfit(address,uint256,address)":"b2d16bc7"}},"storageLayout":{"storage":[{"astId":8,"contract":"contracts/LoanManager.sol:LoanManager","label":"_owner","offset":0,"slot":"0","type":"t_address"},{"astId":1498,"contract":"contracts/LoanManager.sol:LoanManager","label":"_status","offset":0,"slot":"1","type":"t_uint256"},{"astId":2889,"contract":"contracts/LoanManager.sol:LoanManager","label":"loans","offset":0,"slot":"2","type":"t_mapping(t_address,t_struct(Loan)2865_storage)"},{"astId":2894,"contract":"contracts/LoanManager.sol:LoanManager","label":"ratesByToken","offset":0,"slot":"3","type":"t_mapping(t_address,t_struct(InterestRates)2870_storage)"},{"astId":2898,"contract":"contracts/LoanManager.sol:LoanManager","label":"isSupportedToken","offset":0,"slot":"4","type":"t_mapping(t_address,t_bool)"},{"astId":2905,"contract":"contracts/LoanManager.sol:LoanManager","label":"lenders","offset":0,"slot":"5","type":"t_mapping(t_address,t_mapping(t_address,t_struct(Lender)2877_storage))"},{"astId":2910,"contract":"contracts/LoanManager.sol:LoanManager","label":"treasury","offset":0,"slot":"6","type":"t_mapping(t_address,t_struct(TreasuryStats)2884_storage)"},{"astId":2914,"contract":"contracts/LoanManager.sol:LoanManager","label":"protocolProfit","offset":0,"slot":"7","type":"t_mapping(t_address,t_uint256)"},{"astId":2917,"contract":"contracts/LoanManager.sol:LoanManager","label":"activeBorrowers","offset":0,"slot":"8","type":"t_array(t_address)dyn_storage"},{"astId":2921,"contract":"contracts/LoanManager.sol:LoanManager","label":"isBorrower","offset":0,"slot":"9","type":"t_mapping(t_address,t_bool)"},{"astId":2925,"contract":"contracts/LoanManager.sol:LoanManager","label":"activeBorrowerIndex","offset":0,"slot":"10","type":"t_mapping(t_address,t_uint256)"},{"astId":2928,"contract":"contracts/LoanManager.sol:LoanManager","label":"collateralManager","offset":0,"slot":"11","type":"t_contract(ICollateralManager)2833"},{"astId":2931,"contract":"contracts/LoanManager.sol:LoanManager","label":"priceOracle","offset":0,"slot":"12","type":"t_contract(IPriceOracle)2842"},{"astId":2934,"contract":"contracts/LoanManager.sol:LoanManager","label":"rewardToken","offset":0,"slot":"13","type":"t_contract(IERC20)967"},{"astId":2937,"contract":"contracts/LoanManager.sol:LoanManager","label":"rewardsDistributor","offset":0,"slot":"14","type":"t_contract(IRewardsDistributor)5953"},{"astId":4879,"contract":"contracts/LoanManager.sol:LoanManager","label":"_supportedTokens","offset":0,"slot":"15","type":"t_array(t_address)dyn_storage"}],"types":{"t_address":{"encoding":"inplace","label":"address","numberOfBytes":"20"},"t_array(t_address)dyn_storage":{"base":"t_address","encoding":"dynamic_array","label":"address[]","numberOfBytes":"32"},"t_bool":{"encoding":"inplace","label":"bool","numberOfBytes":"1"},"t_contract(ICollateralManager)2833":{"encoding":"inplace","label":"contract ICollateralManager","numberOfBytes":"20"},"t_contract(IERC20)967":{"encoding":"inplace","label":"contract IERC20","numberOfBytes":"20"},"t_contract(IPriceOracle)2842":{"encoding":"inplace","label":"contract IPriceOracle","numberOfBytes":"20"},"t_contract(IRewardsDistributor)5953":{"encoding":"inplace","label":"contract IRewardsDistributor","numberOfBytes":"20"},"t_mapping(t_address,t_bool)":{"encoding":"mapping","key":"t_address","label":"mapping(address => bool)","numberOfBytes":"32","value":"t_bool"},"t_mapping(t_address,t_mapping(t_address,t_struct(Lender)2877_storage))":{"encoding":"mapping","key":"t_address","label":"mapping(address => mapping(address => struct LoanManager.Lender))","numberOfBytes":"32","value":"t_mapping(t_address,t_struct(Lender)2877_storage)"},"t_mapping(t_address,t_struct(InterestRates)2870_storage)":{"encoding":"mapping","key":"t_address","label":"mapping(address => struct LoanManager.InterestRates)","numberOfBytes":"32","value":"t_struct(InterestRates)2870_storage"},"t_mapping(t_address,t_struct(Lender)2877_storage)":{"encoding":"mapping","key":"t_address","label":"mapping(address => struct LoanManager.Lender)","numberOfBytes":"32","value":"t_struct(Lender)2877_storage"},"t_mapping(t_address,t_struct(Loan)2865_storage)":{"encoding":"mapping","key":"t_address","label":"mapping(address => struct LoanManager.Loan)","numberOfBytes":"32","value":"t_struct(Loan)2865_storage"},"t_mapping(t_address,t_struct(TreasuryStats)2884_storage)":{"encoding":"mapping","key":"t_address","label":"mapping(address => struct LoanManager.TreasuryStats)","numberOfBytes":"32","value":"t_struct(TreasuryStats)2884_storage"},"t_mapping(t_address,t_uint256)":{"encoding":"mapping","key":"t_address","label":"mapping(address => uint256)","numberOfBytes":"32","value":"t_uint256"},"t_struct(InterestRates)2870_storage":{"encoding":"inplace","label":"struct LoanManager.InterestRates","members":[{"astId":2867,"contract":"contracts/LoanManager.sol:LoanManager","label":"borrowRate","offset":0,"slot":"0","type":"t_uint256"},{"astId":2869,"contract":"contracts/LoanManager.sol:LoanManager","label":"lendRate","offset":0,"slot":"1","type":"t_uint256"}],"numberOfBytes":"64"},"t_struct(Lender)2877_storage":{"encoding":"inplace","label":"struct LoanManager.Lender","members":[{"astId":2872,"contract":"contracts/LoanManager.sol:LoanManager","label":"deposited","offset":0,"slot":"0","type":"t_uint256"},{"astId":2874,"contract":"contracts/LoanManager.sol:LoanManager","label":"depositTime","offset":0,"slot":"1","type":"t_uint256"},{"astId":2876,"contract":"contracts/LoanManager.sol:LoanManager","label":"rewardClaimed","offset":0,"slot":"2","type":"t_uint256"}],"numberOfBytes":"96"},"t_struct(Loan)2865_storage":{"encoding":"inplace","label":"struct LoanManager.Loan","members":[{"astId":2852,"contract":"contracts/LoanManager.sol:LoanManager","label":"token","offset":0,"slot":"0","type":"t_address"},{"astId":2854,"contract":"contracts/LoanManager.sol:LoanManager","label":"principal","offset":0,"slot":"1","type":"t_uint256"},{"astId":2856,"contract":"contracts/LoanManager.sol:LoanManager","label":"rate","offset":0,"slot":"2","type":"t_uint256"},{"astId":2858,"contract":"contracts/LoanManager.sol:LoanManager","label":"totalInterest","offset":0,"slot":"3","type":"t_uint256"},{"astId":2860,"contract":"contracts/LoanManager.sol:LoanManager","label":"createdAt","offset":0,"slot":"4","type":"t_uint256"},{"astId":2862,"contract":"contracts/LoanManager.sol:LoanManager","label":"duration","offset":0,"slot":"5","type":"t_uint256"},{"astId":2864,"contract":"contracts/LoanManager.sol:LoanManager","label":"active","offset":0,"slot":"6","type":"t_bool"}],"numberOfBytes":"224"},"t_struct(TreasuryStats)2884_storage":{"encoding":"inplace","label":"struct LoanManager.TreasuryStats","members":[{"astId":2879,"contract":"contracts/LoanManager.sol:LoanManager","label":"totalDeposits","offset":0,"slot":"0","type":"t_uint256"},{"astId":2881,"contract":"contracts/LoanManager.sol:LoanManager","label":"totalBorrows","offset":0,"slot":"1","type":"t_uint256"},{"astId":2883,"contract":"contracts/LoanManager.sol:LoanManager","label":"totalRepayments","offset":0,"slot":"2","type":"t_uint256"}],"numberOfBytes":"96"},"t_uint256":{"encoding":"inplace","label":"uint256","numberOfBytes":"32"}}},"userdoc":{"kind":"user","methods":{"calculateInterest(address)":{"notice":"Lãi phải trả tính từ createdAt"},"calculateLenderReward(address,address)":{"notice":"Lãi đang chờ của lender tính từ depositTime"},"depositToPool(address,uint256)":{"notice":"Người dùng gửi thanh khoản vào pool"},"getAvailableLiquidity(address)":{"notice":"Thanh khoản thực có thể chi trả (debug/UI)"},"getLoanToken(address)":{"notice":"NEW: trả về token đang vay (address(0) nếu chưa)"},"getOutstandingLoan(address)":{"notice":"Nợ hiện tại (gốc + lãi) theo đơn vị token gốc"},"getOutstandingLoanUSD(address)":{"notice":"NEW: Nợ quy USD (8 decimals) = (debtRaw * priceUSD8) / 10**decimals(token)"},"repay(address,uint256)":{"notice":"Người vay tự trả nợ"},"repayAll(address)":{"notice":"Trả toàn bộ nợ (gốc + lãi) trong 1 tx"},"repayFor(address,address,uint256)":{"notice":"Trả thay (liquidator / bot / bạn bè trả hộ)"},"requestLoan(address,uint256,uint256)":{"notice":"Vay từ pool (đơn token). Yêu cầu có thanh khoản thực tế."},"withdraw(address,uint256)":{"notice":"Rút gốc + lãi một phần (amount <= deposited) hoặc dùng MaxUint để rút all"},"withdrawAll(address)":{"notice":"Rút toàn bộ gốc + lãi (atomic convenience)"}},"version":1}}}}