{"contracts/ManualPriceOracle.sol":{"ManualPriceOracle":{"abi":[{"inputs":[{"internalType":"address","name":"_usdc","type":"address"},{"internalType":"address","name":"initialOwner","type":"address"}],"stateMutability":"nonpayable","type":"constructor"},{"inputs":[{"internalType":"address","name":"owner","type":"address"}],"name":"OwnableInvalidOwner","type":"error"},{"inputs":[{"internalType":"address","name":"account","type":"address"}],"name":"OwnableUnauthorizedAccount","type":"error"},{"anonymous":false,"inputs":[{"indexed":true,"internalType":"address","name":"previousOwner","type":"address"},{"indexed":true,"internalType":"address","name":"newOwner","type":"address"}],"name":"OwnershipTransferred","type":"event"},{"anonymous":false,"inputs":[{"indexed":true,"internalType":"address","name":"token","type":"address"},{"indexed":false,"internalType":"uint256","name":"price","type":"uint256"},{"indexed":false,"internalType":"uint256","name":"timestamp","type":"uint256"}],"name":"PriceUpdated","type":"event"},{"inputs":[],"name":"MAX_STALE_TIME","outputs":[{"internalType":"uint256","name":"","type":"uint256"}],"stateMutability":"view","type":"function"},{"inputs":[{"internalType":"address","name":"token","type":"address"}],"name":"getPrice","outputs":[{"internalType":"uint256","name":"","type":"uint256"}],"stateMutability":"view","type":"function"},{"inputs":[],"name":"owner","outputs":[{"internalType":"address","name":"","type":"address"}],"stateMutability":"view","type":"function"},{"inputs":[],"name":"renounceOwnership","outputs":[],"stateMutability":"nonpayable","type":"function"},{"inputs":[{"internalType":"address","name":"token","type":"address"},{"internalType":"uint256","name":"price","type":"uint256"}],"name":"setPrice","outputs":[],"stateMutability":"nonpayable","type":"function"},{"inputs":[{"internalType":"address[]","name":"tokens","type":"address[]"},{"internalType":"uint256[]","name":"priceList","type":"uint256[]"}],"name":"setPrices","outputs":[],"stateMutability":"nonpayable","type":"function"},{"inputs":[{"internalType":"address","name":"newOwner","type":"address"}],"name":"transferOwnership","outputs":[],"stateMutability":"nonpayable","type":"function"},{"inputs":[],"name":"usdc","outputs":[{"internalType":"address","name":"","type":"address"}],"stateMutability":"view","type":"function"}],"devdoc":{"details":"Stores USD prices (8 decimals) for supported tokens. USDC is hard-coded      to $1.00, other tokens must be updated by the owner (e.g., via off-chain bot).","errors":{"OwnableInvalidOwner(address)":[{"details":"The owner is not a valid owner account. (eg. `address(0)`)"}],"OwnableUnauthorizedAccount(address)":[{"details":"The caller account is not authorized to perform an operation."}]},"kind":"dev","methods":{"owner()":{"details":"Returns the address of the current owner."},"renounceOwnership()":{"details":"Leaves the contract without owner. It will not be possible to call `onlyOwner` functions. Can only be called by the current owner. NOTE: Renouncing ownership will leave the contract without an owner, thereby disabling any functionality that is only available to the owner."},"transferOwnership(address)":{"details":"Transfers ownership of the contract to a new account (`newOwner`). Can only be called by the current owner."}},"title":"ManualPriceOracle","version":1},"evm":{"bytecode":{"linkReferences":{},"object":"60a060405234801561000f575f80fd5b506040516109fd3803806109fd83398101604081905261002e91610139565b806001600160a01b03811661005d57604051631e4fbdf760e01b81525f60048201526024015b60405180910390fd5b610066816100cf565b506001600160a01b0382166100bd5760405162461bcd60e51b815260206004820152601f60248201527f4d616e75616c50726963654f7261636c653a20696e76616c69642055534443006044820152606401610054565b506001600160a01b031660805261016a565b5f80546001600160a01b038381166001600160a01b0319831681178455604051919092169283917f8be0079c531659141344cd1fd0a4f28419497f9722a3daafe3b4186f6b6457e09190a35050565b80516001600160a01b0381168114610134575f80fd5b919050565b5f806040838503121561014a575f80fd5b6101538361011e565b91506101616020840161011e565b90509250929050565b6080516108676101965f395f818160a2015281816101ae01528181610248015261045901526108675ff3fe608060405234801561000f575f80fd5b5060043610610084575f3560e01c80635022a52e116100585780635022a52e14610115578063715018a61461011e5780638da5cb5b14610126578063f2fde38b14610136575f80fd5b8062e4768b146100885780633e413bee1461009d57806341976e09146100e15780634352fa9f14610102575b5f80fd5b61009b61009636600461072a565b610149565b005b6100c47f000000000000000000000000000000000000000000000000000000000000000081565b6040516001600160a01b0390911681526020015b60405180910390f35b6100f46100ef366004610752565b610245565b6040519081526020016100d8565b61009b6101103660046107ba565b61036d565b6100f461025881565b61009b61055f565b5f546001600160a01b03166100c4565b61009b610144366004610752565b610572565b6101516105af565b6001600160a01b0382166101ac5760405162461bcd60e51b815260206004820181905260248201527f4d616e75616c50726963654f7261636c653a20696e76616c696420746f6b656e60448201526064015b60405180910390fd5b7f00000000000000000000000000000000000000000000000000000000000000006001600160a01b0316826001600160a01b0316036102375760405162461bcd60e51b815260206004820152602160248201527f4d616e75616c50726963654f7261636c653a205553444320696d6d757461626c6044820152606560f81b60648201526084016101a3565b61024182826105db565b5050565b5f7f00000000000000000000000000000000000000000000000000000000000000006001600160a01b0316826001600160a01b03160361028a57506305f5e100919050565b6001600160a01b0382165f9081526001602081815260409283902083518085019094528054808552920154908301526103055760405162461bcd60e51b815260206004820181905260248201527f4d616e75616c50726963654f7261636c653a207072696365206e6f742073657460448201526064016101a3565b6102588160200151426103189190610821565b11156103665760405162461bcd60e51b815260206004820152601e60248201527f4d616e75616c50726963654f7261636c653a207072696365207374616c65000060448201526064016101a3565b5192915050565b6103756105af565b8281146103cf5760405162461bcd60e51b815260206004820152602260248201527f4d616e75616c50726963654f7261636c653a206c656e677468206d69736d61746044820152610c6d60f31b60648201526084016101a3565b5f5b83811015610558575f8585838181106103ec576103ec610846565b90506020020160208101906104019190610752565b6001600160a01b0316036104575760405162461bcd60e51b815260206004820181905260248201527f4d616e75616c50726963654f7261636c653a20696e76616c696420746f6b656e60448201526064016101a3565b7f00000000000000000000000000000000000000000000000000000000000000006001600160a01b031685858381811061049357610493610846565b90506020020160208101906104a89190610752565b6001600160a01b0316036105085760405162461bcd60e51b815260206004820152602160248201527f4d616e75616c50726963654f7261636c653a205553444320696d6d757461626c6044820152606560f81b60648201526084016101a3565b61055085858381811061051d5761051d610846565b90506020020160208101906105329190610752565b84848481811061054457610544610846565b905060200201356105db565b6001016103d1565b5050505050565b6105676105af565b6105705f6106a8565b565b61057a6105af565b6001600160a01b0381166105a357604051631e4fbdf760e01b81525f60048201526024016101a3565b6105ac816106a8565b50565b5f546001600160a01b031633146105705760405163118cdaa760e01b81523360048201526024016101a3565b5f811161062a5760405162461bcd60e51b815260206004820181905260248201527f4d616e75616c50726963654f7261636c653a20696e76616c696420707269636560448201526064016101a3565b6040805180820182528281524260208083018281526001600160a01b0387165f8181526001938490528690209451855590519390910192909255915190917fb556fac599c3c70efb9ab1fa725ecace6c81cc48d1455f886607def065f3e0c09161069c91858252602082015260400190565b60405180910390a25050565b5f80546001600160a01b038381167fffffffffffffffffffffffff0000000000000000000000000000000000000000831681178455604051919092169283917f8be0079c531659141344cd1fd0a4f28419497f9722a3daafe3b4186f6b6457e09190a35050565b80356001600160a01b0381168114610725575f80fd5b919050565b5f806040838503121561073b575f80fd5b6107448361070f565b946020939093013593505050565b5f60208284031215610762575f80fd5b61076b8261070f565b9392505050565b5f8083601f840112610782575f80fd5b50813567ffffffffffffffff811115610799575f80fd5b6020830191508360208260051b85010111156107b3575f80fd5b9250929050565b5f805f80604085870312156107cd575f80fd5b843567ffffffffffffffff808211156107e4575f80fd5b6107f088838901610772565b90965094506020870135915080821115610808575f80fd5b5061081587828801610772565b95989497509550505050565b8181038181111561084057634e487b7160e01b5f52601160045260245ffd5b92915050565b634e487b7160e01b5f52603260045260245ffdfea164736f6c6343000818000a","opcodes":"PUSH1 0xA0 PUSH1 0x40 MSTORE CALLVALUE DUP1 ISZERO PUSH2 0xF JUMPI PUSH0 DUP1 REVERT JUMPDEST POP PUSH1 0x40 MLOAD PUSH2 0x9FD CODESIZE SUB DUP1 PUSH2 0x9FD DUP4 CODECOPY DUP2 ADD PUSH1 0x40 DUP2 SWAP1 MSTORE PUSH2 0x2E SWAP2 PUSH2 0x139 JUMP JUMPDEST DUP1 PUSH1 0x1 PUSH1 0x1 PUSH1 0xA0 SHL SUB DUP2 AND PUSH2 0x5D JUMPI PUSH1 0x40 MLOAD PUSH4 0x1E4FBDF7 PUSH1 0xE0 SHL DUP2 MSTORE PUSH0 PUSH1 0x4 DUP3 ADD MSTORE PUSH1 0x24 ADD JUMPDEST PUSH1 0x40 MLOAD DUP1 SWAP2 SUB SWAP1 REVERT JUMPDEST PUSH2 0x66 DUP2 PUSH2 0xCF JUMP JUMPDEST POP PUSH1 0x1 PUSH1 0x1 PUSH1 0xA0 SHL SUB DUP3 AND PUSH2 0xBD JUMPI PUSH1 0x40 MLOAD PUSH3 0x461BCD PUSH1 0xE5 SHL DUP2 MSTORE PUSH1 0x20 PUSH1 0x4 DUP3 ADD MSTORE PUSH1 0x1F PUSH1 0x24 DUP3 ADD MSTORE PUSH32 0x4D616E75616C50726963654F7261636C653A20696E76616C6964205553444300 PUSH1 0x44 DUP3 ADD MSTORE PUSH1 0x64 ADD PUSH2 0x54 JUMP JUMPDEST POP PUSH1 0x1 PUSH1 0x1 PUSH1 0xA0 SHL SUB AND PUSH1 0x80 MSTORE PUSH2 0x16A JUMP JUMPDEST PUSH0 DUP1 SLOAD PUSH1 0x1 PUSH1 0x1 PUSH1 0xA0 SHL SUB DUP4 DUP2 AND PUSH1 0x1 PUSH1 0x1 PUSH1 0xA0 SHL SUB NOT DUP4 AND DUP2 OR DUP5 SSTORE PUSH1 0x40 MLOAD SWAP2 SWAP1 SWAP3 AND SWAP3 DUP4 SWAP2 PUSH32 0x8BE0079C531659141344CD1FD0A4F28419497F9722A3DAAFE3B4186F6B6457E0 SWAP2 SWAP1 LOG3 POP POP JUMP JUMPDEST DUP1 MLOAD PUSH1 0x1 PUSH1 0x1 PUSH1 0xA0 SHL SUB DUP2 AND DUP2 EQ PUSH2 0x134 JUMPI PUSH0 DUP1 REVERT JUMPDEST SWAP2 SWAP1 POP JUMP JUMPDEST PUSH0 DUP1 PUSH1 0x40 DUP4 DUP6 SUB SLT ISZERO PUSH2 0x14A JUMPI PUSH0 DUP1 REVERT JUMPDEST PUSH2 0x153 DUP4 PUSH2 0x11E JUMP JUMPDEST SWAP2 POP PUSH2 0x161 PUSH1 0x20 DUP5 ADD PUSH2 0x11E JUMP JUMPDEST SWAP1 POP SWAP3 POP SWAP3 SWAP1 POP JUMP JUMPDEST PUSH1 0x80 MLOAD PUSH2 0x867 PUSH2 0x196 PUSH0 CODECOPY PUSH0 DUP2 DUP2 PUSH1 0xA2 ADD MSTORE DUP2 DUP2 PUSH2 0x1AE ADD MSTORE DUP2 DUP2 PUSH2 0x248 ADD MSTORE PUSH2 0x459 ADD MSTORE PUSH2 0x867 PUSH0 RETURN INVALID PUSH1 0x80 PUSH1 0x40 MSTORE CALLVALUE DUP1 ISZERO PUSH2 0xF JUMPI PUSH0 DUP1 REVERT JUMPDEST POP PUSH1 0x4 CALLDATASIZE LT PUSH2 0x84 JUMPI PUSH0 CALLDATALOAD PUSH1 0xE0 SHR DUP1 PUSH4 0x5022A52E GT PUSH2 0x58 JUMPI DUP1 PUSH4 0x5022A52E EQ PUSH2 0x115 JUMPI DUP1 PUSH4 0x715018A6 EQ PUSH2 0x11E JUMPI DUP1 PUSH4 0x8DA5CB5B EQ PUSH2 0x126 JUMPI DUP1 PUSH4 0xF2FDE38B EQ PUSH2 0x136 JUMPI PUSH0 DUP1 REVERT JUMPDEST DUP1 PUSH3 0xE4768B EQ PUSH2 0x88 JUMPI DUP1 PUSH4 0x3E413BEE EQ PUSH2 0x9D JUMPI DUP1 PUSH4 0x41976E09 EQ PUSH2 0xE1 JUMPI DUP1 PUSH4 0x4352FA9F EQ PUSH2 0x102 JUMPI JUMPDEST PUSH0 DUP1 REVERT JUMPDEST PUSH2 0x9B PUSH2 0x96 CALLDATASIZE PUSH1 0x4 PUSH2 0x72A JUMP JUMPDEST PUSH2 0x149 JUMP JUMPDEST STOP JUMPDEST PUSH2 0xC4 PUSH32 0x0 DUP2 JUMP JUMPDEST PUSH1 0x40 MLOAD PUSH1 0x1 PUSH1 0x1 PUSH1 0xA0 SHL SUB SWAP1 SWAP2 AND DUP2 MSTORE PUSH1 0x20 ADD JUMPDEST PUSH1 0x40 MLOAD DUP1 SWAP2 SUB SWAP1 RETURN JUMPDEST PUSH2 0xF4 PUSH2 0xEF CALLDATASIZE PUSH1 0x4 PUSH2 0x752 JUMP JUMPDEST PUSH2 0x245 JUMP JUMPDEST PUSH1 0x40 MLOAD SWAP1 DUP2 MSTORE PUSH1 0x20 ADD PUSH2 0xD8 JUMP JUMPDEST PUSH2 0x9B PUSH2 0x110 CALLDATASIZE PUSH1 0x4 PUSH2 0x7BA JUMP JUMPDEST PUSH2 0x36D JUMP JUMPDEST PUSH2 0xF4 PUSH2 0x258 DUP2 JUMP JUMPDEST PUSH2 0x9B PUSH2 0x55F JUMP JUMPDEST PUSH0 SLOAD PUSH1 0x1 PUSH1 0x1 PUSH1 0xA0 SHL SUB AND PUSH2 0xC4 JUMP JUMPDEST PUSH2 0x9B PUSH2 0x144 CALLDATASIZE PUSH1 0x4 PUSH2 0x752 JUMP JUMPDEST PUSH2 0x572 JUMP JUMPDEST PUSH2 0x151 PUSH2 0x5AF JUMP JUMPDEST PUSH1 0x1 PUSH1 0x1 PUSH1 0xA0 SHL SUB DUP3 AND PUSH2 0x1AC JUMPI PUSH1 0x40 MLOAD PUSH3 0x461BCD PUSH1 0xE5 SHL DUP2 MSTORE PUSH1 0x20 PUSH1 0x4 DUP3 ADD DUP2 SWAP1 MSTORE PUSH1 0x24 DUP3 ADD MSTORE PUSH32 0x4D616E75616C50726963654F7261636C653A20696E76616C696420746F6B656E PUSH1 0x44 DUP3 ADD MSTORE PUSH1 0x64 ADD JUMPDEST PUSH1 0x40 MLOAD DUP1 SWAP2 SUB SWAP1 REVERT JUMPDEST PUSH32 0x0 PUSH1 0x1 PUSH1 0x1 PUSH1 0xA0 SHL SUB AND DUP3 PUSH1 0x1 PUSH1 0x1 PUSH1 0xA0 SHL SUB AND SUB PUSH2 0x237 JUMPI PUSH1 0x40 MLOAD PUSH3 0x461BCD PUSH1 0xE5 SHL DUP2 MSTORE PUSH1 0x20 PUSH1 0x4 DUP3 ADD MSTORE PUSH1 0x21 PUSH1 0x24 DUP3 ADD MSTORE PUSH32 0x4D616E75616C50726963654F7261636C653A205553444320696D6D757461626C PUSH1 0x44 DUP3 ADD MSTORE PUSH1 0x65 PUSH1 0xF8 SHL PUSH1 0x64 DUP3 ADD MSTORE PUSH1 0x84 ADD PUSH2 0x1A3 JUMP JUMPDEST PUSH2 0x241 DUP3 DUP3 PUSH2 0x5DB JUMP JUMPDEST POP POP JUMP JUMPDEST PUSH0 PUSH32 0x0 PUSH1 0x1 PUSH1 0x1 PUSH1 0xA0 SHL SUB AND DUP3 PUSH1 0x1 PUSH1 0x1 PUSH1 0xA0 SHL SUB AND SUB PUSH2 0x28A JUMPI POP PUSH4 0x5F5E100 SWAP2 SWAP1 POP JUMP JUMPDEST PUSH1 0x1 PUSH1 0x1 PUSH1 0xA0 SHL SUB DUP3 AND PUSH0 SWAP1 DUP2 MSTORE PUSH1 0x1 PUSH1 0x20 DUP2 DUP2 MSTORE PUSH1 0x40 SWAP3 DUP4 SWAP1 KECCAK256 DUP4 MLOAD DUP1 DUP6 ADD SWAP1 SWAP5 MSTORE DUP1 SLOAD DUP1 DUP6 MSTORE SWAP3 ADD SLOAD SWAP1 DUP4 ADD MSTORE PUSH2 0x305 JUMPI PUSH1 0x40 MLOAD PUSH3 0x461BCD PUSH1 0xE5 SHL DUP2 MSTORE PUSH1 0x20 PUSH1 0x4 DUP3 ADD DUP2 SWAP1 MSTORE PUSH1 0x24 DUP3 ADD MSTORE PUSH32 0x4D616E75616C50726963654F7261636C653A207072696365206E6F7420736574 PUSH1 0x44 DUP3 ADD MSTORE PUSH1 0x64 ADD PUSH2 0x1A3 JUMP JUMPDEST PUSH2 0x258 DUP2 PUSH1 0x20 ADD MLOAD TIMESTAMP PUSH2 0x318 SWAP2 SWAP1 PUSH2 0x821 JUMP JUMPDEST GT ISZERO PUSH2 0x366 JUMPI PUSH1 0x40 MLOAD PUSH3 0x461BCD PUSH1 0xE5 SHL DUP2 MSTORE PUSH1 0x20 PUSH1 0x4 DUP3 ADD MSTORE PUSH1 0x1E PUSH1 0x24 DUP3 ADD MSTORE PUSH32 0x4D616E75616C50726963654F7261636C653A207072696365207374616C650000 PUSH1 0x44 DUP3 ADD MSTORE PUSH1 0x64 ADD PUSH2 0x1A3 JUMP JUMPDEST MLOAD SWAP3 SWAP2 POP POP JUMP JUMPDEST PUSH2 0x375 PUSH2 0x5AF JUMP JUMPDEST DUP3 DUP2 EQ PUSH2 0x3CF JUMPI PUSH1 0x40 MLOAD PUSH3 0x461BCD PUSH1 0xE5 SHL DUP2 MSTORE PUSH1 0x20 PUSH1 0x4 DUP3 ADD MSTORE PUSH1 0x22 PUSH1 0x24 DUP3 ADD MSTORE PUSH32 0x4D616E75616C50726963654F7261636C653A206C656E677468206D69736D6174 PUSH1 0x44 DUP3 ADD MSTORE PUSH2 0xC6D PUSH1 0xF3 SHL PUSH1 0x64 DUP3 ADD MSTORE PUSH1 0x84 ADD PUSH2 0x1A3 JUMP JUMPDEST PUSH0 JUMPDEST DUP4 DUP2 LT ISZERO PUSH2 0x558 JUMPI PUSH0 DUP6 DUP6 DUP4 DUP2 DUP2 LT PUSH2 0x3EC JUMPI PUSH2 0x3EC PUSH2 0x846 JUMP JUMPDEST SWAP1 POP PUSH1 0x20 MUL ADD PUSH1 0x20 DUP2 ADD SWAP1 PUSH2 0x401 SWAP2 SWAP1 PUSH2 0x752 JUMP JUMPDEST PUSH1 0x1 PUSH1 0x1 PUSH1 0xA0 SHL SUB AND SUB PUSH2 0x457 JUMPI PUSH1 0x40 MLOAD PUSH3 0x461BCD PUSH1 0xE5 SHL DUP2 MSTORE PUSH1 0x20 PUSH1 0x4 DUP3 ADD DUP2 SWAP1 MSTORE PUSH1 0x24 DUP3 ADD MSTORE PUSH32 0x4D616E75616C50726963654F7261636C653A20696E76616C696420746F6B656E PUSH1 0x44 DUP3 ADD MSTORE PUSH1 0x64 ADD PUSH2 0x1A3 JUMP JUMPDEST PUSH32 0x0 PUSH1 0x1 PUSH1 0x1 PUSH1 0xA0 SHL SUB AND DUP6 DUP6 DUP4 DUP2 DUP2 LT PUSH2 0x493 JUMPI PUSH2 0x493 PUSH2 0x846 JUMP JUMPDEST SWAP1 POP PUSH1 0x20 MUL ADD PUSH1 0x20 DUP2 ADD SWAP1 PUSH2 0x4A8 SWAP2 SWAP1 PUSH2 0x752 JUMP JUMPDEST PUSH1 0x1 PUSH1 0x1 PUSH1 0xA0 SHL SUB AND SUB PUSH2 0x508 JUMPI PUSH1 0x40 MLOAD PUSH3 0x461BCD PUSH1 0xE5 SHL DUP2 MSTORE PUSH1 0x20 PUSH1 0x4 DUP3 ADD MSTORE PUSH1 0x21 PUSH1 0x24 DUP3 ADD MSTORE PUSH32 0x4D616E75616C50726963654F7261636C653A205553444320696D6D757461626C PUSH1 0x44 DUP3 ADD MSTORE PUSH1 0x65 PUSH1 0xF8 SHL PUSH1 0x64 DUP3 ADD MSTORE PUSH1 0x84 ADD PUSH2 0x1A3 JUMP JUMPDEST PUSH2 0x550 DUP6 DUP6 DUP4 DUP2 DUP2 LT PUSH2 0x51D JUMPI PUSH2 0x51D PUSH2 0x846 JUMP JUMPDEST SWAP1 POP PUSH1 0x20 MUL ADD PUSH1 0x20 DUP2 ADD SWAP1 PUSH2 0x532 SWAP2 SWAP1 PUSH2 0x752 JUMP JUMPDEST DUP5 DUP5 DUP5 DUP2 DUP2 LT PUSH2 0x544 JUMPI PUSH2 0x544 PUSH2 0x846 JUMP JUMPDEST SWAP1 POP PUSH1 0x20 MUL ADD CALLDATALOAD PUSH2 0x5DB JUMP JUMPDEST PUSH1 0x1 ADD PUSH2 0x3D1 JUMP JUMPDEST POP POP POP POP POP JUMP JUMPDEST PUSH2 0x567 PUSH2 0x5AF JUMP JUMPDEST PUSH2 0x570 PUSH0 PUSH2 0x6A8 JUMP JUMPDEST JUMP JUMPDEST PUSH2 0x57A PUSH2 0x5AF JUMP JUMPDEST PUSH1 0x1 PUSH1 0x1 PUSH1 0xA0 SHL SUB DUP2 AND PUSH2 0x5A3 JUMPI PUSH1 0x40 MLOAD PUSH4 0x1E4FBDF7 PUSH1 0xE0 SHL DUP2 MSTORE PUSH0 PUSH1 0x4 DUP3 ADD MSTORE PUSH1 0x24 ADD PUSH2 0x1A3 JUMP JUMPDEST PUSH2 0x5AC DUP2 PUSH2 0x6A8 JUMP JUMPDEST POP JUMP JUMPDEST PUSH0 SLOAD PUSH1 0x1 PUSH1 0x1 PUSH1 0xA0 SHL SUB AND CALLER EQ PUSH2 0x570 JUMPI PUSH1 0x40 MLOAD PUSH4 0x118CDAA7 PUSH1 0xE0 SHL DUP2 MSTORE CALLER PUSH1 0x4 DUP3 ADD MSTORE PUSH1 0x24 ADD PUSH2 0x1A3 JUMP JUMPDEST PUSH0 DUP2 GT PUSH2 0x62A JUMPI PUSH1 0x40 MLOAD PUSH3 0x461BCD PUSH1 0xE5 SHL DUP2 MSTORE PUSH1 0x20 PUSH1 0x4 DUP3 ADD DUP2 SWAP1 MSTORE PUSH1 0x24 DUP3 ADD MSTORE PUSH32 0x4D616E75616C50726963654F7261636C653A20696E76616C6964207072696365 PUSH1 0x44 DUP3 ADD MSTORE PUSH1 0x64 ADD PUSH2 0x1A3 JUMP JUMPDEST PUSH1 0x40 DUP1 MLOAD DUP1 DUP3 ADD DUP3 MSTORE DUP3 DUP2 MSTORE TIMESTAMP PUSH1 0x20 DUP1 DUP4 ADD DUP3 DUP2 MSTORE PUSH1 0x1 PUSH1 0x1 PUSH1 0xA0 SHL SUB DUP8 AND PUSH0 DUP2 DUP2 MSTORE PUSH1 0x1 SWAP4 DUP5 SWAP1 MSTORE DUP7 SWAP1 KECCAK256 SWAP5 MLOAD DUP6 SSTORE SWAP1 MLOAD SWAP4 SWAP1 SWAP2 ADD SWAP3 SWAP1 SWAP3 SSTORE SWAP2 MLOAD SWAP1 SWAP2 PUSH32 0xB556FAC599C3C70EFB9AB1FA725ECACE6C81CC48D1455F886607DEF065F3E0C0 SWAP2 PUSH2 0x69C SWAP2 DUP6 DUP3 MSTORE PUSH1 0x20 DUP3 ADD MSTORE PUSH1 0x40 ADD SWAP1 JUMP JUMPDEST PUSH1 0x40 MLOAD DUP1 SWAP2 SUB SWAP1 LOG2 POP POP JUMP JUMPDEST PUSH0 DUP1 SLOAD PUSH1 0x1 PUSH1 0x1 PUSH1 0xA0 SHL SUB DUP4 DUP2 AND PUSH32 0xFFFFFFFFFFFFFFFFFFFFFFFF0000000000000000000000000000000000000000 DUP4 AND DUP2 OR DUP5 SSTORE PUSH1 0x40 MLOAD SWAP2 SWAP1 SWAP3 AND SWAP3 DUP4 SWAP2 PUSH32 0x8BE0079C531659141344CD1FD0A4F28419497F9722A3DAAFE3B4186F6B6457E0 SWAP2 SWAP1 LOG3 POP POP JUMP JUMPDEST DUP1 CALLDATALOAD PUSH1 0x1 PUSH1 0x1 PUSH1 0xA0 SHL SUB DUP2 AND DUP2 EQ PUSH2 0x725 JUMPI PUSH0 DUP1 REVERT JUMPDEST SWAP2 SWAP1 POP JUMP JUMPDEST PUSH0 DUP1 PUSH1 0x40 DUP4 DUP6 SUB SLT ISZERO PUSH2 0x73B JUMPI PUSH0 DUP1 REVERT JUMPDEST PUSH2 0x744 DUP4 PUSH2 0x70F JUMP JUMPDEST SWAP5 PUSH1 0x20 SWAP4 SWAP1 SWAP4 ADD CALLDATALOAD SWAP4 POP POP POP JUMP JUMPDEST PUSH0 PUSH1 0x20 DUP3 DUP5 SUB SLT ISZERO PUSH2 0x762 JUMPI PUSH0 DUP1 REVERT JUMPDEST PUSH2 0x76B DUP3 PUSH2 0x70F JUMP JUMPDEST SWAP4 SWAP3 POP POP POP JUMP JUMPDEST PUSH0 DUP1 DUP4 PUSH1 0x1F DUP5 ADD SLT PUSH2 0x782 JUMPI PUSH0 DUP1 REVERT JUMPDEST POP DUP2 CALLDATALOAD PUSH8 0xFFFFFFFFFFFFFFFF DUP2 GT ISZERO PUSH2 0x799 JUMPI PUSH0 DUP1 REVERT JUMPDEST PUSH1 0x20 DUP4 ADD SWAP2 POP DUP4 PUSH1 0x20 DUP3 PUSH1 0x5 SHL DUP6 ADD ADD GT ISZERO PUSH2 0x7B3 JUMPI PUSH0 DUP1 REVERT JUMPDEST SWAP3 POP SWAP3 SWAP1 POP JUMP JUMPDEST PUSH0 DUP1 PUSH0 DUP1 PUSH1 0x40 DUP6 DUP8 SUB SLT ISZERO PUSH2 0x7CD JUMPI PUSH0 DUP1 REVERT JUMPDEST DUP5 CALLDATALOAD PUSH8 0xFFFFFFFFFFFFFFFF DUP1 DUP3 GT ISZERO PUSH2 0x7E4 JUMPI PUSH0 DUP1 REVERT JUMPDEST PUSH2 0x7F0 DUP9 DUP4 DUP10 ADD PUSH2 0x772 JUMP JUMPDEST SWAP1 SWAP7 POP SWAP5 POP PUSH1 0x20 DUP8 ADD CALLDATALOAD SWAP2 POP DUP1 DUP3 GT ISZERO PUSH2 0x808 JUMPI PUSH0 DUP1 REVERT JUMPDEST POP PUSH2 0x815 DUP8 DUP3 DUP9 ADD PUSH2 0x772 JUMP JUMPDEST SWAP6 SWAP9 SWAP5 SWAP8 POP SWAP6 POP POP POP POP JUMP JUMPDEST DUP2 DUP2 SUB DUP2 DUP2 GT ISZERO PUSH2 0x840 JUMPI PUSH4 0x4E487B71 PUSH1 0xE0 SHL PUSH0 MSTORE PUSH1 0x11 PUSH1 0x4 MSTORE PUSH1 0x24 PUSH0 REVERT JUMPDEST SWAP3 SWAP2 POP POP JUMP JUMPDEST PUSH4 0x4E487B71 PUSH1 0xE0 SHL PUSH0 MSTORE PUSH1 0x32 PUSH1 0x4 MSTORE PUSH1 0x24 PUSH0 REVERT INVALID LOG1 PUSH5 0x736F6C6343 STOP ADDMOD XOR STOP EXP "},"gasEstimates":{"creation":{"codeDepositCost":"430200","executionCost":"infinite","totalCost":"infinite"},"external":{"MAX_STALE_TIME()":"194","getPrice(address)":"infinite","owner()":"2362","renounceOwnership()":"infinite","setPrice(address,uint256)":"infinite","setPrices(address[],uint256[])":"infinite","transferOwnership(address)":"28380","usdc()":"infinite"},"internal":{"_setPrice(address,uint256)":"infinite"}},"methodIdentifiers":{"MAX_STALE_TIME()":"5022a52e","getPrice(address)":"41976e09","owner()":"8da5cb5b","renounceOwnership()":"715018a6","setPrice(address,uint256)":"00e4768b","setPrices(address[],uint256[])":"4352fa9f","transferOwnership(address)":"f2fde38b","usdc()":"3e413bee"}},"storageLayout":{"storage":[{"astId":8,"contract":"contracts/ManualPriceOracle.sol:ManualPriceOracle","label":"_owner","offset":0,"slot":"0","type":"t_address"},{"astId":4909,"contract":"contracts/ManualPriceOracle.sol:ManualPriceOracle","label":"prices","offset":0,"slot":"1","type":"t_mapping(t_address,t_struct(PriceData)4891_storage)"}],"types":{"t_address":{"encoding":"inplace","label":"address","numberOfBytes":"20"},"t_mapping(t_address,t_struct(PriceData)4891_storage)":{"encoding":"mapping","key":"t_address","label":"mapping(address => struct ManualPriceOracle.PriceData)","numberOfBytes":"32","value":"t_struct(PriceData)4891_storage"},"t_struct(PriceData)4891_storage":{"encoding":"inplace","label":"struct ManualPriceOracle.PriceData","members":[{"astId":4888,"contract":"contracts/ManualPriceOracle.sol:ManualPriceOracle","label":"price","offset":0,"slot":"0","type":"t_uint256"},{"astId":4890,"contract":"contracts/ManualPriceOracle.sol:ManualPriceOracle","label":"updatedAt","offset":0,"slot":"1","type":"t_uint256"}],"numberOfBytes":"64"},"t_uint256":{"encoding":"inplace","label":"uint256","numberOfBytes":"32"}}},"userdoc":{"kind":"user","methods":{},"version":1}}}}