{
  "_format": "hh-sol-artifact-1",
  "contractName": "CollateralManager",
  "sourceName": "contracts/CollateralManager.sol",
  "abi": [
    {
      "inputs": [
        {
          "internalType": "address",
          "name": "_oracle",
          "type": "address"
        },
        {
          "internalType": "address",
          "name": "_loanManager",
          "type": "address"
        },
        {
          "internalType": "address",
          "name": "initialOwner",
          "type": "address"
        }
      ],
      "stateMutability": "nonpayable",
      "type": "constructor"
    },
    {
      "inputs": [
        {
          "internalType": "address",
          "name": "owner",
          "type": "address"
        }
      ],
      "name": "OwnableInvalidOwner",
      "type": "error"
    },
    {
      "inputs": [
        {
          "internalType": "address",
          "name": "account",
          "type": "address"
        }
      ],
      "name": "OwnableUnauthorizedAccount",
      "type": "error"
    },
    {
      "inputs": [],
      "name": "ReentrancyGuardReentrantCall",
      "type": "error"
    },
    {
      "inputs": [
        {
          "internalType": "address",
          "name": "spender",
          "type": "address"
        },
        {
          "internalType": "uint256",
          "name": "currentAllowance",
          "type": "uint256"
        },
        {
          "internalType": "uint256",
          "name": "requestedDecrease",
          "type": "uint256"
        }
      ],
      "name": "SafeERC20FailedDecreaseAllowance",
      "type": "error"
    },
    {
      "inputs": [
        {
          "internalType": "address",
          "name": "token",
          "type": "address"
        }
      ],
      "name": "SafeERC20FailedOperation",
      "type": "error"
    },
    {
      "anonymous": false,
      "inputs": [
        {
          "indexed": true,
          "internalType": "address",
          "name": "user",
          "type": "address"
        },
        {
          "indexed": true,
          "internalType": "address",
          "name": "token",
          "type": "address"
        },
        {
          "indexed": false,
          "internalType": "uint256",
          "name": "amount",
          "type": "uint256"
        }
      ],
      "name": "CollateralDeposited",
      "type": "event"
    },
    {
      "anonymous": false,
      "inputs": [
        {
          "indexed": true,
          "internalType": "address",
          "name": "borrower",
          "type": "address"
        },
        {
          "indexed": true,
          "internalType": "address",
          "name": "token",
          "type": "address"
        },
        {
          "indexed": false,
          "internalType": "address",
          "name": "liquidator",
          "type": "address"
        },
        {
          "indexed": false,
          "internalType": "uint256",
          "name": "repayAmount",
          "type": "uint256"
        },
        {
          "indexed": false,
          "internalType": "uint256",
          "name": "collateralSeized",
          "type": "uint256"
        }
      ],
      "name": "CollateralLiquidated",
      "type": "event"
    },
    {
      "anonymous": false,
      "inputs": [
        {
          "indexed": true,
          "internalType": "address",
          "name": "user",
          "type": "address"
        },
        {
          "indexed": true,
          "internalType": "address",
          "name": "token",
          "type": "address"
        },
        {
          "indexed": false,
          "internalType": "uint256",
          "name": "amount",
          "type": "uint256"
        }
      ],
      "name": "CollateralWithdrawn",
      "type": "event"
    },
    {
      "anonymous": false,
      "inputs": [
        {
          "indexed": true,
          "internalType": "address",
          "name": "previousOwner",
          "type": "address"
        },
        {
          "indexed": true,
          "internalType": "address",
          "name": "newOwner",
          "type": "address"
        }
      ],
      "name": "OwnershipTransferred",
      "type": "event"
    },
    {
      "inputs": [
        {
          "internalType": "address",
          "name": "token",
          "type": "address"
        },
        {
          "internalType": "uint8",
          "name": "ltv",
          "type": "uint8"
        },
        {
          "internalType": "uint8",
          "name": "liquidationThreshold",
          "type": "uint8"
        }
      ],
      "name": "addAllowedToken",
      "outputs": [],
      "stateMutability": "nonpayable",
      "type": "function"
    },
    {
      "inputs": [
        {
          "internalType": "uint256",
          "name": "",
          "type": "uint256"
        }
      ],
      "name": "allowedTokens",
      "outputs": [
        {
          "internalType": "address",
          "name": "",
          "type": "address"
        }
      ],
      "stateMutability": "view",
      "type": "function"
    },
    {
      "inputs": [],
      "name": "allowedTokensLength",
      "outputs": [
        {
          "internalType": "uint256",
          "name": "",
          "type": "uint256"
        }
      ],
      "stateMutability": "view",
      "type": "function"
    },
    {
      "inputs": [],
      "name": "closeFactorBps",
      "outputs": [
        {
          "internalType": "uint16",
          "name": "",
          "type": "uint16"
        }
      ],
      "stateMutability": "view",
      "type": "function"
    },
    {
      "inputs": [
        {
          "internalType": "address",
          "name": "",
          "type": "address"
        },
        {
          "internalType": "address",
          "name": "",
          "type": "address"
        }
      ],
      "name": "collateralBalances",
      "outputs": [
        {
          "internalType": "uint256",
          "name": "",
          "type": "uint256"
        }
      ],
      "stateMutability": "view",
      "type": "function"
    },
    {
      "inputs": [
        {
          "internalType": "address",
          "name": "token",
          "type": "address"
        },
        {
          "internalType": "uint256",
          "name": "amount",
          "type": "uint256"
        }
      ],
      "name": "deposit",
      "outputs": [],
      "stateMutability": "nonpayable",
      "type": "function"
    },
    {
      "inputs": [
        {
          "internalType": "address",
          "name": "user",
          "type": "address"
        }
      ],
      "name": "getCollateralValueUSD",
      "outputs": [
        {
          "internalType": "uint256",
          "name": "totalValue",
          "type": "uint256"
        }
      ],
      "stateMutability": "view",
      "type": "function"
    },
    {
      "inputs": [
        {
          "internalType": "address",
          "name": "user",
          "type": "address"
        },
        {
          "internalType": "address",
          "name": "token",
          "type": "address"
        }
      ],
      "name": "getCollateralValueUSDByToken",
      "outputs": [
        {
          "internalType": "uint256",
          "name": "",
          "type": "uint256"
        }
      ],
      "stateMutability": "view",
      "type": "function"
    },
    {
      "inputs": [
        {
          "internalType": "address",
          "name": "user",
          "type": "address"
        }
      ],
      "name": "getHealthFactor",
      "outputs": [
        {
          "internalType": "uint256",
          "name": "",
          "type": "uint256"
        }
      ],
      "stateMutability": "view",
      "type": "function"
    },
    {
      "inputs": [
        {
          "internalType": "address",
          "name": "user",
          "type": "address"
        }
      ],
      "name": "getMaxLoanAllowedUSD",
      "outputs": [
        {
          "internalType": "uint256",
          "name": "totalUSD",
          "type": "uint256"
        }
      ],
      "stateMutability": "view",
      "type": "function"
    },
    {
      "inputs": [
        {
          "internalType": "address",
          "name": "user",
          "type": "address"
        }
      ],
      "name": "getUserCollateralData",
      "outputs": [
        {
          "internalType": "uint256",
          "name": "totalCollateralUSD",
          "type": "uint256"
        },
        {
          "internalType": "uint256",
          "name": "maxLoanUSD",
          "type": "uint256"
        },
        {
          "internalType": "uint256",
          "name": "debtUSD",
          "type": "uint256"
        },
        {
          "internalType": "uint256",
          "name": "healthFactor",
          "type": "uint256"
        }
      ],
      "stateMutability": "view",
      "type": "function"
    },
    {
      "inputs": [
        {
          "internalType": "address",
          "name": "borrower",
          "type": "address"
        },
        {
          "internalType": "address",
          "name": "repayToken",
          "type": "address"
        },
        {
          "internalType": "uint256",
          "name": "repayAmount",
          "type": "uint256"
        },
        {
          "internalType": "address",
          "name": "collateralToken",
          "type": "address"
        }
      ],
      "name": "liquidate",
      "outputs": [],
      "stateMutability": "nonpayable",
      "type": "function"
    },
    {
      "inputs": [],
      "name": "liquidationBonusBps",
      "outputs": [
        {
          "internalType": "uint16",
          "name": "",
          "type": "uint16"
        }
      ],
      "stateMutability": "view",
      "type": "function"
    },
    {
      "inputs": [],
      "name": "loanManager",
      "outputs": [
        {
          "internalType": "contract ILoanManager",
          "name": "",
          "type": "address"
        }
      ],
      "stateMutability": "view",
      "type": "function"
    },
    {
      "inputs": [],
      "name": "owner",
      "outputs": [
        {
          "internalType": "address",
          "name": "",
          "type": "address"
        }
      ],
      "stateMutability": "view",
      "type": "function"
    },
    {
      "inputs": [],
      "name": "priceOracle",
      "outputs": [
        {
          "internalType": "contract IPriceOracle",
          "name": "",
          "type": "address"
        }
      ],
      "stateMutability": "view",
      "type": "function"
    },
    {
      "inputs": [],
      "name": "renounceOwnership",
      "outputs": [],
      "stateMutability": "nonpayable",
      "type": "function"
    },
    {
      "inputs": [
        {
          "internalType": "uint16",
          "name": "newCloseFactorBps",
          "type": "uint16"
        },
        {
          "internalType": "uint16",
          "name": "newBonusBps",
          "type": "uint16"
        }
      ],
      "name": "setLiquidationParams",
      "outputs": [],
      "stateMutability": "nonpayable",
      "type": "function"
    },
    {
      "inputs": [
        {
          "internalType": "address",
          "name": "_loanManager",
          "type": "address"
        }
      ],
      "name": "setLoanManager",
      "outputs": [],
      "stateMutability": "nonpayable",
      "type": "function"
    },
    {
      "inputs": [
        {
          "internalType": "address",
          "name": "_oracle",
          "type": "address"
        }
      ],
      "name": "setPriceOracle",
      "outputs": [],
      "stateMutability": "nonpayable",
      "type": "function"
    },
    {
      "inputs": [
        {
          "internalType": "address",
          "name": "",
          "type": "address"
        }
      ],
      "name": "tokenConfig",
      "outputs": [
        {
          "internalType": "bool",
          "name": "allowed",
          "type": "bool"
        },
        {
          "internalType": "uint8",
          "name": "ltv",
          "type": "uint8"
        },
        {
          "internalType": "uint8",
          "name": "liquidationThreshold",
          "type": "uint8"
        }
      ],
      "stateMutability": "view",
      "type": "function"
    },
    {
      "inputs": [
        {
          "internalType": "address",
          "name": "newOwner",
          "type": "address"
        }
      ],
      "name": "transferOwnership",
      "outputs": [],
      "stateMutability": "nonpayable",
      "type": "function"
    },
    {
      "inputs": [
        {
          "internalType": "address",
          "name": "token",
          "type": "address"
        },
        {
          "internalType": "uint8",
          "name": "newLtv",
          "type": "uint8"
        },
        {
          "internalType": "uint8",
          "name": "newThreshold",
          "type": "uint8"
        }
      ],
      "name": "updateTokenLTV",
      "outputs": [],
      "stateMutability": "nonpayable",
      "type": "function"
    },
    {
      "inputs": [
        {
          "internalType": "address",
          "name": "token",
          "type": "address"
        },
        {
          "internalType": "uint256",
          "name": "amount",
          "type": "uint256"
        }
      ],
      "name": "withdraw",
      "outputs": [],
      "stateMutability": "nonpayable",
      "type": "function"
    },
    {
      "inputs": [],
      "name": "withdrawAllCollateral",
      "outputs": [],
      "stateMutability": "nonpayable",
      "type": "function"
    }
  ],
  "bytecode": "0x60806040526006805463ffffffff60a01b1916623e827160a31b17905534801562000028575f80fd5b506040516200261e3803806200261e8339810160408190526200004b9162000128565b806001600160a01b0381166200007a57604051631e4fbdf760e01b81525f600482015260240160405180910390fd5b6200008581620000bd565b505060018055600580546001600160a01b039384166001600160a01b031991821617909155600680549290931691161790556200016f565b5f80546001600160a01b038381166001600160a01b0319831681178455604051919092169283917f8be0079c531659141344cd1fd0a4f28419497f9722a3daafe3b4186f6b6457e09190a35050565b80516001600160a01b038116811462000123575f80fd5b919050565b5f805f606084860312156200013b575f80fd5b62000146846200010c565b925062000156602085016200010c565b915062000166604085016200010c565b90509250925092565b6124a1806200017d5f395ff3fe608060405234801561000f575f80fd5b506004361061019a575f3560e01c80635a4b5a7c116100e8578063b341c2be11610093578063f2fde38b1161006e578063f2fde38b14610384578063f3fef3a314610397578063fe136c4e146103aa578063fe6bcd7c14610400575f80fd5b8063b341c2be1461034b578063b3ccbcfe1461035e578063dc627c6f14610371575f80fd5b806373749567116100c357806373749567146103005780638da5cb5b14610308578063b01edbd714610318575f80fd5b80635a4b5a7c146102d25780635e5f2e26146102e5578063715018a6146102f8575f80fd5b80633de2f6b21161014857806347e7ef241161012357806347e7ef2414610299578063530e784f146102ac5780635772ae70146102bf575f80fd5b80633de2f6b2146102695780634565e5ef1461027c5780634654440b14610284575f80fd5b806339ecf9ba1161017857806339ecf9ba1461020b5780633a5d0a48146102435780633b4cc65614610256575f80fd5b806319970d8e1461019e5780631a9f21fb146101cb5780632630c12f146101e0575b5f80fd5b6006546101b390600160b01b900461ffff1681565b60405161ffff90911681526020015b60405180910390f35b6101de6101d9366004612175565b610413565b005b6005546101f3906001600160a01b031681565b6040516001600160a01b0390911681526020016101c2565b6102356102193660046121bb565b600260209081525f928352604080842090915290825290205481565b6040519081526020016101c2565b6102356102513660046121ec565b610523565b6102356102643660046121ec565b6106c7565b6101de61027736600461220c565b6108ad565b600454610235565b6006546101b390600160a01b900461ffff1681565b6101de6102a7366004612256565b610bc1565b6101de6102ba3660046121ec565b610cfe565b6101de6102cd3660046121ec565b610d7e565b6101de6102e036600461228f565b610dfe565b6101f36102f33660046122b7565b610f2b565b6101de610f53565b6101de610f66565b5f546001600160a01b03166101f3565b61032b6103263660046121ec565b6110b9565b6040805194855260208501939093529183015260608201526080016101c2565b6101de610359366004612175565b611153565b6006546101f3906001600160a01b031681565b61023561037f3660046121bb565b6112e2565b6101de6103923660046121ec565b611450565b6101de6103a5366004612256565b61148d565b6103df6103b83660046121ec565b60036020525f908152604090205460ff808216916101008104821691620100009091041683565b60408051931515845260ff92831660208501529116908201526060016101c2565b61023561040e3660046121ec565b61168b565b61041b611761565b6001600160a01b0383165f9081526003602052604090205460ff1661047b5760405162461bcd60e51b8152602060048201526011602482015270151bdad95b881b9bdd08185b1b1bddd959607a1b60448201526064015b60405180910390fd5b5f8260ff1611801561049257508160ff168160ff16115b6104de5760405162461bcd60e51b815260206004820152600b60248201527f496e76616c6964204c54560000000000000000000000000000000000000000006044820152606401610472565b6001600160a01b03929092165f908152600360205260409020805462ffff00191661010060ff9384160262ff0000191617620100009290931691909102919091179055565b5f805b6004548110156106c1575f60048281548110610544576105446122ce565b5f9182526020808320909101546001600160a01b0387811684526002835260408085209190921680855292529091205490915080156106b7576005546040516341976e0960e01b81526001600160a01b0384811660048301525f9216906341976e0990602401602060405180830381865afa1580156105c5573d5f803e3d5ffd5b505050506040513d601f19601f820116820180604052508101906105e991906122e2565b90505f81116106265760405162461bcd60e51b815260206004820152600960248201526842616420707269636560b81b6044820152606401610472565b5f836001600160a01b031663313ce5676040518163ffffffff1660e01b8152600401602060405180830381865afa158015610663573d5f803e3d5ffd5b505050506040513d601f19601f8201168201806040525081019061068791906122f9565b905061069481600a612408565b61069e8385612416565b6106a8919061242d565b6106b2908761244c565b955050505b5050600101610526565b50919050565b5f805b6004548110156106c1575f600482815481106106e8576106e86122ce565b5f9182526020808320909101546001600160a01b038781168452600283526040808520919092168085529252822054909250908190036107295750506108a5565b6005546040516341976e0960e01b81526001600160a01b0384811660048301525f9216906341976e0990602401602060405180830381865afa158015610771573d5f803e3d5ffd5b505050506040513d601f19601f8201168201806040525081019061079591906122e2565b90505f81116107d25760405162461bcd60e51b815260206004820152600960248201526842616420707269636560b81b6044820152606401610472565b5f836001600160a01b031663313ce5676040518163ffffffff1660e01b8152600401602060405180830381865afa15801561080f573d5f803e3d5ffd5b505050506040513d601f19601f8201168201806040525081019061083391906122f9565b6001600160a01b0385165f9081526003602052604081205491925061010090910460ff169061086383600a612408565b61086d8587612416565b610877919061242d565b9050606461088860ff841683612416565b610892919061242d565b61089c908961244c565b97505050505050505b6001016106ca565b6108b561178d565b6001600160a01b0381165f9081526003602052604090205460ff1661091c5760405162461bcd60e51b815260206004820152601660248201527f436f6c6c61746572616c206e6f7420616c6c6f776564000000000000000000006044820152606401610472565b5f821161096b5760405162461bcd60e51b815260206004820152600860248201527f416d6f756e743d300000000000000000000000000000000000000000000000006044820152606401610472565b5f6109758561168b565b9050670de0b6b3a764000081106109ce5760405162461bcd60e51b815260206004820152600f60248201527f4865616c746879206163636f756e7400000000000000000000000000000000006044820152606401610472565b600654604051631955c97760e01b81526001600160a01b0387811660048301525f921690631955c97790602401602060405180830381865afa158015610a16573d5f803e3d5ffd5b505050506040513d601f19601f82011682018060405250810190610a3a91906122e2565b90505f8111610a8b5760405162461bcd60e51b815260206004820152600760248201527f4e6f2064656274000000000000000000000000000000000000000000000000006044820152606401610472565b610aa06001600160a01b0386163330876117b7565b6006545f9061271090610abe90600160a01b900461ffff1684612416565b610ac8919061242d565b90505f610ad88888888886611833565b6001600160a01b03808a165f908152600260209081526040808320938a168352929052205490915080821115610b0c578091505b6001600160a01b03808a165f908152600260209081526040808320938a1683529290529081208054849290610b4290849061245f565b90915550610b5c90506001600160a01b0387163384611c32565b60408051338152602081018990529081018390526001600160a01b0380881691908b16907f9459a8332762f885ecd10e55595000d48ad3d31187a66259d38102deadc2d6299060600160405180910390a35050505050610bbb60018055565b50505050565b610bc961178d565b6001600160a01b0382165f9081526003602052604090205460ff16610c245760405162461bcd60e51b8152602060048201526011602482015270151bdad95b881b9bdd08185b1b1bddd959607a1b6044820152606401610472565b5f8111610c645760405162461bcd60e51b815260206004820152600e60248201526d125b9d985b1a5908185b5bdd5b9d60921b6044820152606401610472565b610c796001600160a01b0383163330846117b7565b335f9081526002602090815260408083206001600160a01b038616845290915281208054839290610cab90849061244c565b90915550506040518181526001600160a01b0383169033907ff1c0dd7e9b98bbff859029005ef89b127af049cd18df1a8d79f0b7e019911e56906020015b60405180910390a3610cfa60018055565b5050565b610d06611761565b6001600160a01b038116610d5c5760405162461bcd60e51b815260206004820152600e60248201527f496e76616c6964206f7261636c650000000000000000000000000000000000006044820152606401610472565b600580546001600160a01b0319166001600160a01b0392909216919091179055565b610d86611761565b6001600160a01b038116610ddc5760405162461bcd60e51b815260206004820152600f60248201527f496e76616c6964206164647265737300000000000000000000000000000000006044820152606401610472565b600680546001600160a01b0319166001600160a01b0392909216919091179055565b610e06611761565b5f8261ffff16118015610e1f57506127108261ffff1611155b610e6b5760405162461bcd60e51b815260206004820152601060248201527f42616420636c6f736520666163746f72000000000000000000000000000000006044820152606401610472565b6113888161ffff161115610ec15760405162461bcd60e51b815260206004820152600e60248201527f426f6e757320746f6f20686967680000000000000000000000000000000000006044820152606401610472565b600680547fffffffffffffffff00000000ffffffffffffffffffffffffffffffffffffffff16600160a01b61ffff948516027fffffffffffffffff0000ffffffffffffffffffffffffffffffffffffffffffff1617600160b01b9290931691909102919091179055565b60048181548110610f3a575f80fd5b5f918252602090912001546001600160a01b0316905081565b610f5b611761565b610f645f611c68565b565b610f6e61178d565b5f610f783361168b565b9050670de0b6b3a7640000811015610fd25760405162461bcd60e51b815260206004820152600d60248201527f5269736b20746f6f2068696768000000000000000000000000000000000000006044820152606401610472565b5f5b6004548110156110ae575f60048281548110610ff257610ff26122ce565b5f9182526020808320909101543383526002825260408084206001600160a01b039092168085529190925290822054909250908190036110335750506110a6565b335f8181526002602090815260408083206001600160a01b03871680855292528220919091556110639183611c32565b6040518181526001600160a01b0383169033907f45892a46e6cef329bb642da6d69846d324db43d19008edc141ed82382eda1bee9060200160405180910390a350505b600101610fd4565b5050610f6460018055565b5f805f806110c685610523565b93506110d1856106c7565b600654604051631955c97760e01b81526001600160a01b038881166004830152929550911690631955c97790602401602060405180830381865afa15801561111b573d5f803e3d5ffd5b505050506040513d601f19601f8201168201806040525081019061113f91906122e2565b915061114a8561168b565b90509193509193565b61115b611761565b6001600160a01b0383165f9081526003602052604090205460ff16156111c35760405162461bcd60e51b815260206004820152600f60248201527f416c726561647920616c6c6f77656400000000000000000000000000000000006044820152606401610472565b5f8260ff161180156111da57508160ff168160ff16115b6112265760405162461bcd60e51b815260206004820152600e60248201527f496e76616c696420636f6e6669670000000000000000000000000000000000006044820152606401610472565b60408051606081018252600180825260ff94851660208084019182529486168385019081526001600160a01b039097165f818152600390965293852092518354915197518716620100000262ff000019989097166101000261ff00199115159190911661ffff199092169190911717959095169390931790925560048054938401815590527f8a35acfbc15ff81a39ae7d344fd709f28e8600b4aa8c65c6b64bfe7fe36bd19b90910180546001600160a01b0319169091179055565b6001600160a01b038083165f908152600260209081526040808320938516835292905290812054808203611319575f91505061144a565b6005546040516341976e0960e01b81526001600160a01b0385811660048301525f9216906341976e0990602401602060405180830381865afa158015611361573d5f803e3d5ffd5b505050506040513d601f19601f8201168201806040525081019061138591906122e2565b90505f81116113c25760405162461bcd60e51b815260206004820152600960248201526842616420707269636560b81b6044820152606401610472565b5f846001600160a01b031663313ce5676040518163ffffffff1660e01b8152600401602060405180830381865afa1580156113ff573d5f803e3d5ffd5b505050506040513d601f19601f8201168201806040525081019061142391906122f9565b905061143081600a612408565b61143a8385612416565b611444919061242d565b93505050505b92915050565b611458611761565b6001600160a01b03811661148157604051631e4fbdf760e01b81525f6004820152602401610472565b61148a81611c68565b50565b61149561178d565b6001600160a01b0382165f9081526003602052604090205460ff166114f05760405162461bcd60e51b8152602060048201526011602482015270151bdad95b881b9bdd08185b1b1bddd959607a1b6044820152606401610472565b5f81116115305760405162461bcd60e51b815260206004820152600e60248201526d125b9d985b1a5908185b5bdd5b9d60921b6044820152606401610472565b335f9081526002602090815260408083206001600160a01b03861684529091529020548111156115a25760405162461bcd60e51b815260206004820152601460248201527f496e73756666696369656e742062616c616e63650000000000000000000000006044820152606401610472565b335f9081526002602090815260408083206001600160a01b0386168452909152812080548392906115d490849061245f565b90915550670de0b6b3a764000090506115ec3361168b565b101561163a5760405162461bcd60e51b815260206004820152601f60248201527f43616e6e6f74207769746864726177202d207269736b20746f6f2068696768006044820152606401610472565b61164e6001600160a01b0383163383611c32565b6040518181526001600160a01b0383169033907f45892a46e6cef329bb642da6d69846d324db43d19008edc141ed82382eda1bee90602001610ce9565b600654604051631955c97760e01b81526001600160a01b0383811660048301525f928392911690631955c97790602401602060405180830381865afa1580156116d6573d5f803e3d5ffd5b505050506040513d601f19601f820116820180604052508101906116fa91906122e2565b9050805f0361170c57505f1992915050565b5f61171684610523565b90505f61172285611cb7565b905061172f836064612416565b61173c60ff831684612416565b61174e90670de0b6b3a7640000612416565b611758919061242d565b95945050505050565b5f546001600160a01b03163314610f645760405163118cdaa760e01b8152336004820152602401610472565b6002600154036117b057604051633ee5aeb560e01b815260040160405180910390fd5b6002600155565b6040516001600160a01b038481166024830152838116604483015260648201839052610bbb9186918216906323b872dd906084015b604051602081830303815290604052915060e01b6020820180517bffffffffffffffffffffffffffffffffffffffffffffffffffffffff8381831617835250505050611ebb565b6005546040516341976e0960e01b81526001600160a01b0386811660048301525f9283929116906341976e0990602401602060405180830381865afa15801561187e573d5f803e3d5ffd5b505050506040513d601f19601f820116820180604052508101906118a291906122e2565b6005546040516341976e0960e01b81526001600160a01b0387811660048301529293505f92909116906341976e0990602401602060405180830381865afa1580156118ef573d5f803e3d5ffd5b505050506040513d601f19601f8201168201806040525081019061191391906122e2565b90505f8211801561192357505f81115b61195b5760405162461bcd60e51b815260206004820152600960248201526842616420707269636560b81b6044820152606401610472565b5f876001600160a01b031663313ce5676040518163ffffffff1660e01b8152600401602060405180830381865afa158015611998573d5f803e3d5ffd5b505050506040513d601f19601f820116820180604052508101906119bc91906122f9565b90505f866001600160a01b031663313ce5676040518163ffffffff1660e01b8152600401602060405180830381865afa1580156119fb573d5f803e3d5ffd5b505050506040513d601f19601f82011682018060405250810190611a1f91906122f9565b90505f611a2d83600a612408565b611a37868b612416565b611a41919061242d565b905086811115611a935760405162461bcd60e51b815260206004820152601560248201527f436c6f736520666163746f7220657863656564656400000000000000000000006044820152606401610472565b600654604051636eb1769f60e11b81523060048201526001600160a01b0391821660248201528b915f919083169063dd62ed3e90604401602060405180830381865afa158015611ae5573d5f803e3d5ffd5b505050506040513d601f19601f82011682018060405250810190611b0991906122e2565b90508015611b2b57600654611b2b906001600160a01b03848116911683611f27565b600654611b45906001600160a01b0384811691168d611fe1565b60065460405163976ce49560e01b81526001600160a01b038f811660048301528e81166024830152604482018e90529091169063976ce495906064015f604051808303815f87803b158015611b98575f80fd5b505af1158015611baa573d5f803e3d5ffd5b5050600654611bc892506001600160a01b038581169250168d611f27565b6006545f9061271090611be690600160b01b900461ffff1682612472565b611bf49061ffff1686612416565b611bfe919061242d565b905086611c0c86600a612408565b611c169083612416565b611c20919061242d565b9e9d5050505050505050505050505050565b6040516001600160a01b03838116602483015260448201839052611c6391859182169063a9059cbb906064016117ec565b505050565b5f80546001600160a01b038381166001600160a01b0319831681178455604051919092169283917f8be0079c531659141344cd1fd0a4f28419497f9722a3daafe3b4186f6b6457e09190a35050565b5f8080805b600454811015611e9b575f60048281548110611cda57611cda6122ce565b5f9182526020808320909101546001600160a01b03898116845260028352604080852091909216808552925282205490925090819003611d1b575050611e93565b6005546040516341976e0960e01b81526001600160a01b0384811660048301525f9216906341976e0990602401602060405180830381865afa158015611d63573d5f803e3d5ffd5b505050506040513d601f19601f82011682018060405250810190611d8791906122e2565b90505f8111611dc45760405162461bcd60e51b815260206004820152600960248201526842616420707269636560b81b6044820152606401610472565b5f836001600160a01b031663313ce5676040518163ffffffff1660e01b8152600401602060405180830381865afa158015611e01573d5f803e3d5ffd5b505050506040513d601f19601f82011682018060405250810190611e2591906122f9565b90505f611e3382600a612408565b611e3d8486612416565b611e47919061242d565b9050611e53818961244c565b6001600160a01b0386165f90815260036020526040902054909850611e819062010000900460ff1682612416565b611e8b908861244c565b965050505050505b600101611cbc565b508115611eb157611eac828261242d565b611eb3565b5f5b949350505050565b5f8060205f8451602086015f885af180611eda576040513d5f823e3d81fd5b50505f513d91508115611ef1578060011415611efe565b6001600160a01b0384163b155b15610bbb57604051635274afe760e01b81526001600160a01b0385166004820152602401610472565b604051636eb1769f60e11b81523060048201526001600160a01b0383811660248301525f919085169063dd62ed3e90604401602060405180830381865afa158015611f74573d5f803e3d5ffd5b505050506040513d601f19601f82011682018060405250810190611f9891906122e2565b905081811015611fd45760405163e570110f60e01b81526001600160a01b03841660048201526024810182905260448101839052606401610472565b610bbb8484848403612063565b604051636eb1769f60e11b81523060048201526001600160a01b0383811660248301525f919085169063dd62ed3e90604401602060405180830381865afa15801561202e573d5f803e3d5ffd5b505050506040513d601f19601f8201168201806040525081019061205291906122e2565b9050610bbb8484612063858561244c565b604080516001600160a01b038416602482015260448082018490528251808303909101815260649091019091526020810180517bffffffffffffffffffffffffffffffffffffffffffffffffffffffff1663095ea7b360e01b1790526120c98482612107565b610bbb576040516001600160a01b0384811660248301525f60448301526120fd91869182169063095ea7b3906064016117ec565b610bbb8482611ebb565b5f805f8060205f8651602088015f8a5af192503d91505f519050828015611444575081156121385780600114611444565b50505050506001600160a01b03163b151590565b80356001600160a01b0381168114612162575f80fd5b919050565b60ff8116811461148a575f80fd5b5f805f60608486031215612187575f80fd5b6121908461214c565b925060208401356121a081612167565b915060408401356121b081612167565b809150509250925092565b5f80604083850312156121cc575f80fd5b6121d58361214c565b91506121e36020840161214c565b90509250929050565b5f602082840312156121fc575f80fd5b6122058261214c565b9392505050565b5f805f806080858703121561221f575f80fd5b6122288561214c565b93506122366020860161214c565b92506040850135915061224b6060860161214c565b905092959194509250565b5f8060408385031215612267575f80fd5b6122708361214c565b946020939093013593505050565b803561ffff81168114612162575f80fd5b5f80604083850312156122a0575f80fd5b6122a98361227e565b91506121e36020840161227e565b5f602082840312156122c7575f80fd5b5035919050565b634e487b7160e01b5f52603260045260245ffd5b5f602082840312156122f2575f80fd5b5051919050565b5f60208284031215612309575f80fd5b815161220581612167565b634e487b7160e01b5f52601160045260245ffd5b600181815b8085111561236257815f190482111561234857612348612314565b8085161561235557918102915b93841c939080029061232d565b509250929050565b5f826123785750600161144a565b8161238457505f61144a565b816001811461239a57600281146123a4576123c0565b600191505061144a565b60ff8411156123b5576123b5612314565b50506001821b61144a565b5060208310610133831016604e8410600b84101617156123e3575081810a61144a565b6123ed8383612328565b805f190482111561240057612400612314565b029392505050565b5f61220560ff84168361236a565b808202811582820484141761144a5761144a612314565b5f8261244757634e487b7160e01b5f52601260045260245ffd5b500490565b8082018082111561144a5761144a612314565b8181038181111561144a5761144a612314565b61ffff81811683821601908082111561248d5761248d612314565b509291505056fea164736f6c6343000818000a",
  "linkReferences": {},
  "deployedLinkReferences": {}
}